{
	"contracts/EscrowAlpha.sol": {
		"EscrowContract": {
			"abi": [
				{
					"inputs": [],
					"stateMutability": "nonpayable",
					"type": "constructor"
				},
				{
					"inputs": [
						{
							"internalType": "address",
							"name": "owner",
							"type": "address"
						}
					],
					"name": "OwnableInvalidOwner",
					"type": "error"
				},
				{
					"inputs": [
						{
							"internalType": "address",
							"name": "account",
							"type": "address"
						}
					],
					"name": "OwnableUnauthorizedAccount",
					"type": "error"
				},
				{
					"anonymous": false,
					"inputs": [
						{
							"indexed": true,
							"internalType": "address",
							"name": "previousOwner",
							"type": "address"
						},
						{
							"indexed": true,
							"internalType": "address",
							"name": "newOwner",
							"type": "address"
						}
					],
					"name": "OwnershipTransferred",
					"type": "event"
				},
				{
					"inputs": [
						{
							"internalType": "uint256",
							"name": "dealId",
							"type": "uint256"
						}
					],
					"name": "completeDeal",
					"outputs": [],
					"stateMutability": "nonpayable",
					"type": "function"
				},
				{
					"inputs": [
						{
							"internalType": "uint256",
							"name": "id",
							"type": "uint256"
						},
						{
							"internalType": "address",
							"name": "implementer",
							"type": "address"
						},
						{
							"internalType": "contract IERC20",
							"name": "token",
							"type": "address"
						},
						{
							"internalType": "uint256",
							"name": "amount",
							"type": "uint256"
						}
					],
					"name": "createDeal",
					"outputs": [
						{
							"internalType": "uint256",
							"name": "",
							"type": "uint256"
						}
					],
					"stateMutability": "nonpayable",
					"type": "function"
				},
				{
					"inputs": [
						{
							"internalType": "uint256",
							"name": "",
							"type": "uint256"
						}
					],
					"name": "deals",
					"outputs": [
						{
							"internalType": "address",
							"name": "client",
							"type": "address"
						},
						{
							"internalType": "address",
							"name": "implementer",
							"type": "address"
						},
						{
							"internalType": "contract IERC20",
							"name": "token",
							"type": "address"
						},
						{
							"internalType": "uint256",
							"name": "amount",
							"type": "uint256"
						},
						{
							"internalType": "bool",
							"name": "dealCompleted",
							"type": "bool"
						},
						{
							"internalType": "bool",
							"name": "fundsDeposited",
							"type": "bool"
						}
					],
					"stateMutability": "view",
					"type": "function"
				},
				{
					"inputs": [
						{
							"internalType": "uint256",
							"name": "dealId",
							"type": "uint256"
						}
					],
					"name": "denyDeal",
					"outputs": [],
					"stateMutability": "nonpayable",
					"type": "function"
				},
				{
					"inputs": [
						{
							"internalType": "uint256",
							"name": "dealId",
							"type": "uint256"
						}
					],
					"name": "depositTokens",
					"outputs": [],
					"stateMutability": "nonpayable",
					"type": "function"
				},
				{
					"inputs": [
						{
							"internalType": "uint256",
							"name": "dealId",
							"type": "uint256"
						},
						{
							"internalType": "uint256",
							"name": "implementerPercentage",
							"type": "uint256"
						}
					],
					"name": "finalizeDeal",
					"outputs": [],
					"stateMutability": "nonpayable",
					"type": "function"
				},
				{
					"inputs": [],
					"name": "owner",
					"outputs": [
						{
							"internalType": "address",
							"name": "",
							"type": "address"
						}
					],
					"stateMutability": "view",
					"type": "function"
				},
				{
					"inputs": [],
					"name": "renounceOwnership",
					"outputs": [],
					"stateMutability": "nonpayable",
					"type": "function"
				},
				{
					"inputs": [
						{
							"internalType": "address",
							"name": "newOwner",
							"type": "address"
						}
					],
					"name": "transferOwnership",
					"outputs": [],
					"stateMutability": "nonpayable",
					"type": "function"
				}
			],
			"devdoc": {
				"errors": {
					"OwnableInvalidOwner(address)": [
						{
							"details": "The owner is not a valid owner account. (eg. `address(0)`)"
						}
					],
					"OwnableUnauthorizedAccount(address)": [
						{
							"details": "The caller account is not authorized to perform an operation."
						}
					]
				},
				"kind": "dev",
				"methods": {
					"owner()": {
						"details": "Returns the address of the current owner."
					},
					"renounceOwnership()": {
						"details": "Leaves the contract without owner. It will not be possible to call `onlyOwner` functions. Can only be called by the current owner. NOTE: Renouncing ownership will leave the contract without an owner, thereby disabling any functionality that is only available to the owner."
					},
					"transferOwnership(address)": {
						"details": "Transfers ownership of the contract to a new account (`newOwner`). Can only be called by the current owner."
					}
				},
				"version": 1
			},
			"evm": {
				"assembly": "    /* \"contracts/EscrowAlpha.sol\":175:2645  contract EscrowContract is Ownable {... */\n  mstore(0x40, 0x80)\n    /* \"contracts/EscrowAlpha.sol\":478:514  constructor() Ownable(msg.sender) {} */\n  callvalue\n  dup1\n  iszero\n  tag_1\n  jumpi\n  0x00\n  dup1\n  revert\ntag_1:\n  pop\n    /* \"contracts/EscrowAlpha.sol\":500:510  msg.sender */\n  caller\n    /* \"@openzeppelin/contracts/access/Ownable.sol\":1297:1298  0 */\n  0x00\n    /* \"@openzeppelin/contracts/access/Ownable.sol\":1273:1299  initialOwner == address(0) */\n  0xffffffffffffffffffffffffffffffffffffffff\n  and\n    /* \"@openzeppelin/contracts/access/Ownable.sol\":1273:1285  initialOwner */\n  dup2\n    /* \"@openzeppelin/contracts/access/Ownable.sol\":1273:1299  initialOwner == address(0) */\n  0xffffffffffffffffffffffffffffffffffffffff\n  and\n  sub\n    /* \"@openzeppelin/contracts/access/Ownable.sol\":1269:1364  if (initialOwner == address(0)) {... */\n  tag_5\n  jumpi\n    /* \"@openzeppelin/contracts/access/Ownable.sol\":1350:1351  0 */\n  0x00\n    /* \"@openzeppelin/contracts/access/Ownable.sol\":1322:1353  OwnableInvalidOwner(address(0)) */\n  mload(0x40)\n  0x1e4fbdf700000000000000000000000000000000000000000000000000000000\n  dup2\n  mstore\n  0x04\n  add\n  tag_6\n  swap2\n  swap1\n  tag_7\n  jump\t// in\ntag_6:\n  mload(0x40)\n  dup1\n  swap2\n  sub\n  swap1\n  revert\n    /* \"@openzeppelin/contracts/access/Ownable.sol\":1269:1364  if (initialOwner == address(0)) {... */\ntag_5:\n    /* \"@openzeppelin/contracts/access/Ownable.sol\":1373:1405  _transferOwnership(initialOwner) */\n  tag_8\n    /* \"@openzeppelin/contracts/access/Ownable.sol\":1392:1404  initialOwner */\n  dup2\n    /* \"@openzeppelin/contracts/access/Ownable.sol\":1373:1391  _transferOwnership */\n  shl(0x20, tag_9)\n    /* \"@openzeppelin/contracts/access/Ownable.sol\":1373:1405  _transferOwnership(initialOwner) */\n  0x20\n  shr\n  jump\t// in\ntag_8:\n    /* \"@openzeppelin/contracts/access/Ownable.sol\":1225:1412  constructor(address initialOwner) {... */\n  pop\n    /* \"contracts/EscrowAlpha.sol\":175:2645  contract EscrowContract is Ownable {... */\n  jump(tag_11)\n    /* \"@openzeppelin/contracts/access/Ownable.sol\":2912:3099  function _transferOwnership(address newOwner) internal virtual {... */\ntag_9:\n    /* \"@openzeppelin/contracts/access/Ownable.sol\":2985:3001  address oldOwner */\n  0x00\n    /* \"@openzeppelin/contracts/access/Ownable.sol\":3004:3010  _owner */\n  dup1\n  0x00\n  swap1\n  sload\n  swap1\n  0x0100\n  exp\n  swap1\n  div\n  0xffffffffffffffffffffffffffffffffffffffff\n  and\n    /* \"@openzeppelin/contracts/access/Ownable.sol\":2985:3010  address oldOwner = _owner */\n  swap1\n  pop\n    /* \"@openzeppelin/contracts/access/Ownable.sol\":3029:3037  newOwner */\n  dup2\n    /* \"@openzeppelin/contracts/access/Ownable.sol\":3020:3026  _owner */\n  0x00\n  dup1\n    /* \"@openzeppelin/contracts/access/Ownable.sol\":3020:3037  _owner = newOwner */\n  0x0100\n  exp\n  dup2\n  sload\n  dup2\n  0xffffffffffffffffffffffffffffffffffffffff\n  mul\n  not\n  and\n  swap1\n  dup4\n  0xffffffffffffffffffffffffffffffffffffffff\n  and\n  mul\n  or\n  swap1\n  sstore\n  pop\n    /* \"@openzeppelin/contracts/access/Ownable.sol\":3083:3091  newOwner */\n  dup2\n    /* \"@openzeppelin/contracts/access/Ownable.sol\":3052:3092  OwnershipTransferred(oldOwner, newOwner) */\n  0xffffffffffffffffffffffffffffffffffffffff\n  and\n    /* \"@openzeppelin/contracts/access/Ownable.sol\":3073:3081  oldOwner */\n  dup2\n    /* \"@openzeppelin/contracts/access/Ownable.sol\":3052:3092  OwnershipTransferred(oldOwner, newOwner) */\n  0xffffffffffffffffffffffffffffffffffffffff\n  and\n  0x8be0079c531659141344cd1fd0a4f28419497f9722a3daafe3b4186f6b6457e0\n  mload(0x40)\n  mload(0x40)\n  dup1\n  swap2\n  sub\n  swap1\n  log3\n    /* \"@openzeppelin/contracts/access/Ownable.sol\":2975:3099  {... */\n  pop\n    /* \"@openzeppelin/contracts/access/Ownable.sol\":2912:3099  function _transferOwnership(address newOwner) internal virtual {... */\n  pop\n  jump\t// out\n    /* \"#utility.yul\":7:133   */\ntag_13:\n    /* \"#utility.yul\":44:51   */\n  0x00\n    /* \"#utility.yul\":84:126   */\n  0xffffffffffffffffffffffffffffffffffffffff\n    /* \"#utility.yul\":77:82   */\n  dup3\n    /* \"#utility.yul\":73:127   */\n  and\n    /* \"#utility.yul\":62:127   */\n  swap1\n  pop\n    /* \"#utility.yul\":7:133   */\n  swap2\n  swap1\n  pop\n  jump\t// out\n    /* \"#utility.yul\":139:235   */\ntag_14:\n    /* \"#utility.yul\":176:183   */\n  0x00\n    /* \"#utility.yul\":205:229   */\n  tag_19\n    /* \"#utility.yul\":223:228   */\n  dup3\n    /* \"#utility.yul\":205:229   */\n  tag_13\n  jump\t// in\ntag_19:\n    /* \"#utility.yul\":194:229   */\n  swap1\n  pop\n    /* \"#utility.yul\":139:235   */\n  swap2\n  swap1\n  pop\n  jump\t// out\n    /* \"#utility.yul\":241:359   */\ntag_15:\n    /* \"#utility.yul\":328:352   */\n  tag_21\n    /* \"#utility.yul\":346:351   */\n  dup2\n    /* \"#utility.yul\":328:352   */\n  tag_14\n  jump\t// in\ntag_21:\n    /* \"#utility.yul\":323:326   */\n  dup3\n    /* \"#utility.yul\":316:353   */\n  mstore\n    /* \"#utility.yul\":241:359   */\n  pop\n  pop\n  jump\t// out\n    /* \"#utility.yul\":365:587   */\ntag_7:\n    /* \"#utility.yul\":458:462   */\n  0x00\n    /* \"#utility.yul\":496:498   */\n  0x20\n    /* \"#utility.yul\":485:494   */\n  dup3\n    /* \"#utility.yul\":481:499   */\n  add\n    /* \"#utility.yul\":473:499   */\n  swap1\n  pop\n    /* \"#utility.yul\":509:580   */\n  tag_23\n    /* \"#utility.yul\":577:578   */\n  0x00\n    /* \"#utility.yul\":566:575   */\n  dup4\n    /* \"#utility.yul\":562:579   */\n  add\n    /* \"#utility.yul\":553:559   */\n  dup5\n    /* \"#utility.yul\":509:580   */\n  tag_15\n  jump\t// in\ntag_23:\n    /* \"#utility.yul\":365:587   */\n  swap3\n  swap2\n  pop\n  pop\n  jump\t// out\n    /* \"contracts/EscrowAlpha.sol\":175:2645  contract EscrowContract is Ownable {... */\ntag_11:\n  dataSize(sub_0)\n  dup1\n  dataOffset(sub_0)\n  0x00\n  codecopy\n  0x00\n  return\nstop\n\nsub_0: assembly {\n        /* \"contracts/EscrowAlpha.sol\":175:2645  contract EscrowContract is Ownable {... */\n      mstore(0x40, 0x80)\n      callvalue\n      dup1\n      iszero\n      tag_1\n      jumpi\n      0x00\n      dup1\n      revert\n    tag_1:\n      pop\n      jumpi(tag_2, lt(calldatasize, 0x04))\n      shr(0xe0, calldataload(0x00))\n      dup1\n      0x715018a6\n      gt\n      tag_12\n      jumpi\n      dup1\n      0x715018a6\n      eq\n      tag_7\n      jumpi\n      dup1\n      0x8da5cb5b\n      eq\n      tag_8\n      jumpi\n      dup1\n      0xdd49756e\n      eq\n      tag_9\n      jumpi\n      dup1\n      0xdec3456b\n      eq\n      tag_10\n      jumpi\n      dup1\n      0xf2fde38b\n      eq\n      tag_11\n      jumpi\n      jump(tag_2)\n    tag_12:\n      dup1\n      0x03988f84\n      eq\n      tag_3\n      jumpi\n      dup1\n      0x2f01e767\n      eq\n      tag_4\n      jumpi\n      dup1\n      0x52591880\n      eq\n      tag_5\n      jumpi\n      dup1\n      0x61fb99a3\n      eq\n      tag_6\n      jumpi\n    tag_2:\n      0x00\n      dup1\n      revert\n        /* \"contracts/EscrowAlpha.sol\":432:469  mapping(uint256 => Deal) public deals */\n    tag_3:\n      tag_13\n      0x04\n      dup1\n      calldatasize\n      sub\n      dup2\n      add\n      swap1\n      tag_14\n      swap2\n      swap1\n      tag_15\n      jump\t// in\n    tag_14:\n      tag_16\n      jump\t// in\n    tag_13:\n      mload(0x40)\n      tag_17\n      swap7\n      swap6\n      swap5\n      swap4\n      swap3\n      swap2\n      swap1\n      tag_18\n      jump\t// in\n    tag_17:\n      mload(0x40)\n      dup1\n      swap2\n      sub\n      swap1\n      return\n        /* \"contracts/EscrowAlpha.sol\":1920:2640  function finalizeDeal(uint256 dealId, uint256 implementerPercentage) external onlyOwner {... */\n    tag_4:\n      tag_19\n      0x04\n      dup1\n      calldatasize\n      sub\n      dup2\n      add\n      swap1\n      tag_20\n      swap2\n      swap1\n      tag_21\n      jump\t// in\n    tag_20:\n      tag_22\n      jump\t// in\n    tag_19:\n      stop\n        /* \"contracts/EscrowAlpha.sol\":522:779  function createDeal(uint256 id, address implementer, IERC20 token, uint256 amount) external returns (uint256) {... */\n    tag_5:\n      tag_23\n      0x04\n      dup1\n      calldatasize\n      sub\n      dup2\n      add\n      swap1\n      tag_24\n      swap2\n      swap1\n      tag_25\n      jump\t// in\n    tag_24:\n      tag_26\n      jump\t// in\n    tag_23:\n      mload(0x40)\n      tag_27\n      swap2\n      swap1\n      tag_28\n      jump\t// in\n    tag_27:\n      mload(0x40)\n      dup1\n      swap2\n      sub\n      swap1\n      return\n        /* \"contracts/EscrowAlpha.sol\":1458:1912  function denyDeal(uint256 dealId) external onlyOwner {... */\n    tag_6:\n      tag_29\n      0x04\n      dup1\n      calldatasize\n      sub\n      dup2\n      add\n      swap1\n      tag_30\n      swap2\n      swap1\n      tag_15\n      jump\t// in\n    tag_30:\n      tag_31\n      jump\t// in\n    tag_29:\n      stop\n        /* \"@openzeppelin/contracts/access/Ownable.sol\":2293:2394  function renounceOwnership() public virtual onlyOwner {... */\n    tag_7:\n      tag_32\n      tag_33\n      jump\t// in\n    tag_32:\n      stop\n        /* \"@openzeppelin/contracts/access/Ownable.sol\":1638:1723  function owner() public view virtual returns (address) {... */\n    tag_8:\n      tag_34\n      tag_35\n      jump\t// in\n    tag_34:\n      mload(0x40)\n      tag_36\n      swap2\n      swap1\n      tag_37\n      jump\t// in\n    tag_36:\n      mload(0x40)\n      dup1\n      swap2\n      sub\n      swap1\n      return\n        /* \"contracts/EscrowAlpha.sol\":787:1129  function depositTokens(uint256 dealId) external {... */\n    tag_9:\n      tag_38\n      0x04\n      dup1\n      calldatasize\n      sub\n      dup2\n      add\n      swap1\n      tag_39\n      swap2\n      swap1\n      tag_15\n      jump\t// in\n    tag_39:\n      tag_40\n      jump\t// in\n    tag_38:\n      stop\n        /* \"contracts/EscrowAlpha.sol\":1137:1446  function completeDeal(uint256 dealId) external onlyOwner {... */\n    tag_10:\n      tag_41\n      0x04\n      dup1\n      calldatasize\n      sub\n      dup2\n      add\n      swap1\n      tag_42\n      swap2\n      swap1\n      tag_15\n      jump\t// in\n    tag_42:\n      tag_43\n      jump\t// in\n    tag_41:\n      stop\n        /* \"@openzeppelin/contracts/access/Ownable.sol\":2543:2758  function transferOwnership(address newOwner) public virtual onlyOwner {... */\n    tag_11:\n      tag_44\n      0x04\n      dup1\n      calldatasize\n      sub\n      dup2\n      add\n      swap1\n      tag_45\n      swap2\n      swap1\n      tag_46\n      jump\t// in\n    tag_45:\n      tag_47\n      jump\t// in\n    tag_44:\n      stop\n        /* \"contracts/EscrowAlpha.sol\":432:469  mapping(uint256 => Deal) public deals */\n    tag_16:\n      mstore(0x20, 0x01)\n      dup1\n      0x00\n      mstore\n      keccak256(0x00, 0x40)\n      0x00\n      swap2\n      pop\n      swap1\n      pop\n      dup1\n      0x00\n      add\n      0x00\n      swap1\n      sload\n      swap1\n      0x0100\n      exp\n      swap1\n      div\n      0xffffffffffffffffffffffffffffffffffffffff\n      and\n      swap1\n      dup1\n      0x01\n      add\n      0x00\n      swap1\n      sload\n      swap1\n      0x0100\n      exp\n      swap1\n      div\n      0xffffffffffffffffffffffffffffffffffffffff\n      and\n      swap1\n      dup1\n      0x02\n      add\n      0x00\n      swap1\n      sload\n      swap1\n      0x0100\n      exp\n      swap1\n      div\n      0xffffffffffffffffffffffffffffffffffffffff\n      and\n      swap1\n      dup1\n      0x03\n      add\n      sload\n      swap1\n      dup1\n      0x04\n      add\n      0x00\n      swap1\n      sload\n      swap1\n      0x0100\n      exp\n      swap1\n      div\n      0xff\n      and\n      swap1\n      dup1\n      0x04\n      add\n      0x01\n      swap1\n      sload\n      swap1\n      0x0100\n      exp\n      swap1\n      div\n      0xff\n      and\n      swap1\n      pop\n      dup7\n      jump\t// out\n        /* \"contracts/EscrowAlpha.sol\":1920:2640  function finalizeDeal(uint256 dealId, uint256 implementerPercentage) external onlyOwner {... */\n    tag_22:\n        /* \"@openzeppelin/contracts/access/Ownable.sol\":1531:1544  _checkOwner() */\n      tag_49\n        /* \"@openzeppelin/contracts/access/Ownable.sol\":1531:1542  _checkOwner */\n      tag_50\n        /* \"@openzeppelin/contracts/access/Ownable.sol\":1531:1544  _checkOwner() */\n      jump\t// in\n    tag_49:\n        /* \"contracts/EscrowAlpha.sol\":2019:2036  Deal storage deal */\n      0x00\n        /* \"contracts/EscrowAlpha.sol\":2039:2044  deals */\n      0x01\n        /* \"contracts/EscrowAlpha.sol\":2039:2052  deals[dealId] */\n      0x00\n        /* \"contracts/EscrowAlpha.sol\":2045:2051  dealId */\n      dup5\n        /* \"contracts/EscrowAlpha.sol\":2039:2052  deals[dealId] */\n      dup2\n      mstore\n      0x20\n      add\n      swap1\n      dup2\n      mstore\n      0x20\n      add\n      0x00\n      keccak256\n        /* \"contracts/EscrowAlpha.sol\":2019:2052  Deal storage deal = deals[dealId] */\n      swap1\n      pop\n        /* \"contracts/EscrowAlpha.sol\":2071:2075  deal */\n      dup1\n        /* \"contracts/EscrowAlpha.sol\":2071:2090  deal.fundsDeposited */\n      0x04\n      add\n      0x01\n      swap1\n      sload\n      swap1\n      0x0100\n      exp\n      swap1\n      div\n      0xff\n      and\n        /* \"contracts/EscrowAlpha.sol\":2063:2127  require(deal.fundsDeposited, \"No funds deposited for this deal\") */\n      tag_52\n      jumpi\n      mload(0x40)\n      0x08c379a000000000000000000000000000000000000000000000000000000000\n      dup2\n      mstore\n      0x04\n      add\n      tag_53\n      swap1\n      tag_54\n      jump\t// in\n    tag_53:\n      mload(0x40)\n      dup1\n      swap2\n      sub\n      swap1\n      revert\n    tag_52:\n        /* \"contracts/EscrowAlpha.sol\":2147:2151  deal */\n      dup1\n        /* \"contracts/EscrowAlpha.sol\":2147:2165  deal.dealCompleted */\n      0x04\n      add\n      0x00\n      swap1\n      sload\n      swap1\n      0x0100\n      exp\n      swap1\n      div\n      0xff\n      and\n        /* \"contracts/EscrowAlpha.sol\":2146:2165  !deal.dealCompleted */\n      iszero\n        /* \"contracts/EscrowAlpha.sol\":2138:2195  require(!deal.dealCompleted, \"Deal is already completed\") */\n      tag_55\n      jumpi\n      mload(0x40)\n      0x08c379a000000000000000000000000000000000000000000000000000000000\n      dup2\n      mstore\n      0x04\n      add\n      tag_56\n      swap1\n      tag_57\n      jump\t// in\n    tag_56:\n      mload(0x40)\n      dup1\n      swap2\n      sub\n      swap1\n      revert\n    tag_55:\n        /* \"contracts/EscrowAlpha.sol\":2229:2233  true */\n      0x01\n        /* \"contracts/EscrowAlpha.sol\":2208:2212  deal */\n      dup2\n        /* \"contracts/EscrowAlpha.sol\":2208:2226  deal.dealCompleted */\n      0x04\n      add\n      0x00\n        /* \"contracts/EscrowAlpha.sol\":2208:2233  deal.dealCompleted = true */\n      0x0100\n      exp\n      dup2\n      sload\n      dup2\n      0xff\n      mul\n      not\n      and\n      swap1\n      dup4\n      iszero\n      iszero\n      mul\n      or\n      swap1\n      sstore\n      pop\n        /* \"contracts/EscrowAlpha.sol\":2245:2270  uint256 implementerAmount */\n      0x00\n        /* \"contracts/EscrowAlpha.sol\":2311:2314  100 */\n      0x64\n        /* \"contracts/EscrowAlpha.sol\":2287:2308  implementerPercentage */\n      dup4\n        /* \"contracts/EscrowAlpha.sol\":2273:2277  deal */\n      dup4\n        /* \"contracts/EscrowAlpha.sol\":2273:2284  deal.amount */\n      0x03\n      add\n      sload\n        /* \"contracts/EscrowAlpha.sol\":2273:2308  deal.amount * implementerPercentage */\n      tag_58\n      swap2\n      swap1\n      tag_59\n      jump\t// in\n    tag_58:\n        /* \"contracts/EscrowAlpha.sol\":2273:2314  deal.amount * implementerPercentage / 100 */\n      tag_60\n      swap2\n      swap1\n      tag_61\n      jump\t// in\n    tag_60:\n        /* \"contracts/EscrowAlpha.sol\":2245:2314  uint256 implementerAmount = deal.amount * implementerPercentage / 100 */\n      swap1\n      pop\n        /* \"contracts/EscrowAlpha.sol\":2325:2345  uint256 clientRefund */\n      0x00\n        /* \"contracts/EscrowAlpha.sol\":2362:2379  implementerAmount */\n      dup2\n        /* \"contracts/EscrowAlpha.sol\":2348:2352  deal */\n      dup4\n        /* \"contracts/EscrowAlpha.sol\":2348:2359  deal.amount */\n      0x03\n      add\n      sload\n        /* \"contracts/EscrowAlpha.sol\":2348:2379  deal.amount - implementerAmount */\n      tag_62\n      swap2\n      swap1\n      tag_63\n      jump\t// in\n    tag_62:\n        /* \"contracts/EscrowAlpha.sol\":2325:2379  uint256 clientRefund = deal.amount - implementerAmount */\n      swap1\n      pop\n        /* \"contracts/EscrowAlpha.sol\":2400:2404  deal */\n      dup3\n        /* \"contracts/EscrowAlpha.sol\":2400:2410  deal.token */\n      0x02\n      add\n      0x00\n      swap1\n      sload\n      swap1\n      0x0100\n      exp\n      swap1\n      div\n      0xffffffffffffffffffffffffffffffffffffffff\n      and\n        /* \"contracts/EscrowAlpha.sol\":2400:2419  deal.token.transfer */\n      0xffffffffffffffffffffffffffffffffffffffff\n      and\n      0xa9059cbb\n        /* \"contracts/EscrowAlpha.sol\":2420:2424  deal */\n      dup5\n        /* \"contracts/EscrowAlpha.sol\":2420:2436  deal.implementer */\n      0x01\n      add\n      0x00\n      swap1\n      sload\n      swap1\n      0x0100\n      exp\n      swap1\n      div\n      0xffffffffffffffffffffffffffffffffffffffff\n      and\n        /* \"contracts/EscrowAlpha.sol\":2438:2455  implementerAmount */\n      dup5\n        /* \"contracts/EscrowAlpha.sol\":2400:2456  deal.token.transfer(deal.implementer, implementerAmount) */\n      mload(0x40)\n      dup4\n      0xffffffff\n      and\n      0xe0\n      shl\n      dup2\n      mstore\n      0x04\n      add\n      tag_64\n      swap3\n      swap2\n      swap1\n      tag_65\n      jump\t// in\n    tag_64:\n      0x20\n      mload(0x40)\n      dup1\n      dup4\n      sub\n      dup2\n      0x00\n      dup8\n      gas\n      call\n      iszero\n      dup1\n      iszero\n      tag_67\n      jumpi\n      returndatasize\n      0x00\n      dup1\n      returndatacopy\n      revert(0x00, returndatasize)\n    tag_67:\n      pop\n      pop\n      pop\n      pop\n      mload(0x40)\n      returndatasize\n      not(0x1f)\n      0x1f\n      dup3\n      add\n      and\n      dup3\n      add\n      dup1\n      0x40\n      mstore\n      pop\n      dup2\n      add\n      swap1\n      tag_68\n      swap2\n      swap1\n      tag_69\n      jump\t// in\n    tag_68:\n        /* \"contracts/EscrowAlpha.sol\":2392:2491  require(deal.token.transfer(deal.implementer, implementerAmount), \"Transfer to implementer failed\") */\n      tag_70\n      jumpi\n      mload(0x40)\n      0x08c379a000000000000000000000000000000000000000000000000000000000\n      dup2\n      mstore\n      0x04\n      add\n      tag_71\n      swap1\n      tag_72\n      jump\t// in\n    tag_71:\n      mload(0x40)\n      dup1\n      swap2\n      sub\n      swap1\n      revert\n    tag_70:\n        /* \"contracts/EscrowAlpha.sol\":2521:2522  0 */\n      0x00\n        /* \"contracts/EscrowAlpha.sol\":2506:2518  clientRefund */\n      dup2\n        /* \"contracts/EscrowAlpha.sol\":2506:2522  clientRefund > 0 */\n      gt\n        /* \"contracts/EscrowAlpha.sol\":2502:2633  if (clientRefund > 0) {... */\n      iszero\n      tag_73\n      jumpi\n        /* \"contracts/EscrowAlpha.sol\":2547:2551  deal */\n      dup3\n        /* \"contracts/EscrowAlpha.sol\":2547:2557  deal.token */\n      0x02\n      add\n      0x00\n      swap1\n      sload\n      swap1\n      0x0100\n      exp\n      swap1\n      div\n      0xffffffffffffffffffffffffffffffffffffffff\n      and\n        /* \"contracts/EscrowAlpha.sol\":2547:2566  deal.token.transfer */\n      0xffffffffffffffffffffffffffffffffffffffff\n      and\n      0xa9059cbb\n        /* \"contracts/EscrowAlpha.sol\":2567:2571  deal */\n      dup5\n        /* \"contracts/EscrowAlpha.sol\":2567:2578  deal.client */\n      0x00\n      add\n      0x00\n      swap1\n      sload\n      swap1\n      0x0100\n      exp\n      swap1\n      div\n      0xffffffffffffffffffffffffffffffffffffffff\n      and\n        /* \"contracts/EscrowAlpha.sol\":2580:2592  clientRefund */\n      dup4\n        /* \"contracts/EscrowAlpha.sol\":2547:2593  deal.token.transfer(deal.client, clientRefund) */\n      mload(0x40)\n      dup4\n      0xffffffff\n      and\n      0xe0\n      shl\n      dup2\n      mstore\n      0x04\n      add\n      tag_74\n      swap3\n      swap2\n      swap1\n      tag_65\n      jump\t// in\n    tag_74:\n      0x20\n      mload(0x40)\n      dup1\n      dup4\n      sub\n      dup2\n      0x00\n      dup8\n      gas\n      call\n      iszero\n      dup1\n      iszero\n      tag_76\n      jumpi\n      returndatasize\n      0x00\n      dup1\n      returndatacopy\n      revert(0x00, returndatasize)\n    tag_76:\n      pop\n      pop\n      pop\n      pop\n      mload(0x40)\n      returndatasize\n      not(0x1f)\n      0x1f\n      dup3\n      add\n      and\n      dup3\n      add\n      dup1\n      0x40\n      mstore\n      pop\n      dup2\n      add\n      swap1\n      tag_77\n      swap2\n      swap1\n      tag_69\n      jump\t// in\n    tag_77:\n        /* \"contracts/EscrowAlpha.sol\":2539:2621  require(deal.token.transfer(deal.client, clientRefund), \"Refund to client failed\") */\n      tag_78\n      jumpi\n      mload(0x40)\n      0x08c379a000000000000000000000000000000000000000000000000000000000\n      dup2\n      mstore\n      0x04\n      add\n      tag_79\n      swap1\n      tag_80\n      jump\t// in\n    tag_79:\n      mload(0x40)\n      dup1\n      swap2\n      sub\n      swap1\n      revert\n    tag_78:\n        /* \"contracts/EscrowAlpha.sol\":2502:2633  if (clientRefund > 0) {... */\n    tag_73:\n        /* \"contracts/EscrowAlpha.sol\":2008:2640  {... */\n      pop\n      pop\n      pop\n        /* \"contracts/EscrowAlpha.sol\":1920:2640  function finalizeDeal(uint256 dealId, uint256 implementerPercentage) external onlyOwner {... */\n      pop\n      pop\n      jump\t// out\n        /* \"contracts/EscrowAlpha.sol\":522:779  function createDeal(uint256 id, address implementer, IERC20 token, uint256 amount) external returns (uint256) {... */\n    tag_26:\n        /* \"contracts/EscrowAlpha.sol\":623:630  uint256 */\n      0x00\n        /* \"contracts/EscrowAlpha.sol\":643:657  uint256 dealId */\n      dup1\n        /* \"contracts/EscrowAlpha.sol\":660:662  id */\n      dup6\n        /* \"contracts/EscrowAlpha.sol\":643:662  uint256 dealId = id */\n      swap1\n      pop\n        /* \"contracts/EscrowAlpha.sol\":689:747  Deal(msg.sender, implementer, token, amount, false, false) */\n      mload(0x40)\n      dup1\n      0xc0\n      add\n      0x40\n      mstore\n      dup1\n        /* \"contracts/EscrowAlpha.sol\":694:704  msg.sender */\n      caller\n        /* \"contracts/EscrowAlpha.sol\":689:747  Deal(msg.sender, implementer, token, amount, false, false) */\n      0xffffffffffffffffffffffffffffffffffffffff\n      and\n      dup2\n      mstore\n      0x20\n      add\n        /* \"contracts/EscrowAlpha.sol\":706:717  implementer */\n      dup7\n        /* \"contracts/EscrowAlpha.sol\":689:747  Deal(msg.sender, implementer, token, amount, false, false) */\n      0xffffffffffffffffffffffffffffffffffffffff\n      and\n      dup2\n      mstore\n      0x20\n      add\n        /* \"contracts/EscrowAlpha.sol\":719:724  token */\n      dup6\n        /* \"contracts/EscrowAlpha.sol\":689:747  Deal(msg.sender, implementer, token, amount, false, false) */\n      0xffffffffffffffffffffffffffffffffffffffff\n      and\n      dup2\n      mstore\n      0x20\n      add\n        /* \"contracts/EscrowAlpha.sol\":726:732  amount */\n      dup5\n        /* \"contracts/EscrowAlpha.sol\":689:747  Deal(msg.sender, implementer, token, amount, false, false) */\n      dup2\n      mstore\n      0x20\n      add\n        /* \"contracts/EscrowAlpha.sol\":734:739  false */\n      0x00\n        /* \"contracts/EscrowAlpha.sol\":689:747  Deal(msg.sender, implementer, token, amount, false, false) */\n      iszero\n      iszero\n      dup2\n      mstore\n      0x20\n      add\n        /* \"contracts/EscrowAlpha.sol\":741:746  false */\n      0x00\n        /* \"contracts/EscrowAlpha.sol\":689:747  Deal(msg.sender, implementer, token, amount, false, false) */\n      iszero\n      iszero\n      dup2\n      mstore\n      pop\n        /* \"contracts/EscrowAlpha.sol\":673:678  deals */\n      0x01\n        /* \"contracts/EscrowAlpha.sol\":673:686  deals[dealId] */\n      0x00\n        /* \"contracts/EscrowAlpha.sol\":679:685  dealId */\n      dup4\n        /* \"contracts/EscrowAlpha.sol\":673:686  deals[dealId] */\n      dup2\n      mstore\n      0x20\n      add\n      swap1\n      dup2\n      mstore\n      0x20\n      add\n      0x00\n      keccak256\n        /* \"contracts/EscrowAlpha.sol\":673:747  deals[dealId] = Deal(msg.sender, implementer, token, amount, false, false) */\n      0x00\n      dup3\n      add\n      mload\n      dup2\n      0x00\n      add\n      exp(0x0100, 0x00)\n      dup2\n      sload\n      dup2\n      0xffffffffffffffffffffffffffffffffffffffff\n      mul\n      not\n      and\n      swap1\n      dup4\n      0xffffffffffffffffffffffffffffffffffffffff\n      and\n      mul\n      or\n      swap1\n      sstore\n      pop\n      0x20\n      dup3\n      add\n      mload\n      dup2\n      0x01\n      add\n      exp(0x0100, 0x00)\n      dup2\n      sload\n      dup2\n      0xffffffffffffffffffffffffffffffffffffffff\n      mul\n      not\n      and\n      swap1\n      dup4\n      0xffffffffffffffffffffffffffffffffffffffff\n      and\n      mul\n      or\n      swap1\n      sstore\n      pop\n      0x40\n      dup3\n      add\n      mload\n      dup2\n      0x02\n      add\n      exp(0x0100, 0x00)\n      dup2\n      sload\n      dup2\n      0xffffffffffffffffffffffffffffffffffffffff\n      mul\n      not\n      and\n      swap1\n      dup4\n      0xffffffffffffffffffffffffffffffffffffffff\n      and\n      mul\n      or\n      swap1\n      sstore\n      pop\n      0x60\n      dup3\n      add\n      mload\n      dup2\n      0x03\n      add\n      sstore\n      0x80\n      dup3\n      add\n      mload\n      dup2\n      0x04\n      add\n      exp(0x0100, 0x00)\n      dup2\n      sload\n      dup2\n      0xff\n      mul\n      not\n      and\n      swap1\n      dup4\n      iszero\n      iszero\n      mul\n      or\n      swap1\n      sstore\n      pop\n      0xa0\n      dup3\n      add\n      mload\n      dup2\n      0x04\n      add\n      exp(0x0100, 0x01)\n      dup2\n      sload\n      dup2\n      0xff\n      mul\n      not\n      and\n      swap1\n      dup4\n      iszero\n      iszero\n      mul\n      or\n      swap1\n      sstore\n      pop\n      swap1\n      pop\n      pop\n        /* \"contracts/EscrowAlpha.sol\":765:771  dealId */\n      dup1\n        /* \"contracts/EscrowAlpha.sol\":758:771  return dealId */\n      swap2\n      pop\n      pop\n        /* \"contracts/EscrowAlpha.sol\":522:779  function createDeal(uint256 id, address implementer, IERC20 token, uint256 amount) external returns (uint256) {... */\n      swap5\n      swap4\n      pop\n      pop\n      pop\n      pop\n      jump\t// out\n        /* \"contracts/EscrowAlpha.sol\":1458:1912  function denyDeal(uint256 dealId) external onlyOwner {... */\n    tag_31:\n        /* \"@openzeppelin/contracts/access/Ownable.sol\":1531:1544  _checkOwner() */\n      tag_83\n        /* \"@openzeppelin/contracts/access/Ownable.sol\":1531:1542  _checkOwner */\n      tag_50\n        /* \"@openzeppelin/contracts/access/Ownable.sol\":1531:1544  _checkOwner() */\n      jump\t// in\n    tag_83:\n        /* \"contracts/EscrowAlpha.sol\":1522:1539  Deal storage deal */\n      0x00\n        /* \"contracts/EscrowAlpha.sol\":1542:1547  deals */\n      0x01\n        /* \"contracts/EscrowAlpha.sol\":1542:1555  deals[dealId] */\n      0x00\n        /* \"contracts/EscrowAlpha.sol\":1548:1554  dealId */\n      dup4\n        /* \"contracts/EscrowAlpha.sol\":1542:1555  deals[dealId] */\n      dup2\n      mstore\n      0x20\n      add\n      swap1\n      dup2\n      mstore\n      0x20\n      add\n      0x00\n      keccak256\n        /* \"contracts/EscrowAlpha.sol\":1522:1555  Deal storage deal = deals[dealId] */\n      swap1\n      pop\n        /* \"contracts/EscrowAlpha.sol\":1574:1578  deal */\n      dup1\n        /* \"contracts/EscrowAlpha.sol\":1574:1593  deal.fundsDeposited */\n      0x04\n      add\n      0x01\n      swap1\n      sload\n      swap1\n      0x0100\n      exp\n      swap1\n      div\n      0xff\n      and\n        /* \"contracts/EscrowAlpha.sol\":1566:1630  require(deal.fundsDeposited, \"No funds deposited for this deal\") */\n      tag_85\n      jumpi\n      mload(0x40)\n      0x08c379a000000000000000000000000000000000000000000000000000000000\n      dup2\n      mstore\n      0x04\n      add\n      tag_86\n      swap1\n      tag_54\n      jump\t// in\n    tag_86:\n      mload(0x40)\n      dup1\n      swap2\n      sub\n      swap1\n      revert\n    tag_85:\n        /* \"contracts/EscrowAlpha.sol\":1650:1654  deal */\n      dup1\n        /* \"contracts/EscrowAlpha.sol\":1650:1668  deal.dealCompleted */\n      0x04\n      add\n      0x00\n      swap1\n      sload\n      swap1\n      0x0100\n      exp\n      swap1\n      div\n      0xff\n      and\n        /* \"contracts/EscrowAlpha.sol\":1649:1668  !deal.dealCompleted */\n      iszero\n        /* \"contracts/EscrowAlpha.sol\":1641:1698  require(!deal.dealCompleted, \"Deal is already completed\") */\n      tag_87\n      jumpi\n      mload(0x40)\n      0x08c379a000000000000000000000000000000000000000000000000000000000\n      dup2\n      mstore\n      0x04\n      add\n      tag_88\n      swap1\n      tag_57\n      jump\t// in\n    tag_88:\n      mload(0x40)\n      dup1\n      swap2\n      sub\n      swap1\n      revert\n    tag_87:\n        /* \"contracts/EscrowAlpha.sol\":1732:1736  true */\n      0x01\n        /* \"contracts/EscrowAlpha.sol\":1711:1715  deal */\n      dup2\n        /* \"contracts/EscrowAlpha.sol\":1711:1729  deal.dealCompleted */\n      0x04\n      add\n      0x00\n        /* \"contracts/EscrowAlpha.sol\":1711:1736  deal.dealCompleted = true */\n      0x0100\n      exp\n      dup2\n      sload\n      dup2\n      0xff\n      mul\n      not\n      and\n      swap1\n      dup4\n      iszero\n      iszero\n      mul\n      or\n      swap1\n      sstore\n      pop\n        /* \"contracts/EscrowAlpha.sol\":1747:1767  uint256 refundAmount */\n      0x00\n        /* \"contracts/EscrowAlpha.sol\":1770:1774  deal */\n      dup2\n        /* \"contracts/EscrowAlpha.sol\":1770:1781  deal.amount */\n      0x03\n      add\n      sload\n        /* \"contracts/EscrowAlpha.sol\":1747:1781  uint256 refundAmount = deal.amount */\n      swap1\n      pop\n        /* \"contracts/EscrowAlpha.sol\":1814:1819  false */\n      0x00\n        /* \"contracts/EscrowAlpha.sol\":1792:1796  deal */\n      dup3\n        /* \"contracts/EscrowAlpha.sol\":1792:1811  deal.fundsDeposited */\n      0x04\n      add\n      0x01\n        /* \"contracts/EscrowAlpha.sol\":1792:1819  deal.fundsDeposited = false */\n      0x0100\n      exp\n      dup2\n      sload\n      dup2\n      0xff\n      mul\n      not\n      and\n      swap1\n      dup4\n      iszero\n      iszero\n      mul\n      or\n      swap1\n      sstore\n      pop\n        /* \"contracts/EscrowAlpha.sol\":1840:1844  deal */\n      dup2\n        /* \"contracts/EscrowAlpha.sol\":1840:1850  deal.token */\n      0x02\n      add\n      0x00\n      swap1\n      sload\n      swap1\n      0x0100\n      exp\n      swap1\n      div\n      0xffffffffffffffffffffffffffffffffffffffff\n      and\n        /* \"contracts/EscrowAlpha.sol\":1840:1859  deal.token.transfer */\n      0xffffffffffffffffffffffffffffffffffffffff\n      and\n      0xa9059cbb\n        /* \"contracts/EscrowAlpha.sol\":1860:1864  deal */\n      dup4\n        /* \"contracts/EscrowAlpha.sol\":1860:1871  deal.client */\n      0x00\n      add\n      0x00\n      swap1\n      sload\n      swap1\n      0x0100\n      exp\n      swap1\n      div\n      0xffffffffffffffffffffffffffffffffffffffff\n      and\n        /* \"contracts/EscrowAlpha.sol\":1873:1885  refundAmount */\n      dup4\n        /* \"contracts/EscrowAlpha.sol\":1840:1886  deal.token.transfer(deal.client, refundAmount) */\n      mload(0x40)\n      dup4\n      0xffffffff\n      and\n      0xe0\n      shl\n      dup2\n      mstore\n      0x04\n      add\n      tag_89\n      swap3\n      swap2\n      swap1\n      tag_65\n      jump\t// in\n    tag_89:\n      0x20\n      mload(0x40)\n      dup1\n      dup4\n      sub\n      dup2\n      0x00\n      dup8\n      gas\n      call\n      iszero\n      dup1\n      iszero\n      tag_91\n      jumpi\n      returndatasize\n      0x00\n      dup1\n      returndatacopy\n      revert(0x00, returndatasize)\n    tag_91:\n      pop\n      pop\n      pop\n      pop\n      mload(0x40)\n      returndatasize\n      not(0x1f)\n      0x1f\n      dup3\n      add\n      and\n      dup3\n      add\n      dup1\n      0x40\n      mstore\n      pop\n      dup2\n      add\n      swap1\n      tag_92\n      swap2\n      swap1\n      tag_69\n      jump\t// in\n    tag_92:\n        /* \"contracts/EscrowAlpha.sol\":1832:1904  require(deal.token.transfer(deal.client, refundAmount), \"Refund failed\") */\n      tag_93\n      jumpi\n      mload(0x40)\n      0x08c379a000000000000000000000000000000000000000000000000000000000\n      dup2\n      mstore\n      0x04\n      add\n      tag_94\n      swap1\n      tag_95\n      jump\t// in\n    tag_94:\n      mload(0x40)\n      dup1\n      swap2\n      sub\n      swap1\n      revert\n    tag_93:\n        /* \"contracts/EscrowAlpha.sol\":1511:1912  {... */\n      pop\n      pop\n        /* \"contracts/EscrowAlpha.sol\":1458:1912  function denyDeal(uint256 dealId) external onlyOwner {... */\n      pop\n      jump\t// out\n        /* \"@openzeppelin/contracts/access/Ownable.sol\":2293:2394  function renounceOwnership() public virtual onlyOwner {... */\n    tag_33:\n        /* \"@openzeppelin/contracts/access/Ownable.sol\":1531:1544  _checkOwner() */\n      tag_97\n        /* \"@openzeppelin/contracts/access/Ownable.sol\":1531:1542  _checkOwner */\n      tag_50\n        /* \"@openzeppelin/contracts/access/Ownable.sol\":1531:1544  _checkOwner() */\n      jump\t// in\n    tag_97:\n        /* \"@openzeppelin/contracts/access/Ownable.sol\":2357:2387  _transferOwnership(address(0)) */\n      tag_99\n        /* \"@openzeppelin/contracts/access/Ownable.sol\":2384:2385  0 */\n      0x00\n        /* \"@openzeppelin/contracts/access/Ownable.sol\":2357:2375  _transferOwnership */\n      tag_100\n        /* \"@openzeppelin/contracts/access/Ownable.sol\":2357:2387  _transferOwnership(address(0)) */\n      jump\t// in\n    tag_99:\n        /* \"@openzeppelin/contracts/access/Ownable.sol\":2293:2394  function renounceOwnership() public virtual onlyOwner {... */\n      jump\t// out\n        /* \"@openzeppelin/contracts/access/Ownable.sol\":1638:1723  function owner() public view virtual returns (address) {... */\n    tag_35:\n        /* \"@openzeppelin/contracts/access/Ownable.sol\":1684:1691  address */\n      0x00\n        /* \"@openzeppelin/contracts/access/Ownable.sol\":1710:1716  _owner */\n      dup1\n      0x00\n      swap1\n      sload\n      swap1\n      0x0100\n      exp\n      swap1\n      div\n      0xffffffffffffffffffffffffffffffffffffffff\n      and\n        /* \"@openzeppelin/contracts/access/Ownable.sol\":1703:1716  return _owner */\n      swap1\n      pop\n        /* \"@openzeppelin/contracts/access/Ownable.sol\":1638:1723  function owner() public view virtual returns (address) {... */\n      swap1\n      jump\t// out\n        /* \"contracts/EscrowAlpha.sol\":787:1129  function depositTokens(uint256 dealId) external {... */\n    tag_40:\n        /* \"contracts/EscrowAlpha.sol\":846:863  Deal storage deal */\n      0x00\n        /* \"contracts/EscrowAlpha.sol\":866:871  deals */\n      0x01\n        /* \"contracts/EscrowAlpha.sol\":866:879  deals[dealId] */\n      0x00\n        /* \"contracts/EscrowAlpha.sol\":872:878  dealId */\n      dup4\n        /* \"contracts/EscrowAlpha.sol\":866:879  deals[dealId] */\n      dup2\n      mstore\n      0x20\n      add\n      swap1\n      dup2\n      mstore\n      0x20\n      add\n      0x00\n      keccak256\n        /* \"contracts/EscrowAlpha.sol\":846:879  Deal storage deal = deals[dealId] */\n      swap1\n      pop\n        /* \"contracts/EscrowAlpha.sol\":912:916  deal */\n      dup1\n        /* \"contracts/EscrowAlpha.sol\":912:923  deal.client */\n      0x00\n      add\n      0x00\n      swap1\n      sload\n      swap1\n      0x0100\n      exp\n      swap1\n      div\n      0xffffffffffffffffffffffffffffffffffffffff\n      and\n        /* \"contracts/EscrowAlpha.sol\":898:923  msg.sender == deal.client */\n      0xffffffffffffffffffffffffffffffffffffffff\n      and\n        /* \"contracts/EscrowAlpha.sol\":898:908  msg.sender */\n      caller\n        /* \"contracts/EscrowAlpha.sol\":898:923  msg.sender == deal.client */\n      0xffffffffffffffffffffffffffffffffffffffff\n      and\n      eq\n        /* \"contracts/EscrowAlpha.sol\":890:976  require(msg.sender == deal.client, \"Only the client can deposit tokens for the deal.\") */\n      tag_103\n      jumpi\n      mload(0x40)\n      0x08c379a000000000000000000000000000000000000000000000000000000000\n      dup2\n      mstore\n      0x04\n      add\n      tag_104\n      swap1\n      tag_105\n      jump\t// in\n    tag_104:\n      mload(0x40)\n      dup1\n      swap2\n      sub\n      swap1\n      revert\n    tag_103:\n        /* \"contracts/EscrowAlpha.sol\":995:999  deal */\n      dup1\n        /* \"contracts/EscrowAlpha.sol\":995:1005  deal.token */\n      0x02\n      add\n      0x00\n      swap1\n      sload\n      swap1\n      0x0100\n      exp\n      swap1\n      div\n      0xffffffffffffffffffffffffffffffffffffffff\n      and\n        /* \"contracts/EscrowAlpha.sol\":995:1018  deal.token.transferFrom */\n      0xffffffffffffffffffffffffffffffffffffffff\n      and\n      0x23b872dd\n        /* \"contracts/EscrowAlpha.sol\":1019:1029  msg.sender */\n      caller\n        /* \"contracts/EscrowAlpha.sol\":1039:1043  this */\n      address\n        /* \"contracts/EscrowAlpha.sol\":1046:1050  deal */\n      dup5\n        /* \"contracts/EscrowAlpha.sol\":1046:1057  deal.amount */\n      0x03\n      add\n      sload\n        /* \"contracts/EscrowAlpha.sol\":995:1058  deal.token.transferFrom(msg.sender, address(this), deal.amount) */\n      mload(0x40)\n      dup5\n      0xffffffff\n      and\n      0xe0\n      shl\n      dup2\n      mstore\n      0x04\n      add\n      tag_106\n      swap4\n      swap3\n      swap2\n      swap1\n      tag_107\n      jump\t// in\n    tag_106:\n      0x20\n      mload(0x40)\n      dup1\n      dup4\n      sub\n      dup2\n      0x00\n      dup8\n      gas\n      call\n      iszero\n      dup1\n      iszero\n      tag_109\n      jumpi\n      returndatasize\n      0x00\n      dup1\n      returndatacopy\n      revert(0x00, returndatasize)\n    tag_109:\n      pop\n      pop\n      pop\n      pop\n      mload(0x40)\n      returndatasize\n      not(0x1f)\n      0x1f\n      dup3\n      add\n      and\n      dup3\n      add\n      dup1\n      0x40\n      mstore\n      pop\n      dup2\n      add\n      swap1\n      tag_110\n      swap2\n      swap1\n      tag_69\n      jump\t// in\n    tag_110:\n        /* \"contracts/EscrowAlpha.sol\":987:1084  require(deal.token.transferFrom(msg.sender, address(this), deal.amount), \"Token transfer failed\") */\n      tag_111\n      jumpi\n      mload(0x40)\n      0x08c379a000000000000000000000000000000000000000000000000000000000\n      dup2\n      mstore\n      0x04\n      add\n      tag_112\n      swap1\n      tag_113\n      jump\t// in\n    tag_112:\n      mload(0x40)\n      dup1\n      swap2\n      sub\n      swap1\n      revert\n    tag_111:\n        /* \"contracts/EscrowAlpha.sol\":1117:1121  true */\n      0x01\n        /* \"contracts/EscrowAlpha.sol\":1095:1099  deal */\n      dup2\n        /* \"contracts/EscrowAlpha.sol\":1095:1114  deal.fundsDeposited */\n      0x04\n      add\n      0x01\n        /* \"contracts/EscrowAlpha.sol\":1095:1121  deal.fundsDeposited = true */\n      0x0100\n      exp\n      dup2\n      sload\n      dup2\n      0xff\n      mul\n      not\n      and\n      swap1\n      dup4\n      iszero\n      iszero\n      mul\n      or\n      swap1\n      sstore\n      pop\n        /* \"contracts/EscrowAlpha.sol\":835:1129  {... */\n      pop\n        /* \"contracts/EscrowAlpha.sol\":787:1129  function depositTokens(uint256 dealId) external {... */\n      pop\n      jump\t// out\n        /* \"contracts/EscrowAlpha.sol\":1137:1446  function completeDeal(uint256 dealId) external onlyOwner {... */\n    tag_43:\n        /* \"@openzeppelin/contracts/access/Ownable.sol\":1531:1544  _checkOwner() */\n      tag_115\n        /* \"@openzeppelin/contracts/access/Ownable.sol\":1531:1542  _checkOwner */\n      tag_50\n        /* \"@openzeppelin/contracts/access/Ownable.sol\":1531:1544  _checkOwner() */\n      jump\t// in\n    tag_115:\n        /* \"contracts/EscrowAlpha.sol\":1205:1222  Deal storage deal */\n      0x00\n        /* \"contracts/EscrowAlpha.sol\":1225:1230  deals */\n      0x01\n        /* \"contracts/EscrowAlpha.sol\":1225:1238  deals[dealId] */\n      0x00\n        /* \"contracts/EscrowAlpha.sol\":1231:1237  dealId */\n      dup4\n        /* \"contracts/EscrowAlpha.sol\":1225:1238  deals[dealId] */\n      dup2\n      mstore\n      0x20\n      add\n      swap1\n      dup2\n      mstore\n      0x20\n      add\n      0x00\n      keccak256\n        /* \"contracts/EscrowAlpha.sol\":1205:1238  Deal storage deal = deals[dealId] */\n      swap1\n      pop\n        /* \"contracts/EscrowAlpha.sol\":1258:1262  deal */\n      dup1\n        /* \"contracts/EscrowAlpha.sol\":1258:1276  deal.dealCompleted */\n      0x04\n      add\n      0x00\n      swap1\n      sload\n      swap1\n      0x0100\n      exp\n      swap1\n      div\n      0xff\n      and\n        /* \"contracts/EscrowAlpha.sol\":1257:1276  !deal.dealCompleted */\n      iszero\n        /* \"contracts/EscrowAlpha.sol\":1249:1307  require(!deal.dealCompleted, \"Deal is already completed.\") */\n      tag_117\n      jumpi\n      mload(0x40)\n      0x08c379a000000000000000000000000000000000000000000000000000000000\n      dup2\n      mstore\n      0x04\n      add\n      tag_118\n      swap1\n      tag_119\n      jump\t// in\n    tag_118:\n      mload(0x40)\n      dup1\n      swap2\n      sub\n      swap1\n      revert\n    tag_117:\n        /* \"contracts/EscrowAlpha.sol\":1326:1330  deal */\n      dup1\n        /* \"contracts/EscrowAlpha.sol\":1326:1336  deal.token */\n      0x02\n      add\n      0x00\n      swap1\n      sload\n      swap1\n      0x0100\n      exp\n      swap1\n      div\n      0xffffffffffffffffffffffffffffffffffffffff\n      and\n        /* \"contracts/EscrowAlpha.sol\":1326:1345  deal.token.transfer */\n      0xffffffffffffffffffffffffffffffffffffffff\n      and\n      0xa9059cbb\n        /* \"contracts/EscrowAlpha.sol\":1346:1350  deal */\n      dup3\n        /* \"contracts/EscrowAlpha.sol\":1346:1362  deal.implementer */\n      0x01\n      add\n      0x00\n      swap1\n      sload\n      swap1\n      0x0100\n      exp\n      swap1\n      div\n      0xffffffffffffffffffffffffffffffffffffffff\n      and\n        /* \"contracts/EscrowAlpha.sol\":1364:1368  deal */\n      dup4\n        /* \"contracts/EscrowAlpha.sol\":1364:1375  deal.amount */\n      0x03\n      add\n      sload\n        /* \"contracts/EscrowAlpha.sol\":1326:1376  deal.token.transfer(deal.implementer, deal.amount) */\n      mload(0x40)\n      dup4\n      0xffffffff\n      and\n      0xe0\n      shl\n      dup2\n      mstore\n      0x04\n      add\n      tag_120\n      swap3\n      swap2\n      swap1\n      tag_65\n      jump\t// in\n    tag_120:\n      0x20\n      mload(0x40)\n      dup1\n      dup4\n      sub\n      dup2\n      0x00\n      dup8\n      gas\n      call\n      iszero\n      dup1\n      iszero\n      tag_122\n      jumpi\n      returndatasize\n      0x00\n      dup1\n      returndatacopy\n      revert(0x00, returndatasize)\n    tag_122:\n      pop\n      pop\n      pop\n      pop\n      mload(0x40)\n      returndatasize\n      not(0x1f)\n      0x1f\n      dup3\n      add\n      and\n      dup3\n      add\n      dup1\n      0x40\n      mstore\n      pop\n      dup2\n      add\n      swap1\n      tag_123\n      swap2\n      swap1\n      tag_69\n      jump\t// in\n    tag_123:\n        /* \"contracts/EscrowAlpha.sol\":1318:1402  require(deal.token.transfer(deal.implementer, deal.amount), \"Token transfer failed\") */\n      tag_124\n      jumpi\n      mload(0x40)\n      0x08c379a000000000000000000000000000000000000000000000000000000000\n      dup2\n      mstore\n      0x04\n      add\n      tag_125\n      swap1\n      tag_113\n      jump\t// in\n    tag_125:\n      mload(0x40)\n      dup1\n      swap2\n      sub\n      swap1\n      revert\n    tag_124:\n        /* \"contracts/EscrowAlpha.sol\":1434:1438  true */\n      0x01\n        /* \"contracts/EscrowAlpha.sol\":1413:1417  deal */\n      dup2\n        /* \"contracts/EscrowAlpha.sol\":1413:1431  deal.dealCompleted */\n      0x04\n      add\n      0x00\n        /* \"contracts/EscrowAlpha.sol\":1413:1438  deal.dealCompleted = true */\n      0x0100\n      exp\n      dup2\n      sload\n      dup2\n      0xff\n      mul\n      not\n      and\n      swap1\n      dup4\n      iszero\n      iszero\n      mul\n      or\n      swap1\n      sstore\n      pop\n        /* \"contracts/EscrowAlpha.sol\":1194:1446  {... */\n      pop\n        /* \"contracts/EscrowAlpha.sol\":1137:1446  function completeDeal(uint256 dealId) external onlyOwner {... */\n      pop\n      jump\t// out\n        /* \"@openzeppelin/contracts/access/Ownable.sol\":2543:2758  function transferOwnership(address newOwner) public virtual onlyOwner {... */\n    tag_47:\n        /* \"@openzeppelin/contracts/access/Ownable.sol\":1531:1544  _checkOwner() */\n      tag_127\n        /* \"@openzeppelin/contracts/access/Ownable.sol\":1531:1542  _checkOwner */\n      tag_50\n        /* \"@openzeppelin/contracts/access/Ownable.sol\":1531:1544  _checkOwner() */\n      jump\t// in\n    tag_127:\n        /* \"@openzeppelin/contracts/access/Ownable.sol\":2647:2648  0 */\n      0x00\n        /* \"@openzeppelin/contracts/access/Ownable.sol\":2627:2649  newOwner == address(0) */\n      0xffffffffffffffffffffffffffffffffffffffff\n      and\n        /* \"@openzeppelin/contracts/access/Ownable.sol\":2627:2635  newOwner */\n      dup2\n        /* \"@openzeppelin/contracts/access/Ownable.sol\":2627:2649  newOwner == address(0) */\n      0xffffffffffffffffffffffffffffffffffffffff\n      and\n      sub\n        /* \"@openzeppelin/contracts/access/Ownable.sol\":2623:2714  if (newOwner == address(0)) {... */\n      tag_129\n      jumpi\n        /* \"@openzeppelin/contracts/access/Ownable.sol\":2700:2701  0 */\n      0x00\n        /* \"@openzeppelin/contracts/access/Ownable.sol\":2672:2703  OwnableInvalidOwner(address(0)) */\n      mload(0x40)\n      0x1e4fbdf700000000000000000000000000000000000000000000000000000000\n      dup2\n      mstore\n      0x04\n      add\n      tag_130\n      swap2\n      swap1\n      tag_37\n      jump\t// in\n    tag_130:\n      mload(0x40)\n      dup1\n      swap2\n      sub\n      swap1\n      revert\n        /* \"@openzeppelin/contracts/access/Ownable.sol\":2623:2714  if (newOwner == address(0)) {... */\n    tag_129:\n        /* \"@openzeppelin/contracts/access/Ownable.sol\":2723:2751  _transferOwnership(newOwner) */\n      tag_131\n        /* \"@openzeppelin/contracts/access/Ownable.sol\":2742:2750  newOwner */\n      dup2\n        /* \"@openzeppelin/contracts/access/Ownable.sol\":2723:2741  _transferOwnership */\n      tag_100\n        /* \"@openzeppelin/contracts/access/Ownable.sol\":2723:2751  _transferOwnership(newOwner) */\n      jump\t// in\n    tag_131:\n        /* \"@openzeppelin/contracts/access/Ownable.sol\":2543:2758  function transferOwnership(address newOwner) public virtual onlyOwner {... */\n      pop\n      jump\t// out\n        /* \"@openzeppelin/contracts/access/Ownable.sol\":1796:1958  function _checkOwner() internal view virtual {... */\n    tag_50:\n        /* \"@openzeppelin/contracts/access/Ownable.sol\":1866:1878  _msgSender() */\n      tag_133\n        /* \"@openzeppelin/contracts/access/Ownable.sol\":1866:1876  _msgSender */\n      tag_134\n        /* \"@openzeppelin/contracts/access/Ownable.sol\":1866:1878  _msgSender() */\n      jump\t// in\n    tag_133:\n        /* \"@openzeppelin/contracts/access/Ownable.sol\":1855:1878  owner() != _msgSender() */\n      0xffffffffffffffffffffffffffffffffffffffff\n      and\n        /* \"@openzeppelin/contracts/access/Ownable.sol\":1855:1862  owner() */\n      tag_135\n        /* \"@openzeppelin/contracts/access/Ownable.sol\":1855:1860  owner */\n      tag_35\n        /* \"@openzeppelin/contracts/access/Ownable.sol\":1855:1862  owner() */\n      jump\t// in\n    tag_135:\n        /* \"@openzeppelin/contracts/access/Ownable.sol\":1855:1878  owner() != _msgSender() */\n      0xffffffffffffffffffffffffffffffffffffffff\n      and\n      eq\n        /* \"@openzeppelin/contracts/access/Ownable.sol\":1851:1952  if (owner() != _msgSender()) {... */\n      tag_136\n      jumpi\n        /* \"@openzeppelin/contracts/access/Ownable.sol\":1928:1940  _msgSender() */\n      tag_137\n        /* \"@openzeppelin/contracts/access/Ownable.sol\":1928:1938  _msgSender */\n      tag_134\n        /* \"@openzeppelin/contracts/access/Ownable.sol\":1928:1940  _msgSender() */\n      jump\t// in\n    tag_137:\n        /* \"@openzeppelin/contracts/access/Ownable.sol\":1901:1941  OwnableUnauthorizedAccount(_msgSender()) */\n      mload(0x40)\n      0x118cdaa700000000000000000000000000000000000000000000000000000000\n      dup2\n      mstore\n      0x04\n      add\n      tag_138\n      swap2\n      swap1\n      tag_37\n      jump\t// in\n    tag_138:\n      mload(0x40)\n      dup1\n      swap2\n      sub\n      swap1\n      revert\n        /* \"@openzeppelin/contracts/access/Ownable.sol\":1851:1952  if (owner() != _msgSender()) {... */\n    tag_136:\n        /* \"@openzeppelin/contracts/access/Ownable.sol\":1796:1958  function _checkOwner() internal view virtual {... */\n      jump\t// out\n        /* \"@openzeppelin/contracts/access/Ownable.sol\":2912:3099  function _transferOwnership(address newOwner) internal virtual {... */\n    tag_100:\n        /* \"@openzeppelin/contracts/access/Ownable.sol\":2985:3001  address oldOwner */\n      0x00\n        /* \"@openzeppelin/contracts/access/Ownable.sol\":3004:3010  _owner */\n      dup1\n      0x00\n      swap1\n      sload\n      swap1\n      0x0100\n      exp\n      swap1\n      div\n      0xffffffffffffffffffffffffffffffffffffffff\n      and\n        /* \"@openzeppelin/contracts/access/Ownable.sol\":2985:3010  address oldOwner = _owner */\n      swap1\n      pop\n        /* \"@openzeppelin/contracts/access/Ownable.sol\":3029:3037  newOwner */\n      dup2\n        /* \"@openzeppelin/contracts/access/Ownable.sol\":3020:3026  _owner */\n      0x00\n      dup1\n        /* \"@openzeppelin/contracts/access/Ownable.sol\":3020:3037  _owner = newOwner */\n      0x0100\n      exp\n      dup2\n      sload\n      dup2\n      0xffffffffffffffffffffffffffffffffffffffff\n      mul\n      not\n      and\n      swap1\n      dup4\n      0xffffffffffffffffffffffffffffffffffffffff\n      and\n      mul\n      or\n      swap1\n      sstore\n      pop\n        /* \"@openzeppelin/contracts/access/Ownable.sol\":3083:3091  newOwner */\n      dup2\n        /* \"@openzeppelin/contracts/access/Ownable.sol\":3052:3092  OwnershipTransferred(oldOwner, newOwner) */\n      0xffffffffffffffffffffffffffffffffffffffff\n      and\n        /* \"@openzeppelin/contracts/access/Ownable.sol\":3073:3081  oldOwner */\n      dup2\n        /* \"@openzeppelin/contracts/access/Ownable.sol\":3052:3092  OwnershipTransferred(oldOwner, newOwner) */\n      0xffffffffffffffffffffffffffffffffffffffff\n      and\n      0x8be0079c531659141344cd1fd0a4f28419497f9722a3daafe3b4186f6b6457e0\n      mload(0x40)\n      mload(0x40)\n      dup1\n      swap2\n      sub\n      swap1\n      log3\n        /* \"@openzeppelin/contracts/access/Ownable.sol\":2975:3099  {... */\n      pop\n        /* \"@openzeppelin/contracts/access/Ownable.sol\":2912:3099  function _transferOwnership(address newOwner) internal virtual {... */\n      pop\n      jump\t// out\n        /* \"@openzeppelin/contracts/utils/Context.sol\":656:752  function _msgSender() internal view virtual returns (address) {... */\n    tag_134:\n        /* \"@openzeppelin/contracts/utils/Context.sol\":709:716  address */\n      0x00\n        /* \"@openzeppelin/contracts/utils/Context.sol\":735:745  msg.sender */\n      caller\n        /* \"@openzeppelin/contracts/utils/Context.sol\":728:745  return msg.sender */\n      swap1\n      pop\n        /* \"@openzeppelin/contracts/utils/Context.sol\":656:752  function _msgSender() internal view virtual returns (address) {... */\n      swap1\n      jump\t// out\n        /* \"#utility.yul\":88:205   */\n    tag_142:\n        /* \"#utility.yul\":197:198   */\n      0x00\n        /* \"#utility.yul\":194:195   */\n      dup1\n        /* \"#utility.yul\":187:199   */\n      revert\n        /* \"#utility.yul\":334:411   */\n    tag_144:\n        /* \"#utility.yul\":371:378   */\n      0x00\n        /* \"#utility.yul\":400:405   */\n      dup2\n        /* \"#utility.yul\":389:405   */\n      swap1\n      pop\n        /* \"#utility.yul\":334:411   */\n      swap2\n      swap1\n      pop\n      jump\t// out\n        /* \"#utility.yul\":417:539   */\n    tag_145:\n        /* \"#utility.yul\":490:514   */\n      tag_190\n        /* \"#utility.yul\":508:513   */\n      dup2\n        /* \"#utility.yul\":490:514   */\n      tag_144\n      jump\t// in\n    tag_190:\n        /* \"#utility.yul\":483:488   */\n      dup2\n        /* \"#utility.yul\":480:515   */\n      eq\n        /* \"#utility.yul\":470:533   */\n      tag_191\n      jumpi\n        /* \"#utility.yul\":529:530   */\n      0x00\n        /* \"#utility.yul\":526:527   */\n      dup1\n        /* \"#utility.yul\":519:531   */\n      revert\n        /* \"#utility.yul\":470:533   */\n    tag_191:\n        /* \"#utility.yul\":417:539   */\n      pop\n      jump\t// out\n        /* \"#utility.yul\":545:684   */\n    tag_146:\n        /* \"#utility.yul\":591:596   */\n      0x00\n        /* \"#utility.yul\":629:635   */\n      dup2\n        /* \"#utility.yul\":616:636   */\n      calldataload\n        /* \"#utility.yul\":607:636   */\n      swap1\n      pop\n        /* \"#utility.yul\":645:678   */\n      tag_193\n        /* \"#utility.yul\":672:677   */\n      dup2\n        /* \"#utility.yul\":645:678   */\n      tag_145\n      jump\t// in\n    tag_193:\n        /* \"#utility.yul\":545:684   */\n      swap3\n      swap2\n      pop\n      pop\n      jump\t// out\n        /* \"#utility.yul\":690:1019   */\n    tag_15:\n        /* \"#utility.yul\":749:755   */\n      0x00\n        /* \"#utility.yul\":798:800   */\n      0x20\n        /* \"#utility.yul\":786:795   */\n      dup3\n        /* \"#utility.yul\":777:784   */\n      dup5\n        /* \"#utility.yul\":773:796   */\n      sub\n        /* \"#utility.yul\":769:801   */\n      slt\n        /* \"#utility.yul\":766:885   */\n      iszero\n      tag_195\n      jumpi\n        /* \"#utility.yul\":804:883   */\n      tag_196\n      tag_142\n      jump\t// in\n    tag_196:\n        /* \"#utility.yul\":766:885   */\n    tag_195:\n        /* \"#utility.yul\":924:925   */\n      0x00\n        /* \"#utility.yul\":949:1002   */\n      tag_197\n        /* \"#utility.yul\":994:1001   */\n      dup5\n        /* \"#utility.yul\":985:991   */\n      dup3\n        /* \"#utility.yul\":974:983   */\n      dup6\n        /* \"#utility.yul\":970:992   */\n      add\n        /* \"#utility.yul\":949:1002   */\n      tag_146\n      jump\t// in\n    tag_197:\n        /* \"#utility.yul\":939:1002   */\n      swap2\n      pop\n        /* \"#utility.yul\":895:1012   */\n      pop\n        /* \"#utility.yul\":690:1019   */\n      swap3\n      swap2\n      pop\n      pop\n      jump\t// out\n        /* \"#utility.yul\":1025:1151   */\n    tag_147:\n        /* \"#utility.yul\":1062:1069   */\n      0x00\n        /* \"#utility.yul\":1102:1144   */\n      0xffffffffffffffffffffffffffffffffffffffff\n        /* \"#utility.yul\":1095:1100   */\n      dup3\n        /* \"#utility.yul\":1091:1145   */\n      and\n        /* \"#utility.yul\":1080:1145   */\n      swap1\n      pop\n        /* \"#utility.yul\":1025:1151   */\n      swap2\n      swap1\n      pop\n      jump\t// out\n        /* \"#utility.yul\":1157:1253   */\n    tag_148:\n        /* \"#utility.yul\":1194:1201   */\n      0x00\n        /* \"#utility.yul\":1223:1247   */\n      tag_200\n        /* \"#utility.yul\":1241:1246   */\n      dup3\n        /* \"#utility.yul\":1223:1247   */\n      tag_147\n      jump\t// in\n    tag_200:\n        /* \"#utility.yul\":1212:1247   */\n      swap1\n      pop\n        /* \"#utility.yul\":1157:1253   */\n      swap2\n      swap1\n      pop\n      jump\t// out\n        /* \"#utility.yul\":1259:1377   */\n    tag_149:\n        /* \"#utility.yul\":1346:1370   */\n      tag_202\n        /* \"#utility.yul\":1364:1369   */\n      dup2\n        /* \"#utility.yul\":1346:1370   */\n      tag_148\n      jump\t// in\n    tag_202:\n        /* \"#utility.yul\":1341:1344   */\n      dup3\n        /* \"#utility.yul\":1334:1371   */\n      mstore\n        /* \"#utility.yul\":1259:1377   */\n      pop\n      pop\n      jump\t// out\n        /* \"#utility.yul\":1383:1443   */\n    tag_150:\n        /* \"#utility.yul\":1411:1414   */\n      0x00\n        /* \"#utility.yul\":1432:1437   */\n      dup2\n        /* \"#utility.yul\":1425:1437   */\n      swap1\n      pop\n        /* \"#utility.yul\":1383:1443   */\n      swap2\n      swap1\n      pop\n      jump\t// out\n        /* \"#utility.yul\":1449:1591   */\n    tag_151:\n        /* \"#utility.yul\":1499:1508   */\n      0x00\n        /* \"#utility.yul\":1532:1585   */\n      tag_205\n        /* \"#utility.yul\":1550:1584   */\n      tag_206\n        /* \"#utility.yul\":1559:1583   */\n      tag_207\n        /* \"#utility.yul\":1577:1582   */\n      dup5\n        /* \"#utility.yul\":1559:1583   */\n      tag_147\n      jump\t// in\n    tag_207:\n        /* \"#utility.yul\":1550:1584   */\n      tag_150\n      jump\t// in\n    tag_206:\n        /* \"#utility.yul\":1532:1585   */\n      tag_147\n      jump\t// in\n    tag_205:\n        /* \"#utility.yul\":1519:1585   */\n      swap1\n      pop\n        /* \"#utility.yul\":1449:1591   */\n      swap2\n      swap1\n      pop\n      jump\t// out\n        /* \"#utility.yul\":1597:1723   */\n    tag_152:\n        /* \"#utility.yul\":1647:1656   */\n      0x00\n        /* \"#utility.yul\":1680:1717   */\n      tag_209\n        /* \"#utility.yul\":1711:1716   */\n      dup3\n        /* \"#utility.yul\":1680:1717   */\n      tag_151\n      jump\t// in\n    tag_209:\n        /* \"#utility.yul\":1667:1717   */\n      swap1\n      pop\n        /* \"#utility.yul\":1597:1723   */\n      swap2\n      swap1\n      pop\n      jump\t// out\n        /* \"#utility.yul\":1729:1869   */\n    tag_153:\n        /* \"#utility.yul\":1793:1802   */\n      0x00\n        /* \"#utility.yul\":1826:1863   */\n      tag_211\n        /* \"#utility.yul\":1857:1862   */\n      dup3\n        /* \"#utility.yul\":1826:1863   */\n      tag_152\n      jump\t// in\n    tag_211:\n        /* \"#utility.yul\":1813:1863   */\n      swap1\n      pop\n        /* \"#utility.yul\":1729:1869   */\n      swap2\n      swap1\n      pop\n      jump\t// out\n        /* \"#utility.yul\":1875:2034   */\n    tag_154:\n        /* \"#utility.yul\":1976:2027   */\n      tag_213\n        /* \"#utility.yul\":2021:2026   */\n      dup2\n        /* \"#utility.yul\":1976:2027   */\n      tag_153\n      jump\t// in\n    tag_213:\n        /* \"#utility.yul\":1971:1974   */\n      dup3\n        /* \"#utility.yul\":1964:2028   */\n      mstore\n        /* \"#utility.yul\":1875:2034   */\n      pop\n      pop\n      jump\t// out\n        /* \"#utility.yul\":2040:2158   */\n    tag_155:\n        /* \"#utility.yul\":2127:2151   */\n      tag_215\n        /* \"#utility.yul\":2145:2150   */\n      dup2\n        /* \"#utility.yul\":2127:2151   */\n      tag_144\n      jump\t// in\n    tag_215:\n        /* \"#utility.yul\":2122:2125   */\n      dup3\n        /* \"#utility.yul\":2115:2152   */\n      mstore\n        /* \"#utility.yul\":2040:2158   */\n      pop\n      pop\n      jump\t// out\n        /* \"#utility.yul\":2164:2254   */\n    tag_156:\n        /* \"#utility.yul\":2198:2205   */\n      0x00\n        /* \"#utility.yul\":2241:2246   */\n      dup2\n        /* \"#utility.yul\":2234:2247   */\n      iszero\n        /* \"#utility.yul\":2227:2248   */\n      iszero\n        /* \"#utility.yul\":2216:2248   */\n      swap1\n      pop\n        /* \"#utility.yul\":2164:2254   */\n      swap2\n      swap1\n      pop\n      jump\t// out\n        /* \"#utility.yul\":2260:2369   */\n    tag_157:\n        /* \"#utility.yul\":2341:2362   */\n      tag_218\n        /* \"#utility.yul\":2356:2361   */\n      dup2\n        /* \"#utility.yul\":2341:2362   */\n      tag_156\n      jump\t// in\n    tag_218:\n        /* \"#utility.yul\":2336:2339   */\n      dup3\n        /* \"#utility.yul\":2329:2363   */\n      mstore\n        /* \"#utility.yul\":2260:2369   */\n      pop\n      pop\n      jump\t// out\n        /* \"#utility.yul\":2375:3154   */\n    tag_18:\n        /* \"#utility.yul\":2610:2614   */\n      0x00\n        /* \"#utility.yul\":2648:2651   */\n      0xc0\n        /* \"#utility.yul\":2637:2646   */\n      dup3\n        /* \"#utility.yul\":2633:2652   */\n      add\n        /* \"#utility.yul\":2625:2652   */\n      swap1\n      pop\n        /* \"#utility.yul\":2662:2733   */\n      tag_220\n        /* \"#utility.yul\":2730:2731   */\n      0x00\n        /* \"#utility.yul\":2719:2728   */\n      dup4\n        /* \"#utility.yul\":2715:2732   */\n      add\n        /* \"#utility.yul\":2706:2712   */\n      dup10\n        /* \"#utility.yul\":2662:2733   */\n      tag_149\n      jump\t// in\n    tag_220:\n        /* \"#utility.yul\":2743:2815   */\n      tag_221\n        /* \"#utility.yul\":2811:2813   */\n      0x20\n        /* \"#utility.yul\":2800:2809   */\n      dup4\n        /* \"#utility.yul\":2796:2814   */\n      add\n        /* \"#utility.yul\":2787:2793   */\n      dup9\n        /* \"#utility.yul\":2743:2815   */\n      tag_149\n      jump\t// in\n    tag_221:\n        /* \"#utility.yul\":2825:2911   */\n      tag_222\n        /* \"#utility.yul\":2907:2909   */\n      0x40\n        /* \"#utility.yul\":2896:2905   */\n      dup4\n        /* \"#utility.yul\":2892:2910   */\n      add\n        /* \"#utility.yul\":2883:2889   */\n      dup8\n        /* \"#utility.yul\":2825:2911   */\n      tag_154\n      jump\t// in\n    tag_222:\n        /* \"#utility.yul\":2921:2993   */\n      tag_223\n        /* \"#utility.yul\":2989:2991   */\n      0x60\n        /* \"#utility.yul\":2978:2987   */\n      dup4\n        /* \"#utility.yul\":2974:2992   */\n      add\n        /* \"#utility.yul\":2965:2971   */\n      dup7\n        /* \"#utility.yul\":2921:2993   */\n      tag_155\n      jump\t// in\n    tag_223:\n        /* \"#utility.yul\":3003:3070   */\n      tag_224\n        /* \"#utility.yul\":3065:3068   */\n      0x80\n        /* \"#utility.yul\":3054:3063   */\n      dup4\n        /* \"#utility.yul\":3050:3069   */\n      add\n        /* \"#utility.yul\":3041:3047   */\n      dup6\n        /* \"#utility.yul\":3003:3070   */\n      tag_157\n      jump\t// in\n    tag_224:\n        /* \"#utility.yul\":3080:3147   */\n      tag_225\n        /* \"#utility.yul\":3142:3145   */\n      0xa0\n        /* \"#utility.yul\":3131:3140   */\n      dup4\n        /* \"#utility.yul\":3127:3146   */\n      add\n        /* \"#utility.yul\":3118:3124   */\n      dup5\n        /* \"#utility.yul\":3080:3147   */\n      tag_157\n      jump\t// in\n    tag_225:\n        /* \"#utility.yul\":2375:3154   */\n      swap8\n      swap7\n      pop\n      pop\n      pop\n      pop\n      pop\n      pop\n      pop\n      jump\t// out\n        /* \"#utility.yul\":3160:3634   */\n    tag_21:\n        /* \"#utility.yul\":3228:3234   */\n      0x00\n        /* \"#utility.yul\":3236:3242   */\n      dup1\n        /* \"#utility.yul\":3285:3287   */\n      0x40\n        /* \"#utility.yul\":3273:3282   */\n      dup4\n        /* \"#utility.yul\":3264:3271   */\n      dup6\n        /* \"#utility.yul\":3260:3283   */\n      sub\n        /* \"#utility.yul\":3256:3288   */\n      slt\n        /* \"#utility.yul\":3253:3372   */\n      iszero\n      tag_227\n      jumpi\n        /* \"#utility.yul\":3291:3370   */\n      tag_228\n      tag_142\n      jump\t// in\n    tag_228:\n        /* \"#utility.yul\":3253:3372   */\n    tag_227:\n        /* \"#utility.yul\":3411:3412   */\n      0x00\n        /* \"#utility.yul\":3436:3489   */\n      tag_229\n        /* \"#utility.yul\":3481:3488   */\n      dup6\n        /* \"#utility.yul\":3472:3478   */\n      dup3\n        /* \"#utility.yul\":3461:3470   */\n      dup7\n        /* \"#utility.yul\":3457:3479   */\n      add\n        /* \"#utility.yul\":3436:3489   */\n      tag_146\n      jump\t// in\n    tag_229:\n        /* \"#utility.yul\":3426:3489   */\n      swap3\n      pop\n        /* \"#utility.yul\":3382:3499   */\n      pop\n        /* \"#utility.yul\":3538:3540   */\n      0x20\n        /* \"#utility.yul\":3564:3617   */\n      tag_230\n        /* \"#utility.yul\":3609:3616   */\n      dup6\n        /* \"#utility.yul\":3600:3606   */\n      dup3\n        /* \"#utility.yul\":3589:3598   */\n      dup7\n        /* \"#utility.yul\":3585:3607   */\n      add\n        /* \"#utility.yul\":3564:3617   */\n      tag_146\n      jump\t// in\n    tag_230:\n        /* \"#utility.yul\":3554:3617   */\n      swap2\n      pop\n        /* \"#utility.yul\":3509:3627   */\n      pop\n        /* \"#utility.yul\":3160:3634   */\n      swap3\n      pop\n      swap3\n      swap1\n      pop\n      jump\t// out\n        /* \"#utility.yul\":3640:3762   */\n    tag_158:\n        /* \"#utility.yul\":3713:3737   */\n      tag_232\n        /* \"#utility.yul\":3731:3736   */\n      dup2\n        /* \"#utility.yul\":3713:3737   */\n      tag_148\n      jump\t// in\n    tag_232:\n        /* \"#utility.yul\":3706:3711   */\n      dup2\n        /* \"#utility.yul\":3703:3738   */\n      eq\n        /* \"#utility.yul\":3693:3756   */\n      tag_233\n      jumpi\n        /* \"#utility.yul\":3752:3753   */\n      0x00\n        /* \"#utility.yul\":3749:3750   */\n      dup1\n        /* \"#utility.yul\":3742:3754   */\n      revert\n        /* \"#utility.yul\":3693:3756   */\n    tag_233:\n        /* \"#utility.yul\":3640:3762   */\n      pop\n      jump\t// out\n        /* \"#utility.yul\":3768:3907   */\n    tag_159:\n        /* \"#utility.yul\":3814:3819   */\n      0x00\n        /* \"#utility.yul\":3852:3858   */\n      dup2\n        /* \"#utility.yul\":3839:3859   */\n      calldataload\n        /* \"#utility.yul\":3830:3859   */\n      swap1\n      pop\n        /* \"#utility.yul\":3868:3901   */\n      tag_235\n        /* \"#utility.yul\":3895:3900   */\n      dup2\n        /* \"#utility.yul\":3868:3901   */\n      tag_158\n      jump\t// in\n    tag_235:\n        /* \"#utility.yul\":3768:3907   */\n      swap3\n      swap2\n      pop\n      pop\n      jump\t// out\n        /* \"#utility.yul\":3913:4023   */\n    tag_160:\n        /* \"#utility.yul\":3964:3971   */\n      0x00\n        /* \"#utility.yul\":3993:4017   */\n      tag_237\n        /* \"#utility.yul\":4011:4016   */\n      dup3\n        /* \"#utility.yul\":3993:4017   */\n      tag_148\n      jump\t// in\n    tag_237:\n        /* \"#utility.yul\":3982:4017   */\n      swap1\n      pop\n        /* \"#utility.yul\":3913:4023   */\n      swap2\n      swap1\n      pop\n      jump\t// out\n        /* \"#utility.yul\":4029:4179   */\n    tag_161:\n        /* \"#utility.yul\":4116:4154   */\n      tag_239\n        /* \"#utility.yul\":4148:4153   */\n      dup2\n        /* \"#utility.yul\":4116:4154   */\n      tag_160\n      jump\t// in\n    tag_239:\n        /* \"#utility.yul\":4109:4114   */\n      dup2\n        /* \"#utility.yul\":4106:4155   */\n      eq\n        /* \"#utility.yul\":4096:4173   */\n      tag_240\n      jumpi\n        /* \"#utility.yul\":4169:4170   */\n      0x00\n        /* \"#utility.yul\":4166:4167   */\n      dup1\n        /* \"#utility.yul\":4159:4171   */\n      revert\n        /* \"#utility.yul\":4096:4173   */\n    tag_240:\n        /* \"#utility.yul\":4029:4179   */\n      pop\n      jump\t// out\n        /* \"#utility.yul\":4185:4352   */\n    tag_162:\n        /* \"#utility.yul\":4245:4250   */\n      0x00\n        /* \"#utility.yul\":4283:4289   */\n      dup2\n        /* \"#utility.yul\":4270:4290   */\n      calldataload\n        /* \"#utility.yul\":4261:4290   */\n      swap1\n      pop\n        /* \"#utility.yul\":4299:4346   */\n      tag_242\n        /* \"#utility.yul\":4340:4345   */\n      dup2\n        /* \"#utility.yul\":4299:4346   */\n      tag_161\n      jump\t// in\n    tag_242:\n        /* \"#utility.yul\":4185:4352   */\n      swap3\n      swap2\n      pop\n      pop\n      jump\t// out\n        /* \"#utility.yul\":4358:5151   */\n    tag_25:\n        /* \"#utility.yul\":4458:4464   */\n      0x00\n        /* \"#utility.yul\":4466:4472   */\n      dup1\n        /* \"#utility.yul\":4474:4480   */\n      0x00\n        /* \"#utility.yul\":4482:4488   */\n      dup1\n        /* \"#utility.yul\":4531:4534   */\n      0x80\n        /* \"#utility.yul\":4519:4528   */\n      dup6\n        /* \"#utility.yul\":4510:4517   */\n      dup8\n        /* \"#utility.yul\":4506:4529   */\n      sub\n        /* \"#utility.yul\":4502:4535   */\n      slt\n        /* \"#utility.yul\":4499:4619   */\n      iszero\n      tag_244\n      jumpi\n        /* \"#utility.yul\":4538:4617   */\n      tag_245\n      tag_142\n      jump\t// in\n    tag_245:\n        /* \"#utility.yul\":4499:4619   */\n    tag_244:\n        /* \"#utility.yul\":4658:4659   */\n      0x00\n        /* \"#utility.yul\":4683:4736   */\n      tag_246\n        /* \"#utility.yul\":4728:4735   */\n      dup8\n        /* \"#utility.yul\":4719:4725   */\n      dup3\n        /* \"#utility.yul\":4708:4717   */\n      dup9\n        /* \"#utility.yul\":4704:4726   */\n      add\n        /* \"#utility.yul\":4683:4736   */\n      tag_146\n      jump\t// in\n    tag_246:\n        /* \"#utility.yul\":4673:4736   */\n      swap5\n      pop\n        /* \"#utility.yul\":4629:4746   */\n      pop\n        /* \"#utility.yul\":4785:4787   */\n      0x20\n        /* \"#utility.yul\":4811:4864   */\n      tag_247\n        /* \"#utility.yul\":4856:4863   */\n      dup8\n        /* \"#utility.yul\":4847:4853   */\n      dup3\n        /* \"#utility.yul\":4836:4845   */\n      dup9\n        /* \"#utility.yul\":4832:4854   */\n      add\n        /* \"#utility.yul\":4811:4864   */\n      tag_159\n      jump\t// in\n    tag_247:\n        /* \"#utility.yul\":4801:4864   */\n      swap4\n      pop\n        /* \"#utility.yul\":4756:4874   */\n      pop\n        /* \"#utility.yul\":4913:4915   */\n      0x40\n        /* \"#utility.yul\":4939:5006   */\n      tag_248\n        /* \"#utility.yul\":4998:5005   */\n      dup8\n        /* \"#utility.yul\":4989:4995   */\n      dup3\n        /* \"#utility.yul\":4978:4987   */\n      dup9\n        /* \"#utility.yul\":4974:4996   */\n      add\n        /* \"#utility.yul\":4939:5006   */\n      tag_162\n      jump\t// in\n    tag_248:\n        /* \"#utility.yul\":4929:5006   */\n      swap3\n      pop\n        /* \"#utility.yul\":4884:5016   */\n      pop\n        /* \"#utility.yul\":5055:5057   */\n      0x60\n        /* \"#utility.yul\":5081:5134   */\n      tag_249\n        /* \"#utility.yul\":5126:5133   */\n      dup8\n        /* \"#utility.yul\":5117:5123   */\n      dup3\n        /* \"#utility.yul\":5106:5115   */\n      dup9\n        /* \"#utility.yul\":5102:5124   */\n      add\n        /* \"#utility.yul\":5081:5134   */\n      tag_146\n      jump\t// in\n    tag_249:\n        /* \"#utility.yul\":5071:5134   */\n      swap2\n      pop\n        /* \"#utility.yul\":5026:5144   */\n      pop\n        /* \"#utility.yul\":4358:5151   */\n      swap3\n      swap6\n      swap2\n      swap5\n      pop\n      swap3\n      pop\n      jump\t// out\n        /* \"#utility.yul\":5157:5379   */\n    tag_28:\n        /* \"#utility.yul\":5250:5254   */\n      0x00\n        /* \"#utility.yul\":5288:5290   */\n      0x20\n        /* \"#utility.yul\":5277:5286   */\n      dup3\n        /* \"#utility.yul\":5273:5291   */\n      add\n        /* \"#utility.yul\":5265:5291   */\n      swap1\n      pop\n        /* \"#utility.yul\":5301:5372   */\n      tag_251\n        /* \"#utility.yul\":5369:5370   */\n      0x00\n        /* \"#utility.yul\":5358:5367   */\n      dup4\n        /* \"#utility.yul\":5354:5371   */\n      add\n        /* \"#utility.yul\":5345:5351   */\n      dup5\n        /* \"#utility.yul\":5301:5372   */\n      tag_155\n      jump\t// in\n    tag_251:\n        /* \"#utility.yul\":5157:5379   */\n      swap3\n      swap2\n      pop\n      pop\n      jump\t// out\n        /* \"#utility.yul\":5385:5607   */\n    tag_37:\n        /* \"#utility.yul\":5478:5482   */\n      0x00\n        /* \"#utility.yul\":5516:5518   */\n      0x20\n        /* \"#utility.yul\":5505:5514   */\n      dup3\n        /* \"#utility.yul\":5501:5519   */\n      add\n        /* \"#utility.yul\":5493:5519   */\n      swap1\n      pop\n        /* \"#utility.yul\":5529:5600   */\n      tag_253\n        /* \"#utility.yul\":5597:5598   */\n      0x00\n        /* \"#utility.yul\":5586:5595   */\n      dup4\n        /* \"#utility.yul\":5582:5599   */\n      add\n        /* \"#utility.yul\":5573:5579   */\n      dup5\n        /* \"#utility.yul\":5529:5600   */\n      tag_149\n      jump\t// in\n    tag_253:\n        /* \"#utility.yul\":5385:5607   */\n      swap3\n      swap2\n      pop\n      pop\n      jump\t// out\n        /* \"#utility.yul\":5613:5942   */\n    tag_46:\n        /* \"#utility.yul\":5672:5678   */\n      0x00\n        /* \"#utility.yul\":5721:5723   */\n      0x20\n        /* \"#utility.yul\":5709:5718   */\n      dup3\n        /* \"#utility.yul\":5700:5707   */\n      dup5\n        /* \"#utility.yul\":5696:5719   */\n      sub\n        /* \"#utility.yul\":5692:5724   */\n      slt\n        /* \"#utility.yul\":5689:5808   */\n      iszero\n      tag_255\n      jumpi\n        /* \"#utility.yul\":5727:5806   */\n      tag_256\n      tag_142\n      jump\t// in\n    tag_256:\n        /* \"#utility.yul\":5689:5808   */\n    tag_255:\n        /* \"#utility.yul\":5847:5848   */\n      0x00\n        /* \"#utility.yul\":5872:5925   */\n      tag_257\n        /* \"#utility.yul\":5917:5924   */\n      dup5\n        /* \"#utility.yul\":5908:5914   */\n      dup3\n        /* \"#utility.yul\":5897:5906   */\n      dup6\n        /* \"#utility.yul\":5893:5915   */\n      add\n        /* \"#utility.yul\":5872:5925   */\n      tag_159\n      jump\t// in\n    tag_257:\n        /* \"#utility.yul\":5862:5925   */\n      swap2\n      pop\n        /* \"#utility.yul\":5818:5935   */\n      pop\n        /* \"#utility.yul\":5613:5942   */\n      swap3\n      swap2\n      pop\n      pop\n      jump\t// out\n        /* \"#utility.yul\":5948:6117   */\n    tag_163:\n        /* \"#utility.yul\":6032:6043   */\n      0x00\n        /* \"#utility.yul\":6066:6072   */\n      dup3\n        /* \"#utility.yul\":6061:6064   */\n      dup3\n        /* \"#utility.yul\":6054:6073   */\n      mstore\n        /* \"#utility.yul\":6106:6110   */\n      0x20\n        /* \"#utility.yul\":6101:6104   */\n      dup3\n        /* \"#utility.yul\":6097:6111   */\n      add\n        /* \"#utility.yul\":6082:6111   */\n      swap1\n      pop\n        /* \"#utility.yul\":5948:6117   */\n      swap3\n      swap2\n      pop\n      pop\n      jump\t// out\n        /* \"#utility.yul\":6123:6305   */\n    tag_164:\n        /* \"#utility.yul\":6263:6297   */\n      0x4e6f2066756e6473206465706f736974656420666f722074686973206465616c\n        /* \"#utility.yul\":6259:6260   */\n      0x00\n        /* \"#utility.yul\":6251:6257   */\n      dup3\n        /* \"#utility.yul\":6247:6261   */\n      add\n        /* \"#utility.yul\":6240:6298   */\n      mstore\n        /* \"#utility.yul\":6123:6305   */\n      pop\n      jump\t// out\n        /* \"#utility.yul\":6311:6677   */\n    tag_165:\n        /* \"#utility.yul\":6453:6456   */\n      0x00\n        /* \"#utility.yul\":6474:6541   */\n      tag_261\n        /* \"#utility.yul\":6538:6540   */\n      0x20\n        /* \"#utility.yul\":6533:6536   */\n      dup4\n        /* \"#utility.yul\":6474:6541   */\n      tag_163\n      jump\t// in\n    tag_261:\n        /* \"#utility.yul\":6467:6541   */\n      swap2\n      pop\n        /* \"#utility.yul\":6550:6643   */\n      tag_262\n        /* \"#utility.yul\":6639:6642   */\n      dup3\n        /* \"#utility.yul\":6550:6643   */\n      tag_164\n      jump\t// in\n    tag_262:\n        /* \"#utility.yul\":6668:6670   */\n      0x20\n        /* \"#utility.yul\":6663:6666   */\n      dup3\n        /* \"#utility.yul\":6659:6671   */\n      add\n        /* \"#utility.yul\":6652:6671   */\n      swap1\n      pop\n        /* \"#utility.yul\":6311:6677   */\n      swap2\n      swap1\n      pop\n      jump\t// out\n        /* \"#utility.yul\":6683:7102   */\n    tag_54:\n        /* \"#utility.yul\":6849:6853   */\n      0x00\n        /* \"#utility.yul\":6887:6889   */\n      0x20\n        /* \"#utility.yul\":6876:6885   */\n      dup3\n        /* \"#utility.yul\":6872:6890   */\n      add\n        /* \"#utility.yul\":6864:6890   */\n      swap1\n      pop\n        /* \"#utility.yul\":6936:6945   */\n      dup2\n        /* \"#utility.yul\":6930:6934   */\n      dup2\n        /* \"#utility.yul\":6926:6946   */\n      sub\n        /* \"#utility.yul\":6922:6923   */\n      0x00\n        /* \"#utility.yul\":6911:6920   */\n      dup4\n        /* \"#utility.yul\":6907:6924   */\n      add\n        /* \"#utility.yul\":6900:6947   */\n      mstore\n        /* \"#utility.yul\":6964:7095   */\n      tag_264\n        /* \"#utility.yul\":7090:7094   */\n      dup2\n        /* \"#utility.yul\":6964:7095   */\n      tag_165\n      jump\t// in\n    tag_264:\n        /* \"#utility.yul\":6956:7095   */\n      swap1\n      pop\n        /* \"#utility.yul\":6683:7102   */\n      swap2\n      swap1\n      pop\n      jump\t// out\n        /* \"#utility.yul\":7108:7283   */\n    tag_166:\n        /* \"#utility.yul\":7248:7275   */\n      0x4465616c20697320616c726561647920636f6d706c6574656400000000000000\n        /* \"#utility.yul\":7244:7245   */\n      0x00\n        /* \"#utility.yul\":7236:7242   */\n      dup3\n        /* \"#utility.yul\":7232:7246   */\n      add\n        /* \"#utility.yul\":7225:7276   */\n      mstore\n        /* \"#utility.yul\":7108:7283   */\n      pop\n      jump\t// out\n        /* \"#utility.yul\":7289:7655   */\n    tag_167:\n        /* \"#utility.yul\":7431:7434   */\n      0x00\n        /* \"#utility.yul\":7452:7519   */\n      tag_267\n        /* \"#utility.yul\":7516:7518   */\n      0x19\n        /* \"#utility.yul\":7511:7514   */\n      dup4\n        /* \"#utility.yul\":7452:7519   */\n      tag_163\n      jump\t// in\n    tag_267:\n        /* \"#utility.yul\":7445:7519   */\n      swap2\n      pop\n        /* \"#utility.yul\":7528:7621   */\n      tag_268\n        /* \"#utility.yul\":7617:7620   */\n      dup3\n        /* \"#utility.yul\":7528:7621   */\n      tag_166\n      jump\t// in\n    tag_268:\n        /* \"#utility.yul\":7646:7648   */\n      0x20\n        /* \"#utility.yul\":7641:7644   */\n      dup3\n        /* \"#utility.yul\":7637:7649   */\n      add\n        /* \"#utility.yul\":7630:7649   */\n      swap1\n      pop\n        /* \"#utility.yul\":7289:7655   */\n      swap2\n      swap1\n      pop\n      jump\t// out\n        /* \"#utility.yul\":7661:8080   */\n    tag_57:\n        /* \"#utility.yul\":7827:7831   */\n      0x00\n        /* \"#utility.yul\":7865:7867   */\n      0x20\n        /* \"#utility.yul\":7854:7863   */\n      dup3\n        /* \"#utility.yul\":7850:7868   */\n      add\n        /* \"#utility.yul\":7842:7868   */\n      swap1\n      pop\n        /* \"#utility.yul\":7914:7923   */\n      dup2\n        /* \"#utility.yul\":7908:7912   */\n      dup2\n        /* \"#utility.yul\":7904:7924   */\n      sub\n        /* \"#utility.yul\":7900:7901   */\n      0x00\n        /* \"#utility.yul\":7889:7898   */\n      dup4\n        /* \"#utility.yul\":7885:7902   */\n      add\n        /* \"#utility.yul\":7878:7925   */\n      mstore\n        /* \"#utility.yul\":7942:8073   */\n      tag_270\n        /* \"#utility.yul\":8068:8072   */\n      dup2\n        /* \"#utility.yul\":7942:8073   */\n      tag_167\n      jump\t// in\n    tag_270:\n        /* \"#utility.yul\":7934:8073   */\n      swap1\n      pop\n        /* \"#utility.yul\":7661:8080   */\n      swap2\n      swap1\n      pop\n      jump\t// out\n        /* \"#utility.yul\":8086:8266   */\n    tag_168:\n        /* \"#utility.yul\":8134:8211   */\n      0x4e487b7100000000000000000000000000000000000000000000000000000000\n        /* \"#utility.yul\":8131:8132   */\n      0x00\n        /* \"#utility.yul\":8124:8212   */\n      mstore\n        /* \"#utility.yul\":8231:8235   */\n      0x11\n        /* \"#utility.yul\":8228:8229   */\n      0x04\n        /* \"#utility.yul\":8221:8236   */\n      mstore\n        /* \"#utility.yul\":8255:8259   */\n      0x24\n        /* \"#utility.yul\":8252:8253   */\n      0x00\n        /* \"#utility.yul\":8245:8260   */\n      revert\n        /* \"#utility.yul\":8272:8682   */\n    tag_59:\n        /* \"#utility.yul\":8312:8319   */\n      0x00\n        /* \"#utility.yul\":8335:8355   */\n      tag_273\n        /* \"#utility.yul\":8353:8354   */\n      dup3\n        /* \"#utility.yul\":8335:8355   */\n      tag_144\n      jump\t// in\n    tag_273:\n        /* \"#utility.yul\":8330:8355   */\n      swap2\n      pop\n        /* \"#utility.yul\":8369:8389   */\n      tag_274\n        /* \"#utility.yul\":8387:8388   */\n      dup4\n        /* \"#utility.yul\":8369:8389   */\n      tag_144\n      jump\t// in\n    tag_274:\n        /* \"#utility.yul\":8364:8389   */\n      swap3\n      pop\n        /* \"#utility.yul\":8424:8425   */\n      dup3\n        /* \"#utility.yul\":8421:8422   */\n      dup3\n        /* \"#utility.yul\":8417:8426   */\n      mul\n        /* \"#utility.yul\":8446:8476   */\n      tag_275\n        /* \"#utility.yul\":8464:8475   */\n      dup2\n        /* \"#utility.yul\":8446:8476   */\n      tag_144\n      jump\t// in\n    tag_275:\n        /* \"#utility.yul\":8435:8476   */\n      swap2\n      pop\n        /* \"#utility.yul\":8625:8626   */\n      dup3\n        /* \"#utility.yul\":8616:8623   */\n      dup3\n        /* \"#utility.yul\":8612:8627   */\n      div\n        /* \"#utility.yul\":8609:8610   */\n      dup5\n        /* \"#utility.yul\":8606:8628   */\n      eq\n        /* \"#utility.yul\":8586:8587   */\n      dup4\n        /* \"#utility.yul\":8579:8588   */\n      iszero\n        /* \"#utility.yul\":8559:8642   */\n      or\n        /* \"#utility.yul\":8536:8675   */\n      tag_276\n      jumpi\n        /* \"#utility.yul\":8655:8673   */\n      tag_277\n      tag_168\n      jump\t// in\n    tag_277:\n        /* \"#utility.yul\":8536:8675   */\n    tag_276:\n        /* \"#utility.yul\":8320:8682   */\n      pop\n        /* \"#utility.yul\":8272:8682   */\n      swap3\n      swap2\n      pop\n      pop\n      jump\t// out\n        /* \"#utility.yul\":8688:8868   */\n    tag_169:\n        /* \"#utility.yul\":8736:8813   */\n      0x4e487b7100000000000000000000000000000000000000000000000000000000\n        /* \"#utility.yul\":8733:8734   */\n      0x00\n        /* \"#utility.yul\":8726:8814   */\n      mstore\n        /* \"#utility.yul\":8833:8837   */\n      0x12\n        /* \"#utility.yul\":8830:8831   */\n      0x04\n        /* \"#utility.yul\":8823:8838   */\n      mstore\n        /* \"#utility.yul\":8857:8861   */\n      0x24\n        /* \"#utility.yul\":8854:8855   */\n      0x00\n        /* \"#utility.yul\":8847:8862   */\n      revert\n        /* \"#utility.yul\":8874:9059   */\n    tag_61:\n        /* \"#utility.yul\":8914:8915   */\n      0x00\n        /* \"#utility.yul\":8931:8951   */\n      tag_280\n        /* \"#utility.yul\":8949:8950   */\n      dup3\n        /* \"#utility.yul\":8931:8951   */\n      tag_144\n      jump\t// in\n    tag_280:\n        /* \"#utility.yul\":8926:8951   */\n      swap2\n      pop\n        /* \"#utility.yul\":8965:8985   */\n      tag_281\n        /* \"#utility.yul\":8983:8984   */\n      dup4\n        /* \"#utility.yul\":8965:8985   */\n      tag_144\n      jump\t// in\n    tag_281:\n        /* \"#utility.yul\":8960:8985   */\n      swap3\n      pop\n        /* \"#utility.yul\":9004:9005   */\n      dup3\n        /* \"#utility.yul\":8994:9029   */\n      tag_282\n      jumpi\n        /* \"#utility.yul\":9009:9027   */\n      tag_283\n      tag_169\n      jump\t// in\n    tag_283:\n        /* \"#utility.yul\":8994:9029   */\n    tag_282:\n        /* \"#utility.yul\":9051:9052   */\n      dup3\n        /* \"#utility.yul\":9048:9049   */\n      dup3\n        /* \"#utility.yul\":9044:9053   */\n      div\n        /* \"#utility.yul\":9039:9053   */\n      swap1\n      pop\n        /* \"#utility.yul\":8874:9059   */\n      swap3\n      swap2\n      pop\n      pop\n      jump\t// out\n        /* \"#utility.yul\":9065:9259   */\n    tag_63:\n        /* \"#utility.yul\":9105:9109   */\n      0x00\n        /* \"#utility.yul\":9125:9145   */\n      tag_285\n        /* \"#utility.yul\":9143:9144   */\n      dup3\n        /* \"#utility.yul\":9125:9145   */\n      tag_144\n      jump\t// in\n    tag_285:\n        /* \"#utility.yul\":9120:9145   */\n      swap2\n      pop\n        /* \"#utility.yul\":9159:9179   */\n      tag_286\n        /* \"#utility.yul\":9177:9178   */\n      dup4\n        /* \"#utility.yul\":9159:9179   */\n      tag_144\n      jump\t// in\n    tag_286:\n        /* \"#utility.yul\":9154:9179   */\n      swap3\n      pop\n        /* \"#utility.yul\":9203:9204   */\n      dup3\n        /* \"#utility.yul\":9200:9201   */\n      dup3\n        /* \"#utility.yul\":9196:9205   */\n      sub\n        /* \"#utility.yul\":9188:9205   */\n      swap1\n      pop\n        /* \"#utility.yul\":9227:9228   */\n      dup2\n        /* \"#utility.yul\":9221:9225   */\n      dup2\n        /* \"#utility.yul\":9218:9229   */\n      gt\n        /* \"#utility.yul\":9215:9252   */\n      iszero\n      tag_287\n      jumpi\n        /* \"#utility.yul\":9232:9250   */\n      tag_288\n      tag_168\n      jump\t// in\n    tag_288:\n        /* \"#utility.yul\":9215:9252   */\n    tag_287:\n        /* \"#utility.yul\":9065:9259   */\n      swap3\n      swap2\n      pop\n      pop\n      jump\t// out\n        /* \"#utility.yul\":9265:9597   */\n    tag_65:\n        /* \"#utility.yul\":9386:9390   */\n      0x00\n        /* \"#utility.yul\":9424:9426   */\n      0x40\n        /* \"#utility.yul\":9413:9422   */\n      dup3\n        /* \"#utility.yul\":9409:9427   */\n      add\n        /* \"#utility.yul\":9401:9427   */\n      swap1\n      pop\n        /* \"#utility.yul\":9437:9508   */\n      tag_290\n        /* \"#utility.yul\":9505:9506   */\n      0x00\n        /* \"#utility.yul\":9494:9503   */\n      dup4\n        /* \"#utility.yul\":9490:9507   */\n      add\n        /* \"#utility.yul\":9481:9487   */\n      dup6\n        /* \"#utility.yul\":9437:9508   */\n      tag_149\n      jump\t// in\n    tag_290:\n        /* \"#utility.yul\":9518:9590   */\n      tag_291\n        /* \"#utility.yul\":9586:9588   */\n      0x20\n        /* \"#utility.yul\":9575:9584   */\n      dup4\n        /* \"#utility.yul\":9571:9589   */\n      add\n        /* \"#utility.yul\":9562:9568   */\n      dup5\n        /* \"#utility.yul\":9518:9590   */\n      tag_155\n      jump\t// in\n    tag_291:\n        /* \"#utility.yul\":9265:9597   */\n      swap4\n      swap3\n      pop\n      pop\n      pop\n      jump\t// out\n        /* \"#utility.yul\":9603:9719   */\n    tag_170:\n        /* \"#utility.yul\":9673:9694   */\n      tag_293\n        /* \"#utility.yul\":9688:9693   */\n      dup2\n        /* \"#utility.yul\":9673:9694   */\n      tag_156\n      jump\t// in\n    tag_293:\n        /* \"#utility.yul\":9666:9671   */\n      dup2\n        /* \"#utility.yul\":9663:9695   */\n      eq\n        /* \"#utility.yul\":9653:9713   */\n      tag_294\n      jumpi\n        /* \"#utility.yul\":9709:9710   */\n      0x00\n        /* \"#utility.yul\":9706:9707   */\n      dup1\n        /* \"#utility.yul\":9699:9711   */\n      revert\n        /* \"#utility.yul\":9653:9713   */\n    tag_294:\n        /* \"#utility.yul\":9603:9719   */\n      pop\n      jump\t// out\n        /* \"#utility.yul\":9725:9862   */\n    tag_171:\n        /* \"#utility.yul\":9779:9784   */\n      0x00\n        /* \"#utility.yul\":9810:9816   */\n      dup2\n        /* \"#utility.yul\":9804:9817   */\n      mload\n        /* \"#utility.yul\":9795:9817   */\n      swap1\n      pop\n        /* \"#utility.yul\":9826:9856   */\n      tag_296\n        /* \"#utility.yul\":9850:9855   */\n      dup2\n        /* \"#utility.yul\":9826:9856   */\n      tag_170\n      jump\t// in\n    tag_296:\n        /* \"#utility.yul\":9725:9862   */\n      swap3\n      swap2\n      pop\n      pop\n      jump\t// out\n        /* \"#utility.yul\":9868:10213   */\n    tag_69:\n        /* \"#utility.yul\":9935:9941   */\n      0x00\n        /* \"#utility.yul\":9984:9986   */\n      0x20\n        /* \"#utility.yul\":9972:9981   */\n      dup3\n        /* \"#utility.yul\":9963:9970   */\n      dup5\n        /* \"#utility.yul\":9959:9982   */\n      sub\n        /* \"#utility.yul\":9955:9987   */\n      slt\n        /* \"#utility.yul\":9952:10071   */\n      iszero\n      tag_298\n      jumpi\n        /* \"#utility.yul\":9990:10069   */\n      tag_299\n      tag_142\n      jump\t// in\n    tag_299:\n        /* \"#utility.yul\":9952:10071   */\n    tag_298:\n        /* \"#utility.yul\":10110:10111   */\n      0x00\n        /* \"#utility.yul\":10135:10196   */\n      tag_300\n        /* \"#utility.yul\":10188:10195   */\n      dup5\n        /* \"#utility.yul\":10179:10185   */\n      dup3\n        /* \"#utility.yul\":10168:10177   */\n      dup6\n        /* \"#utility.yul\":10164:10186   */\n      add\n        /* \"#utility.yul\":10135:10196   */\n      tag_171\n      jump\t// in\n    tag_300:\n        /* \"#utility.yul\":10125:10196   */\n      swap2\n      pop\n        /* \"#utility.yul\":10081:10206   */\n      pop\n        /* \"#utility.yul\":9868:10213   */\n      swap3\n      swap2\n      pop\n      pop\n      jump\t// out\n        /* \"#utility.yul\":10219:10399   */\n    tag_172:\n        /* \"#utility.yul\":10359:10391   */\n      0x5472616e7366657220746f20696d706c656d656e746572206661696c65640000\n        /* \"#utility.yul\":10355:10356   */\n      0x00\n        /* \"#utility.yul\":10347:10353   */\n      dup3\n        /* \"#utility.yul\":10343:10357   */\n      add\n        /* \"#utility.yul\":10336:10392   */\n      mstore\n        /* \"#utility.yul\":10219:10399   */\n      pop\n      jump\t// out\n        /* \"#utility.yul\":10405:10771   */\n    tag_173:\n        /* \"#utility.yul\":10547:10550   */\n      0x00\n        /* \"#utility.yul\":10568:10635   */\n      tag_303\n        /* \"#utility.yul\":10632:10634   */\n      0x1e\n        /* \"#utility.yul\":10627:10630   */\n      dup4\n        /* \"#utility.yul\":10568:10635   */\n      tag_163\n      jump\t// in\n    tag_303:\n        /* \"#utility.yul\":10561:10635   */\n      swap2\n      pop\n        /* \"#utility.yul\":10644:10737   */\n      tag_304\n        /* \"#utility.yul\":10733:10736   */\n      dup3\n        /* \"#utility.yul\":10644:10737   */\n      tag_172\n      jump\t// in\n    tag_304:\n        /* \"#utility.yul\":10762:10764   */\n      0x20\n        /* \"#utility.yul\":10757:10760   */\n      dup3\n        /* \"#utility.yul\":10753:10765   */\n      add\n        /* \"#utility.yul\":10746:10765   */\n      swap1\n      pop\n        /* \"#utility.yul\":10405:10771   */\n      swap2\n      swap1\n      pop\n      jump\t// out\n        /* \"#utility.yul\":10777:11196   */\n    tag_72:\n        /* \"#utility.yul\":10943:10947   */\n      0x00\n        /* \"#utility.yul\":10981:10983   */\n      0x20\n        /* \"#utility.yul\":10970:10979   */\n      dup3\n        /* \"#utility.yul\":10966:10984   */\n      add\n        /* \"#utility.yul\":10958:10984   */\n      swap1\n      pop\n        /* \"#utility.yul\":11030:11039   */\n      dup2\n        /* \"#utility.yul\":11024:11028   */\n      dup2\n        /* \"#utility.yul\":11020:11040   */\n      sub\n        /* \"#utility.yul\":11016:11017   */\n      0x00\n        /* \"#utility.yul\":11005:11014   */\n      dup4\n        /* \"#utility.yul\":11001:11018   */\n      add\n        /* \"#utility.yul\":10994:11041   */\n      mstore\n        /* \"#utility.yul\":11058:11189   */\n      tag_306\n        /* \"#utility.yul\":11184:11188   */\n      dup2\n        /* \"#utility.yul\":11058:11189   */\n      tag_173\n      jump\t// in\n    tag_306:\n        /* \"#utility.yul\":11050:11189   */\n      swap1\n      pop\n        /* \"#utility.yul\":10777:11196   */\n      swap2\n      swap1\n      pop\n      jump\t// out\n        /* \"#utility.yul\":11202:11375   */\n    tag_174:\n        /* \"#utility.yul\":11342:11367   */\n      0x526566756e6420746f20636c69656e74206661696c6564000000000000000000\n        /* \"#utility.yul\":11338:11339   */\n      0x00\n        /* \"#utility.yul\":11330:11336   */\n      dup3\n        /* \"#utility.yul\":11326:11340   */\n      add\n        /* \"#utility.yul\":11319:11368   */\n      mstore\n        /* \"#utility.yul\":11202:11375   */\n      pop\n      jump\t// out\n        /* \"#utility.yul\":11381:11747   */\n    tag_175:\n        /* \"#utility.yul\":11523:11526   */\n      0x00\n        /* \"#utility.yul\":11544:11611   */\n      tag_309\n        /* \"#utility.yul\":11608:11610   */\n      0x17\n        /* \"#utility.yul\":11603:11606   */\n      dup4\n        /* \"#utility.yul\":11544:11611   */\n      tag_163\n      jump\t// in\n    tag_309:\n        /* \"#utility.yul\":11537:11611   */\n      swap2\n      pop\n        /* \"#utility.yul\":11620:11713   */\n      tag_310\n        /* \"#utility.yul\":11709:11712   */\n      dup3\n        /* \"#utility.yul\":11620:11713   */\n      tag_174\n      jump\t// in\n    tag_310:\n        /* \"#utility.yul\":11738:11740   */\n      0x20\n        /* \"#utility.yul\":11733:11736   */\n      dup3\n        /* \"#utility.yul\":11729:11741   */\n      add\n        /* \"#utility.yul\":11722:11741   */\n      swap1\n      pop\n        /* \"#utility.yul\":11381:11747   */\n      swap2\n      swap1\n      pop\n      jump\t// out\n        /* \"#utility.yul\":11753:12172   */\n    tag_80:\n        /* \"#utility.yul\":11919:11923   */\n      0x00\n        /* \"#utility.yul\":11957:11959   */\n      0x20\n        /* \"#utility.yul\":11946:11955   */\n      dup3\n        /* \"#utility.yul\":11942:11960   */\n      add\n        /* \"#utility.yul\":11934:11960   */\n      swap1\n      pop\n        /* \"#utility.yul\":12006:12015   */\n      dup2\n        /* \"#utility.yul\":12000:12004   */\n      dup2\n        /* \"#utility.yul\":11996:12016   */\n      sub\n        /* \"#utility.yul\":11992:11993   */\n      0x00\n        /* \"#utility.yul\":11981:11990   */\n      dup4\n        /* \"#utility.yul\":11977:11994   */\n      add\n        /* \"#utility.yul\":11970:12017   */\n      mstore\n        /* \"#utility.yul\":12034:12165   */\n      tag_312\n        /* \"#utility.yul\":12160:12164   */\n      dup2\n        /* \"#utility.yul\":12034:12165   */\n      tag_175\n      jump\t// in\n    tag_312:\n        /* \"#utility.yul\":12026:12165   */\n      swap1\n      pop\n        /* \"#utility.yul\":11753:12172   */\n      swap2\n      swap1\n      pop\n      jump\t// out\n        /* \"#utility.yul\":12178:12341   */\n    tag_176:\n        /* \"#utility.yul\":12318:12333   */\n      0x526566756e64206661696c656400000000000000000000000000000000000000\n        /* \"#utility.yul\":12314:12315   */\n      0x00\n        /* \"#utility.yul\":12306:12312   */\n      dup3\n        /* \"#utility.yul\":12302:12316   */\n      add\n        /* \"#utility.yul\":12295:12334   */\n      mstore\n        /* \"#utility.yul\":12178:12341   */\n      pop\n      jump\t// out\n        /* \"#utility.yul\":12347:12713   */\n    tag_177:\n        /* \"#utility.yul\":12489:12492   */\n      0x00\n        /* \"#utility.yul\":12510:12577   */\n      tag_315\n        /* \"#utility.yul\":12574:12576   */\n      0x0d\n        /* \"#utility.yul\":12569:12572   */\n      dup4\n        /* \"#utility.yul\":12510:12577   */\n      tag_163\n      jump\t// in\n    tag_315:\n        /* \"#utility.yul\":12503:12577   */\n      swap2\n      pop\n        /* \"#utility.yul\":12586:12679   */\n      tag_316\n        /* \"#utility.yul\":12675:12678   */\n      dup3\n        /* \"#utility.yul\":12586:12679   */\n      tag_176\n      jump\t// in\n    tag_316:\n        /* \"#utility.yul\":12704:12706   */\n      0x20\n        /* \"#utility.yul\":12699:12702   */\n      dup3\n        /* \"#utility.yul\":12695:12707   */\n      add\n        /* \"#utility.yul\":12688:12707   */\n      swap1\n      pop\n        /* \"#utility.yul\":12347:12713   */\n      swap2\n      swap1\n      pop\n      jump\t// out\n        /* \"#utility.yul\":12719:13138   */\n    tag_95:\n        /* \"#utility.yul\":12885:12889   */\n      0x00\n        /* \"#utility.yul\":12923:12925   */\n      0x20\n        /* \"#utility.yul\":12912:12921   */\n      dup3\n        /* \"#utility.yul\":12908:12926   */\n      add\n        /* \"#utility.yul\":12900:12926   */\n      swap1\n      pop\n        /* \"#utility.yul\":12972:12981   */\n      dup2\n        /* \"#utility.yul\":12966:12970   */\n      dup2\n        /* \"#utility.yul\":12962:12982   */\n      sub\n        /* \"#utility.yul\":12958:12959   */\n      0x00\n        /* \"#utility.yul\":12947:12956   */\n      dup4\n        /* \"#utility.yul\":12943:12960   */\n      add\n        /* \"#utility.yul\":12936:12983   */\n      mstore\n        /* \"#utility.yul\":13000:13131   */\n      tag_318\n        /* \"#utility.yul\":13126:13130   */\n      dup2\n        /* \"#utility.yul\":13000:13131   */\n      tag_177\n      jump\t// in\n    tag_318:\n        /* \"#utility.yul\":12992:13131   */\n      swap1\n      pop\n        /* \"#utility.yul\":12719:13138   */\n      swap2\n      swap1\n      pop\n      jump\t// out\n        /* \"#utility.yul\":13144:13379   */\n    tag_178:\n        /* \"#utility.yul\":13284:13318   */\n      0x4f6e6c792074686520636c69656e742063616e206465706f73697420746f6b65\n        /* \"#utility.yul\":13280:13281   */\n      0x00\n        /* \"#utility.yul\":13272:13278   */\n      dup3\n        /* \"#utility.yul\":13268:13282   */\n      add\n        /* \"#utility.yul\":13261:13319   */\n      mstore\n        /* \"#utility.yul\":13353:13371   */\n      0x6e7320666f7220746865206465616c2e00000000000000000000000000000000\n        /* \"#utility.yul\":13348:13350   */\n      0x20\n        /* \"#utility.yul\":13340:13346   */\n      dup3\n        /* \"#utility.yul\":13336:13351   */\n      add\n        /* \"#utility.yul\":13329:13372   */\n      mstore\n        /* \"#utility.yul\":13144:13379   */\n      pop\n      jump\t// out\n        /* \"#utility.yul\":13385:13751   */\n    tag_179:\n        /* \"#utility.yul\":13527:13530   */\n      0x00\n        /* \"#utility.yul\":13548:13615   */\n      tag_321\n        /* \"#utility.yul\":13612:13614   */\n      0x30\n        /* \"#utility.yul\":13607:13610   */\n      dup4\n        /* \"#utility.yul\":13548:13615   */\n      tag_163\n      jump\t// in\n    tag_321:\n        /* \"#utility.yul\":13541:13615   */\n      swap2\n      pop\n        /* \"#utility.yul\":13624:13717   */\n      tag_322\n        /* \"#utility.yul\":13713:13716   */\n      dup3\n        /* \"#utility.yul\":13624:13717   */\n      tag_178\n      jump\t// in\n    tag_322:\n        /* \"#utility.yul\":13742:13744   */\n      0x40\n        /* \"#utility.yul\":13737:13740   */\n      dup3\n        /* \"#utility.yul\":13733:13745   */\n      add\n        /* \"#utility.yul\":13726:13745   */\n      swap1\n      pop\n        /* \"#utility.yul\":13385:13751   */\n      swap2\n      swap1\n      pop\n      jump\t// out\n        /* \"#utility.yul\":13757:14176   */\n    tag_105:\n        /* \"#utility.yul\":13923:13927   */\n      0x00\n        /* \"#utility.yul\":13961:13963   */\n      0x20\n        /* \"#utility.yul\":13950:13959   */\n      dup3\n        /* \"#utility.yul\":13946:13964   */\n      add\n        /* \"#utility.yul\":13938:13964   */\n      swap1\n      pop\n        /* \"#utility.yul\":14010:14019   */\n      dup2\n        /* \"#utility.yul\":14004:14008   */\n      dup2\n        /* \"#utility.yul\":14000:14020   */\n      sub\n        /* \"#utility.yul\":13996:13997   */\n      0x00\n        /* \"#utility.yul\":13985:13994   */\n      dup4\n        /* \"#utility.yul\":13981:13998   */\n      add\n        /* \"#utility.yul\":13974:14021   */\n      mstore\n        /* \"#utility.yul\":14038:14169   */\n      tag_324\n        /* \"#utility.yul\":14164:14168   */\n      dup2\n        /* \"#utility.yul\":14038:14169   */\n      tag_179\n      jump\t// in\n    tag_324:\n        /* \"#utility.yul\":14030:14169   */\n      swap1\n      pop\n        /* \"#utility.yul\":13757:14176   */\n      swap2\n      swap1\n      pop\n      jump\t// out\n        /* \"#utility.yul\":14182:14624   */\n    tag_107:\n        /* \"#utility.yul\":14331:14335   */\n      0x00\n        /* \"#utility.yul\":14369:14371   */\n      0x60\n        /* \"#utility.yul\":14358:14367   */\n      dup3\n        /* \"#utility.yul\":14354:14372   */\n      add\n        /* \"#utility.yul\":14346:14372   */\n      swap1\n      pop\n        /* \"#utility.yul\":14382:14453   */\n      tag_326\n        /* \"#utility.yul\":14450:14451   */\n      0x00\n        /* \"#utility.yul\":14439:14448   */\n      dup4\n        /* \"#utility.yul\":14435:14452   */\n      add\n        /* \"#utility.yul\":14426:14432   */\n      dup7\n        /* \"#utility.yul\":14382:14453   */\n      tag_149\n      jump\t// in\n    tag_326:\n        /* \"#utility.yul\":14463:14535   */\n      tag_327\n        /* \"#utility.yul\":14531:14533   */\n      0x20\n        /* \"#utility.yul\":14520:14529   */\n      dup4\n        /* \"#utility.yul\":14516:14534   */\n      add\n        /* \"#utility.yul\":14507:14513   */\n      dup6\n        /* \"#utility.yul\":14463:14535   */\n      tag_149\n      jump\t// in\n    tag_327:\n        /* \"#utility.yul\":14545:14617   */\n      tag_328\n        /* \"#utility.yul\":14613:14615   */\n      0x40\n        /* \"#utility.yul\":14602:14611   */\n      dup4\n        /* \"#utility.yul\":14598:14616   */\n      add\n        /* \"#utility.yul\":14589:14595   */\n      dup5\n        /* \"#utility.yul\":14545:14617   */\n      tag_155\n      jump\t// in\n    tag_328:\n        /* \"#utility.yul\":14182:14624   */\n      swap5\n      swap4\n      pop\n      pop\n      pop\n      pop\n      jump\t// out\n        /* \"#utility.yul\":14630:14801   */\n    tag_180:\n        /* \"#utility.yul\":14770:14793   */\n      0x546f6b656e207472616e73666572206661696c65640000000000000000000000\n        /* \"#utility.yul\":14766:14767   */\n      0x00\n        /* \"#utility.yul\":14758:14764   */\n      dup3\n        /* \"#utility.yul\":14754:14768   */\n      add\n        /* \"#utility.yul\":14747:14794   */\n      mstore\n        /* \"#utility.yul\":14630:14801   */\n      pop\n      jump\t// out\n        /* \"#utility.yul\":14807:15173   */\n    tag_181:\n        /* \"#utility.yul\":14949:14952   */\n      0x00\n        /* \"#utility.yul\":14970:15037   */\n      tag_331\n        /* \"#utility.yul\":15034:15036   */\n      0x15\n        /* \"#utility.yul\":15029:15032   */\n      dup4\n        /* \"#utility.yul\":14970:15037   */\n      tag_163\n      jump\t// in\n    tag_331:\n        /* \"#utility.yul\":14963:15037   */\n      swap2\n      pop\n        /* \"#utility.yul\":15046:15139   */\n      tag_332\n        /* \"#utility.yul\":15135:15138   */\n      dup3\n        /* \"#utility.yul\":15046:15139   */\n      tag_180\n      jump\t// in\n    tag_332:\n        /* \"#utility.yul\":15164:15166   */\n      0x20\n        /* \"#utility.yul\":15159:15162   */\n      dup3\n        /* \"#utility.yul\":15155:15167   */\n      add\n        /* \"#utility.yul\":15148:15167   */\n      swap1\n      pop\n        /* \"#utility.yul\":14807:15173   */\n      swap2\n      swap1\n      pop\n      jump\t// out\n        /* \"#utility.yul\":15179:15598   */\n    tag_113:\n        /* \"#utility.yul\":15345:15349   */\n      0x00\n        /* \"#utility.yul\":15383:15385   */\n      0x20\n        /* \"#utility.yul\":15372:15381   */\n      dup3\n        /* \"#utility.yul\":15368:15386   */\n      add\n        /* \"#utility.yul\":15360:15386   */\n      swap1\n      pop\n        /* \"#utility.yul\":15432:15441   */\n      dup2\n        /* \"#utility.yul\":15426:15430   */\n      dup2\n        /* \"#utility.yul\":15422:15442   */\n      sub\n        /* \"#utility.yul\":15418:15419   */\n      0x00\n        /* \"#utility.yul\":15407:15416   */\n      dup4\n        /* \"#utility.yul\":15403:15420   */\n      add\n        /* \"#utility.yul\":15396:15443   */\n      mstore\n        /* \"#utility.yul\":15460:15591   */\n      tag_334\n        /* \"#utility.yul\":15586:15590   */\n      dup2\n        /* \"#utility.yul\":15460:15591   */\n      tag_181\n      jump\t// in\n    tag_334:\n        /* \"#utility.yul\":15452:15591   */\n      swap1\n      pop\n        /* \"#utility.yul\":15179:15598   */\n      swap2\n      swap1\n      pop\n      jump\t// out\n        /* \"#utility.yul\":15604:15780   */\n    tag_182:\n        /* \"#utility.yul\":15744:15772   */\n      0x4465616c20697320616c726561647920636f6d706c657465642e000000000000\n        /* \"#utility.yul\":15740:15741   */\n      0x00\n        /* \"#utility.yul\":15732:15738   */\n      dup3\n        /* \"#utility.yul\":15728:15742   */\n      add\n        /* \"#utility.yul\":15721:15773   */\n      mstore\n        /* \"#utility.yul\":15604:15780   */\n      pop\n      jump\t// out\n        /* \"#utility.yul\":15786:16152   */\n    tag_183:\n        /* \"#utility.yul\":15928:15931   */\n      0x00\n        /* \"#utility.yul\":15949:16016   */\n      tag_337\n        /* \"#utility.yul\":16013:16015   */\n      0x1a\n        /* \"#utility.yul\":16008:16011   */\n      dup4\n        /* \"#utility.yul\":15949:16016   */\n      tag_163\n      jump\t// in\n    tag_337:\n        /* \"#utility.yul\":15942:16016   */\n      swap2\n      pop\n        /* \"#utility.yul\":16025:16118   */\n      tag_338\n        /* \"#utility.yul\":16114:16117   */\n      dup3\n        /* \"#utility.yul\":16025:16118   */\n      tag_182\n      jump\t// in\n    tag_338:\n        /* \"#utility.yul\":16143:16145   */\n      0x20\n        /* \"#utility.yul\":16138:16141   */\n      dup3\n        /* \"#utility.yul\":16134:16146   */\n      add\n        /* \"#utility.yul\":16127:16146   */\n      swap1\n      pop\n        /* \"#utility.yul\":15786:16152   */\n      swap2\n      swap1\n      pop\n      jump\t// out\n        /* \"#utility.yul\":16158:16577   */\n    tag_119:\n        /* \"#utility.yul\":16324:16328   */\n      0x00\n        /* \"#utility.yul\":16362:16364   */\n      0x20\n        /* \"#utility.yul\":16351:16360   */\n      dup3\n        /* \"#utility.yul\":16347:16365   */\n      add\n        /* \"#utility.yul\":16339:16365   */\n      swap1\n      pop\n        /* \"#utility.yul\":16411:16420   */\n      dup2\n        /* \"#utility.yul\":16405:16409   */\n      dup2\n        /* \"#utility.yul\":16401:16421   */\n      sub\n        /* \"#utility.yul\":16397:16398   */\n      0x00\n        /* \"#utility.yul\":16386:16395   */\n      dup4\n        /* \"#utility.yul\":16382:16399   */\n      add\n        /* \"#utility.yul\":16375:16422   */\n      mstore\n        /* \"#utility.yul\":16439:16570   */\n      tag_340\n        /* \"#utility.yul\":16565:16569   */\n      dup2\n        /* \"#utility.yul\":16439:16570   */\n      tag_183\n      jump\t// in\n    tag_340:\n        /* \"#utility.yul\":16431:16570   */\n      swap1\n      pop\n        /* \"#utility.yul\":16158:16577   */\n      swap2\n      swap1\n      pop\n      jump\t// out\n\n    auxdata: 0xa264697066735822122040372f159628de9341d0a85984e594259d8d2f58a2ee018dde0b90407cf212ef64736f6c63430008190033\n}\n",
				"bytecode": {
					"linkReferences": {},
					"object": "608060405234801561000f575f80fd5b50335f73ffffffffffffffffffffffffffffffffffffffff168173ffffffffffffffffffffffffffffffffffffffff1603610081575f6040517f1e4fbdf70000000000000000000000000000000000000000000000000000000081526004016100789190610196565b60405180910390fd5b6100908161009660201b60201c565b506101af565b5f805f9054906101000a900473ffffffffffffffffffffffffffffffffffffffff169050815f806101000a81548173ffffffffffffffffffffffffffffffffffffffff021916908373ffffffffffffffffffffffffffffffffffffffff1602179055508173ffffffffffffffffffffffffffffffffffffffff168173ffffffffffffffffffffffffffffffffffffffff167f8be0079c531659141344cd1fd0a4f28419497f9722a3daafe3b4186f6b6457e060405160405180910390a35050565b5f73ffffffffffffffffffffffffffffffffffffffff82169050919050565b5f61018082610157565b9050919050565b61019081610176565b82525050565b5f6020820190506101a95f830184610187565b92915050565b6116b3806101bc5f395ff3fe608060405234801561000f575f80fd5b5060043610610091575f3560e01c8063715018a611610064578063715018a6146101325780638da5cb5b1461013c578063dd49756e1461015a578063dec3456b14610176578063f2fde38b1461019257610091565b806303988f84146100955780632f01e767146100ca57806352591880146100e657806361fb99a314610116575b5f80fd5b6100af60048036038101906100aa9190610ea7565b6101ae565b6040516100c196959493929190610f95565b60405180910390f35b6100e460048036038101906100df9190610ff4565b61025c565b005b61010060048036038101906100fb9190611097565b610577565b60405161010d91906110fb565b60405180910390f35b610130600480360381019061012b9190610ea7565b610728565b005b61013a61092a565b005b61014461093d565b6040516101519190611114565b60405180910390f35b610174600480360381019061016f9190610ea7565b610964565b005b610190600480360381019061018b9190610ea7565b610b0c565b005b6101ac60048036038101906101a7919061112d565b610c9d565b005b6001602052805f5260405f205f91509050805f015f9054906101000a900473ffffffffffffffffffffffffffffffffffffffff1690806001015f9054906101000a900473ffffffffffffffffffffffffffffffffffffffff1690806002015f9054906101000a900473ffffffffffffffffffffffffffffffffffffffff1690806003015490806004015f9054906101000a900460ff16908060040160019054906101000a900460ff16905086565b610264610d21565b5f60015f8481526020019081526020015f2090508060040160019054906101000a900460ff166102c9576040517f08c379a00000000000000000000000000000000000000000000000000000000081526004016102c0906111b2565b60405180910390fd5b806004015f9054906101000a900460ff161561031a576040517f08c379a00000000000000000000000000000000000000000000000000000000081526004016103119061121a565b60405180910390fd5b6001816004015f6101000a81548160ff0219169083151502179055505f60648383600301546103499190611265565b61035391906112d3565b90505f8183600301546103669190611303565b9050826002015f9054906101000a900473ffffffffffffffffffffffffffffffffffffffff1673ffffffffffffffffffffffffffffffffffffffff1663a9059cbb846001015f9054906101000a900473ffffffffffffffffffffffffffffffffffffffff16846040518363ffffffff1660e01b81526004016103e9929190611336565b6020604051808303815f875af1158015610405573d5f803e3d5ffd5b505050506040513d601f19601f820116820180604052508101906104299190611387565b610468576040517f08c379a000000000000000000000000000000000000000000000000000000000815260040161045f906113fc565b60405180910390fd5b5f81111561057057826002015f9054906101000a900473ffffffffffffffffffffffffffffffffffffffff1673ffffffffffffffffffffffffffffffffffffffff1663a9059cbb845f015f9054906101000a900473ffffffffffffffffffffffffffffffffffffffff16836040518363ffffffff1660e01b81526004016104f0929190611336565b6020604051808303815f875af115801561050c573d5f803e3d5ffd5b505050506040513d601f19601f820116820180604052508101906105309190611387565b61056f576040517f08c379a000000000000000000000000000000000000000000000000000000000815260040161056690611464565b60405180910390fd5b5b5050505050565b5f808590506040518060c001604052803373ffffffffffffffffffffffffffffffffffffffff1681526020018673ffffffffffffffffffffffffffffffffffffffff1681526020018573ffffffffffffffffffffffffffffffffffffffff1681526020018481526020015f151581526020015f151581525060015f8381526020019081526020015f205f820151815f015f6101000a81548173ffffffffffffffffffffffffffffffffffffffff021916908373ffffffffffffffffffffffffffffffffffffffff1602179055506020820151816001015f6101000a81548173ffffffffffffffffffffffffffffffffffffffff021916908373ffffffffffffffffffffffffffffffffffffffff1602179055506040820151816002015f6101000a81548173ffffffffffffffffffffffffffffffffffffffff021916908373ffffffffffffffffffffffffffffffffffffffff160217905550606082015181600301556080820151816004015f6101000a81548160ff02191690831515021790555060a08201518160040160016101000a81548160ff02191690831515021790555090505080915050949350505050565b610730610d21565b5f60015f8381526020019081526020015f2090508060040160019054906101000a900460ff16610795576040517f08c379a000000000000000000000000000000000000000000000000000000000815260040161078c906111b2565b60405180910390fd5b806004015f9054906101000a900460ff16156107e6576040517f08c379a00000000000000000000000000000000000000000000000000000000081526004016107dd9061121a565b60405180910390fd5b6001816004015f6101000a81548160ff0219169083151502179055505f816003015490505f8260040160016101000a81548160ff021916908315150217905550816002015f9054906101000a900473ffffffffffffffffffffffffffffffffffffffff1673ffffffffffffffffffffffffffffffffffffffff1663a9059cbb835f015f9054906101000a900473ffffffffffffffffffffffffffffffffffffffff16836040518363ffffffff1660e01b81526004016108a6929190611336565b6020604051808303815f875af11580156108c2573d5f803e3d5ffd5b505050506040513d601f19601f820116820180604052508101906108e69190611387565b610925576040517f08c379a000000000000000000000000000000000000000000000000000000000815260040161091c906114cc565b60405180910390fd5b505050565b610932610d21565b61093b5f610da8565b565b5f805f9054906101000a900473ffffffffffffffffffffffffffffffffffffffff16905090565b5f60015f8381526020019081526020015f209050805f015f9054906101000a900473ffffffffffffffffffffffffffffffffffffffff1673ffffffffffffffffffffffffffffffffffffffff163373ffffffffffffffffffffffffffffffffffffffff1614610a08576040517f08c379a00000000000000000000000000000000000000000000000000000000081526004016109ff9061155a565b60405180910390fd5b806002015f9054906101000a900473ffffffffffffffffffffffffffffffffffffffff1673ffffffffffffffffffffffffffffffffffffffff166323b872dd333084600301546040518463ffffffff1660e01b8152600401610a6c93929190611578565b6020604051808303815f875af1158015610a88573d5f803e3d5ffd5b505050506040513d601f19601f82011682018060405250810190610aac9190611387565b610aeb576040517f08c379a0000000000000000000000000000000000000000000000000000000008152600401610ae2906115f7565b60405180910390fd5b60018160040160016101000a81548160ff0219169083151502179055505050565b610b14610d21565b5f60015f8381526020019081526020015f209050806004015f9054906101000a900460ff1615610b79576040517f08c379a0000000000000000000000000000000000000000000000000000000008152600401610b709061165f565b60405180910390fd5b806002015f9054906101000a900473ffffffffffffffffffffffffffffffffffffffff1673ffffffffffffffffffffffffffffffffffffffff1663a9059cbb826001015f9054906101000a900473ffffffffffffffffffffffffffffffffffffffff1683600301546040518363ffffffff1660e01b8152600401610bfe929190611336565b6020604051808303815f875af1158015610c1a573d5f803e3d5ffd5b505050506040513d601f19601f82011682018060405250810190610c3e9190611387565b610c7d576040517f08c379a0000000000000000000000000000000000000000000000000000000008152600401610c74906115f7565b60405180910390fd5b6001816004015f6101000a81548160ff0219169083151502179055505050565b610ca5610d21565b5f73ffffffffffffffffffffffffffffffffffffffff168173ffffffffffffffffffffffffffffffffffffffff1603610d15575f6040517f1e4fbdf7000000000000000000000000000000000000000000000000000000008152600401610d0c9190611114565b60405180910390fd5b610d1e81610da8565b50565b610d29610e69565b73ffffffffffffffffffffffffffffffffffffffff16610d4761093d565b73ffffffffffffffffffffffffffffffffffffffff1614610da657610d6a610e69565b6040517f118cdaa7000000000000000000000000000000000000000000000000000000008152600401610d9d9190611114565b60405180910390fd5b565b5f805f9054906101000a900473ffffffffffffffffffffffffffffffffffffffff169050815f806101000a81548173ffffffffffffffffffffffffffffffffffffffff021916908373ffffffffffffffffffffffffffffffffffffffff1602179055508173ffffffffffffffffffffffffffffffffffffffff168173ffffffffffffffffffffffffffffffffffffffff167f8be0079c531659141344cd1fd0a4f28419497f9722a3daafe3b4186f6b6457e060405160405180910390a35050565b5f33905090565b5f80fd5b5f819050919050565b610e8681610e74565b8114610e90575f80fd5b50565b5f81359050610ea181610e7d565b92915050565b5f60208284031215610ebc57610ebb610e70565b5b5f610ec984828501610e93565b91505092915050565b5f73ffffffffffffffffffffffffffffffffffffffff82169050919050565b5f610efb82610ed2565b9050919050565b610f0b81610ef1565b82525050565b5f819050919050565b5f610f34610f2f610f2a84610ed2565b610f11565b610ed2565b9050919050565b5f610f4582610f1a565b9050919050565b5f610f5682610f3b565b9050919050565b610f6681610f4c565b82525050565b610f7581610e74565b82525050565b5f8115159050919050565b610f8f81610f7b565b82525050565b5f60c082019050610fa85f830189610f02565b610fb56020830188610f02565b610fc26040830187610f5d565b610fcf6060830186610f6c565b610fdc6080830185610f86565b610fe960a0830184610f86565b979650505050505050565b5f806040838503121561100a57611009610e70565b5b5f61101785828601610e93565b925050602061102885828601610e93565b9150509250929050565b61103b81610ef1565b8114611045575f80fd5b50565b5f8135905061105681611032565b92915050565b5f61106682610ef1565b9050919050565b6110768161105c565b8114611080575f80fd5b50565b5f813590506110918161106d565b92915050565b5f805f80608085870312156110af576110ae610e70565b5b5f6110bc87828801610e93565b94505060206110cd87828801611048565b93505060406110de87828801611083565b92505060606110ef87828801610e93565b91505092959194509250565b5f60208201905061110e5f830184610f6c565b92915050565b5f6020820190506111275f830184610f02565b92915050565b5f6020828403121561114257611141610e70565b5b5f61114f84828501611048565b91505092915050565b5f82825260208201905092915050565b7f4e6f2066756e6473206465706f736974656420666f722074686973206465616c5f82015250565b5f61119c602083611158565b91506111a782611168565b602082019050919050565b5f6020820190508181035f8301526111c981611190565b9050919050565b7f4465616c20697320616c726561647920636f6d706c65746564000000000000005f82015250565b5f611204601983611158565b915061120f826111d0565b602082019050919050565b5f6020820190508181035f830152611231816111f8565b9050919050565b7f4e487b71000000000000000000000000000000000000000000000000000000005f52601160045260245ffd5b5f61126f82610e74565b915061127a83610e74565b925082820261128881610e74565b9150828204841483151761129f5761129e611238565b5b5092915050565b7f4e487b71000000000000000000000000000000000000000000000000000000005f52601260045260245ffd5b5f6112dd82610e74565b91506112e883610e74565b9250826112f8576112f76112a6565b5b828204905092915050565b5f61130d82610e74565b915061131883610e74565b92508282039050818111156113305761132f611238565b5b92915050565b5f6040820190506113495f830185610f02565b6113566020830184610f6c565b9392505050565b61136681610f7b565b8114611370575f80fd5b50565b5f815190506113818161135d565b92915050565b5f6020828403121561139c5761139b610e70565b5b5f6113a984828501611373565b91505092915050565b7f5472616e7366657220746f20696d706c656d656e746572206661696c656400005f82015250565b5f6113e6601e83611158565b91506113f1826113b2565b602082019050919050565b5f6020820190508181035f830152611413816113da565b9050919050565b7f526566756e6420746f20636c69656e74206661696c65640000000000000000005f82015250565b5f61144e601783611158565b91506114598261141a565b602082019050919050565b5f6020820190508181035f83015261147b81611442565b9050919050565b7f526566756e64206661696c6564000000000000000000000000000000000000005f82015250565b5f6114b6600d83611158565b91506114c182611482565b602082019050919050565b5f6020820190508181035f8301526114e3816114aa565b9050919050565b7f4f6e6c792074686520636c69656e742063616e206465706f73697420746f6b655f8201527f6e7320666f7220746865206465616c2e00000000000000000000000000000000602082015250565b5f611544603083611158565b915061154f826114ea565b604082019050919050565b5f6020820190508181035f83015261157181611538565b9050919050565b5f60608201905061158b5f830186610f02565b6115986020830185610f02565b6115a56040830184610f6c565b949350505050565b7f546f6b656e207472616e73666572206661696c656400000000000000000000005f82015250565b5f6115e1601583611158565b91506115ec826115ad565b602082019050919050565b5f6020820190508181035f83015261160e816115d5565b9050919050565b7f4465616c20697320616c726561647920636f6d706c657465642e0000000000005f82015250565b5f611649601a83611158565b915061165482611615565b602082019050919050565b5f6020820190508181035f8301526116768161163d565b905091905056fea264697066735822122040372f159628de9341d0a85984e594259d8d2f58a2ee018dde0b90407cf212ef64736f6c63430008190033",
					"opcodes": "PUSH1 0x80 PUSH1 0x40 MSTORE CALLVALUE DUP1 ISZERO PUSH2 0xF JUMPI PUSH0 DUP1 REVERT JUMPDEST POP CALLER PUSH0 PUSH20 0xFFFFFFFFFFFFFFFFFFFFFFFFFFFFFFFFFFFFFFFF AND DUP2 PUSH20 0xFFFFFFFFFFFFFFFFFFFFFFFFFFFFFFFFFFFFFFFF AND SUB PUSH2 0x81 JUMPI PUSH0 PUSH1 0x40 MLOAD PUSH32 0x1E4FBDF700000000000000000000000000000000000000000000000000000000 DUP2 MSTORE PUSH1 0x4 ADD PUSH2 0x78 SWAP2 SWAP1 PUSH2 0x196 JUMP JUMPDEST PUSH1 0x40 MLOAD DUP1 SWAP2 SUB SWAP1 REVERT JUMPDEST PUSH2 0x90 DUP2 PUSH2 0x96 PUSH1 0x20 SHL PUSH1 0x20 SHR JUMP JUMPDEST POP PUSH2 0x1AF JUMP JUMPDEST PUSH0 DUP1 PUSH0 SWAP1 SLOAD SWAP1 PUSH2 0x100 EXP SWAP1 DIV PUSH20 0xFFFFFFFFFFFFFFFFFFFFFFFFFFFFFFFFFFFFFFFF AND SWAP1 POP DUP2 PUSH0 DUP1 PUSH2 0x100 EXP DUP2 SLOAD DUP2 PUSH20 0xFFFFFFFFFFFFFFFFFFFFFFFFFFFFFFFFFFFFFFFF MUL NOT AND SWAP1 DUP4 PUSH20 0xFFFFFFFFFFFFFFFFFFFFFFFFFFFFFFFFFFFFFFFF AND MUL OR SWAP1 SSTORE POP DUP2 PUSH20 0xFFFFFFFFFFFFFFFFFFFFFFFFFFFFFFFFFFFFFFFF AND DUP2 PUSH20 0xFFFFFFFFFFFFFFFFFFFFFFFFFFFFFFFFFFFFFFFF AND PUSH32 0x8BE0079C531659141344CD1FD0A4F28419497F9722A3DAAFE3B4186F6B6457E0 PUSH1 0x40 MLOAD PUSH1 0x40 MLOAD DUP1 SWAP2 SUB SWAP1 LOG3 POP POP JUMP JUMPDEST PUSH0 PUSH20 0xFFFFFFFFFFFFFFFFFFFFFFFFFFFFFFFFFFFFFFFF DUP3 AND SWAP1 POP SWAP2 SWAP1 POP JUMP JUMPDEST PUSH0 PUSH2 0x180 DUP3 PUSH2 0x157 JUMP JUMPDEST SWAP1 POP SWAP2 SWAP1 POP JUMP JUMPDEST PUSH2 0x190 DUP2 PUSH2 0x176 JUMP JUMPDEST DUP3 MSTORE POP POP JUMP JUMPDEST PUSH0 PUSH1 0x20 DUP3 ADD SWAP1 POP PUSH2 0x1A9 PUSH0 DUP4 ADD DUP5 PUSH2 0x187 JUMP JUMPDEST SWAP3 SWAP2 POP POP JUMP JUMPDEST PUSH2 0x16B3 DUP1 PUSH2 0x1BC PUSH0 CODECOPY PUSH0 RETURN INVALID PUSH1 0x80 PUSH1 0x40 MSTORE CALLVALUE DUP1 ISZERO PUSH2 0xF JUMPI PUSH0 DUP1 REVERT JUMPDEST POP PUSH1 0x4 CALLDATASIZE LT PUSH2 0x91 JUMPI PUSH0 CALLDATALOAD PUSH1 0xE0 SHR DUP1 PUSH4 0x715018A6 GT PUSH2 0x64 JUMPI DUP1 PUSH4 0x715018A6 EQ PUSH2 0x132 JUMPI DUP1 PUSH4 0x8DA5CB5B EQ PUSH2 0x13C JUMPI DUP1 PUSH4 0xDD49756E EQ PUSH2 0x15A JUMPI DUP1 PUSH4 0xDEC3456B EQ PUSH2 0x176 JUMPI DUP1 PUSH4 0xF2FDE38B EQ PUSH2 0x192 JUMPI PUSH2 0x91 JUMP JUMPDEST DUP1 PUSH4 0x3988F84 EQ PUSH2 0x95 JUMPI DUP1 PUSH4 0x2F01E767 EQ PUSH2 0xCA JUMPI DUP1 PUSH4 0x52591880 EQ PUSH2 0xE6 JUMPI DUP1 PUSH4 0x61FB99A3 EQ PUSH2 0x116 JUMPI JUMPDEST PUSH0 DUP1 REVERT JUMPDEST PUSH2 0xAF PUSH1 0x4 DUP1 CALLDATASIZE SUB DUP2 ADD SWAP1 PUSH2 0xAA SWAP2 SWAP1 PUSH2 0xEA7 JUMP JUMPDEST PUSH2 0x1AE JUMP JUMPDEST PUSH1 0x40 MLOAD PUSH2 0xC1 SWAP7 SWAP6 SWAP5 SWAP4 SWAP3 SWAP2 SWAP1 PUSH2 0xF95 JUMP JUMPDEST PUSH1 0x40 MLOAD DUP1 SWAP2 SUB SWAP1 RETURN JUMPDEST PUSH2 0xE4 PUSH1 0x4 DUP1 CALLDATASIZE SUB DUP2 ADD SWAP1 PUSH2 0xDF SWAP2 SWAP1 PUSH2 0xFF4 JUMP JUMPDEST PUSH2 0x25C JUMP JUMPDEST STOP JUMPDEST PUSH2 0x100 PUSH1 0x4 DUP1 CALLDATASIZE SUB DUP2 ADD SWAP1 PUSH2 0xFB SWAP2 SWAP1 PUSH2 0x1097 JUMP JUMPDEST PUSH2 0x577 JUMP JUMPDEST PUSH1 0x40 MLOAD PUSH2 0x10D SWAP2 SWAP1 PUSH2 0x10FB JUMP JUMPDEST PUSH1 0x40 MLOAD DUP1 SWAP2 SUB SWAP1 RETURN JUMPDEST PUSH2 0x130 PUSH1 0x4 DUP1 CALLDATASIZE SUB DUP2 ADD SWAP1 PUSH2 0x12B SWAP2 SWAP1 PUSH2 0xEA7 JUMP JUMPDEST PUSH2 0x728 JUMP JUMPDEST STOP JUMPDEST PUSH2 0x13A PUSH2 0x92A JUMP JUMPDEST STOP JUMPDEST PUSH2 0x144 PUSH2 0x93D JUMP JUMPDEST PUSH1 0x40 MLOAD PUSH2 0x151 SWAP2 SWAP1 PUSH2 0x1114 JUMP JUMPDEST PUSH1 0x40 MLOAD DUP1 SWAP2 SUB SWAP1 RETURN JUMPDEST PUSH2 0x174 PUSH1 0x4 DUP1 CALLDATASIZE SUB DUP2 ADD SWAP1 PUSH2 0x16F SWAP2 SWAP1 PUSH2 0xEA7 JUMP JUMPDEST PUSH2 0x964 JUMP JUMPDEST STOP JUMPDEST PUSH2 0x190 PUSH1 0x4 DUP1 CALLDATASIZE SUB DUP2 ADD SWAP1 PUSH2 0x18B SWAP2 SWAP1 PUSH2 0xEA7 JUMP JUMPDEST PUSH2 0xB0C JUMP JUMPDEST STOP JUMPDEST PUSH2 0x1AC PUSH1 0x4 DUP1 CALLDATASIZE SUB DUP2 ADD SWAP1 PUSH2 0x1A7 SWAP2 SWAP1 PUSH2 0x112D JUMP JUMPDEST PUSH2 0xC9D JUMP JUMPDEST STOP JUMPDEST PUSH1 0x1 PUSH1 0x20 MSTORE DUP1 PUSH0 MSTORE PUSH1 0x40 PUSH0 KECCAK256 PUSH0 SWAP2 POP SWAP1 POP DUP1 PUSH0 ADD PUSH0 SWAP1 SLOAD SWAP1 PUSH2 0x100 EXP SWAP1 DIV PUSH20 0xFFFFFFFFFFFFFFFFFFFFFFFFFFFFFFFFFFFFFFFF AND SWAP1 DUP1 PUSH1 0x1 ADD PUSH0 SWAP1 SLOAD SWAP1 PUSH2 0x100 EXP SWAP1 DIV PUSH20 0xFFFFFFFFFFFFFFFFFFFFFFFFFFFFFFFFFFFFFFFF AND SWAP1 DUP1 PUSH1 0x2 ADD PUSH0 SWAP1 SLOAD SWAP1 PUSH2 0x100 EXP SWAP1 DIV PUSH20 0xFFFFFFFFFFFFFFFFFFFFFFFFFFFFFFFFFFFFFFFF AND SWAP1 DUP1 PUSH1 0x3 ADD SLOAD SWAP1 DUP1 PUSH1 0x4 ADD PUSH0 SWAP1 SLOAD SWAP1 PUSH2 0x100 EXP SWAP1 DIV PUSH1 0xFF AND SWAP1 DUP1 PUSH1 0x4 ADD PUSH1 0x1 SWAP1 SLOAD SWAP1 PUSH2 0x100 EXP SWAP1 DIV PUSH1 0xFF AND SWAP1 POP DUP7 JUMP JUMPDEST PUSH2 0x264 PUSH2 0xD21 JUMP JUMPDEST PUSH0 PUSH1 0x1 PUSH0 DUP5 DUP2 MSTORE PUSH1 0x20 ADD SWAP1 DUP2 MSTORE PUSH1 0x20 ADD PUSH0 KECCAK256 SWAP1 POP DUP1 PUSH1 0x4 ADD PUSH1 0x1 SWAP1 SLOAD SWAP1 PUSH2 0x100 EXP SWAP1 DIV PUSH1 0xFF AND PUSH2 0x2C9 JUMPI PUSH1 0x40 MLOAD PUSH32 0x8C379A000000000000000000000000000000000000000000000000000000000 DUP2 MSTORE PUSH1 0x4 ADD PUSH2 0x2C0 SWAP1 PUSH2 0x11B2 JUMP JUMPDEST PUSH1 0x40 MLOAD DUP1 SWAP2 SUB SWAP1 REVERT JUMPDEST DUP1 PUSH1 0x4 ADD PUSH0 SWAP1 SLOAD SWAP1 PUSH2 0x100 EXP SWAP1 DIV PUSH1 0xFF AND ISZERO PUSH2 0x31A JUMPI PUSH1 0x40 MLOAD PUSH32 0x8C379A000000000000000000000000000000000000000000000000000000000 DUP2 MSTORE PUSH1 0x4 ADD PUSH2 0x311 SWAP1 PUSH2 0x121A JUMP JUMPDEST PUSH1 0x40 MLOAD DUP1 SWAP2 SUB SWAP1 REVERT JUMPDEST PUSH1 0x1 DUP2 PUSH1 0x4 ADD PUSH0 PUSH2 0x100 EXP DUP2 SLOAD DUP2 PUSH1 0xFF MUL NOT AND SWAP1 DUP4 ISZERO ISZERO MUL OR SWAP1 SSTORE POP PUSH0 PUSH1 0x64 DUP4 DUP4 PUSH1 0x3 ADD SLOAD PUSH2 0x349 SWAP2 SWAP1 PUSH2 0x1265 JUMP JUMPDEST PUSH2 0x353 SWAP2 SWAP1 PUSH2 0x12D3 JUMP JUMPDEST SWAP1 POP PUSH0 DUP2 DUP4 PUSH1 0x3 ADD SLOAD PUSH2 0x366 SWAP2 SWAP1 PUSH2 0x1303 JUMP JUMPDEST SWAP1 POP DUP3 PUSH1 0x2 ADD PUSH0 SWAP1 SLOAD SWAP1 PUSH2 0x100 EXP SWAP1 DIV PUSH20 0xFFFFFFFFFFFFFFFFFFFFFFFFFFFFFFFFFFFFFFFF AND PUSH20 0xFFFFFFFFFFFFFFFFFFFFFFFFFFFFFFFFFFFFFFFF AND PUSH4 0xA9059CBB DUP5 PUSH1 0x1 ADD PUSH0 SWAP1 SLOAD SWAP1 PUSH2 0x100 EXP SWAP1 DIV PUSH20 0xFFFFFFFFFFFFFFFFFFFFFFFFFFFFFFFFFFFFFFFF AND DUP5 PUSH1 0x40 MLOAD DUP4 PUSH4 0xFFFFFFFF AND PUSH1 0xE0 SHL DUP2 MSTORE PUSH1 0x4 ADD PUSH2 0x3E9 SWAP3 SWAP2 SWAP1 PUSH2 0x1336 JUMP JUMPDEST PUSH1 0x20 PUSH1 0x40 MLOAD DUP1 DUP4 SUB DUP2 PUSH0 DUP8 GAS CALL ISZERO DUP1 ISZERO PUSH2 0x405 JUMPI RETURNDATASIZE PUSH0 DUP1 RETURNDATACOPY RETURNDATASIZE PUSH0 REVERT JUMPDEST POP POP POP POP PUSH1 0x40 MLOAD RETURNDATASIZE PUSH1 0x1F NOT PUSH1 0x1F DUP3 ADD AND DUP3 ADD DUP1 PUSH1 0x40 MSTORE POP DUP2 ADD SWAP1 PUSH2 0x429 SWAP2 SWAP1 PUSH2 0x1387 JUMP JUMPDEST PUSH2 0x468 JUMPI PUSH1 0x40 MLOAD PUSH32 0x8C379A000000000000000000000000000000000000000000000000000000000 DUP2 MSTORE PUSH1 0x4 ADD PUSH2 0x45F SWAP1 PUSH2 0x13FC JUMP JUMPDEST PUSH1 0x40 MLOAD DUP1 SWAP2 SUB SWAP1 REVERT JUMPDEST PUSH0 DUP2 GT ISZERO PUSH2 0x570 JUMPI DUP3 PUSH1 0x2 ADD PUSH0 SWAP1 SLOAD SWAP1 PUSH2 0x100 EXP SWAP1 DIV PUSH20 0xFFFFFFFFFFFFFFFFFFFFFFFFFFFFFFFFFFFFFFFF AND PUSH20 0xFFFFFFFFFFFFFFFFFFFFFFFFFFFFFFFFFFFFFFFF AND PUSH4 0xA9059CBB DUP5 PUSH0 ADD PUSH0 SWAP1 SLOAD SWAP1 PUSH2 0x100 EXP SWAP1 DIV PUSH20 0xFFFFFFFFFFFFFFFFFFFFFFFFFFFFFFFFFFFFFFFF AND DUP4 PUSH1 0x40 MLOAD DUP4 PUSH4 0xFFFFFFFF AND PUSH1 0xE0 SHL DUP2 MSTORE PUSH1 0x4 ADD PUSH2 0x4F0 SWAP3 SWAP2 SWAP1 PUSH2 0x1336 JUMP JUMPDEST PUSH1 0x20 PUSH1 0x40 MLOAD DUP1 DUP4 SUB DUP2 PUSH0 DUP8 GAS CALL ISZERO DUP1 ISZERO PUSH2 0x50C JUMPI RETURNDATASIZE PUSH0 DUP1 RETURNDATACOPY RETURNDATASIZE PUSH0 REVERT JUMPDEST POP POP POP POP PUSH1 0x40 MLOAD RETURNDATASIZE PUSH1 0x1F NOT PUSH1 0x1F DUP3 ADD AND DUP3 ADD DUP1 PUSH1 0x40 MSTORE POP DUP2 ADD SWAP1 PUSH2 0x530 SWAP2 SWAP1 PUSH2 0x1387 JUMP JUMPDEST PUSH2 0x56F JUMPI PUSH1 0x40 MLOAD PUSH32 0x8C379A000000000000000000000000000000000000000000000000000000000 DUP2 MSTORE PUSH1 0x4 ADD PUSH2 0x566 SWAP1 PUSH2 0x1464 JUMP JUMPDEST PUSH1 0x40 MLOAD DUP1 SWAP2 SUB SWAP1 REVERT JUMPDEST JUMPDEST POP POP POP POP POP JUMP JUMPDEST PUSH0 DUP1 DUP6 SWAP1 POP PUSH1 0x40 MLOAD DUP1 PUSH1 0xC0 ADD PUSH1 0x40 MSTORE DUP1 CALLER PUSH20 0xFFFFFFFFFFFFFFFFFFFFFFFFFFFFFFFFFFFFFFFF AND DUP2 MSTORE PUSH1 0x20 ADD DUP7 PUSH20 0xFFFFFFFFFFFFFFFFFFFFFFFFFFFFFFFFFFFFFFFF AND DUP2 MSTORE PUSH1 0x20 ADD DUP6 PUSH20 0xFFFFFFFFFFFFFFFFFFFFFFFFFFFFFFFFFFFFFFFF AND DUP2 MSTORE PUSH1 0x20 ADD DUP5 DUP2 MSTORE PUSH1 0x20 ADD PUSH0 ISZERO ISZERO DUP2 MSTORE PUSH1 0x20 ADD PUSH0 ISZERO ISZERO DUP2 MSTORE POP PUSH1 0x1 PUSH0 DUP4 DUP2 MSTORE PUSH1 0x20 ADD SWAP1 DUP2 MSTORE PUSH1 0x20 ADD PUSH0 KECCAK256 PUSH0 DUP3 ADD MLOAD DUP2 PUSH0 ADD PUSH0 PUSH2 0x100 EXP DUP2 SLOAD DUP2 PUSH20 0xFFFFFFFFFFFFFFFFFFFFFFFFFFFFFFFFFFFFFFFF MUL NOT AND SWAP1 DUP4 PUSH20 0xFFFFFFFFFFFFFFFFFFFFFFFFFFFFFFFFFFFFFFFF AND MUL OR SWAP1 SSTORE POP PUSH1 0x20 DUP3 ADD MLOAD DUP2 PUSH1 0x1 ADD PUSH0 PUSH2 0x100 EXP DUP2 SLOAD DUP2 PUSH20 0xFFFFFFFFFFFFFFFFFFFFFFFFFFFFFFFFFFFFFFFF MUL NOT AND SWAP1 DUP4 PUSH20 0xFFFFFFFFFFFFFFFFFFFFFFFFFFFFFFFFFFFFFFFF AND MUL OR SWAP1 SSTORE POP PUSH1 0x40 DUP3 ADD MLOAD DUP2 PUSH1 0x2 ADD PUSH0 PUSH2 0x100 EXP DUP2 SLOAD DUP2 PUSH20 0xFFFFFFFFFFFFFFFFFFFFFFFFFFFFFFFFFFFFFFFF MUL NOT AND SWAP1 DUP4 PUSH20 0xFFFFFFFFFFFFFFFFFFFFFFFFFFFFFFFFFFFFFFFF AND MUL OR SWAP1 SSTORE POP PUSH1 0x60 DUP3 ADD MLOAD DUP2 PUSH1 0x3 ADD SSTORE PUSH1 0x80 DUP3 ADD MLOAD DUP2 PUSH1 0x4 ADD PUSH0 PUSH2 0x100 EXP DUP2 SLOAD DUP2 PUSH1 0xFF MUL NOT AND SWAP1 DUP4 ISZERO ISZERO MUL OR SWAP1 SSTORE POP PUSH1 0xA0 DUP3 ADD MLOAD DUP2 PUSH1 0x4 ADD PUSH1 0x1 PUSH2 0x100 EXP DUP2 SLOAD DUP2 PUSH1 0xFF MUL NOT AND SWAP1 DUP4 ISZERO ISZERO MUL OR SWAP1 SSTORE POP SWAP1 POP POP DUP1 SWAP2 POP POP SWAP5 SWAP4 POP POP POP POP JUMP JUMPDEST PUSH2 0x730 PUSH2 0xD21 JUMP JUMPDEST PUSH0 PUSH1 0x1 PUSH0 DUP4 DUP2 MSTORE PUSH1 0x20 ADD SWAP1 DUP2 MSTORE PUSH1 0x20 ADD PUSH0 KECCAK256 SWAP1 POP DUP1 PUSH1 0x4 ADD PUSH1 0x1 SWAP1 SLOAD SWAP1 PUSH2 0x100 EXP SWAP1 DIV PUSH1 0xFF AND PUSH2 0x795 JUMPI PUSH1 0x40 MLOAD PUSH32 0x8C379A000000000000000000000000000000000000000000000000000000000 DUP2 MSTORE PUSH1 0x4 ADD PUSH2 0x78C SWAP1 PUSH2 0x11B2 JUMP JUMPDEST PUSH1 0x40 MLOAD DUP1 SWAP2 SUB SWAP1 REVERT JUMPDEST DUP1 PUSH1 0x4 ADD PUSH0 SWAP1 SLOAD SWAP1 PUSH2 0x100 EXP SWAP1 DIV PUSH1 0xFF AND ISZERO PUSH2 0x7E6 JUMPI PUSH1 0x40 MLOAD PUSH32 0x8C379A000000000000000000000000000000000000000000000000000000000 DUP2 MSTORE PUSH1 0x4 ADD PUSH2 0x7DD SWAP1 PUSH2 0x121A JUMP JUMPDEST PUSH1 0x40 MLOAD DUP1 SWAP2 SUB SWAP1 REVERT JUMPDEST PUSH1 0x1 DUP2 PUSH1 0x4 ADD PUSH0 PUSH2 0x100 EXP DUP2 SLOAD DUP2 PUSH1 0xFF MUL NOT AND SWAP1 DUP4 ISZERO ISZERO MUL OR SWAP1 SSTORE POP PUSH0 DUP2 PUSH1 0x3 ADD SLOAD SWAP1 POP PUSH0 DUP3 PUSH1 0x4 ADD PUSH1 0x1 PUSH2 0x100 EXP DUP2 SLOAD DUP2 PUSH1 0xFF MUL NOT AND SWAP1 DUP4 ISZERO ISZERO MUL OR SWAP1 SSTORE POP DUP2 PUSH1 0x2 ADD PUSH0 SWAP1 SLOAD SWAP1 PUSH2 0x100 EXP SWAP1 DIV PUSH20 0xFFFFFFFFFFFFFFFFFFFFFFFFFFFFFFFFFFFFFFFF AND PUSH20 0xFFFFFFFFFFFFFFFFFFFFFFFFFFFFFFFFFFFFFFFF AND PUSH4 0xA9059CBB DUP4 PUSH0 ADD PUSH0 SWAP1 SLOAD SWAP1 PUSH2 0x100 EXP SWAP1 DIV PUSH20 0xFFFFFFFFFFFFFFFFFFFFFFFFFFFFFFFFFFFFFFFF AND DUP4 PUSH1 0x40 MLOAD DUP4 PUSH4 0xFFFFFFFF AND PUSH1 0xE0 SHL DUP2 MSTORE PUSH1 0x4 ADD PUSH2 0x8A6 SWAP3 SWAP2 SWAP1 PUSH2 0x1336 JUMP JUMPDEST PUSH1 0x20 PUSH1 0x40 MLOAD DUP1 DUP4 SUB DUP2 PUSH0 DUP8 GAS CALL ISZERO DUP1 ISZERO PUSH2 0x8C2 JUMPI RETURNDATASIZE PUSH0 DUP1 RETURNDATACOPY RETURNDATASIZE PUSH0 REVERT JUMPDEST POP POP POP POP PUSH1 0x40 MLOAD RETURNDATASIZE PUSH1 0x1F NOT PUSH1 0x1F DUP3 ADD AND DUP3 ADD DUP1 PUSH1 0x40 MSTORE POP DUP2 ADD SWAP1 PUSH2 0x8E6 SWAP2 SWAP1 PUSH2 0x1387 JUMP JUMPDEST PUSH2 0x925 JUMPI PUSH1 0x40 MLOAD PUSH32 0x8C379A000000000000000000000000000000000000000000000000000000000 DUP2 MSTORE PUSH1 0x4 ADD PUSH2 0x91C SWAP1 PUSH2 0x14CC JUMP JUMPDEST PUSH1 0x40 MLOAD DUP1 SWAP2 SUB SWAP1 REVERT JUMPDEST POP POP POP JUMP JUMPDEST PUSH2 0x932 PUSH2 0xD21 JUMP JUMPDEST PUSH2 0x93B PUSH0 PUSH2 0xDA8 JUMP JUMPDEST JUMP JUMPDEST PUSH0 DUP1 PUSH0 SWAP1 SLOAD SWAP1 PUSH2 0x100 EXP SWAP1 DIV PUSH20 0xFFFFFFFFFFFFFFFFFFFFFFFFFFFFFFFFFFFFFFFF AND SWAP1 POP SWAP1 JUMP JUMPDEST PUSH0 PUSH1 0x1 PUSH0 DUP4 DUP2 MSTORE PUSH1 0x20 ADD SWAP1 DUP2 MSTORE PUSH1 0x20 ADD PUSH0 KECCAK256 SWAP1 POP DUP1 PUSH0 ADD PUSH0 SWAP1 SLOAD SWAP1 PUSH2 0x100 EXP SWAP1 DIV PUSH20 0xFFFFFFFFFFFFFFFFFFFFFFFFFFFFFFFFFFFFFFFF AND PUSH20 0xFFFFFFFFFFFFFFFFFFFFFFFFFFFFFFFFFFFFFFFF AND CALLER PUSH20 0xFFFFFFFFFFFFFFFFFFFFFFFFFFFFFFFFFFFFFFFF AND EQ PUSH2 0xA08 JUMPI PUSH1 0x40 MLOAD PUSH32 0x8C379A000000000000000000000000000000000000000000000000000000000 DUP2 MSTORE PUSH1 0x4 ADD PUSH2 0x9FF SWAP1 PUSH2 0x155A JUMP JUMPDEST PUSH1 0x40 MLOAD DUP1 SWAP2 SUB SWAP1 REVERT JUMPDEST DUP1 PUSH1 0x2 ADD PUSH0 SWAP1 SLOAD SWAP1 PUSH2 0x100 EXP SWAP1 DIV PUSH20 0xFFFFFFFFFFFFFFFFFFFFFFFFFFFFFFFFFFFFFFFF AND PUSH20 0xFFFFFFFFFFFFFFFFFFFFFFFFFFFFFFFFFFFFFFFF AND PUSH4 0x23B872DD CALLER ADDRESS DUP5 PUSH1 0x3 ADD SLOAD PUSH1 0x40 MLOAD DUP5 PUSH4 0xFFFFFFFF AND PUSH1 0xE0 SHL DUP2 MSTORE PUSH1 0x4 ADD PUSH2 0xA6C SWAP4 SWAP3 SWAP2 SWAP1 PUSH2 0x1578 JUMP JUMPDEST PUSH1 0x20 PUSH1 0x40 MLOAD DUP1 DUP4 SUB DUP2 PUSH0 DUP8 GAS CALL ISZERO DUP1 ISZERO PUSH2 0xA88 JUMPI RETURNDATASIZE PUSH0 DUP1 RETURNDATACOPY RETURNDATASIZE PUSH0 REVERT JUMPDEST POP POP POP POP PUSH1 0x40 MLOAD RETURNDATASIZE PUSH1 0x1F NOT PUSH1 0x1F DUP3 ADD AND DUP3 ADD DUP1 PUSH1 0x40 MSTORE POP DUP2 ADD SWAP1 PUSH2 0xAAC SWAP2 SWAP1 PUSH2 0x1387 JUMP JUMPDEST PUSH2 0xAEB JUMPI PUSH1 0x40 MLOAD PUSH32 0x8C379A000000000000000000000000000000000000000000000000000000000 DUP2 MSTORE PUSH1 0x4 ADD PUSH2 0xAE2 SWAP1 PUSH2 0x15F7 JUMP JUMPDEST PUSH1 0x40 MLOAD DUP1 SWAP2 SUB SWAP1 REVERT JUMPDEST PUSH1 0x1 DUP2 PUSH1 0x4 ADD PUSH1 0x1 PUSH2 0x100 EXP DUP2 SLOAD DUP2 PUSH1 0xFF MUL NOT AND SWAP1 DUP4 ISZERO ISZERO MUL OR SWAP1 SSTORE POP POP POP JUMP JUMPDEST PUSH2 0xB14 PUSH2 0xD21 JUMP JUMPDEST PUSH0 PUSH1 0x1 PUSH0 DUP4 DUP2 MSTORE PUSH1 0x20 ADD SWAP1 DUP2 MSTORE PUSH1 0x20 ADD PUSH0 KECCAK256 SWAP1 POP DUP1 PUSH1 0x4 ADD PUSH0 SWAP1 SLOAD SWAP1 PUSH2 0x100 EXP SWAP1 DIV PUSH1 0xFF AND ISZERO PUSH2 0xB79 JUMPI PUSH1 0x40 MLOAD PUSH32 0x8C379A000000000000000000000000000000000000000000000000000000000 DUP2 MSTORE PUSH1 0x4 ADD PUSH2 0xB70 SWAP1 PUSH2 0x165F JUMP JUMPDEST PUSH1 0x40 MLOAD DUP1 SWAP2 SUB SWAP1 REVERT JUMPDEST DUP1 PUSH1 0x2 ADD PUSH0 SWAP1 SLOAD SWAP1 PUSH2 0x100 EXP SWAP1 DIV PUSH20 0xFFFFFFFFFFFFFFFFFFFFFFFFFFFFFFFFFFFFFFFF AND PUSH20 0xFFFFFFFFFFFFFFFFFFFFFFFFFFFFFFFFFFFFFFFF AND PUSH4 0xA9059CBB DUP3 PUSH1 0x1 ADD PUSH0 SWAP1 SLOAD SWAP1 PUSH2 0x100 EXP SWAP1 DIV PUSH20 0xFFFFFFFFFFFFFFFFFFFFFFFFFFFFFFFFFFFFFFFF AND DUP4 PUSH1 0x3 ADD SLOAD PUSH1 0x40 MLOAD DUP4 PUSH4 0xFFFFFFFF AND PUSH1 0xE0 SHL DUP2 MSTORE PUSH1 0x4 ADD PUSH2 0xBFE SWAP3 SWAP2 SWAP1 PUSH2 0x1336 JUMP JUMPDEST PUSH1 0x20 PUSH1 0x40 MLOAD DUP1 DUP4 SUB DUP2 PUSH0 DUP8 GAS CALL ISZERO DUP1 ISZERO PUSH2 0xC1A JUMPI RETURNDATASIZE PUSH0 DUP1 RETURNDATACOPY RETURNDATASIZE PUSH0 REVERT JUMPDEST POP POP POP POP PUSH1 0x40 MLOAD RETURNDATASIZE PUSH1 0x1F NOT PUSH1 0x1F DUP3 ADD AND DUP3 ADD DUP1 PUSH1 0x40 MSTORE POP DUP2 ADD SWAP1 PUSH2 0xC3E SWAP2 SWAP1 PUSH2 0x1387 JUMP JUMPDEST PUSH2 0xC7D JUMPI PUSH1 0x40 MLOAD PUSH32 0x8C379A000000000000000000000000000000000000000000000000000000000 DUP2 MSTORE PUSH1 0x4 ADD PUSH2 0xC74 SWAP1 PUSH2 0x15F7 JUMP JUMPDEST PUSH1 0x40 MLOAD DUP1 SWAP2 SUB SWAP1 REVERT JUMPDEST PUSH1 0x1 DUP2 PUSH1 0x4 ADD PUSH0 PUSH2 0x100 EXP DUP2 SLOAD DUP2 PUSH1 0xFF MUL NOT AND SWAP1 DUP4 ISZERO ISZERO MUL OR SWAP1 SSTORE POP POP POP JUMP JUMPDEST PUSH2 0xCA5 PUSH2 0xD21 JUMP JUMPDEST PUSH0 PUSH20 0xFFFFFFFFFFFFFFFFFFFFFFFFFFFFFFFFFFFFFFFF AND DUP2 PUSH20 0xFFFFFFFFFFFFFFFFFFFFFFFFFFFFFFFFFFFFFFFF AND SUB PUSH2 0xD15 JUMPI PUSH0 PUSH1 0x40 MLOAD PUSH32 0x1E4FBDF700000000000000000000000000000000000000000000000000000000 DUP2 MSTORE PUSH1 0x4 ADD PUSH2 0xD0C SWAP2 SWAP1 PUSH2 0x1114 JUMP JUMPDEST PUSH1 0x40 MLOAD DUP1 SWAP2 SUB SWAP1 REVERT JUMPDEST PUSH2 0xD1E DUP2 PUSH2 0xDA8 JUMP JUMPDEST POP JUMP JUMPDEST PUSH2 0xD29 PUSH2 0xE69 JUMP JUMPDEST PUSH20 0xFFFFFFFFFFFFFFFFFFFFFFFFFFFFFFFFFFFFFFFF AND PUSH2 0xD47 PUSH2 0x93D JUMP JUMPDEST PUSH20 0xFFFFFFFFFFFFFFFFFFFFFFFFFFFFFFFFFFFFFFFF AND EQ PUSH2 0xDA6 JUMPI PUSH2 0xD6A PUSH2 0xE69 JUMP JUMPDEST PUSH1 0x40 MLOAD PUSH32 0x118CDAA700000000000000000000000000000000000000000000000000000000 DUP2 MSTORE PUSH1 0x4 ADD PUSH2 0xD9D SWAP2 SWAP1 PUSH2 0x1114 JUMP JUMPDEST PUSH1 0x40 MLOAD DUP1 SWAP2 SUB SWAP1 REVERT JUMPDEST JUMP JUMPDEST PUSH0 DUP1 PUSH0 SWAP1 SLOAD SWAP1 PUSH2 0x100 EXP SWAP1 DIV PUSH20 0xFFFFFFFFFFFFFFFFFFFFFFFFFFFFFFFFFFFFFFFF AND SWAP1 POP DUP2 PUSH0 DUP1 PUSH2 0x100 EXP DUP2 SLOAD DUP2 PUSH20 0xFFFFFFFFFFFFFFFFFFFFFFFFFFFFFFFFFFFFFFFF MUL NOT AND SWAP1 DUP4 PUSH20 0xFFFFFFFFFFFFFFFFFFFFFFFFFFFFFFFFFFFFFFFF AND MUL OR SWAP1 SSTORE POP DUP2 PUSH20 0xFFFFFFFFFFFFFFFFFFFFFFFFFFFFFFFFFFFFFFFF AND DUP2 PUSH20 0xFFFFFFFFFFFFFFFFFFFFFFFFFFFFFFFFFFFFFFFF AND PUSH32 0x8BE0079C531659141344CD1FD0A4F28419497F9722A3DAAFE3B4186F6B6457E0 PUSH1 0x40 MLOAD PUSH1 0x40 MLOAD DUP1 SWAP2 SUB SWAP1 LOG3 POP POP JUMP JUMPDEST PUSH0 CALLER SWAP1 POP SWAP1 JUMP JUMPDEST PUSH0 DUP1 REVERT JUMPDEST PUSH0 DUP2 SWAP1 POP SWAP2 SWAP1 POP JUMP JUMPDEST PUSH2 0xE86 DUP2 PUSH2 0xE74 JUMP JUMPDEST DUP2 EQ PUSH2 0xE90 JUMPI PUSH0 DUP1 REVERT JUMPDEST POP JUMP JUMPDEST PUSH0 DUP2 CALLDATALOAD SWAP1 POP PUSH2 0xEA1 DUP2 PUSH2 0xE7D JUMP JUMPDEST SWAP3 SWAP2 POP POP JUMP JUMPDEST PUSH0 PUSH1 0x20 DUP3 DUP5 SUB SLT ISZERO PUSH2 0xEBC JUMPI PUSH2 0xEBB PUSH2 0xE70 JUMP JUMPDEST JUMPDEST PUSH0 PUSH2 0xEC9 DUP5 DUP3 DUP6 ADD PUSH2 0xE93 JUMP JUMPDEST SWAP2 POP POP SWAP3 SWAP2 POP POP JUMP JUMPDEST PUSH0 PUSH20 0xFFFFFFFFFFFFFFFFFFFFFFFFFFFFFFFFFFFFFFFF DUP3 AND SWAP1 POP SWAP2 SWAP1 POP JUMP JUMPDEST PUSH0 PUSH2 0xEFB DUP3 PUSH2 0xED2 JUMP JUMPDEST SWAP1 POP SWAP2 SWAP1 POP JUMP JUMPDEST PUSH2 0xF0B DUP2 PUSH2 0xEF1 JUMP JUMPDEST DUP3 MSTORE POP POP JUMP JUMPDEST PUSH0 DUP2 SWAP1 POP SWAP2 SWAP1 POP JUMP JUMPDEST PUSH0 PUSH2 0xF34 PUSH2 0xF2F PUSH2 0xF2A DUP5 PUSH2 0xED2 JUMP JUMPDEST PUSH2 0xF11 JUMP JUMPDEST PUSH2 0xED2 JUMP JUMPDEST SWAP1 POP SWAP2 SWAP1 POP JUMP JUMPDEST PUSH0 PUSH2 0xF45 DUP3 PUSH2 0xF1A JUMP JUMPDEST SWAP1 POP SWAP2 SWAP1 POP JUMP JUMPDEST PUSH0 PUSH2 0xF56 DUP3 PUSH2 0xF3B JUMP JUMPDEST SWAP1 POP SWAP2 SWAP1 POP JUMP JUMPDEST PUSH2 0xF66 DUP2 PUSH2 0xF4C JUMP JUMPDEST DUP3 MSTORE POP POP JUMP JUMPDEST PUSH2 0xF75 DUP2 PUSH2 0xE74 JUMP JUMPDEST DUP3 MSTORE POP POP JUMP JUMPDEST PUSH0 DUP2 ISZERO ISZERO SWAP1 POP SWAP2 SWAP1 POP JUMP JUMPDEST PUSH2 0xF8F DUP2 PUSH2 0xF7B JUMP JUMPDEST DUP3 MSTORE POP POP JUMP JUMPDEST PUSH0 PUSH1 0xC0 DUP3 ADD SWAP1 POP PUSH2 0xFA8 PUSH0 DUP4 ADD DUP10 PUSH2 0xF02 JUMP JUMPDEST PUSH2 0xFB5 PUSH1 0x20 DUP4 ADD DUP9 PUSH2 0xF02 JUMP JUMPDEST PUSH2 0xFC2 PUSH1 0x40 DUP4 ADD DUP8 PUSH2 0xF5D JUMP JUMPDEST PUSH2 0xFCF PUSH1 0x60 DUP4 ADD DUP7 PUSH2 0xF6C JUMP JUMPDEST PUSH2 0xFDC PUSH1 0x80 DUP4 ADD DUP6 PUSH2 0xF86 JUMP JUMPDEST PUSH2 0xFE9 PUSH1 0xA0 DUP4 ADD DUP5 PUSH2 0xF86 JUMP JUMPDEST SWAP8 SWAP7 POP POP POP POP POP POP POP JUMP JUMPDEST PUSH0 DUP1 PUSH1 0x40 DUP4 DUP6 SUB SLT ISZERO PUSH2 0x100A JUMPI PUSH2 0x1009 PUSH2 0xE70 JUMP JUMPDEST JUMPDEST PUSH0 PUSH2 0x1017 DUP6 DUP3 DUP7 ADD PUSH2 0xE93 JUMP JUMPDEST SWAP3 POP POP PUSH1 0x20 PUSH2 0x1028 DUP6 DUP3 DUP7 ADD PUSH2 0xE93 JUMP JUMPDEST SWAP2 POP POP SWAP3 POP SWAP3 SWAP1 POP JUMP JUMPDEST PUSH2 0x103B DUP2 PUSH2 0xEF1 JUMP JUMPDEST DUP2 EQ PUSH2 0x1045 JUMPI PUSH0 DUP1 REVERT JUMPDEST POP JUMP JUMPDEST PUSH0 DUP2 CALLDATALOAD SWAP1 POP PUSH2 0x1056 DUP2 PUSH2 0x1032 JUMP JUMPDEST SWAP3 SWAP2 POP POP JUMP JUMPDEST PUSH0 PUSH2 0x1066 DUP3 PUSH2 0xEF1 JUMP JUMPDEST SWAP1 POP SWAP2 SWAP1 POP JUMP JUMPDEST PUSH2 0x1076 DUP2 PUSH2 0x105C JUMP JUMPDEST DUP2 EQ PUSH2 0x1080 JUMPI PUSH0 DUP1 REVERT JUMPDEST POP JUMP JUMPDEST PUSH0 DUP2 CALLDATALOAD SWAP1 POP PUSH2 0x1091 DUP2 PUSH2 0x106D JUMP JUMPDEST SWAP3 SWAP2 POP POP JUMP JUMPDEST PUSH0 DUP1 PUSH0 DUP1 PUSH1 0x80 DUP6 DUP8 SUB SLT ISZERO PUSH2 0x10AF JUMPI PUSH2 0x10AE PUSH2 0xE70 JUMP JUMPDEST JUMPDEST PUSH0 PUSH2 0x10BC DUP8 DUP3 DUP9 ADD PUSH2 0xE93 JUMP JUMPDEST SWAP5 POP POP PUSH1 0x20 PUSH2 0x10CD DUP8 DUP3 DUP9 ADD PUSH2 0x1048 JUMP JUMPDEST SWAP4 POP POP PUSH1 0x40 PUSH2 0x10DE DUP8 DUP3 DUP9 ADD PUSH2 0x1083 JUMP JUMPDEST SWAP3 POP POP PUSH1 0x60 PUSH2 0x10EF DUP8 DUP3 DUP9 ADD PUSH2 0xE93 JUMP JUMPDEST SWAP2 POP POP SWAP3 SWAP6 SWAP2 SWAP5 POP SWAP3 POP JUMP JUMPDEST PUSH0 PUSH1 0x20 DUP3 ADD SWAP1 POP PUSH2 0x110E PUSH0 DUP4 ADD DUP5 PUSH2 0xF6C JUMP JUMPDEST SWAP3 SWAP2 POP POP JUMP JUMPDEST PUSH0 PUSH1 0x20 DUP3 ADD SWAP1 POP PUSH2 0x1127 PUSH0 DUP4 ADD DUP5 PUSH2 0xF02 JUMP JUMPDEST SWAP3 SWAP2 POP POP JUMP JUMPDEST PUSH0 PUSH1 0x20 DUP3 DUP5 SUB SLT ISZERO PUSH2 0x1142 JUMPI PUSH2 0x1141 PUSH2 0xE70 JUMP JUMPDEST JUMPDEST PUSH0 PUSH2 0x114F DUP5 DUP3 DUP6 ADD PUSH2 0x1048 JUMP JUMPDEST SWAP2 POP POP SWAP3 SWAP2 POP POP JUMP JUMPDEST PUSH0 DUP3 DUP3 MSTORE PUSH1 0x20 DUP3 ADD SWAP1 POP SWAP3 SWAP2 POP POP JUMP JUMPDEST PUSH32 0x4E6F2066756E6473206465706F736974656420666F722074686973206465616C PUSH0 DUP3 ADD MSTORE POP JUMP JUMPDEST PUSH0 PUSH2 0x119C PUSH1 0x20 DUP4 PUSH2 0x1158 JUMP JUMPDEST SWAP2 POP PUSH2 0x11A7 DUP3 PUSH2 0x1168 JUMP JUMPDEST PUSH1 0x20 DUP3 ADD SWAP1 POP SWAP2 SWAP1 POP JUMP JUMPDEST PUSH0 PUSH1 0x20 DUP3 ADD SWAP1 POP DUP2 DUP2 SUB PUSH0 DUP4 ADD MSTORE PUSH2 0x11C9 DUP2 PUSH2 0x1190 JUMP JUMPDEST SWAP1 POP SWAP2 SWAP1 POP JUMP JUMPDEST PUSH32 0x4465616C20697320616C726561647920636F6D706C6574656400000000000000 PUSH0 DUP3 ADD MSTORE POP JUMP JUMPDEST PUSH0 PUSH2 0x1204 PUSH1 0x19 DUP4 PUSH2 0x1158 JUMP JUMPDEST SWAP2 POP PUSH2 0x120F DUP3 PUSH2 0x11D0 JUMP JUMPDEST PUSH1 0x20 DUP3 ADD SWAP1 POP SWAP2 SWAP1 POP JUMP JUMPDEST PUSH0 PUSH1 0x20 DUP3 ADD SWAP1 POP DUP2 DUP2 SUB PUSH0 DUP4 ADD MSTORE PUSH2 0x1231 DUP2 PUSH2 0x11F8 JUMP JUMPDEST SWAP1 POP SWAP2 SWAP1 POP JUMP JUMPDEST PUSH32 0x4E487B7100000000000000000000000000000000000000000000000000000000 PUSH0 MSTORE PUSH1 0x11 PUSH1 0x4 MSTORE PUSH1 0x24 PUSH0 REVERT JUMPDEST PUSH0 PUSH2 0x126F DUP3 PUSH2 0xE74 JUMP JUMPDEST SWAP2 POP PUSH2 0x127A DUP4 PUSH2 0xE74 JUMP JUMPDEST SWAP3 POP DUP3 DUP3 MUL PUSH2 0x1288 DUP2 PUSH2 0xE74 JUMP JUMPDEST SWAP2 POP DUP3 DUP3 DIV DUP5 EQ DUP4 ISZERO OR PUSH2 0x129F JUMPI PUSH2 0x129E PUSH2 0x1238 JUMP JUMPDEST JUMPDEST POP SWAP3 SWAP2 POP POP JUMP JUMPDEST PUSH32 0x4E487B7100000000000000000000000000000000000000000000000000000000 PUSH0 MSTORE PUSH1 0x12 PUSH1 0x4 MSTORE PUSH1 0x24 PUSH0 REVERT JUMPDEST PUSH0 PUSH2 0x12DD DUP3 PUSH2 0xE74 JUMP JUMPDEST SWAP2 POP PUSH2 0x12E8 DUP4 PUSH2 0xE74 JUMP JUMPDEST SWAP3 POP DUP3 PUSH2 0x12F8 JUMPI PUSH2 0x12F7 PUSH2 0x12A6 JUMP JUMPDEST JUMPDEST DUP3 DUP3 DIV SWAP1 POP SWAP3 SWAP2 POP POP JUMP JUMPDEST PUSH0 PUSH2 0x130D DUP3 PUSH2 0xE74 JUMP JUMPDEST SWAP2 POP PUSH2 0x1318 DUP4 PUSH2 0xE74 JUMP JUMPDEST SWAP3 POP DUP3 DUP3 SUB SWAP1 POP DUP2 DUP2 GT ISZERO PUSH2 0x1330 JUMPI PUSH2 0x132F PUSH2 0x1238 JUMP JUMPDEST JUMPDEST SWAP3 SWAP2 POP POP JUMP JUMPDEST PUSH0 PUSH1 0x40 DUP3 ADD SWAP1 POP PUSH2 0x1349 PUSH0 DUP4 ADD DUP6 PUSH2 0xF02 JUMP JUMPDEST PUSH2 0x1356 PUSH1 0x20 DUP4 ADD DUP5 PUSH2 0xF6C JUMP JUMPDEST SWAP4 SWAP3 POP POP POP JUMP JUMPDEST PUSH2 0x1366 DUP2 PUSH2 0xF7B JUMP JUMPDEST DUP2 EQ PUSH2 0x1370 JUMPI PUSH0 DUP1 REVERT JUMPDEST POP JUMP JUMPDEST PUSH0 DUP2 MLOAD SWAP1 POP PUSH2 0x1381 DUP2 PUSH2 0x135D JUMP JUMPDEST SWAP3 SWAP2 POP POP JUMP JUMPDEST PUSH0 PUSH1 0x20 DUP3 DUP5 SUB SLT ISZERO PUSH2 0x139C JUMPI PUSH2 0x139B PUSH2 0xE70 JUMP JUMPDEST JUMPDEST PUSH0 PUSH2 0x13A9 DUP5 DUP3 DUP6 ADD PUSH2 0x1373 JUMP JUMPDEST SWAP2 POP POP SWAP3 SWAP2 POP POP JUMP JUMPDEST PUSH32 0x5472616E7366657220746F20696D706C656D656E746572206661696C65640000 PUSH0 DUP3 ADD MSTORE POP JUMP JUMPDEST PUSH0 PUSH2 0x13E6 PUSH1 0x1E DUP4 PUSH2 0x1158 JUMP JUMPDEST SWAP2 POP PUSH2 0x13F1 DUP3 PUSH2 0x13B2 JUMP JUMPDEST PUSH1 0x20 DUP3 ADD SWAP1 POP SWAP2 SWAP1 POP JUMP JUMPDEST PUSH0 PUSH1 0x20 DUP3 ADD SWAP1 POP DUP2 DUP2 SUB PUSH0 DUP4 ADD MSTORE PUSH2 0x1413 DUP2 PUSH2 0x13DA JUMP JUMPDEST SWAP1 POP SWAP2 SWAP1 POP JUMP JUMPDEST PUSH32 0x526566756E6420746F20636C69656E74206661696C6564000000000000000000 PUSH0 DUP3 ADD MSTORE POP JUMP JUMPDEST PUSH0 PUSH2 0x144E PUSH1 0x17 DUP4 PUSH2 0x1158 JUMP JUMPDEST SWAP2 POP PUSH2 0x1459 DUP3 PUSH2 0x141A JUMP JUMPDEST PUSH1 0x20 DUP3 ADD SWAP1 POP SWAP2 SWAP1 POP JUMP JUMPDEST PUSH0 PUSH1 0x20 DUP3 ADD SWAP1 POP DUP2 DUP2 SUB PUSH0 DUP4 ADD MSTORE PUSH2 0x147B DUP2 PUSH2 0x1442 JUMP JUMPDEST SWAP1 POP SWAP2 SWAP1 POP JUMP JUMPDEST PUSH32 0x526566756E64206661696C656400000000000000000000000000000000000000 PUSH0 DUP3 ADD MSTORE POP JUMP JUMPDEST PUSH0 PUSH2 0x14B6 PUSH1 0xD DUP4 PUSH2 0x1158 JUMP JUMPDEST SWAP2 POP PUSH2 0x14C1 DUP3 PUSH2 0x1482 JUMP JUMPDEST PUSH1 0x20 DUP3 ADD SWAP1 POP SWAP2 SWAP1 POP JUMP JUMPDEST PUSH0 PUSH1 0x20 DUP3 ADD SWAP1 POP DUP2 DUP2 SUB PUSH0 DUP4 ADD MSTORE PUSH2 0x14E3 DUP2 PUSH2 0x14AA JUMP JUMPDEST SWAP1 POP SWAP2 SWAP1 POP JUMP JUMPDEST PUSH32 0x4F6E6C792074686520636C69656E742063616E206465706F73697420746F6B65 PUSH0 DUP3 ADD MSTORE PUSH32 0x6E7320666F7220746865206465616C2E00000000000000000000000000000000 PUSH1 0x20 DUP3 ADD MSTORE POP JUMP JUMPDEST PUSH0 PUSH2 0x1544 PUSH1 0x30 DUP4 PUSH2 0x1158 JUMP JUMPDEST SWAP2 POP PUSH2 0x154F DUP3 PUSH2 0x14EA JUMP JUMPDEST PUSH1 0x40 DUP3 ADD SWAP1 POP SWAP2 SWAP1 POP JUMP JUMPDEST PUSH0 PUSH1 0x20 DUP3 ADD SWAP1 POP DUP2 DUP2 SUB PUSH0 DUP4 ADD MSTORE PUSH2 0x1571 DUP2 PUSH2 0x1538 JUMP JUMPDEST SWAP1 POP SWAP2 SWAP1 POP JUMP JUMPDEST PUSH0 PUSH1 0x60 DUP3 ADD SWAP1 POP PUSH2 0x158B PUSH0 DUP4 ADD DUP7 PUSH2 0xF02 JUMP JUMPDEST PUSH2 0x1598 PUSH1 0x20 DUP4 ADD DUP6 PUSH2 0xF02 JUMP JUMPDEST PUSH2 0x15A5 PUSH1 0x40 DUP4 ADD DUP5 PUSH2 0xF6C JUMP JUMPDEST SWAP5 SWAP4 POP POP POP POP JUMP JUMPDEST PUSH32 0x546F6B656E207472616E73666572206661696C65640000000000000000000000 PUSH0 DUP3 ADD MSTORE POP JUMP JUMPDEST PUSH0 PUSH2 0x15E1 PUSH1 0x15 DUP4 PUSH2 0x1158 JUMP JUMPDEST SWAP2 POP PUSH2 0x15EC DUP3 PUSH2 0x15AD JUMP JUMPDEST PUSH1 0x20 DUP3 ADD SWAP1 POP SWAP2 SWAP1 POP JUMP JUMPDEST PUSH0 PUSH1 0x20 DUP3 ADD SWAP1 POP DUP2 DUP2 SUB PUSH0 DUP4 ADD MSTORE PUSH2 0x160E DUP2 PUSH2 0x15D5 JUMP JUMPDEST SWAP1 POP SWAP2 SWAP1 POP JUMP JUMPDEST PUSH32 0x4465616C20697320616C726561647920636F6D706C657465642E000000000000 PUSH0 DUP3 ADD MSTORE POP JUMP JUMPDEST PUSH0 PUSH2 0x1649 PUSH1 0x1A DUP4 PUSH2 0x1158 JUMP JUMPDEST SWAP2 POP PUSH2 0x1654 DUP3 PUSH2 0x1615 JUMP JUMPDEST PUSH1 0x20 DUP3 ADD SWAP1 POP SWAP2 SWAP1 POP JUMP JUMPDEST PUSH0 PUSH1 0x20 DUP3 ADD SWAP1 POP DUP2 DUP2 SUB PUSH0 DUP4 ADD MSTORE PUSH2 0x1676 DUP2 PUSH2 0x163D JUMP JUMPDEST SWAP1 POP SWAP2 SWAP1 POP JUMP INVALID LOG2 PUSH5 0x6970667358 0x22 SLT KECCAK256 BLOCKHASH CALLDATACOPY 0x2F ISZERO SWAP7 0x28 0xDE SWAP4 COINBASE 0xD0 0xA8 MSIZE DUP5 0xE5 SWAP5 0x25 SWAP14 DUP14 0x2F PC LOG2 0xEE ADD DUP14 0xDE SIGNEXTEND SWAP1 BLOCKHASH PUSH29 0xF212EF64736F6C63430008190033000000000000000000000000000000 "
				},
				"gasEstimates": {
					"creation": {
						"codeDepositCost": "1162200",
						"executionCost": "infinite",
						"totalCost": "infinite"
					},
					"external": {
						"completeDeal(uint256)": "infinite",
						"createDeal(uint256,address,address,uint256)": "infinite",
						"deals(uint256)": "infinite",
						"denyDeal(uint256)": "infinite",
						"depositTokens(uint256)": "infinite",
						"finalizeDeal(uint256,uint256)": "infinite",
						"owner()": "2537",
						"renounceOwnership()": "infinite",
						"transferOwnership(address)": "infinite"
					}
				},
				"methodIdentifiers": {
					"completeDeal(uint256)": "dec3456b",
					"createDeal(uint256,address,address,uint256)": "52591880",
					"deals(uint256)": "03988f84",
					"denyDeal(uint256)": "61fb99a3",
					"depositTokens(uint256)": "dd49756e",
					"finalizeDeal(uint256,uint256)": "2f01e767",
					"owner()": "8da5cb5b",
					"renounceOwnership()": "715018a6",
					"transferOwnership(address)": "f2fde38b"
				}
			},
			"storageLayout": {
				"storage": [
					{
						"astId": 8,
						"contract": "contracts/EscrowAlpha.sol:EscrowContract",
						"label": "_owner",
						"offset": 0,
						"slot": "0",
						"type": "t_address"
					},
					{
						"astId": 280,
						"contract": "contracts/EscrowAlpha.sol:EscrowContract",
						"label": "deals",
						"offset": 0,
						"slot": "1",
						"type": "t_mapping(t_uint256,t_struct(Deal)275_storage)"
					}
				],
				"types": {
					"t_address": {
						"encoding": "inplace",
						"label": "address",
						"numberOfBytes": "20"
					},
					"t_bool": {
						"encoding": "inplace",
						"label": "bool",
						"numberOfBytes": "1"
					},
					"t_contract(IERC20)225": {
						"encoding": "inplace",
						"label": "contract IERC20",
						"numberOfBytes": "20"
					},
					"t_mapping(t_uint256,t_struct(Deal)275_storage)": {
						"encoding": "mapping",
						"key": "t_uint256",
						"label": "mapping(uint256 => struct EscrowContract.Deal)",
						"numberOfBytes": "32",
						"value": "t_struct(Deal)275_storage"
					},
					"t_struct(Deal)275_storage": {
						"encoding": "inplace",
						"label": "struct EscrowContract.Deal",
						"members": [
							{
								"astId": 263,
								"contract": "contracts/EscrowAlpha.sol:EscrowContract",
								"label": "client",
								"offset": 0,
								"slot": "0",
								"type": "t_address"
							},
							{
								"astId": 265,
								"contract": "contracts/EscrowAlpha.sol:EscrowContract",
								"label": "implementer",
								"offset": 0,
								"slot": "1",
								"type": "t_address"
							},
							{
								"astId": 268,
								"contract": "contracts/EscrowAlpha.sol:EscrowContract",
								"label": "token",
								"offset": 0,
								"slot": "2",
								"type": "t_contract(IERC20)225"
							},
							{
								"astId": 270,
								"contract": "contracts/EscrowAlpha.sol:EscrowContract",
								"label": "amount",
								"offset": 0,
								"slot": "3",
								"type": "t_uint256"
							},
							{
								"astId": 272,
								"contract": "contracts/EscrowAlpha.sol:EscrowContract",
								"label": "dealCompleted",
								"offset": 0,
								"slot": "4",
								"type": "t_bool"
							},
							{
								"astId": 274,
								"contract": "contracts/EscrowAlpha.sol:EscrowContract",
								"label": "fundsDeposited",
								"offset": 1,
								"slot": "4",
								"type": "t_bool"
							}
						],
						"numberOfBytes": "160"
					},
					"t_uint256": {
						"encoding": "inplace",
						"label": "uint256",
						"numberOfBytes": "32"
					}
				}
			},
			"userdoc": {
				"kind": "user",
				"methods": {},
				"version": 1
			}
		}
	}
}