{
	"contracts/EscrowAlpha.sol": {
		"EscrowContract": {
			"abi": [
				{
					"inputs": [
						{
							"internalType": "contract IERC20",
							"name": "_token",
							"type": "address"
						}
					],
					"stateMutability": "nonpayable",
					"type": "constructor"
				},
				{
					"inputs": [
						{
							"internalType": "address",
							"name": "owner",
							"type": "address"
						}
					],
					"name": "OwnableInvalidOwner",
					"type": "error"
				},
				{
					"inputs": [
						{
							"internalType": "address",
							"name": "account",
							"type": "address"
						}
					],
					"name": "OwnableUnauthorizedAccount",
					"type": "error"
				},
				{
					"anonymous": false,
					"inputs": [
						{
							"indexed": true,
							"internalType": "address",
							"name": "previousOwner",
							"type": "address"
						},
						{
							"indexed": true,
							"internalType": "address",
							"name": "newOwner",
							"type": "address"
						}
					],
					"name": "OwnershipTransferred",
					"type": "event"
				},
				{
					"inputs": [
						{
							"internalType": "uint256",
							"name": "dealId",
							"type": "uint256"
						}
					],
					"name": "completeDeal",
					"outputs": [],
					"stateMutability": "nonpayable",
					"type": "function"
				},
				{
					"inputs": [
						{
							"internalType": "address",
							"name": "implementer",
							"type": "address"
						},
						{
							"internalType": "uint256",
							"name": "amount",
							"type": "uint256"
						}
					],
					"name": "createDeal",
					"outputs": [
						{
							"internalType": "uint256",
							"name": "",
							"type": "uint256"
						}
					],
					"stateMutability": "nonpayable",
					"type": "function"
				},
				{
					"inputs": [
						{
							"internalType": "uint256",
							"name": "",
							"type": "uint256"
						}
					],
					"name": "deals",
					"outputs": [
						{
							"internalType": "address",
							"name": "client",
							"type": "address"
						},
						{
							"internalType": "address",
							"name": "implementer",
							"type": "address"
						},
						{
							"internalType": "uint256",
							"name": "amount",
							"type": "uint256"
						},
						{
							"internalType": "bool",
							"name": "dealCompleted",
							"type": "bool"
						},
						{
							"internalType": "bool",
							"name": "fundsDeposited",
							"type": "bool"
						}
					],
					"stateMutability": "view",
					"type": "function"
				},
				{
					"inputs": [
						{
							"internalType": "uint256",
							"name": "dealId",
							"type": "uint256"
						}
					],
					"name": "denyDeal",
					"outputs": [],
					"stateMutability": "nonpayable",
					"type": "function"
				},
				{
					"inputs": [
						{
							"internalType": "uint256",
							"name": "dealId",
							"type": "uint256"
						}
					],
					"name": "depositTokens",
					"outputs": [],
					"stateMutability": "nonpayable",
					"type": "function"
				},
				{
					"inputs": [
						{
							"internalType": "uint256",
							"name": "dealId",
							"type": "uint256"
						},
						{
							"internalType": "uint256",
							"name": "implementerPercentage",
							"type": "uint256"
						}
					],
					"name": "finalizeDeal",
					"outputs": [],
					"stateMutability": "nonpayable",
					"type": "function"
				},
				{
					"inputs": [],
					"name": "nextDealId",
					"outputs": [
						{
							"internalType": "uint256",
							"name": "",
							"type": "uint256"
						}
					],
					"stateMutability": "view",
					"type": "function"
				},
				{
					"inputs": [],
					"name": "owner",
					"outputs": [
						{
							"internalType": "address",
							"name": "",
							"type": "address"
						}
					],
					"stateMutability": "view",
					"type": "function"
				},
				{
					"inputs": [],
					"name": "renounceOwnership",
					"outputs": [],
					"stateMutability": "nonpayable",
					"type": "function"
				},
				{
					"inputs": [],
					"name": "token",
					"outputs": [
						{
							"internalType": "contract IERC20",
							"name": "",
							"type": "address"
						}
					],
					"stateMutability": "view",
					"type": "function"
				},
				{
					"inputs": [
						{
							"internalType": "address",
							"name": "newOwner",
							"type": "address"
						}
					],
					"name": "transferOwnership",
					"outputs": [],
					"stateMutability": "nonpayable",
					"type": "function"
				}
			],
			"devdoc": {
				"errors": {
					"OwnableInvalidOwner(address)": [
						{
							"details": "The owner is not a valid owner account. (eg. `address(0)`)"
						}
					],
					"OwnableUnauthorizedAccount(address)": [
						{
							"details": "The caller account is not authorized to perform an operation."
						}
					]
				},
				"kind": "dev",
				"methods": {
					"owner()": {
						"details": "Returns the address of the current owner."
					},
					"renounceOwnership()": {
						"details": "Leaves the contract without owner. It will not be possible to call `onlyOwner` functions. Can only be called by the current owner. NOTE: Renouncing ownership will leave the contract without an owner, thereby disabling any functionality that is only available to the owner."
					},
					"transferOwnership(address)": {
						"details": "Transfers ownership of the contract to a new account (`newOwner`). Can only be called by the current owner."
					}
				},
				"version": 1
			},
			"evm": {
				"assembly": "    /* \"contracts/EscrowAlpha.sol\":175:2701  contract EscrowContract is Ownable {... */\n  mstore(0x40, 0x80)\n    /* \"contracts/EscrowAlpha.sol\":513:618  constructor(IERC20 _token) Ownable(msg.sender) {... */\n  callvalue\n  dup1\n  iszero\n  tag_1\n  jumpi\n  0x00\n  dup1\n  revert\ntag_1:\n  pop\n  mload(0x40)\n  sub(codesize, bytecodeSize)\n  dup1\n  bytecodeSize\n  dup4\n  codecopy\n  dup2\n  dup2\n  add\n  0x40\n  mstore\n  dup2\n  add\n  swap1\n  tag_2\n  swap2\n  swap1\n  tag_3\n  jump\t// in\ntag_2:\n    /* \"contracts/EscrowAlpha.sol\":548:558  msg.sender */\n  caller\n    /* \"@openzeppelin/contracts/access/Ownable.sol\":1297:1298  0 */\n  0x00\n    /* \"@openzeppelin/contracts/access/Ownable.sol\":1273:1299  initialOwner == address(0) */\n  0xffffffffffffffffffffffffffffffffffffffff\n  and\n    /* \"@openzeppelin/contracts/access/Ownable.sol\":1273:1285  initialOwner */\n  dup2\n    /* \"@openzeppelin/contracts/access/Ownable.sol\":1273:1299  initialOwner == address(0) */\n  0xffffffffffffffffffffffffffffffffffffffff\n  and\n  sub\n    /* \"@openzeppelin/contracts/access/Ownable.sol\":1269:1364  if (initialOwner == address(0)) {... */\n  tag_7\n  jumpi\n    /* \"@openzeppelin/contracts/access/Ownable.sol\":1350:1351  0 */\n  0x00\n    /* \"@openzeppelin/contracts/access/Ownable.sol\":1322:1353  OwnableInvalidOwner(address(0)) */\n  mload(0x40)\n  0x1e4fbdf700000000000000000000000000000000000000000000000000000000\n  dup2\n  mstore\n  0x04\n  add\n  tag_8\n  swap2\n  swap1\n  tag_9\n  jump\t// in\ntag_8:\n  mload(0x40)\n  dup1\n  swap2\n  sub\n  swap1\n  revert\n    /* \"@openzeppelin/contracts/access/Ownable.sol\":1269:1364  if (initialOwner == address(0)) {... */\ntag_7:\n    /* \"@openzeppelin/contracts/access/Ownable.sol\":1373:1405  _transferOwnership(initialOwner) */\n  tag_10\n    /* \"@openzeppelin/contracts/access/Ownable.sol\":1392:1404  initialOwner */\n  dup2\n    /* \"@openzeppelin/contracts/access/Ownable.sol\":1373:1391  _transferOwnership */\n  shl(0x20, tag_11)\n    /* \"@openzeppelin/contracts/access/Ownable.sol\":1373:1405  _transferOwnership(initialOwner) */\n  0x20\n  shr\n  jump\t// in\ntag_10:\n    /* \"@openzeppelin/contracts/access/Ownable.sol\":1225:1412  constructor(address initialOwner) {... */\n  pop\n    /* \"contracts/EscrowAlpha.sol\":579:585  _token */\n  dup1\n    /* \"contracts/EscrowAlpha.sol\":571:576  token */\n  0x03\n  0x00\n    /* \"contracts/EscrowAlpha.sol\":571:585  token = _token */\n  0x0100\n  exp\n  dup2\n  sload\n  dup2\n  0xffffffffffffffffffffffffffffffffffffffff\n  mul\n  not\n  and\n  swap1\n  dup4\n  0xffffffffffffffffffffffffffffffffffffffff\n  and\n  mul\n  or\n  swap1\n  sstore\n  pop\n    /* \"contracts/EscrowAlpha.sol\":609:610  1 */\n  0x01\n    /* \"contracts/EscrowAlpha.sol\":596:606  nextDealId */\n  dup1\n    /* \"contracts/EscrowAlpha.sol\":596:610  nextDealId = 1 */\n  dup2\n  swap1\n  sstore\n  pop\n    /* \"contracts/EscrowAlpha.sol\":513:618  constructor(IERC20 _token) Ownable(msg.sender) {... */\n  pop\n    /* \"contracts/EscrowAlpha.sol\":175:2701  contract EscrowContract is Ownable {... */\n  jump(tag_13)\n    /* \"@openzeppelin/contracts/access/Ownable.sol\":2912:3099  function _transferOwnership(address newOwner) internal virtual {... */\ntag_11:\n    /* \"@openzeppelin/contracts/access/Ownable.sol\":2985:3001  address oldOwner */\n  0x00\n    /* \"@openzeppelin/contracts/access/Ownable.sol\":3004:3010  _owner */\n  dup1\n  0x00\n  swap1\n  sload\n  swap1\n  0x0100\n  exp\n  swap1\n  div\n  0xffffffffffffffffffffffffffffffffffffffff\n  and\n    /* \"@openzeppelin/contracts/access/Ownable.sol\":2985:3010  address oldOwner = _owner */\n  swap1\n  pop\n    /* \"@openzeppelin/contracts/access/Ownable.sol\":3029:3037  newOwner */\n  dup2\n    /* \"@openzeppelin/contracts/access/Ownable.sol\":3020:3026  _owner */\n  0x00\n  dup1\n    /* \"@openzeppelin/contracts/access/Ownable.sol\":3020:3037  _owner = newOwner */\n  0x0100\n  exp\n  dup2\n  sload\n  dup2\n  0xffffffffffffffffffffffffffffffffffffffff\n  mul\n  not\n  and\n  swap1\n  dup4\n  0xffffffffffffffffffffffffffffffffffffffff\n  and\n  mul\n  or\n  swap1\n  sstore\n  pop\n    /* \"@openzeppelin/contracts/access/Ownable.sol\":3083:3091  newOwner */\n  dup2\n    /* \"@openzeppelin/contracts/access/Ownable.sol\":3052:3092  OwnershipTransferred(oldOwner, newOwner) */\n  0xffffffffffffffffffffffffffffffffffffffff\n  and\n    /* \"@openzeppelin/contracts/access/Ownable.sol\":3073:3081  oldOwner */\n  dup2\n    /* \"@openzeppelin/contracts/access/Ownable.sol\":3052:3092  OwnershipTransferred(oldOwner, newOwner) */\n  0xffffffffffffffffffffffffffffffffffffffff\n  and\n  0x8be0079c531659141344cd1fd0a4f28419497f9722a3daafe3b4186f6b6457e0\n  mload(0x40)\n  mload(0x40)\n  dup1\n  swap2\n  sub\n  swap1\n  log3\n    /* \"@openzeppelin/contracts/access/Ownable.sol\":2975:3099  {... */\n  pop\n    /* \"@openzeppelin/contracts/access/Ownable.sol\":2912:3099  function _transferOwnership(address newOwner) internal virtual {... */\n  pop\n  jump\t// out\n    /* \"#utility.yul\":88:205   */\ntag_16:\n    /* \"#utility.yul\":197:198   */\n  0x00\n    /* \"#utility.yul\":194:195   */\n  dup1\n    /* \"#utility.yul\":187:199   */\n  revert\n    /* \"#utility.yul\":334:460   */\ntag_18:\n    /* \"#utility.yul\":371:378   */\n  0x00\n    /* \"#utility.yul\":411:453   */\n  0xffffffffffffffffffffffffffffffffffffffff\n    /* \"#utility.yul\":404:409   */\n  dup3\n    /* \"#utility.yul\":400:454   */\n  and\n    /* \"#utility.yul\":389:454   */\n  swap1\n  pop\n    /* \"#utility.yul\":334:460   */\n  swap2\n  swap1\n  pop\n  jump\t// out\n    /* \"#utility.yul\":466:562   */\ntag_19:\n    /* \"#utility.yul\":503:510   */\n  0x00\n    /* \"#utility.yul\":532:556   */\n  tag_30\n    /* \"#utility.yul\":550:555   */\n  dup3\n    /* \"#utility.yul\":532:556   */\n  tag_18\n  jump\t// in\ntag_30:\n    /* \"#utility.yul\":521:556   */\n  swap1\n  pop\n    /* \"#utility.yul\":466:562   */\n  swap2\n  swap1\n  pop\n  jump\t// out\n    /* \"#utility.yul\":568:678   */\ntag_20:\n    /* \"#utility.yul\":619:626   */\n  0x00\n    /* \"#utility.yul\":648:672   */\n  tag_32\n    /* \"#utility.yul\":666:671   */\n  dup3\n    /* \"#utility.yul\":648:672   */\n  tag_19\n  jump\t// in\ntag_32:\n    /* \"#utility.yul\":637:672   */\n  swap1\n  pop\n    /* \"#utility.yul\":568:678   */\n  swap2\n  swap1\n  pop\n  jump\t// out\n    /* \"#utility.yul\":684:834   */\ntag_21:\n    /* \"#utility.yul\":771:809   */\n  tag_34\n    /* \"#utility.yul\":803:808   */\n  dup2\n    /* \"#utility.yul\":771:809   */\n  tag_20\n  jump\t// in\ntag_34:\n    /* \"#utility.yul\":764:769   */\n  dup2\n    /* \"#utility.yul\":761:810   */\n  eq\n    /* \"#utility.yul\":751:828   */\n  tag_35\n  jumpi\n    /* \"#utility.yul\":824:825   */\n  0x00\n    /* \"#utility.yul\":821:822   */\n  dup1\n    /* \"#utility.yul\":814:826   */\n  revert\n    /* \"#utility.yul\":751:828   */\ntag_35:\n    /* \"#utility.yul\":684:834   */\n  pop\n  jump\t// out\n    /* \"#utility.yul\":840:1011   */\ntag_22:\n    /* \"#utility.yul\":911:916   */\n  0x00\n    /* \"#utility.yul\":942:948   */\n  dup2\n    /* \"#utility.yul\":936:949   */\n  mload\n    /* \"#utility.yul\":927:949   */\n  swap1\n  pop\n    /* \"#utility.yul\":958:1005   */\n  tag_37\n    /* \"#utility.yul\":999:1004   */\n  dup2\n    /* \"#utility.yul\":958:1005   */\n  tag_21\n  jump\t// in\ntag_37:\n    /* \"#utility.yul\":840:1011   */\n  swap3\n  swap2\n  pop\n  pop\n  jump\t// out\n    /* \"#utility.yul\":1017:1396   */\ntag_3:\n    /* \"#utility.yul\":1101:1107   */\n  0x00\n    /* \"#utility.yul\":1150:1152   */\n  0x20\n    /* \"#utility.yul\":1138:1147   */\n  dup3\n    /* \"#utility.yul\":1129:1136   */\n  dup5\n    /* \"#utility.yul\":1125:1148   */\n  sub\n    /* \"#utility.yul\":1121:1153   */\n  slt\n    /* \"#utility.yul\":1118:1237   */\n  iszero\n  tag_39\n  jumpi\n    /* \"#utility.yul\":1156:1235   */\n  tag_40\n  tag_16\n  jump\t// in\ntag_40:\n    /* \"#utility.yul\":1118:1237   */\ntag_39:\n    /* \"#utility.yul\":1276:1277   */\n  0x00\n    /* \"#utility.yul\":1301:1379   */\n  tag_41\n    /* \"#utility.yul\":1371:1378   */\n  dup5\n    /* \"#utility.yul\":1362:1368   */\n  dup3\n    /* \"#utility.yul\":1351:1360   */\n  dup6\n    /* \"#utility.yul\":1347:1369   */\n  add\n    /* \"#utility.yul\":1301:1379   */\n  tag_22\n  jump\t// in\ntag_41:\n    /* \"#utility.yul\":1291:1379   */\n  swap2\n  pop\n    /* \"#utility.yul\":1247:1389   */\n  pop\n    /* \"#utility.yul\":1017:1396   */\n  swap3\n  swap2\n  pop\n  pop\n  jump\t// out\n    /* \"#utility.yul\":1402:1520   */\ntag_23:\n    /* \"#utility.yul\":1489:1513   */\n  tag_43\n    /* \"#utility.yul\":1507:1512   */\n  dup2\n    /* \"#utility.yul\":1489:1513   */\n  tag_19\n  jump\t// in\ntag_43:\n    /* \"#utility.yul\":1484:1487   */\n  dup3\n    /* \"#utility.yul\":1477:1514   */\n  mstore\n    /* \"#utility.yul\":1402:1520   */\n  pop\n  pop\n  jump\t// out\n    /* \"#utility.yul\":1526:1748   */\ntag_9:\n    /* \"#utility.yul\":1619:1623   */\n  0x00\n    /* \"#utility.yul\":1657:1659   */\n  0x20\n    /* \"#utility.yul\":1646:1655   */\n  dup3\n    /* \"#utility.yul\":1642:1660   */\n  add\n    /* \"#utility.yul\":1634:1660   */\n  swap1\n  pop\n    /* \"#utility.yul\":1670:1741   */\n  tag_45\n    /* \"#utility.yul\":1738:1739   */\n  0x00\n    /* \"#utility.yul\":1727:1736   */\n  dup4\n    /* \"#utility.yul\":1723:1740   */\n  add\n    /* \"#utility.yul\":1714:1720   */\n  dup5\n    /* \"#utility.yul\":1670:1741   */\n  tag_23\n  jump\t// in\ntag_45:\n    /* \"#utility.yul\":1526:1748   */\n  swap3\n  swap2\n  pop\n  pop\n  jump\t// out\n    /* \"contracts/EscrowAlpha.sol\":175:2701  contract EscrowContract is Ownable {... */\ntag_13:\n  dataSize(sub_0)\n  dup1\n  dataOffset(sub_0)\n  0x00\n  codecopy\n  0x00\n  return\nstop\n\nsub_0: assembly {\n        /* \"contracts/EscrowAlpha.sol\":175:2701  contract EscrowContract is Ownable {... */\n      mstore(0x40, 0x80)\n      callvalue\n      dup1\n      iszero\n      tag_1\n      jumpi\n      0x00\n      dup1\n      revert\n    tag_1:\n      pop\n      jumpi(tag_2, lt(calldatasize, 0x04))\n      shr(0xe0, calldataload(0x00))\n      dup1\n      0x8da5cb5b\n      gt\n      tag_14\n      jumpi\n      dup1\n      0x8da5cb5b\n      eq\n      tag_8\n      jumpi\n      dup1\n      0xdd49756e\n      eq\n      tag_9\n      jumpi\n      dup1\n      0xdec3456b\n      eq\n      tag_10\n      jumpi\n      dup1\n      0xf2fde38b\n      eq\n      tag_11\n      jumpi\n      dup1\n      0xf4784c2d\n      eq\n      tag_12\n      jumpi\n      dup1\n      0xfc0c546a\n      eq\n      tag_13\n      jumpi\n      jump(tag_2)\n    tag_14:\n      dup1\n      0x03988f84\n      eq\n      tag_3\n      jumpi\n      dup1\n      0x2f01e767\n      eq\n      tag_4\n      jumpi\n      dup1\n      0x4d9879e3\n      eq\n      tag_5\n      jumpi\n      dup1\n      0x61fb99a3\n      eq\n      tag_6\n      jumpi\n      dup1\n      0x715018a6\n      eq\n      tag_7\n      jumpi\n    tag_2:\n      0x00\n      dup1\n      revert\n        /* \"contracts/EscrowAlpha.sol\":441:478  mapping(uint256 => Deal) public deals */\n    tag_3:\n      tag_15\n      0x04\n      dup1\n      calldatasize\n      sub\n      dup2\n      add\n      swap1\n      tag_16\n      swap2\n      swap1\n      tag_17\n      jump\t// in\n    tag_16:\n      tag_18\n      jump\t// in\n    tag_15:\n      mload(0x40)\n      tag_19\n      swap6\n      swap5\n      swap4\n      swap3\n      swap2\n      swap1\n      tag_20\n      jump\t// in\n    tag_19:\n      mload(0x40)\n      dup1\n      swap2\n      sub\n      swap1\n      return\n        /* \"contracts/EscrowAlpha.sol\":1986:2696  function finalizeDeal(uint256 dealId, uint256 implementerPercentage) external onlyOwner {... */\n    tag_4:\n      tag_21\n      0x04\n      dup1\n      calldatasize\n      sub\n      dup2\n      add\n      swap1\n      tag_22\n      swap2\n      swap1\n      tag_23\n      jump\t// in\n    tag_22:\n      tag_24\n      jump\t// in\n    tag_21:\n      stop\n        /* \"contracts/EscrowAlpha.sol\":409:434  uint256 public nextDealId */\n    tag_5:\n      tag_25\n      tag_26\n      jump\t// in\n    tag_25:\n      mload(0x40)\n      tag_27\n      swap2\n      swap1\n      tag_28\n      jump\t// in\n    tag_27:\n      mload(0x40)\n      dup1\n      swap2\n      sub\n      swap1\n      return\n        /* \"contracts/EscrowAlpha.sol\":1529:1978  function denyDeal(uint256 dealId) external onlyOwner {... */\n    tag_6:\n      tag_29\n      0x04\n      dup1\n      calldatasize\n      sub\n      dup2\n      add\n      swap1\n      tag_30\n      swap2\n      swap1\n      tag_17\n      jump\t// in\n    tag_30:\n      tag_31\n      jump\t// in\n    tag_29:\n      stop\n        /* \"@openzeppelin/contracts/access/Ownable.sol\":2293:2394  function renounceOwnership() public virtual onlyOwner {... */\n    tag_7:\n      tag_32\n      tag_33\n      jump\t// in\n    tag_32:\n      stop\n        /* \"@openzeppelin/contracts/access/Ownable.sol\":1638:1723  function owner() public view virtual returns (address) {... */\n    tag_8:\n      tag_34\n      tag_35\n      jump\t// in\n    tag_34:\n      mload(0x40)\n      tag_36\n      swap2\n      swap1\n      tag_37\n      jump\t// in\n    tag_36:\n      mload(0x40)\n      dup1\n      swap2\n      sub\n      swap1\n      return\n        /* \"contracts/EscrowAlpha.sol\":868:1205  function depositTokens(uint256 dealId) external {... */\n    tag_9:\n      tag_38\n      0x04\n      dup1\n      calldatasize\n      sub\n      dup2\n      add\n      swap1\n      tag_39\n      swap2\n      swap1\n      tag_17\n      jump\t// in\n    tag_39:\n      tag_40\n      jump\t// in\n    tag_38:\n      stop\n        /* \"contracts/EscrowAlpha.sol\":1213:1517  function completeDeal(uint256 dealId) external onlyOwner {... */\n    tag_10:\n      tag_41\n      0x04\n      dup1\n      calldatasize\n      sub\n      dup2\n      add\n      swap1\n      tag_42\n      swap2\n      swap1\n      tag_17\n      jump\t// in\n    tag_42:\n      tag_43\n      jump\t// in\n    tag_41:\n      stop\n        /* \"@openzeppelin/contracts/access/Ownable.sol\":2543:2758  function transferOwnership(address newOwner) public virtual onlyOwner {... */\n    tag_11:\n      tag_44\n      0x04\n      dup1\n      calldatasize\n      sub\n      dup2\n      add\n      swap1\n      tag_45\n      swap2\n      swap1\n      tag_46\n      jump\t// in\n    tag_45:\n      tag_47\n      jump\t// in\n    tag_44:\n      stop\n        /* \"contracts/EscrowAlpha.sol\":626:860  function createDeal(address implementer, uint256 amount) external returns (uint256) {... */\n    tag_12:\n      tag_48\n      0x04\n      dup1\n      calldatasize\n      sub\n      dup2\n      add\n      swap1\n      tag_49\n      swap2\n      swap1\n      tag_50\n      jump\t// in\n    tag_49:\n      tag_51\n      jump\t// in\n    tag_48:\n      mload(0x40)\n      tag_52\n      swap2\n      swap1\n      tag_28\n      jump\t// in\n    tag_52:\n      mload(0x40)\n      dup1\n      swap2\n      sub\n      swap1\n      return\n        /* \"contracts/EscrowAlpha.sol\":485:504  IERC20 public token */\n    tag_13:\n      tag_53\n      tag_54\n      jump\t// in\n    tag_53:\n      mload(0x40)\n      tag_55\n      swap2\n      swap1\n      tag_56\n      jump\t// in\n    tag_55:\n      mload(0x40)\n      dup1\n      swap2\n      sub\n      swap1\n      return\n        /* \"contracts/EscrowAlpha.sol\":441:478  mapping(uint256 => Deal) public deals */\n    tag_18:\n      mstore(0x20, 0x02)\n      dup1\n      0x00\n      mstore\n      keccak256(0x00, 0x40)\n      0x00\n      swap2\n      pop\n      swap1\n      pop\n      dup1\n      0x00\n      add\n      0x00\n      swap1\n      sload\n      swap1\n      0x0100\n      exp\n      swap1\n      div\n      0xffffffffffffffffffffffffffffffffffffffff\n      and\n      swap1\n      dup1\n      0x01\n      add\n      0x00\n      swap1\n      sload\n      swap1\n      0x0100\n      exp\n      swap1\n      div\n      0xffffffffffffffffffffffffffffffffffffffff\n      and\n      swap1\n      dup1\n      0x02\n      add\n      sload\n      swap1\n      dup1\n      0x03\n      add\n      0x00\n      swap1\n      sload\n      swap1\n      0x0100\n      exp\n      swap1\n      div\n      0xff\n      and\n      swap1\n      dup1\n      0x03\n      add\n      0x01\n      swap1\n      sload\n      swap1\n      0x0100\n      exp\n      swap1\n      div\n      0xff\n      and\n      swap1\n      pop\n      dup6\n      jump\t// out\n        /* \"contracts/EscrowAlpha.sol\":1986:2696  function finalizeDeal(uint256 dealId, uint256 implementerPercentage) external onlyOwner {... */\n    tag_24:\n        /* \"@openzeppelin/contracts/access/Ownable.sol\":1531:1544  _checkOwner() */\n      tag_58\n        /* \"@openzeppelin/contracts/access/Ownable.sol\":1531:1542  _checkOwner */\n      tag_59\n        /* \"@openzeppelin/contracts/access/Ownable.sol\":1531:1544  _checkOwner() */\n      jump\t// in\n    tag_58:\n        /* \"contracts/EscrowAlpha.sol\":2085:2102  Deal storage deal */\n      0x00\n        /* \"contracts/EscrowAlpha.sol\":2105:2110  deals */\n      0x02\n        /* \"contracts/EscrowAlpha.sol\":2105:2118  deals[dealId] */\n      0x00\n        /* \"contracts/EscrowAlpha.sol\":2111:2117  dealId */\n      dup5\n        /* \"contracts/EscrowAlpha.sol\":2105:2118  deals[dealId] */\n      dup2\n      mstore\n      0x20\n      add\n      swap1\n      dup2\n      mstore\n      0x20\n      add\n      0x00\n      keccak256\n        /* \"contracts/EscrowAlpha.sol\":2085:2118  Deal storage deal = deals[dealId] */\n      swap1\n      pop\n        /* \"contracts/EscrowAlpha.sol\":2137:2141  deal */\n      dup1\n        /* \"contracts/EscrowAlpha.sol\":2137:2156  deal.fundsDeposited */\n      0x03\n      add\n      0x01\n      swap1\n      sload\n      swap1\n      0x0100\n      exp\n      swap1\n      div\n      0xff\n      and\n        /* \"contracts/EscrowAlpha.sol\":2129:2193  require(deal.fundsDeposited, \"No funds deposited for this deal\") */\n      tag_61\n      jumpi\n      mload(0x40)\n      0x08c379a000000000000000000000000000000000000000000000000000000000\n      dup2\n      mstore\n      0x04\n      add\n      tag_62\n      swap1\n      tag_63\n      jump\t// in\n    tag_62:\n      mload(0x40)\n      dup1\n      swap2\n      sub\n      swap1\n      revert\n    tag_61:\n        /* \"contracts/EscrowAlpha.sol\":2213:2217  deal */\n      dup1\n        /* \"contracts/EscrowAlpha.sol\":2213:2231  deal.dealCompleted */\n      0x03\n      add\n      0x00\n      swap1\n      sload\n      swap1\n      0x0100\n      exp\n      swap1\n      div\n      0xff\n      and\n        /* \"contracts/EscrowAlpha.sol\":2212:2231  !deal.dealCompleted */\n      iszero\n        /* \"contracts/EscrowAlpha.sol\":2204:2261  require(!deal.dealCompleted, \"Deal is already completed\") */\n      tag_64\n      jumpi\n      mload(0x40)\n      0x08c379a000000000000000000000000000000000000000000000000000000000\n      dup2\n      mstore\n      0x04\n      add\n      tag_65\n      swap1\n      tag_66\n      jump\t// in\n    tag_65:\n      mload(0x40)\n      dup1\n      swap2\n      sub\n      swap1\n      revert\n    tag_64:\n        /* \"contracts/EscrowAlpha.sol\":2295:2299  true */\n      0x01\n        /* \"contracts/EscrowAlpha.sol\":2274:2278  deal */\n      dup2\n        /* \"contracts/EscrowAlpha.sol\":2274:2292  deal.dealCompleted */\n      0x03\n      add\n      0x00\n        /* \"contracts/EscrowAlpha.sol\":2274:2299  deal.dealCompleted = true */\n      0x0100\n      exp\n      dup2\n      sload\n      dup2\n      0xff\n      mul\n      not\n      and\n      swap1\n      dup4\n      iszero\n      iszero\n      mul\n      or\n      swap1\n      sstore\n      pop\n        /* \"contracts/EscrowAlpha.sol\":2311:2336  uint256 implementerAmount */\n      0x00\n        /* \"contracts/EscrowAlpha.sol\":2377:2380  100 */\n      0x64\n        /* \"contracts/EscrowAlpha.sol\":2353:2374  implementerPercentage */\n      dup4\n        /* \"contracts/EscrowAlpha.sol\":2339:2343  deal */\n      dup4\n        /* \"contracts/EscrowAlpha.sol\":2339:2350  deal.amount */\n      0x02\n      add\n      sload\n        /* \"contracts/EscrowAlpha.sol\":2339:2374  deal.amount * implementerPercentage */\n      tag_67\n      swap2\n      swap1\n      tag_68\n      jump\t// in\n    tag_67:\n        /* \"contracts/EscrowAlpha.sol\":2339:2380  deal.amount * implementerPercentage / 100 */\n      tag_69\n      swap2\n      swap1\n      tag_70\n      jump\t// in\n    tag_69:\n        /* \"contracts/EscrowAlpha.sol\":2311:2380  uint256 implementerAmount = deal.amount * implementerPercentage / 100 */\n      swap1\n      pop\n        /* \"contracts/EscrowAlpha.sol\":2391:2411  uint256 clientRefund */\n      0x00\n        /* \"contracts/EscrowAlpha.sol\":2428:2445  implementerAmount */\n      dup2\n        /* \"contracts/EscrowAlpha.sol\":2414:2418  deal */\n      dup4\n        /* \"contracts/EscrowAlpha.sol\":2414:2425  deal.amount */\n      0x02\n      add\n      sload\n        /* \"contracts/EscrowAlpha.sol\":2414:2445  deal.amount - implementerAmount */\n      tag_71\n      swap2\n      swap1\n      tag_72\n      jump\t// in\n    tag_71:\n        /* \"contracts/EscrowAlpha.sol\":2391:2445  uint256 clientRefund = deal.amount - implementerAmount */\n      swap1\n      pop\n        /* \"contracts/EscrowAlpha.sol\":2466:2471  token */\n      0x03\n      0x00\n      swap1\n      sload\n      swap1\n      0x0100\n      exp\n      swap1\n      div\n      0xffffffffffffffffffffffffffffffffffffffff\n      and\n        /* \"contracts/EscrowAlpha.sol\":2466:2480  token.transfer */\n      0xffffffffffffffffffffffffffffffffffffffff\n      and\n      0xa9059cbb\n        /* \"contracts/EscrowAlpha.sol\":2481:2485  deal */\n      dup5\n        /* \"contracts/EscrowAlpha.sol\":2481:2497  deal.implementer */\n      0x01\n      add\n      0x00\n      swap1\n      sload\n      swap1\n      0x0100\n      exp\n      swap1\n      div\n      0xffffffffffffffffffffffffffffffffffffffff\n      and\n        /* \"contracts/EscrowAlpha.sol\":2499:2516  implementerAmount */\n      dup5\n        /* \"contracts/EscrowAlpha.sol\":2466:2517  token.transfer(deal.implementer, implementerAmount) */\n      mload(0x40)\n      dup4\n      0xffffffff\n      and\n      0xe0\n      shl\n      dup2\n      mstore\n      0x04\n      add\n      tag_73\n      swap3\n      swap2\n      swap1\n      tag_74\n      jump\t// in\n    tag_73:\n      0x20\n      mload(0x40)\n      dup1\n      dup4\n      sub\n      dup2\n      0x00\n      dup8\n      gas\n      call\n      iszero\n      dup1\n      iszero\n      tag_76\n      jumpi\n      returndatasize\n      0x00\n      dup1\n      returndatacopy\n      revert(0x00, returndatasize)\n    tag_76:\n      pop\n      pop\n      pop\n      pop\n      mload(0x40)\n      returndatasize\n      not(0x1f)\n      0x1f\n      dup3\n      add\n      and\n      dup3\n      add\n      dup1\n      0x40\n      mstore\n      pop\n      dup2\n      add\n      swap1\n      tag_77\n      swap2\n      swap1\n      tag_78\n      jump\t// in\n    tag_77:\n        /* \"contracts/EscrowAlpha.sol\":2458:2552  require(token.transfer(deal.implementer, implementerAmount), \"Transfer to implementer failed\") */\n      tag_79\n      jumpi\n      mload(0x40)\n      0x08c379a000000000000000000000000000000000000000000000000000000000\n      dup2\n      mstore\n      0x04\n      add\n      tag_80\n      swap1\n      tag_81\n      jump\t// in\n    tag_80:\n      mload(0x40)\n      dup1\n      swap2\n      sub\n      swap1\n      revert\n    tag_79:\n        /* \"contracts/EscrowAlpha.sol\":2582:2583  0 */\n      0x00\n        /* \"contracts/EscrowAlpha.sol\":2567:2579  clientRefund */\n      dup2\n        /* \"contracts/EscrowAlpha.sol\":2567:2583  clientRefund > 0 */\n      gt\n        /* \"contracts/EscrowAlpha.sol\":2563:2689  if (clientRefund > 0) {... */\n      iszero\n      tag_82\n      jumpi\n        /* \"contracts/EscrowAlpha.sol\":2608:2613  token */\n      0x03\n      0x00\n      swap1\n      sload\n      swap1\n      0x0100\n      exp\n      swap1\n      div\n      0xffffffffffffffffffffffffffffffffffffffff\n      and\n        /* \"contracts/EscrowAlpha.sol\":2608:2622  token.transfer */\n      0xffffffffffffffffffffffffffffffffffffffff\n      and\n      0xa9059cbb\n        /* \"contracts/EscrowAlpha.sol\":2623:2627  deal */\n      dup5\n        /* \"contracts/EscrowAlpha.sol\":2623:2634  deal.client */\n      0x00\n      add\n      0x00\n      swap1\n      sload\n      swap1\n      0x0100\n      exp\n      swap1\n      div\n      0xffffffffffffffffffffffffffffffffffffffff\n      and\n        /* \"contracts/EscrowAlpha.sol\":2636:2648  clientRefund */\n      dup4\n        /* \"contracts/EscrowAlpha.sol\":2608:2649  token.transfer(deal.client, clientRefund) */\n      mload(0x40)\n      dup4\n      0xffffffff\n      and\n      0xe0\n      shl\n      dup2\n      mstore\n      0x04\n      add\n      tag_83\n      swap3\n      swap2\n      swap1\n      tag_74\n      jump\t// in\n    tag_83:\n      0x20\n      mload(0x40)\n      dup1\n      dup4\n      sub\n      dup2\n      0x00\n      dup8\n      gas\n      call\n      iszero\n      dup1\n      iszero\n      tag_85\n      jumpi\n      returndatasize\n      0x00\n      dup1\n      returndatacopy\n      revert(0x00, returndatasize)\n    tag_85:\n      pop\n      pop\n      pop\n      pop\n      mload(0x40)\n      returndatasize\n      not(0x1f)\n      0x1f\n      dup3\n      add\n      and\n      dup3\n      add\n      dup1\n      0x40\n      mstore\n      pop\n      dup2\n      add\n      swap1\n      tag_86\n      swap2\n      swap1\n      tag_78\n      jump\t// in\n    tag_86:\n        /* \"contracts/EscrowAlpha.sol\":2600:2677  require(token.transfer(deal.client, clientRefund), \"Refund to client failed\") */\n      tag_87\n      jumpi\n      mload(0x40)\n      0x08c379a000000000000000000000000000000000000000000000000000000000\n      dup2\n      mstore\n      0x04\n      add\n      tag_88\n      swap1\n      tag_89\n      jump\t// in\n    tag_88:\n      mload(0x40)\n      dup1\n      swap2\n      sub\n      swap1\n      revert\n    tag_87:\n        /* \"contracts/EscrowAlpha.sol\":2563:2689  if (clientRefund > 0) {... */\n    tag_82:\n        /* \"contracts/EscrowAlpha.sol\":2074:2696  {... */\n      pop\n      pop\n      pop\n        /* \"contracts/EscrowAlpha.sol\":1986:2696  function finalizeDeal(uint256 dealId, uint256 implementerPercentage) external onlyOwner {... */\n      pop\n      pop\n      jump\t// out\n        /* \"contracts/EscrowAlpha.sol\":409:434  uint256 public nextDealId */\n    tag_26:\n      sload(0x01)\n      dup2\n      jump\t// out\n        /* \"contracts/EscrowAlpha.sol\":1529:1978  function denyDeal(uint256 dealId) external onlyOwner {... */\n    tag_31:\n        /* \"@openzeppelin/contracts/access/Ownable.sol\":1531:1544  _checkOwner() */\n      tag_91\n        /* \"@openzeppelin/contracts/access/Ownable.sol\":1531:1542  _checkOwner */\n      tag_59\n        /* \"@openzeppelin/contracts/access/Ownable.sol\":1531:1544  _checkOwner() */\n      jump\t// in\n    tag_91:\n        /* \"contracts/EscrowAlpha.sol\":1593:1610  Deal storage deal */\n      0x00\n        /* \"contracts/EscrowAlpha.sol\":1613:1618  deals */\n      0x02\n        /* \"contracts/EscrowAlpha.sol\":1613:1626  deals[dealId] */\n      0x00\n        /* \"contracts/EscrowAlpha.sol\":1619:1625  dealId */\n      dup4\n        /* \"contracts/EscrowAlpha.sol\":1613:1626  deals[dealId] */\n      dup2\n      mstore\n      0x20\n      add\n      swap1\n      dup2\n      mstore\n      0x20\n      add\n      0x00\n      keccak256\n        /* \"contracts/EscrowAlpha.sol\":1593:1626  Deal storage deal = deals[dealId] */\n      swap1\n      pop\n        /* \"contracts/EscrowAlpha.sol\":1645:1649  deal */\n      dup1\n        /* \"contracts/EscrowAlpha.sol\":1645:1664  deal.fundsDeposited */\n      0x03\n      add\n      0x01\n      swap1\n      sload\n      swap1\n      0x0100\n      exp\n      swap1\n      div\n      0xff\n      and\n        /* \"contracts/EscrowAlpha.sol\":1637:1701  require(deal.fundsDeposited, \"No funds deposited for this deal\") */\n      tag_93\n      jumpi\n      mload(0x40)\n      0x08c379a000000000000000000000000000000000000000000000000000000000\n      dup2\n      mstore\n      0x04\n      add\n      tag_94\n      swap1\n      tag_63\n      jump\t// in\n    tag_94:\n      mload(0x40)\n      dup1\n      swap2\n      sub\n      swap1\n      revert\n    tag_93:\n        /* \"contracts/EscrowAlpha.sol\":1721:1725  deal */\n      dup1\n        /* \"contracts/EscrowAlpha.sol\":1721:1739  deal.dealCompleted */\n      0x03\n      add\n      0x00\n      swap1\n      sload\n      swap1\n      0x0100\n      exp\n      swap1\n      div\n      0xff\n      and\n        /* \"contracts/EscrowAlpha.sol\":1720:1739  !deal.dealCompleted */\n      iszero\n        /* \"contracts/EscrowAlpha.sol\":1712:1769  require(!deal.dealCompleted, \"Deal is already completed\") */\n      tag_95\n      jumpi\n      mload(0x40)\n      0x08c379a000000000000000000000000000000000000000000000000000000000\n      dup2\n      mstore\n      0x04\n      add\n      tag_96\n      swap1\n      tag_66\n      jump\t// in\n    tag_96:\n      mload(0x40)\n      dup1\n      swap2\n      sub\n      swap1\n      revert\n    tag_95:\n        /* \"contracts/EscrowAlpha.sol\":1803:1807  true */\n      0x01\n        /* \"contracts/EscrowAlpha.sol\":1782:1786  deal */\n      dup2\n        /* \"contracts/EscrowAlpha.sol\":1782:1800  deal.dealCompleted */\n      0x03\n      add\n      0x00\n        /* \"contracts/EscrowAlpha.sol\":1782:1807  deal.dealCompleted = true */\n      0x0100\n      exp\n      dup2\n      sload\n      dup2\n      0xff\n      mul\n      not\n      and\n      swap1\n      dup4\n      iszero\n      iszero\n      mul\n      or\n      swap1\n      sstore\n      pop\n        /* \"contracts/EscrowAlpha.sol\":1818:1838  uint256 refundAmount */\n      0x00\n        /* \"contracts/EscrowAlpha.sol\":1841:1845  deal */\n      dup2\n        /* \"contracts/EscrowAlpha.sol\":1841:1852  deal.amount */\n      0x02\n      add\n      sload\n        /* \"contracts/EscrowAlpha.sol\":1818:1852  uint256 refundAmount = deal.amount */\n      swap1\n      pop\n        /* \"contracts/EscrowAlpha.sol\":1885:1890  false */\n      0x00\n        /* \"contracts/EscrowAlpha.sol\":1863:1867  deal */\n      dup3\n        /* \"contracts/EscrowAlpha.sol\":1863:1882  deal.fundsDeposited */\n      0x03\n      add\n      0x01\n        /* \"contracts/EscrowAlpha.sol\":1863:1890  deal.fundsDeposited = false */\n      0x0100\n      exp\n      dup2\n      sload\n      dup2\n      0xff\n      mul\n      not\n      and\n      swap1\n      dup4\n      iszero\n      iszero\n      mul\n      or\n      swap1\n      sstore\n      pop\n        /* \"contracts/EscrowAlpha.sol\":1911:1916  token */\n      0x03\n      0x00\n      swap1\n      sload\n      swap1\n      0x0100\n      exp\n      swap1\n      div\n      0xffffffffffffffffffffffffffffffffffffffff\n      and\n        /* \"contracts/EscrowAlpha.sol\":1911:1925  token.transfer */\n      0xffffffffffffffffffffffffffffffffffffffff\n      and\n      0xa9059cbb\n        /* \"contracts/EscrowAlpha.sol\":1926:1930  deal */\n      dup4\n        /* \"contracts/EscrowAlpha.sol\":1926:1937  deal.client */\n      0x00\n      add\n      0x00\n      swap1\n      sload\n      swap1\n      0x0100\n      exp\n      swap1\n      div\n      0xffffffffffffffffffffffffffffffffffffffff\n      and\n        /* \"contracts/EscrowAlpha.sol\":1939:1951  refundAmount */\n      dup4\n        /* \"contracts/EscrowAlpha.sol\":1911:1952  token.transfer(deal.client, refundAmount) */\n      mload(0x40)\n      dup4\n      0xffffffff\n      and\n      0xe0\n      shl\n      dup2\n      mstore\n      0x04\n      add\n      tag_97\n      swap3\n      swap2\n      swap1\n      tag_74\n      jump\t// in\n    tag_97:\n      0x20\n      mload(0x40)\n      dup1\n      dup4\n      sub\n      dup2\n      0x00\n      dup8\n      gas\n      call\n      iszero\n      dup1\n      iszero\n      tag_99\n      jumpi\n      returndatasize\n      0x00\n      dup1\n      returndatacopy\n      revert(0x00, returndatasize)\n    tag_99:\n      pop\n      pop\n      pop\n      pop\n      mload(0x40)\n      returndatasize\n      not(0x1f)\n      0x1f\n      dup3\n      add\n      and\n      dup3\n      add\n      dup1\n      0x40\n      mstore\n      pop\n      dup2\n      add\n      swap1\n      tag_100\n      swap2\n      swap1\n      tag_78\n      jump\t// in\n    tag_100:\n        /* \"contracts/EscrowAlpha.sol\":1903:1970  require(token.transfer(deal.client, refundAmount), \"Refund failed\") */\n      tag_101\n      jumpi\n      mload(0x40)\n      0x08c379a000000000000000000000000000000000000000000000000000000000\n      dup2\n      mstore\n      0x04\n      add\n      tag_102\n      swap1\n      tag_103\n      jump\t// in\n    tag_102:\n      mload(0x40)\n      dup1\n      swap2\n      sub\n      swap1\n      revert\n    tag_101:\n        /* \"contracts/EscrowAlpha.sol\":1582:1978  {... */\n      pop\n      pop\n        /* \"contracts/EscrowAlpha.sol\":1529:1978  function denyDeal(uint256 dealId) external onlyOwner {... */\n      pop\n      jump\t// out\n        /* \"@openzeppelin/contracts/access/Ownable.sol\":2293:2394  function renounceOwnership() public virtual onlyOwner {... */\n    tag_33:\n        /* \"@openzeppelin/contracts/access/Ownable.sol\":1531:1544  _checkOwner() */\n      tag_105\n        /* \"@openzeppelin/contracts/access/Ownable.sol\":1531:1542  _checkOwner */\n      tag_59\n        /* \"@openzeppelin/contracts/access/Ownable.sol\":1531:1544  _checkOwner() */\n      jump\t// in\n    tag_105:\n        /* \"@openzeppelin/contracts/access/Ownable.sol\":2357:2387  _transferOwnership(address(0)) */\n      tag_107\n        /* \"@openzeppelin/contracts/access/Ownable.sol\":2384:2385  0 */\n      0x00\n        /* \"@openzeppelin/contracts/access/Ownable.sol\":2357:2375  _transferOwnership */\n      tag_108\n        /* \"@openzeppelin/contracts/access/Ownable.sol\":2357:2387  _transferOwnership(address(0)) */\n      jump\t// in\n    tag_107:\n        /* \"@openzeppelin/contracts/access/Ownable.sol\":2293:2394  function renounceOwnership() public virtual onlyOwner {... */\n      jump\t// out\n        /* \"@openzeppelin/contracts/access/Ownable.sol\":1638:1723  function owner() public view virtual returns (address) {... */\n    tag_35:\n        /* \"@openzeppelin/contracts/access/Ownable.sol\":1684:1691  address */\n      0x00\n        /* \"@openzeppelin/contracts/access/Ownable.sol\":1710:1716  _owner */\n      dup1\n      0x00\n      swap1\n      sload\n      swap1\n      0x0100\n      exp\n      swap1\n      div\n      0xffffffffffffffffffffffffffffffffffffffff\n      and\n        /* \"@openzeppelin/contracts/access/Ownable.sol\":1703:1716  return _owner */\n      swap1\n      pop\n        /* \"@openzeppelin/contracts/access/Ownable.sol\":1638:1723  function owner() public view virtual returns (address) {... */\n      swap1\n      jump\t// out\n        /* \"contracts/EscrowAlpha.sol\":868:1205  function depositTokens(uint256 dealId) external {... */\n    tag_40:\n        /* \"contracts/EscrowAlpha.sol\":927:944  Deal storage deal */\n      0x00\n        /* \"contracts/EscrowAlpha.sol\":947:952  deals */\n      0x02\n        /* \"contracts/EscrowAlpha.sol\":947:960  deals[dealId] */\n      0x00\n        /* \"contracts/EscrowAlpha.sol\":953:959  dealId */\n      dup4\n        /* \"contracts/EscrowAlpha.sol\":947:960  deals[dealId] */\n      dup2\n      mstore\n      0x20\n      add\n      swap1\n      dup2\n      mstore\n      0x20\n      add\n      0x00\n      keccak256\n        /* \"contracts/EscrowAlpha.sol\":927:960  Deal storage deal = deals[dealId] */\n      swap1\n      pop\n        /* \"contracts/EscrowAlpha.sol\":993:997  deal */\n      dup1\n        /* \"contracts/EscrowAlpha.sol\":993:1004  deal.client */\n      0x00\n      add\n      0x00\n      swap1\n      sload\n      swap1\n      0x0100\n      exp\n      swap1\n      div\n      0xffffffffffffffffffffffffffffffffffffffff\n      and\n        /* \"contracts/EscrowAlpha.sol\":979:1004  msg.sender == deal.client */\n      0xffffffffffffffffffffffffffffffffffffffff\n      and\n        /* \"contracts/EscrowAlpha.sol\":979:989  msg.sender */\n      caller\n        /* \"contracts/EscrowAlpha.sol\":979:1004  msg.sender == deal.client */\n      0xffffffffffffffffffffffffffffffffffffffff\n      and\n      eq\n        /* \"contracts/EscrowAlpha.sol\":971:1057  require(msg.sender == deal.client, \"Only the client can deposit tokens for the deal.\") */\n      tag_111\n      jumpi\n      mload(0x40)\n      0x08c379a000000000000000000000000000000000000000000000000000000000\n      dup2\n      mstore\n      0x04\n      add\n      tag_112\n      swap1\n      tag_113\n      jump\t// in\n    tag_112:\n      mload(0x40)\n      dup1\n      swap2\n      sub\n      swap1\n      revert\n    tag_111:\n        /* \"contracts/EscrowAlpha.sol\":1076:1081  token */\n      0x03\n      0x00\n      swap1\n      sload\n      swap1\n      0x0100\n      exp\n      swap1\n      div\n      0xffffffffffffffffffffffffffffffffffffffff\n      and\n        /* \"contracts/EscrowAlpha.sol\":1076:1094  token.transferFrom */\n      0xffffffffffffffffffffffffffffffffffffffff\n      and\n      0x23b872dd\n        /* \"contracts/EscrowAlpha.sol\":1095:1105  msg.sender */\n      caller\n        /* \"contracts/EscrowAlpha.sol\":1115:1119  this */\n      address\n        /* \"contracts/EscrowAlpha.sol\":1122:1126  deal */\n      dup5\n        /* \"contracts/EscrowAlpha.sol\":1122:1133  deal.amount */\n      0x02\n      add\n      sload\n        /* \"contracts/EscrowAlpha.sol\":1076:1134  token.transferFrom(msg.sender, address(this), deal.amount) */\n      mload(0x40)\n      dup5\n      0xffffffff\n      and\n      0xe0\n      shl\n      dup2\n      mstore\n      0x04\n      add\n      tag_114\n      swap4\n      swap3\n      swap2\n      swap1\n      tag_115\n      jump\t// in\n    tag_114:\n      0x20\n      mload(0x40)\n      dup1\n      dup4\n      sub\n      dup2\n      0x00\n      dup8\n      gas\n      call\n      iszero\n      dup1\n      iszero\n      tag_117\n      jumpi\n      returndatasize\n      0x00\n      dup1\n      returndatacopy\n      revert(0x00, returndatasize)\n    tag_117:\n      pop\n      pop\n      pop\n      pop\n      mload(0x40)\n      returndatasize\n      not(0x1f)\n      0x1f\n      dup3\n      add\n      and\n      dup3\n      add\n      dup1\n      0x40\n      mstore\n      pop\n      dup2\n      add\n      swap1\n      tag_118\n      swap2\n      swap1\n      tag_78\n      jump\t// in\n    tag_118:\n        /* \"contracts/EscrowAlpha.sol\":1068:1160  require(token.transferFrom(msg.sender, address(this), deal.amount), \"Token transfer failed\") */\n      tag_119\n      jumpi\n      mload(0x40)\n      0x08c379a000000000000000000000000000000000000000000000000000000000\n      dup2\n      mstore\n      0x04\n      add\n      tag_120\n      swap1\n      tag_121\n      jump\t// in\n    tag_120:\n      mload(0x40)\n      dup1\n      swap2\n      sub\n      swap1\n      revert\n    tag_119:\n        /* \"contracts/EscrowAlpha.sol\":1193:1197  true */\n      0x01\n        /* \"contracts/EscrowAlpha.sol\":1171:1175  deal */\n      dup2\n        /* \"contracts/EscrowAlpha.sol\":1171:1190  deal.fundsDeposited */\n      0x03\n      add\n      0x01\n        /* \"contracts/EscrowAlpha.sol\":1171:1197  deal.fundsDeposited = true */\n      0x0100\n      exp\n      dup2\n      sload\n      dup2\n      0xff\n      mul\n      not\n      and\n      swap1\n      dup4\n      iszero\n      iszero\n      mul\n      or\n      swap1\n      sstore\n      pop\n        /* \"contracts/EscrowAlpha.sol\":916:1205  {... */\n      pop\n        /* \"contracts/EscrowAlpha.sol\":868:1205  function depositTokens(uint256 dealId) external {... */\n      pop\n      jump\t// out\n        /* \"contracts/EscrowAlpha.sol\":1213:1517  function completeDeal(uint256 dealId) external onlyOwner {... */\n    tag_43:\n        /* \"@openzeppelin/contracts/access/Ownable.sol\":1531:1544  _checkOwner() */\n      tag_123\n        /* \"@openzeppelin/contracts/access/Ownable.sol\":1531:1542  _checkOwner */\n      tag_59\n        /* \"@openzeppelin/contracts/access/Ownable.sol\":1531:1544  _checkOwner() */\n      jump\t// in\n    tag_123:\n        /* \"contracts/EscrowAlpha.sol\":1281:1298  Deal storage deal */\n      0x00\n        /* \"contracts/EscrowAlpha.sol\":1301:1306  deals */\n      0x02\n        /* \"contracts/EscrowAlpha.sol\":1301:1314  deals[dealId] */\n      0x00\n        /* \"contracts/EscrowAlpha.sol\":1307:1313  dealId */\n      dup4\n        /* \"contracts/EscrowAlpha.sol\":1301:1314  deals[dealId] */\n      dup2\n      mstore\n      0x20\n      add\n      swap1\n      dup2\n      mstore\n      0x20\n      add\n      0x00\n      keccak256\n        /* \"contracts/EscrowAlpha.sol\":1281:1314  Deal storage deal = deals[dealId] */\n      swap1\n      pop\n        /* \"contracts/EscrowAlpha.sol\":1334:1338  deal */\n      dup1\n        /* \"contracts/EscrowAlpha.sol\":1334:1352  deal.dealCompleted */\n      0x03\n      add\n      0x00\n      swap1\n      sload\n      swap1\n      0x0100\n      exp\n      swap1\n      div\n      0xff\n      and\n        /* \"contracts/EscrowAlpha.sol\":1333:1352  !deal.dealCompleted */\n      iszero\n        /* \"contracts/EscrowAlpha.sol\":1325:1383  require(!deal.dealCompleted, \"Deal is already completed.\") */\n      tag_125\n      jumpi\n      mload(0x40)\n      0x08c379a000000000000000000000000000000000000000000000000000000000\n      dup2\n      mstore\n      0x04\n      add\n      tag_126\n      swap1\n      tag_127\n      jump\t// in\n    tag_126:\n      mload(0x40)\n      dup1\n      swap2\n      sub\n      swap1\n      revert\n    tag_125:\n        /* \"contracts/EscrowAlpha.sol\":1402:1407  token */\n      0x03\n      0x00\n      swap1\n      sload\n      swap1\n      0x0100\n      exp\n      swap1\n      div\n      0xffffffffffffffffffffffffffffffffffffffff\n      and\n        /* \"contracts/EscrowAlpha.sol\":1402:1416  token.transfer */\n      0xffffffffffffffffffffffffffffffffffffffff\n      and\n      0xa9059cbb\n        /* \"contracts/EscrowAlpha.sol\":1417:1421  deal */\n      dup3\n        /* \"contracts/EscrowAlpha.sol\":1417:1433  deal.implementer */\n      0x01\n      add\n      0x00\n      swap1\n      sload\n      swap1\n      0x0100\n      exp\n      swap1\n      div\n      0xffffffffffffffffffffffffffffffffffffffff\n      and\n        /* \"contracts/EscrowAlpha.sol\":1435:1439  deal */\n      dup4\n        /* \"contracts/EscrowAlpha.sol\":1435:1446  deal.amount */\n      0x02\n      add\n      sload\n        /* \"contracts/EscrowAlpha.sol\":1402:1447  token.transfer(deal.implementer, deal.amount) */\n      mload(0x40)\n      dup4\n      0xffffffff\n      and\n      0xe0\n      shl\n      dup2\n      mstore\n      0x04\n      add\n      tag_128\n      swap3\n      swap2\n      swap1\n      tag_74\n      jump\t// in\n    tag_128:\n      0x20\n      mload(0x40)\n      dup1\n      dup4\n      sub\n      dup2\n      0x00\n      dup8\n      gas\n      call\n      iszero\n      dup1\n      iszero\n      tag_130\n      jumpi\n      returndatasize\n      0x00\n      dup1\n      returndatacopy\n      revert(0x00, returndatasize)\n    tag_130:\n      pop\n      pop\n      pop\n      pop\n      mload(0x40)\n      returndatasize\n      not(0x1f)\n      0x1f\n      dup3\n      add\n      and\n      dup3\n      add\n      dup1\n      0x40\n      mstore\n      pop\n      dup2\n      add\n      swap1\n      tag_131\n      swap2\n      swap1\n      tag_78\n      jump\t// in\n    tag_131:\n        /* \"contracts/EscrowAlpha.sol\":1394:1473  require(token.transfer(deal.implementer, deal.amount), \"Token transfer failed\") */\n      tag_132\n      jumpi\n      mload(0x40)\n      0x08c379a000000000000000000000000000000000000000000000000000000000\n      dup2\n      mstore\n      0x04\n      add\n      tag_133\n      swap1\n      tag_121\n      jump\t// in\n    tag_133:\n      mload(0x40)\n      dup1\n      swap2\n      sub\n      swap1\n      revert\n    tag_132:\n        /* \"contracts/EscrowAlpha.sol\":1505:1509  true */\n      0x01\n        /* \"contracts/EscrowAlpha.sol\":1484:1488  deal */\n      dup2\n        /* \"contracts/EscrowAlpha.sol\":1484:1502  deal.dealCompleted */\n      0x03\n      add\n      0x00\n        /* \"contracts/EscrowAlpha.sol\":1484:1509  deal.dealCompleted = true */\n      0x0100\n      exp\n      dup2\n      sload\n      dup2\n      0xff\n      mul\n      not\n      and\n      swap1\n      dup4\n      iszero\n      iszero\n      mul\n      or\n      swap1\n      sstore\n      pop\n        /* \"contracts/EscrowAlpha.sol\":1270:1517  {... */\n      pop\n        /* \"contracts/EscrowAlpha.sol\":1213:1517  function completeDeal(uint256 dealId) external onlyOwner {... */\n      pop\n      jump\t// out\n        /* \"@openzeppelin/contracts/access/Ownable.sol\":2543:2758  function transferOwnership(address newOwner) public virtual onlyOwner {... */\n    tag_47:\n        /* \"@openzeppelin/contracts/access/Ownable.sol\":1531:1544  _checkOwner() */\n      tag_135\n        /* \"@openzeppelin/contracts/access/Ownable.sol\":1531:1542  _checkOwner */\n      tag_59\n        /* \"@openzeppelin/contracts/access/Ownable.sol\":1531:1544  _checkOwner() */\n      jump\t// in\n    tag_135:\n        /* \"@openzeppelin/contracts/access/Ownable.sol\":2647:2648  0 */\n      0x00\n        /* \"@openzeppelin/contracts/access/Ownable.sol\":2627:2649  newOwner == address(0) */\n      0xffffffffffffffffffffffffffffffffffffffff\n      and\n        /* \"@openzeppelin/contracts/access/Ownable.sol\":2627:2635  newOwner */\n      dup2\n        /* \"@openzeppelin/contracts/access/Ownable.sol\":2627:2649  newOwner == address(0) */\n      0xffffffffffffffffffffffffffffffffffffffff\n      and\n      sub\n        /* \"@openzeppelin/contracts/access/Ownable.sol\":2623:2714  if (newOwner == address(0)) {... */\n      tag_137\n      jumpi\n        /* \"@openzeppelin/contracts/access/Ownable.sol\":2700:2701  0 */\n      0x00\n        /* \"@openzeppelin/contracts/access/Ownable.sol\":2672:2703  OwnableInvalidOwner(address(0)) */\n      mload(0x40)\n      0x1e4fbdf700000000000000000000000000000000000000000000000000000000\n      dup2\n      mstore\n      0x04\n      add\n      tag_138\n      swap2\n      swap1\n      tag_37\n      jump\t// in\n    tag_138:\n      mload(0x40)\n      dup1\n      swap2\n      sub\n      swap1\n      revert\n        /* \"@openzeppelin/contracts/access/Ownable.sol\":2623:2714  if (newOwner == address(0)) {... */\n    tag_137:\n        /* \"@openzeppelin/contracts/access/Ownable.sol\":2723:2751  _transferOwnership(newOwner) */\n      tag_139\n        /* \"@openzeppelin/contracts/access/Ownable.sol\":2742:2750  newOwner */\n      dup2\n        /* \"@openzeppelin/contracts/access/Ownable.sol\":2723:2741  _transferOwnership */\n      tag_108\n        /* \"@openzeppelin/contracts/access/Ownable.sol\":2723:2751  _transferOwnership(newOwner) */\n      jump\t// in\n    tag_139:\n        /* \"@openzeppelin/contracts/access/Ownable.sol\":2543:2758  function transferOwnership(address newOwner) public virtual onlyOwner {... */\n      pop\n      jump\t// out\n        /* \"contracts/EscrowAlpha.sol\":626:860  function createDeal(address implementer, uint256 amount) external returns (uint256) {... */\n    tag_51:\n        /* \"contracts/EscrowAlpha.sol\":701:708  uint256 */\n      0x00\n        /* \"contracts/EscrowAlpha.sol\":721:735  uint256 dealId */\n      dup1\n        /* \"contracts/EscrowAlpha.sol\":738:748  nextDealId */\n      0x01\n      0x00\n        /* \"contracts/EscrowAlpha.sol\":738:750  nextDealId++ */\n      dup2\n      sload\n      dup1\n      swap3\n      swap2\n      swap1\n      tag_141\n      swap1\n      tag_142\n      jump\t// in\n    tag_141:\n      swap2\n      swap1\n      pop\n      sstore\n        /* \"contracts/EscrowAlpha.sol\":721:750  uint256 dealId = nextDealId++ */\n      swap1\n      pop\n        /* \"contracts/EscrowAlpha.sol\":777:828  Deal(msg.sender, implementer, amount, false, false) */\n      mload(0x40)\n      dup1\n      0xa0\n      add\n      0x40\n      mstore\n      dup1\n        /* \"contracts/EscrowAlpha.sol\":782:792  msg.sender */\n      caller\n        /* \"contracts/EscrowAlpha.sol\":777:828  Deal(msg.sender, implementer, amount, false, false) */\n      0xffffffffffffffffffffffffffffffffffffffff\n      and\n      dup2\n      mstore\n      0x20\n      add\n        /* \"contracts/EscrowAlpha.sol\":794:805  implementer */\n      dup6\n        /* \"contracts/EscrowAlpha.sol\":777:828  Deal(msg.sender, implementer, amount, false, false) */\n      0xffffffffffffffffffffffffffffffffffffffff\n      and\n      dup2\n      mstore\n      0x20\n      add\n        /* \"contracts/EscrowAlpha.sol\":807:813  amount */\n      dup5\n        /* \"contracts/EscrowAlpha.sol\":777:828  Deal(msg.sender, implementer, amount, false, false) */\n      dup2\n      mstore\n      0x20\n      add\n        /* \"contracts/EscrowAlpha.sol\":815:820  false */\n      0x00\n        /* \"contracts/EscrowAlpha.sol\":777:828  Deal(msg.sender, implementer, amount, false, false) */\n      iszero\n      iszero\n      dup2\n      mstore\n      0x20\n      add\n        /* \"contracts/EscrowAlpha.sol\":822:827  false */\n      0x00\n        /* \"contracts/EscrowAlpha.sol\":777:828  Deal(msg.sender, implementer, amount, false, false) */\n      iszero\n      iszero\n      dup2\n      mstore\n      pop\n        /* \"contracts/EscrowAlpha.sol\":761:766  deals */\n      0x02\n        /* \"contracts/EscrowAlpha.sol\":761:774  deals[dealId] */\n      0x00\n        /* \"contracts/EscrowAlpha.sol\":767:773  dealId */\n      dup4\n        /* \"contracts/EscrowAlpha.sol\":761:774  deals[dealId] */\n      dup2\n      mstore\n      0x20\n      add\n      swap1\n      dup2\n      mstore\n      0x20\n      add\n      0x00\n      keccak256\n        /* \"contracts/EscrowAlpha.sol\":761:828  deals[dealId] = Deal(msg.sender, implementer, amount, false, false) */\n      0x00\n      dup3\n      add\n      mload\n      dup2\n      0x00\n      add\n      exp(0x0100, 0x00)\n      dup2\n      sload\n      dup2\n      0xffffffffffffffffffffffffffffffffffffffff\n      mul\n      not\n      and\n      swap1\n      dup4\n      0xffffffffffffffffffffffffffffffffffffffff\n      and\n      mul\n      or\n      swap1\n      sstore\n      pop\n      0x20\n      dup3\n      add\n      mload\n      dup2\n      0x01\n      add\n      exp(0x0100, 0x00)\n      dup2\n      sload\n      dup2\n      0xffffffffffffffffffffffffffffffffffffffff\n      mul\n      not\n      and\n      swap1\n      dup4\n      0xffffffffffffffffffffffffffffffffffffffff\n      and\n      mul\n      or\n      swap1\n      sstore\n      pop\n      0x40\n      dup3\n      add\n      mload\n      dup2\n      0x02\n      add\n      sstore\n      0x60\n      dup3\n      add\n      mload\n      dup2\n      0x03\n      add\n      exp(0x0100, 0x00)\n      dup2\n      sload\n      dup2\n      0xff\n      mul\n      not\n      and\n      swap1\n      dup4\n      iszero\n      iszero\n      mul\n      or\n      swap1\n      sstore\n      pop\n      0x80\n      dup3\n      add\n      mload\n      dup2\n      0x03\n      add\n      exp(0x0100, 0x01)\n      dup2\n      sload\n      dup2\n      0xff\n      mul\n      not\n      and\n      swap1\n      dup4\n      iszero\n      iszero\n      mul\n      or\n      swap1\n      sstore\n      pop\n      swap1\n      pop\n      pop\n        /* \"contracts/EscrowAlpha.sol\":846:852  dealId */\n      dup1\n        /* \"contracts/EscrowAlpha.sol\":839:852  return dealId */\n      swap2\n      pop\n      pop\n        /* \"contracts/EscrowAlpha.sol\":626:860  function createDeal(address implementer, uint256 amount) external returns (uint256) {... */\n      swap3\n      swap2\n      pop\n      pop\n      jump\t// out\n        /* \"contracts/EscrowAlpha.sol\":485:504  IERC20 public token */\n    tag_54:\n      0x03\n      0x00\n      swap1\n      sload\n      swap1\n      0x0100\n      exp\n      swap1\n      div\n      0xffffffffffffffffffffffffffffffffffffffff\n      and\n      dup2\n      jump\t// out\n        /* \"@openzeppelin/contracts/access/Ownable.sol\":1796:1958  function _checkOwner() internal view virtual {... */\n    tag_59:\n        /* \"@openzeppelin/contracts/access/Ownable.sol\":1866:1878  _msgSender() */\n      tag_144\n        /* \"@openzeppelin/contracts/access/Ownable.sol\":1866:1876  _msgSender */\n      tag_145\n        /* \"@openzeppelin/contracts/access/Ownable.sol\":1866:1878  _msgSender() */\n      jump\t// in\n    tag_144:\n        /* \"@openzeppelin/contracts/access/Ownable.sol\":1855:1878  owner() != _msgSender() */\n      0xffffffffffffffffffffffffffffffffffffffff\n      and\n        /* \"@openzeppelin/contracts/access/Ownable.sol\":1855:1862  owner() */\n      tag_146\n        /* \"@openzeppelin/contracts/access/Ownable.sol\":1855:1860  owner */\n      tag_35\n        /* \"@openzeppelin/contracts/access/Ownable.sol\":1855:1862  owner() */\n      jump\t// in\n    tag_146:\n        /* \"@openzeppelin/contracts/access/Ownable.sol\":1855:1878  owner() != _msgSender() */\n      0xffffffffffffffffffffffffffffffffffffffff\n      and\n      eq\n        /* \"@openzeppelin/contracts/access/Ownable.sol\":1851:1952  if (owner() != _msgSender()) {... */\n      tag_147\n      jumpi\n        /* \"@openzeppelin/contracts/access/Ownable.sol\":1928:1940  _msgSender() */\n      tag_148\n        /* \"@openzeppelin/contracts/access/Ownable.sol\":1928:1938  _msgSender */\n      tag_145\n        /* \"@openzeppelin/contracts/access/Ownable.sol\":1928:1940  _msgSender() */\n      jump\t// in\n    tag_148:\n        /* \"@openzeppelin/contracts/access/Ownable.sol\":1901:1941  OwnableUnauthorizedAccount(_msgSender()) */\n      mload(0x40)\n      0x118cdaa700000000000000000000000000000000000000000000000000000000\n      dup2\n      mstore\n      0x04\n      add\n      tag_149\n      swap2\n      swap1\n      tag_37\n      jump\t// in\n    tag_149:\n      mload(0x40)\n      dup1\n      swap2\n      sub\n      swap1\n      revert\n        /* \"@openzeppelin/contracts/access/Ownable.sol\":1851:1952  if (owner() != _msgSender()) {... */\n    tag_147:\n        /* \"@openzeppelin/contracts/access/Ownable.sol\":1796:1958  function _checkOwner() internal view virtual {... */\n      jump\t// out\n        /* \"@openzeppelin/contracts/access/Ownable.sol\":2912:3099  function _transferOwnership(address newOwner) internal virtual {... */\n    tag_108:\n        /* \"@openzeppelin/contracts/access/Ownable.sol\":2985:3001  address oldOwner */\n      0x00\n        /* \"@openzeppelin/contracts/access/Ownable.sol\":3004:3010  _owner */\n      dup1\n      0x00\n      swap1\n      sload\n      swap1\n      0x0100\n      exp\n      swap1\n      div\n      0xffffffffffffffffffffffffffffffffffffffff\n      and\n        /* \"@openzeppelin/contracts/access/Ownable.sol\":2985:3010  address oldOwner = _owner */\n      swap1\n      pop\n        /* \"@openzeppelin/contracts/access/Ownable.sol\":3029:3037  newOwner */\n      dup2\n        /* \"@openzeppelin/contracts/access/Ownable.sol\":3020:3026  _owner */\n      0x00\n      dup1\n        /* \"@openzeppelin/contracts/access/Ownable.sol\":3020:3037  _owner = newOwner */\n      0x0100\n      exp\n      dup2\n      sload\n      dup2\n      0xffffffffffffffffffffffffffffffffffffffff\n      mul\n      not\n      and\n      swap1\n      dup4\n      0xffffffffffffffffffffffffffffffffffffffff\n      and\n      mul\n      or\n      swap1\n      sstore\n      pop\n        /* \"@openzeppelin/contracts/access/Ownable.sol\":3083:3091  newOwner */\n      dup2\n        /* \"@openzeppelin/contracts/access/Ownable.sol\":3052:3092  OwnershipTransferred(oldOwner, newOwner) */\n      0xffffffffffffffffffffffffffffffffffffffff\n      and\n        /* \"@openzeppelin/contracts/access/Ownable.sol\":3073:3081  oldOwner */\n      dup2\n        /* \"@openzeppelin/contracts/access/Ownable.sol\":3052:3092  OwnershipTransferred(oldOwner, newOwner) */\n      0xffffffffffffffffffffffffffffffffffffffff\n      and\n      0x8be0079c531659141344cd1fd0a4f28419497f9722a3daafe3b4186f6b6457e0\n      mload(0x40)\n      mload(0x40)\n      dup1\n      swap2\n      sub\n      swap1\n      log3\n        /* \"@openzeppelin/contracts/access/Ownable.sol\":2975:3099  {... */\n      pop\n        /* \"@openzeppelin/contracts/access/Ownable.sol\":2912:3099  function _transferOwnership(address newOwner) internal virtual {... */\n      pop\n      jump\t// out\n        /* \"@openzeppelin/contracts/utils/Context.sol\":656:752  function _msgSender() internal view virtual returns (address) {... */\n    tag_145:\n        /* \"@openzeppelin/contracts/utils/Context.sol\":709:716  address */\n      0x00\n        /* \"@openzeppelin/contracts/utils/Context.sol\":735:745  msg.sender */\n      caller\n        /* \"@openzeppelin/contracts/utils/Context.sol\":728:745  return msg.sender */\n      swap1\n      pop\n        /* \"@openzeppelin/contracts/utils/Context.sol\":656:752  function _msgSender() internal view virtual returns (address) {... */\n      swap1\n      jump\t// out\n        /* \"#utility.yul\":88:205   */\n    tag_153:\n        /* \"#utility.yul\":197:198   */\n      0x00\n        /* \"#utility.yul\":194:195   */\n      dup1\n        /* \"#utility.yul\":187:199   */\n      revert\n        /* \"#utility.yul\":334:411   */\n    tag_155:\n        /* \"#utility.yul\":371:378   */\n      0x00\n        /* \"#utility.yul\":400:405   */\n      dup2\n        /* \"#utility.yul\":389:405   */\n      swap1\n      pop\n        /* \"#utility.yul\":334:411   */\n      swap2\n      swap1\n      pop\n      jump\t// out\n        /* \"#utility.yul\":417:539   */\n    tag_156:\n        /* \"#utility.yul\":490:514   */\n      tag_198\n        /* \"#utility.yul\":508:513   */\n      dup2\n        /* \"#utility.yul\":490:514   */\n      tag_155\n      jump\t// in\n    tag_198:\n        /* \"#utility.yul\":483:488   */\n      dup2\n        /* \"#utility.yul\":480:515   */\n      eq\n        /* \"#utility.yul\":470:533   */\n      tag_199\n      jumpi\n        /* \"#utility.yul\":529:530   */\n      0x00\n        /* \"#utility.yul\":526:527   */\n      dup1\n        /* \"#utility.yul\":519:531   */\n      revert\n        /* \"#utility.yul\":470:533   */\n    tag_199:\n        /* \"#utility.yul\":417:539   */\n      pop\n      jump\t// out\n        /* \"#utility.yul\":545:684   */\n    tag_157:\n        /* \"#utility.yul\":591:596   */\n      0x00\n        /* \"#utility.yul\":629:635   */\n      dup2\n        /* \"#utility.yul\":616:636   */\n      calldataload\n        /* \"#utility.yul\":607:636   */\n      swap1\n      pop\n        /* \"#utility.yul\":645:678   */\n      tag_201\n        /* \"#utility.yul\":672:677   */\n      dup2\n        /* \"#utility.yul\":645:678   */\n      tag_156\n      jump\t// in\n    tag_201:\n        /* \"#utility.yul\":545:684   */\n      swap3\n      swap2\n      pop\n      pop\n      jump\t// out\n        /* \"#utility.yul\":690:1019   */\n    tag_17:\n        /* \"#utility.yul\":749:755   */\n      0x00\n        /* \"#utility.yul\":798:800   */\n      0x20\n        /* \"#utility.yul\":786:795   */\n      dup3\n        /* \"#utility.yul\":777:784   */\n      dup5\n        /* \"#utility.yul\":773:796   */\n      sub\n        /* \"#utility.yul\":769:801   */\n      slt\n        /* \"#utility.yul\":766:885   */\n      iszero\n      tag_203\n      jumpi\n        /* \"#utility.yul\":804:883   */\n      tag_204\n      tag_153\n      jump\t// in\n    tag_204:\n        /* \"#utility.yul\":766:885   */\n    tag_203:\n        /* \"#utility.yul\":924:925   */\n      0x00\n        /* \"#utility.yul\":949:1002   */\n      tag_205\n        /* \"#utility.yul\":994:1001   */\n      dup5\n        /* \"#utility.yul\":985:991   */\n      dup3\n        /* \"#utility.yul\":974:983   */\n      dup6\n        /* \"#utility.yul\":970:992   */\n      add\n        /* \"#utility.yul\":949:1002   */\n      tag_157\n      jump\t// in\n    tag_205:\n        /* \"#utility.yul\":939:1002   */\n      swap2\n      pop\n        /* \"#utility.yul\":895:1012   */\n      pop\n        /* \"#utility.yul\":690:1019   */\n      swap3\n      swap2\n      pop\n      pop\n      jump\t// out\n        /* \"#utility.yul\":1025:1151   */\n    tag_158:\n        /* \"#utility.yul\":1062:1069   */\n      0x00\n        /* \"#utility.yul\":1102:1144   */\n      0xffffffffffffffffffffffffffffffffffffffff\n        /* \"#utility.yul\":1095:1100   */\n      dup3\n        /* \"#utility.yul\":1091:1145   */\n      and\n        /* \"#utility.yul\":1080:1145   */\n      swap1\n      pop\n        /* \"#utility.yul\":1025:1151   */\n      swap2\n      swap1\n      pop\n      jump\t// out\n        /* \"#utility.yul\":1157:1253   */\n    tag_159:\n        /* \"#utility.yul\":1194:1201   */\n      0x00\n        /* \"#utility.yul\":1223:1247   */\n      tag_208\n        /* \"#utility.yul\":1241:1246   */\n      dup3\n        /* \"#utility.yul\":1223:1247   */\n      tag_158\n      jump\t// in\n    tag_208:\n        /* \"#utility.yul\":1212:1247   */\n      swap1\n      pop\n        /* \"#utility.yul\":1157:1253   */\n      swap2\n      swap1\n      pop\n      jump\t// out\n        /* \"#utility.yul\":1259:1377   */\n    tag_160:\n        /* \"#utility.yul\":1346:1370   */\n      tag_210\n        /* \"#utility.yul\":1364:1369   */\n      dup2\n        /* \"#utility.yul\":1346:1370   */\n      tag_159\n      jump\t// in\n    tag_210:\n        /* \"#utility.yul\":1341:1344   */\n      dup3\n        /* \"#utility.yul\":1334:1371   */\n      mstore\n        /* \"#utility.yul\":1259:1377   */\n      pop\n      pop\n      jump\t// out\n        /* \"#utility.yul\":1383:1501   */\n    tag_161:\n        /* \"#utility.yul\":1470:1494   */\n      tag_212\n        /* \"#utility.yul\":1488:1493   */\n      dup2\n        /* \"#utility.yul\":1470:1494   */\n      tag_155\n      jump\t// in\n    tag_212:\n        /* \"#utility.yul\":1465:1468   */\n      dup3\n        /* \"#utility.yul\":1458:1495   */\n      mstore\n        /* \"#utility.yul\":1383:1501   */\n      pop\n      pop\n      jump\t// out\n        /* \"#utility.yul\":1507:1597   */\n    tag_162:\n        /* \"#utility.yul\":1541:1548   */\n      0x00\n        /* \"#utility.yul\":1584:1589   */\n      dup2\n        /* \"#utility.yul\":1577:1590   */\n      iszero\n        /* \"#utility.yul\":1570:1591   */\n      iszero\n        /* \"#utility.yul\":1559:1591   */\n      swap1\n      pop\n        /* \"#utility.yul\":1507:1597   */\n      swap2\n      swap1\n      pop\n      jump\t// out\n        /* \"#utility.yul\":1603:1712   */\n    tag_163:\n        /* \"#utility.yul\":1684:1705   */\n      tag_215\n        /* \"#utility.yul\":1699:1704   */\n      dup2\n        /* \"#utility.yul\":1684:1705   */\n      tag_162\n      jump\t// in\n    tag_215:\n        /* \"#utility.yul\":1679:1682   */\n      dup3\n        /* \"#utility.yul\":1672:1706   */\n      mstore\n        /* \"#utility.yul\":1603:1712   */\n      pop\n      pop\n      jump\t// out\n        /* \"#utility.yul\":1718:2358   */\n    tag_20:\n        /* \"#utility.yul\":1911:1915   */\n      0x00\n        /* \"#utility.yul\":1949:1952   */\n      0xa0\n        /* \"#utility.yul\":1938:1947   */\n      dup3\n        /* \"#utility.yul\":1934:1953   */\n      add\n        /* \"#utility.yul\":1926:1953   */\n      swap1\n      pop\n        /* \"#utility.yul\":1963:2034   */\n      tag_217\n        /* \"#utility.yul\":2031:2032   */\n      0x00\n        /* \"#utility.yul\":2020:2029   */\n      dup4\n        /* \"#utility.yul\":2016:2033   */\n      add\n        /* \"#utility.yul\":2007:2013   */\n      dup9\n        /* \"#utility.yul\":1963:2034   */\n      tag_160\n      jump\t// in\n    tag_217:\n        /* \"#utility.yul\":2044:2116   */\n      tag_218\n        /* \"#utility.yul\":2112:2114   */\n      0x20\n        /* \"#utility.yul\":2101:2110   */\n      dup4\n        /* \"#utility.yul\":2097:2115   */\n      add\n        /* \"#utility.yul\":2088:2094   */\n      dup8\n        /* \"#utility.yul\":2044:2116   */\n      tag_160\n      jump\t// in\n    tag_218:\n        /* \"#utility.yul\":2126:2198   */\n      tag_219\n        /* \"#utility.yul\":2194:2196   */\n      0x40\n        /* \"#utility.yul\":2183:2192   */\n      dup4\n        /* \"#utility.yul\":2179:2197   */\n      add\n        /* \"#utility.yul\":2170:2176   */\n      dup7\n        /* \"#utility.yul\":2126:2198   */\n      tag_161\n      jump\t// in\n    tag_219:\n        /* \"#utility.yul\":2208:2274   */\n      tag_220\n        /* \"#utility.yul\":2270:2272   */\n      0x60\n        /* \"#utility.yul\":2259:2268   */\n      dup4\n        /* \"#utility.yul\":2255:2273   */\n      add\n        /* \"#utility.yul\":2246:2252   */\n      dup6\n        /* \"#utility.yul\":2208:2274   */\n      tag_163\n      jump\t// in\n    tag_220:\n        /* \"#utility.yul\":2284:2351   */\n      tag_221\n        /* \"#utility.yul\":2346:2349   */\n      0x80\n        /* \"#utility.yul\":2335:2344   */\n      dup4\n        /* \"#utility.yul\":2331:2350   */\n      add\n        /* \"#utility.yul\":2322:2328   */\n      dup5\n        /* \"#utility.yul\":2284:2351   */\n      tag_163\n      jump\t// in\n    tag_221:\n        /* \"#utility.yul\":1718:2358   */\n      swap7\n      swap6\n      pop\n      pop\n      pop\n      pop\n      pop\n      pop\n      jump\t// out\n        /* \"#utility.yul\":2364:2838   */\n    tag_23:\n        /* \"#utility.yul\":2432:2438   */\n      0x00\n        /* \"#utility.yul\":2440:2446   */\n      dup1\n        /* \"#utility.yul\":2489:2491   */\n      0x40\n        /* \"#utility.yul\":2477:2486   */\n      dup4\n        /* \"#utility.yul\":2468:2475   */\n      dup6\n        /* \"#utility.yul\":2464:2487   */\n      sub\n        /* \"#utility.yul\":2460:2492   */\n      slt\n        /* \"#utility.yul\":2457:2576   */\n      iszero\n      tag_223\n      jumpi\n        /* \"#utility.yul\":2495:2574   */\n      tag_224\n      tag_153\n      jump\t// in\n    tag_224:\n        /* \"#utility.yul\":2457:2576   */\n    tag_223:\n        /* \"#utility.yul\":2615:2616   */\n      0x00\n        /* \"#utility.yul\":2640:2693   */\n      tag_225\n        /* \"#utility.yul\":2685:2692   */\n      dup6\n        /* \"#utility.yul\":2676:2682   */\n      dup3\n        /* \"#utility.yul\":2665:2674   */\n      dup7\n        /* \"#utility.yul\":2661:2683   */\n      add\n        /* \"#utility.yul\":2640:2693   */\n      tag_157\n      jump\t// in\n    tag_225:\n        /* \"#utility.yul\":2630:2693   */\n      swap3\n      pop\n        /* \"#utility.yul\":2586:2703   */\n      pop\n        /* \"#utility.yul\":2742:2744   */\n      0x20\n        /* \"#utility.yul\":2768:2821   */\n      tag_226\n        /* \"#utility.yul\":2813:2820   */\n      dup6\n        /* \"#utility.yul\":2804:2810   */\n      dup3\n        /* \"#utility.yul\":2793:2802   */\n      dup7\n        /* \"#utility.yul\":2789:2811   */\n      add\n        /* \"#utility.yul\":2768:2821   */\n      tag_157\n      jump\t// in\n    tag_226:\n        /* \"#utility.yul\":2758:2821   */\n      swap2\n      pop\n        /* \"#utility.yul\":2713:2831   */\n      pop\n        /* \"#utility.yul\":2364:2838   */\n      swap3\n      pop\n      swap3\n      swap1\n      pop\n      jump\t// out\n        /* \"#utility.yul\":2844:3066   */\n    tag_28:\n        /* \"#utility.yul\":2937:2941   */\n      0x00\n        /* \"#utility.yul\":2975:2977   */\n      0x20\n        /* \"#utility.yul\":2964:2973   */\n      dup3\n        /* \"#utility.yul\":2960:2978   */\n      add\n        /* \"#utility.yul\":2952:2978   */\n      swap1\n      pop\n        /* \"#utility.yul\":2988:3059   */\n      tag_228\n        /* \"#utility.yul\":3056:3057   */\n      0x00\n        /* \"#utility.yul\":3045:3054   */\n      dup4\n        /* \"#utility.yul\":3041:3058   */\n      add\n        /* \"#utility.yul\":3032:3038   */\n      dup5\n        /* \"#utility.yul\":2988:3059   */\n      tag_161\n      jump\t// in\n    tag_228:\n        /* \"#utility.yul\":2844:3066   */\n      swap3\n      swap2\n      pop\n      pop\n      jump\t// out\n        /* \"#utility.yul\":3072:3294   */\n    tag_37:\n        /* \"#utility.yul\":3165:3169   */\n      0x00\n        /* \"#utility.yul\":3203:3205   */\n      0x20\n        /* \"#utility.yul\":3192:3201   */\n      dup3\n        /* \"#utility.yul\":3188:3206   */\n      add\n        /* \"#utility.yul\":3180:3206   */\n      swap1\n      pop\n        /* \"#utility.yul\":3216:3287   */\n      tag_230\n        /* \"#utility.yul\":3284:3285   */\n      0x00\n        /* \"#utility.yul\":3273:3282   */\n      dup4\n        /* \"#utility.yul\":3269:3286   */\n      add\n        /* \"#utility.yul\":3260:3266   */\n      dup5\n        /* \"#utility.yul\":3216:3287   */\n      tag_160\n      jump\t// in\n    tag_230:\n        /* \"#utility.yul\":3072:3294   */\n      swap3\n      swap2\n      pop\n      pop\n      jump\t// out\n        /* \"#utility.yul\":3300:3422   */\n    tag_164:\n        /* \"#utility.yul\":3373:3397   */\n      tag_232\n        /* \"#utility.yul\":3391:3396   */\n      dup2\n        /* \"#utility.yul\":3373:3397   */\n      tag_159\n      jump\t// in\n    tag_232:\n        /* \"#utility.yul\":3366:3371   */\n      dup2\n        /* \"#utility.yul\":3363:3398   */\n      eq\n        /* \"#utility.yul\":3353:3416   */\n      tag_233\n      jumpi\n        /* \"#utility.yul\":3412:3413   */\n      0x00\n        /* \"#utility.yul\":3409:3410   */\n      dup1\n        /* \"#utility.yul\":3402:3414   */\n      revert\n        /* \"#utility.yul\":3353:3416   */\n    tag_233:\n        /* \"#utility.yul\":3300:3422   */\n      pop\n      jump\t// out\n        /* \"#utility.yul\":3428:3567   */\n    tag_165:\n        /* \"#utility.yul\":3474:3479   */\n      0x00\n        /* \"#utility.yul\":3512:3518   */\n      dup2\n        /* \"#utility.yul\":3499:3519   */\n      calldataload\n        /* \"#utility.yul\":3490:3519   */\n      swap1\n      pop\n        /* \"#utility.yul\":3528:3561   */\n      tag_235\n        /* \"#utility.yul\":3555:3560   */\n      dup2\n        /* \"#utility.yul\":3528:3561   */\n      tag_164\n      jump\t// in\n    tag_235:\n        /* \"#utility.yul\":3428:3567   */\n      swap3\n      swap2\n      pop\n      pop\n      jump\t// out\n        /* \"#utility.yul\":3573:3902   */\n    tag_46:\n        /* \"#utility.yul\":3632:3638   */\n      0x00\n        /* \"#utility.yul\":3681:3683   */\n      0x20\n        /* \"#utility.yul\":3669:3678   */\n      dup3\n        /* \"#utility.yul\":3660:3667   */\n      dup5\n        /* \"#utility.yul\":3656:3679   */\n      sub\n        /* \"#utility.yul\":3652:3684   */\n      slt\n        /* \"#utility.yul\":3649:3768   */\n      iszero\n      tag_237\n      jumpi\n        /* \"#utility.yul\":3687:3766   */\n      tag_238\n      tag_153\n      jump\t// in\n    tag_238:\n        /* \"#utility.yul\":3649:3768   */\n    tag_237:\n        /* \"#utility.yul\":3807:3808   */\n      0x00\n        /* \"#utility.yul\":3832:3885   */\n      tag_239\n        /* \"#utility.yul\":3877:3884   */\n      dup5\n        /* \"#utility.yul\":3868:3874   */\n      dup3\n        /* \"#utility.yul\":3857:3866   */\n      dup6\n        /* \"#utility.yul\":3853:3875   */\n      add\n        /* \"#utility.yul\":3832:3885   */\n      tag_165\n      jump\t// in\n    tag_239:\n        /* \"#utility.yul\":3822:3885   */\n      swap2\n      pop\n        /* \"#utility.yul\":3778:3895   */\n      pop\n        /* \"#utility.yul\":3573:3902   */\n      swap3\n      swap2\n      pop\n      pop\n      jump\t// out\n        /* \"#utility.yul\":3908:4382   */\n    tag_50:\n        /* \"#utility.yul\":3976:3982   */\n      0x00\n        /* \"#utility.yul\":3984:3990   */\n      dup1\n        /* \"#utility.yul\":4033:4035   */\n      0x40\n        /* \"#utility.yul\":4021:4030   */\n      dup4\n        /* \"#utility.yul\":4012:4019   */\n      dup6\n        /* \"#utility.yul\":4008:4031   */\n      sub\n        /* \"#utility.yul\":4004:4036   */\n      slt\n        /* \"#utility.yul\":4001:4120   */\n      iszero\n      tag_241\n      jumpi\n        /* \"#utility.yul\":4039:4118   */\n      tag_242\n      tag_153\n      jump\t// in\n    tag_242:\n        /* \"#utility.yul\":4001:4120   */\n    tag_241:\n        /* \"#utility.yul\":4159:4160   */\n      0x00\n        /* \"#utility.yul\":4184:4237   */\n      tag_243\n        /* \"#utility.yul\":4229:4236   */\n      dup6\n        /* \"#utility.yul\":4220:4226   */\n      dup3\n        /* \"#utility.yul\":4209:4218   */\n      dup7\n        /* \"#utility.yul\":4205:4227   */\n      add\n        /* \"#utility.yul\":4184:4237   */\n      tag_165\n      jump\t// in\n    tag_243:\n        /* \"#utility.yul\":4174:4237   */\n      swap3\n      pop\n        /* \"#utility.yul\":4130:4247   */\n      pop\n        /* \"#utility.yul\":4286:4288   */\n      0x20\n        /* \"#utility.yul\":4312:4365   */\n      tag_244\n        /* \"#utility.yul\":4357:4364   */\n      dup6\n        /* \"#utility.yul\":4348:4354   */\n      dup3\n        /* \"#utility.yul\":4337:4346   */\n      dup7\n        /* \"#utility.yul\":4333:4355   */\n      add\n        /* \"#utility.yul\":4312:4365   */\n      tag_157\n      jump\t// in\n    tag_244:\n        /* \"#utility.yul\":4302:4365   */\n      swap2\n      pop\n        /* \"#utility.yul\":4257:4375   */\n      pop\n        /* \"#utility.yul\":3908:4382   */\n      swap3\n      pop\n      swap3\n      swap1\n      pop\n      jump\t// out\n        /* \"#utility.yul\":4388:4448   */\n    tag_166:\n        /* \"#utility.yul\":4416:4419   */\n      0x00\n        /* \"#utility.yul\":4437:4442   */\n      dup2\n        /* \"#utility.yul\":4430:4442   */\n      swap1\n      pop\n        /* \"#utility.yul\":4388:4448   */\n      swap2\n      swap1\n      pop\n      jump\t// out\n        /* \"#utility.yul\":4454:4596   */\n    tag_167:\n        /* \"#utility.yul\":4504:4513   */\n      0x00\n        /* \"#utility.yul\":4537:4590   */\n      tag_247\n        /* \"#utility.yul\":4555:4589   */\n      tag_248\n        /* \"#utility.yul\":4564:4588   */\n      tag_249\n        /* \"#utility.yul\":4582:4587   */\n      dup5\n        /* \"#utility.yul\":4564:4588   */\n      tag_158\n      jump\t// in\n    tag_249:\n        /* \"#utility.yul\":4555:4589   */\n      tag_166\n      jump\t// in\n    tag_248:\n        /* \"#utility.yul\":4537:4590   */\n      tag_158\n      jump\t// in\n    tag_247:\n        /* \"#utility.yul\":4524:4590   */\n      swap1\n      pop\n        /* \"#utility.yul\":4454:4596   */\n      swap2\n      swap1\n      pop\n      jump\t// out\n        /* \"#utility.yul\":4602:4728   */\n    tag_168:\n        /* \"#utility.yul\":4652:4661   */\n      0x00\n        /* \"#utility.yul\":4685:4722   */\n      tag_251\n        /* \"#utility.yul\":4716:4721   */\n      dup3\n        /* \"#utility.yul\":4685:4722   */\n      tag_167\n      jump\t// in\n    tag_251:\n        /* \"#utility.yul\":4672:4722   */\n      swap1\n      pop\n        /* \"#utility.yul\":4602:4728   */\n      swap2\n      swap1\n      pop\n      jump\t// out\n        /* \"#utility.yul\":4734:4874   */\n    tag_169:\n        /* \"#utility.yul\":4798:4807   */\n      0x00\n        /* \"#utility.yul\":4831:4868   */\n      tag_253\n        /* \"#utility.yul\":4862:4867   */\n      dup3\n        /* \"#utility.yul\":4831:4868   */\n      tag_168\n      jump\t// in\n    tag_253:\n        /* \"#utility.yul\":4818:4868   */\n      swap1\n      pop\n        /* \"#utility.yul\":4734:4874   */\n      swap2\n      swap1\n      pop\n      jump\t// out\n        /* \"#utility.yul\":4880:5039   */\n    tag_170:\n        /* \"#utility.yul\":4981:5032   */\n      tag_255\n        /* \"#utility.yul\":5026:5031   */\n      dup2\n        /* \"#utility.yul\":4981:5032   */\n      tag_169\n      jump\t// in\n    tag_255:\n        /* \"#utility.yul\":4976:4979   */\n      dup3\n        /* \"#utility.yul\":4969:5033   */\n      mstore\n        /* \"#utility.yul\":4880:5039   */\n      pop\n      pop\n      jump\t// out\n        /* \"#utility.yul\":5045:5295   */\n    tag_56:\n        /* \"#utility.yul\":5152:5156   */\n      0x00\n        /* \"#utility.yul\":5190:5192   */\n      0x20\n        /* \"#utility.yul\":5179:5188   */\n      dup3\n        /* \"#utility.yul\":5175:5193   */\n      add\n        /* \"#utility.yul\":5167:5193   */\n      swap1\n      pop\n        /* \"#utility.yul\":5203:5288   */\n      tag_257\n        /* \"#utility.yul\":5285:5286   */\n      0x00\n        /* \"#utility.yul\":5274:5283   */\n      dup4\n        /* \"#utility.yul\":5270:5287   */\n      add\n        /* \"#utility.yul\":5261:5267   */\n      dup5\n        /* \"#utility.yul\":5203:5288   */\n      tag_170\n      jump\t// in\n    tag_257:\n        /* \"#utility.yul\":5045:5295   */\n      swap3\n      swap2\n      pop\n      pop\n      jump\t// out\n        /* \"#utility.yul\":5301:5470   */\n    tag_171:\n        /* \"#utility.yul\":5385:5396   */\n      0x00\n        /* \"#utility.yul\":5419:5425   */\n      dup3\n        /* \"#utility.yul\":5414:5417   */\n      dup3\n        /* \"#utility.yul\":5407:5426   */\n      mstore\n        /* \"#utility.yul\":5459:5463   */\n      0x20\n        /* \"#utility.yul\":5454:5457   */\n      dup3\n        /* \"#utility.yul\":5450:5464   */\n      add\n        /* \"#utility.yul\":5435:5464   */\n      swap1\n      pop\n        /* \"#utility.yul\":5301:5470   */\n      swap3\n      swap2\n      pop\n      pop\n      jump\t// out\n        /* \"#utility.yul\":5476:5658   */\n    tag_172:\n        /* \"#utility.yul\":5616:5650   */\n      0x4e6f2066756e6473206465706f736974656420666f722074686973206465616c\n        /* \"#utility.yul\":5612:5613   */\n      0x00\n        /* \"#utility.yul\":5604:5610   */\n      dup3\n        /* \"#utility.yul\":5600:5614   */\n      add\n        /* \"#utility.yul\":5593:5651   */\n      mstore\n        /* \"#utility.yul\":5476:5658   */\n      pop\n      jump\t// out\n        /* \"#utility.yul\":5664:6030   */\n    tag_173:\n        /* \"#utility.yul\":5806:5809   */\n      0x00\n        /* \"#utility.yul\":5827:5894   */\n      tag_261\n        /* \"#utility.yul\":5891:5893   */\n      0x20\n        /* \"#utility.yul\":5886:5889   */\n      dup4\n        /* \"#utility.yul\":5827:5894   */\n      tag_171\n      jump\t// in\n    tag_261:\n        /* \"#utility.yul\":5820:5894   */\n      swap2\n      pop\n        /* \"#utility.yul\":5903:5996   */\n      tag_262\n        /* \"#utility.yul\":5992:5995   */\n      dup3\n        /* \"#utility.yul\":5903:5996   */\n      tag_172\n      jump\t// in\n    tag_262:\n        /* \"#utility.yul\":6021:6023   */\n      0x20\n        /* \"#utility.yul\":6016:6019   */\n      dup3\n        /* \"#utility.yul\":6012:6024   */\n      add\n        /* \"#utility.yul\":6005:6024   */\n      swap1\n      pop\n        /* \"#utility.yul\":5664:6030   */\n      swap2\n      swap1\n      pop\n      jump\t// out\n        /* \"#utility.yul\":6036:6455   */\n    tag_63:\n        /* \"#utility.yul\":6202:6206   */\n      0x00\n        /* \"#utility.yul\":6240:6242   */\n      0x20\n        /* \"#utility.yul\":6229:6238   */\n      dup3\n        /* \"#utility.yul\":6225:6243   */\n      add\n        /* \"#utility.yul\":6217:6243   */\n      swap1\n      pop\n        /* \"#utility.yul\":6289:6298   */\n      dup2\n        /* \"#utility.yul\":6283:6287   */\n      dup2\n        /* \"#utility.yul\":6279:6299   */\n      sub\n        /* \"#utility.yul\":6275:6276   */\n      0x00\n        /* \"#utility.yul\":6264:6273   */\n      dup4\n        /* \"#utility.yul\":6260:6277   */\n      add\n        /* \"#utility.yul\":6253:6300   */\n      mstore\n        /* \"#utility.yul\":6317:6448   */\n      tag_264\n        /* \"#utility.yul\":6443:6447   */\n      dup2\n        /* \"#utility.yul\":6317:6448   */\n      tag_173\n      jump\t// in\n    tag_264:\n        /* \"#utility.yul\":6309:6448   */\n      swap1\n      pop\n        /* \"#utility.yul\":6036:6455   */\n      swap2\n      swap1\n      pop\n      jump\t// out\n        /* \"#utility.yul\":6461:6636   */\n    tag_174:\n        /* \"#utility.yul\":6601:6628   */\n      0x4465616c20697320616c726561647920636f6d706c6574656400000000000000\n        /* \"#utility.yul\":6597:6598   */\n      0x00\n        /* \"#utility.yul\":6589:6595   */\n      dup3\n        /* \"#utility.yul\":6585:6599   */\n      add\n        /* \"#utility.yul\":6578:6629   */\n      mstore\n        /* \"#utility.yul\":6461:6636   */\n      pop\n      jump\t// out\n        /* \"#utility.yul\":6642:7008   */\n    tag_175:\n        /* \"#utility.yul\":6784:6787   */\n      0x00\n        /* \"#utility.yul\":6805:6872   */\n      tag_267\n        /* \"#utility.yul\":6869:6871   */\n      0x19\n        /* \"#utility.yul\":6864:6867   */\n      dup4\n        /* \"#utility.yul\":6805:6872   */\n      tag_171\n      jump\t// in\n    tag_267:\n        /* \"#utility.yul\":6798:6872   */\n      swap2\n      pop\n        /* \"#utility.yul\":6881:6974   */\n      tag_268\n        /* \"#utility.yul\":6970:6973   */\n      dup3\n        /* \"#utility.yul\":6881:6974   */\n      tag_174\n      jump\t// in\n    tag_268:\n        /* \"#utility.yul\":6999:7001   */\n      0x20\n        /* \"#utility.yul\":6994:6997   */\n      dup3\n        /* \"#utility.yul\":6990:7002   */\n      add\n        /* \"#utility.yul\":6983:7002   */\n      swap1\n      pop\n        /* \"#utility.yul\":6642:7008   */\n      swap2\n      swap1\n      pop\n      jump\t// out\n        /* \"#utility.yul\":7014:7433   */\n    tag_66:\n        /* \"#utility.yul\":7180:7184   */\n      0x00\n        /* \"#utility.yul\":7218:7220   */\n      0x20\n        /* \"#utility.yul\":7207:7216   */\n      dup3\n        /* \"#utility.yul\":7203:7221   */\n      add\n        /* \"#utility.yul\":7195:7221   */\n      swap1\n      pop\n        /* \"#utility.yul\":7267:7276   */\n      dup2\n        /* \"#utility.yul\":7261:7265   */\n      dup2\n        /* \"#utility.yul\":7257:7277   */\n      sub\n        /* \"#utility.yul\":7253:7254   */\n      0x00\n        /* \"#utility.yul\":7242:7251   */\n      dup4\n        /* \"#utility.yul\":7238:7255   */\n      add\n        /* \"#utility.yul\":7231:7278   */\n      mstore\n        /* \"#utility.yul\":7295:7426   */\n      tag_270\n        /* \"#utility.yul\":7421:7425   */\n      dup2\n        /* \"#utility.yul\":7295:7426   */\n      tag_175\n      jump\t// in\n    tag_270:\n        /* \"#utility.yul\":7287:7426   */\n      swap1\n      pop\n        /* \"#utility.yul\":7014:7433   */\n      swap2\n      swap1\n      pop\n      jump\t// out\n        /* \"#utility.yul\":7439:7619   */\n    tag_176:\n        /* \"#utility.yul\":7487:7564   */\n      0x4e487b7100000000000000000000000000000000000000000000000000000000\n        /* \"#utility.yul\":7484:7485   */\n      0x00\n        /* \"#utility.yul\":7477:7565   */\n      mstore\n        /* \"#utility.yul\":7584:7588   */\n      0x11\n        /* \"#utility.yul\":7581:7582   */\n      0x04\n        /* \"#utility.yul\":7574:7589   */\n      mstore\n        /* \"#utility.yul\":7608:7612   */\n      0x24\n        /* \"#utility.yul\":7605:7606   */\n      0x00\n        /* \"#utility.yul\":7598:7613   */\n      revert\n        /* \"#utility.yul\":7625:8035   */\n    tag_68:\n        /* \"#utility.yul\":7665:7672   */\n      0x00\n        /* \"#utility.yul\":7688:7708   */\n      tag_273\n        /* \"#utility.yul\":7706:7707   */\n      dup3\n        /* \"#utility.yul\":7688:7708   */\n      tag_155\n      jump\t// in\n    tag_273:\n        /* \"#utility.yul\":7683:7708   */\n      swap2\n      pop\n        /* \"#utility.yul\":7722:7742   */\n      tag_274\n        /* \"#utility.yul\":7740:7741   */\n      dup4\n        /* \"#utility.yul\":7722:7742   */\n      tag_155\n      jump\t// in\n    tag_274:\n        /* \"#utility.yul\":7717:7742   */\n      swap3\n      pop\n        /* \"#utility.yul\":7777:7778   */\n      dup3\n        /* \"#utility.yul\":7774:7775   */\n      dup3\n        /* \"#utility.yul\":7770:7779   */\n      mul\n        /* \"#utility.yul\":7799:7829   */\n      tag_275\n        /* \"#utility.yul\":7817:7828   */\n      dup2\n        /* \"#utility.yul\":7799:7829   */\n      tag_155\n      jump\t// in\n    tag_275:\n        /* \"#utility.yul\":7788:7829   */\n      swap2\n      pop\n        /* \"#utility.yul\":7978:7979   */\n      dup3\n        /* \"#utility.yul\":7969:7976   */\n      dup3\n        /* \"#utility.yul\":7965:7980   */\n      div\n        /* \"#utility.yul\":7962:7963   */\n      dup5\n        /* \"#utility.yul\":7959:7981   */\n      eq\n        /* \"#utility.yul\":7939:7940   */\n      dup4\n        /* \"#utility.yul\":7932:7941   */\n      iszero\n        /* \"#utility.yul\":7912:7995   */\n      or\n        /* \"#utility.yul\":7889:8028   */\n      tag_276\n      jumpi\n        /* \"#utility.yul\":8008:8026   */\n      tag_277\n      tag_176\n      jump\t// in\n    tag_277:\n        /* \"#utility.yul\":7889:8028   */\n    tag_276:\n        /* \"#utility.yul\":7673:8035   */\n      pop\n        /* \"#utility.yul\":7625:8035   */\n      swap3\n      swap2\n      pop\n      pop\n      jump\t// out\n        /* \"#utility.yul\":8041:8221   */\n    tag_177:\n        /* \"#utility.yul\":8089:8166   */\n      0x4e487b7100000000000000000000000000000000000000000000000000000000\n        /* \"#utility.yul\":8086:8087   */\n      0x00\n        /* \"#utility.yul\":8079:8167   */\n      mstore\n        /* \"#utility.yul\":8186:8190   */\n      0x12\n        /* \"#utility.yul\":8183:8184   */\n      0x04\n        /* \"#utility.yul\":8176:8191   */\n      mstore\n        /* \"#utility.yul\":8210:8214   */\n      0x24\n        /* \"#utility.yul\":8207:8208   */\n      0x00\n        /* \"#utility.yul\":8200:8215   */\n      revert\n        /* \"#utility.yul\":8227:8412   */\n    tag_70:\n        /* \"#utility.yul\":8267:8268   */\n      0x00\n        /* \"#utility.yul\":8284:8304   */\n      tag_280\n        /* \"#utility.yul\":8302:8303   */\n      dup3\n        /* \"#utility.yul\":8284:8304   */\n      tag_155\n      jump\t// in\n    tag_280:\n        /* \"#utility.yul\":8279:8304   */\n      swap2\n      pop\n        /* \"#utility.yul\":8318:8338   */\n      tag_281\n        /* \"#utility.yul\":8336:8337   */\n      dup4\n        /* \"#utility.yul\":8318:8338   */\n      tag_155\n      jump\t// in\n    tag_281:\n        /* \"#utility.yul\":8313:8338   */\n      swap3\n      pop\n        /* \"#utility.yul\":8357:8358   */\n      dup3\n        /* \"#utility.yul\":8347:8382   */\n      tag_282\n      jumpi\n        /* \"#utility.yul\":8362:8380   */\n      tag_283\n      tag_177\n      jump\t// in\n    tag_283:\n        /* \"#utility.yul\":8347:8382   */\n    tag_282:\n        /* \"#utility.yul\":8404:8405   */\n      dup3\n        /* \"#utility.yul\":8401:8402   */\n      dup3\n        /* \"#utility.yul\":8397:8406   */\n      div\n        /* \"#utility.yul\":8392:8406   */\n      swap1\n      pop\n        /* \"#utility.yul\":8227:8412   */\n      swap3\n      swap2\n      pop\n      pop\n      jump\t// out\n        /* \"#utility.yul\":8418:8612   */\n    tag_72:\n        /* \"#utility.yul\":8458:8462   */\n      0x00\n        /* \"#utility.yul\":8478:8498   */\n      tag_285\n        /* \"#utility.yul\":8496:8497   */\n      dup3\n        /* \"#utility.yul\":8478:8498   */\n      tag_155\n      jump\t// in\n    tag_285:\n        /* \"#utility.yul\":8473:8498   */\n      swap2\n      pop\n        /* \"#utility.yul\":8512:8532   */\n      tag_286\n        /* \"#utility.yul\":8530:8531   */\n      dup4\n        /* \"#utility.yul\":8512:8532   */\n      tag_155\n      jump\t// in\n    tag_286:\n        /* \"#utility.yul\":8507:8532   */\n      swap3\n      pop\n        /* \"#utility.yul\":8556:8557   */\n      dup3\n        /* \"#utility.yul\":8553:8554   */\n      dup3\n        /* \"#utility.yul\":8549:8558   */\n      sub\n        /* \"#utility.yul\":8541:8558   */\n      swap1\n      pop\n        /* \"#utility.yul\":8580:8581   */\n      dup2\n        /* \"#utility.yul\":8574:8578   */\n      dup2\n        /* \"#utility.yul\":8571:8582   */\n      gt\n        /* \"#utility.yul\":8568:8605   */\n      iszero\n      tag_287\n      jumpi\n        /* \"#utility.yul\":8585:8603   */\n      tag_288\n      tag_176\n      jump\t// in\n    tag_288:\n        /* \"#utility.yul\":8568:8605   */\n    tag_287:\n        /* \"#utility.yul\":8418:8612   */\n      swap3\n      swap2\n      pop\n      pop\n      jump\t// out\n        /* \"#utility.yul\":8618:8950   */\n    tag_74:\n        /* \"#utility.yul\":8739:8743   */\n      0x00\n        /* \"#utility.yul\":8777:8779   */\n      0x40\n        /* \"#utility.yul\":8766:8775   */\n      dup3\n        /* \"#utility.yul\":8762:8780   */\n      add\n        /* \"#utility.yul\":8754:8780   */\n      swap1\n      pop\n        /* \"#utility.yul\":8790:8861   */\n      tag_290\n        /* \"#utility.yul\":8858:8859   */\n      0x00\n        /* \"#utility.yul\":8847:8856   */\n      dup4\n        /* \"#utility.yul\":8843:8860   */\n      add\n        /* \"#utility.yul\":8834:8840   */\n      dup6\n        /* \"#utility.yul\":8790:8861   */\n      tag_160\n      jump\t// in\n    tag_290:\n        /* \"#utility.yul\":8871:8943   */\n      tag_291\n        /* \"#utility.yul\":8939:8941   */\n      0x20\n        /* \"#utility.yul\":8928:8937   */\n      dup4\n        /* \"#utility.yul\":8924:8942   */\n      add\n        /* \"#utility.yul\":8915:8921   */\n      dup5\n        /* \"#utility.yul\":8871:8943   */\n      tag_161\n      jump\t// in\n    tag_291:\n        /* \"#utility.yul\":8618:8950   */\n      swap4\n      swap3\n      pop\n      pop\n      pop\n      jump\t// out\n        /* \"#utility.yul\":8956:9072   */\n    tag_178:\n        /* \"#utility.yul\":9026:9047   */\n      tag_293\n        /* \"#utility.yul\":9041:9046   */\n      dup2\n        /* \"#utility.yul\":9026:9047   */\n      tag_162\n      jump\t// in\n    tag_293:\n        /* \"#utility.yul\":9019:9024   */\n      dup2\n        /* \"#utility.yul\":9016:9048   */\n      eq\n        /* \"#utility.yul\":9006:9066   */\n      tag_294\n      jumpi\n        /* \"#utility.yul\":9062:9063   */\n      0x00\n        /* \"#utility.yul\":9059:9060   */\n      dup1\n        /* \"#utility.yul\":9052:9064   */\n      revert\n        /* \"#utility.yul\":9006:9066   */\n    tag_294:\n        /* \"#utility.yul\":8956:9072   */\n      pop\n      jump\t// out\n        /* \"#utility.yul\":9078:9215   */\n    tag_179:\n        /* \"#utility.yul\":9132:9137   */\n      0x00\n        /* \"#utility.yul\":9163:9169   */\n      dup2\n        /* \"#utility.yul\":9157:9170   */\n      mload\n        /* \"#utility.yul\":9148:9170   */\n      swap1\n      pop\n        /* \"#utility.yul\":9179:9209   */\n      tag_296\n        /* \"#utility.yul\":9203:9208   */\n      dup2\n        /* \"#utility.yul\":9179:9209   */\n      tag_178\n      jump\t// in\n    tag_296:\n        /* \"#utility.yul\":9078:9215   */\n      swap3\n      swap2\n      pop\n      pop\n      jump\t// out\n        /* \"#utility.yul\":9221:9566   */\n    tag_78:\n        /* \"#utility.yul\":9288:9294   */\n      0x00\n        /* \"#utility.yul\":9337:9339   */\n      0x20\n        /* \"#utility.yul\":9325:9334   */\n      dup3\n        /* \"#utility.yul\":9316:9323   */\n      dup5\n        /* \"#utility.yul\":9312:9335   */\n      sub\n        /* \"#utility.yul\":9308:9340   */\n      slt\n        /* \"#utility.yul\":9305:9424   */\n      iszero\n      tag_298\n      jumpi\n        /* \"#utility.yul\":9343:9422   */\n      tag_299\n      tag_153\n      jump\t// in\n    tag_299:\n        /* \"#utility.yul\":9305:9424   */\n    tag_298:\n        /* \"#utility.yul\":9463:9464   */\n      0x00\n        /* \"#utility.yul\":9488:9549   */\n      tag_300\n        /* \"#utility.yul\":9541:9548   */\n      dup5\n        /* \"#utility.yul\":9532:9538   */\n      dup3\n        /* \"#utility.yul\":9521:9530   */\n      dup6\n        /* \"#utility.yul\":9517:9539   */\n      add\n        /* \"#utility.yul\":9488:9549   */\n      tag_179\n      jump\t// in\n    tag_300:\n        /* \"#utility.yul\":9478:9549   */\n      swap2\n      pop\n        /* \"#utility.yul\":9434:9559   */\n      pop\n        /* \"#utility.yul\":9221:9566   */\n      swap3\n      swap2\n      pop\n      pop\n      jump\t// out\n        /* \"#utility.yul\":9572:9752   */\n    tag_180:\n        /* \"#utility.yul\":9712:9744   */\n      0x5472616e7366657220746f20696d706c656d656e746572206661696c65640000\n        /* \"#utility.yul\":9708:9709   */\n      0x00\n        /* \"#utility.yul\":9700:9706   */\n      dup3\n        /* \"#utility.yul\":9696:9710   */\n      add\n        /* \"#utility.yul\":9689:9745   */\n      mstore\n        /* \"#utility.yul\":9572:9752   */\n      pop\n      jump\t// out\n        /* \"#utility.yul\":9758:10124   */\n    tag_181:\n        /* \"#utility.yul\":9900:9903   */\n      0x00\n        /* \"#utility.yul\":9921:9988   */\n      tag_303\n        /* \"#utility.yul\":9985:9987   */\n      0x1e\n        /* \"#utility.yul\":9980:9983   */\n      dup4\n        /* \"#utility.yul\":9921:9988   */\n      tag_171\n      jump\t// in\n    tag_303:\n        /* \"#utility.yul\":9914:9988   */\n      swap2\n      pop\n        /* \"#utility.yul\":9997:10090   */\n      tag_304\n        /* \"#utility.yul\":10086:10089   */\n      dup3\n        /* \"#utility.yul\":9997:10090   */\n      tag_180\n      jump\t// in\n    tag_304:\n        /* \"#utility.yul\":10115:10117   */\n      0x20\n        /* \"#utility.yul\":10110:10113   */\n      dup3\n        /* \"#utility.yul\":10106:10118   */\n      add\n        /* \"#utility.yul\":10099:10118   */\n      swap1\n      pop\n        /* \"#utility.yul\":9758:10124   */\n      swap2\n      swap1\n      pop\n      jump\t// out\n        /* \"#utility.yul\":10130:10549   */\n    tag_81:\n        /* \"#utility.yul\":10296:10300   */\n      0x00\n        /* \"#utility.yul\":10334:10336   */\n      0x20\n        /* \"#utility.yul\":10323:10332   */\n      dup3\n        /* \"#utility.yul\":10319:10337   */\n      add\n        /* \"#utility.yul\":10311:10337   */\n      swap1\n      pop\n        /* \"#utility.yul\":10383:10392   */\n      dup2\n        /* \"#utility.yul\":10377:10381   */\n      dup2\n        /* \"#utility.yul\":10373:10393   */\n      sub\n        /* \"#utility.yul\":10369:10370   */\n      0x00\n        /* \"#utility.yul\":10358:10367   */\n      dup4\n        /* \"#utility.yul\":10354:10371   */\n      add\n        /* \"#utility.yul\":10347:10394   */\n      mstore\n        /* \"#utility.yul\":10411:10542   */\n      tag_306\n        /* \"#utility.yul\":10537:10541   */\n      dup2\n        /* \"#utility.yul\":10411:10542   */\n      tag_181\n      jump\t// in\n    tag_306:\n        /* \"#utility.yul\":10403:10542   */\n      swap1\n      pop\n        /* \"#utility.yul\":10130:10549   */\n      swap2\n      swap1\n      pop\n      jump\t// out\n        /* \"#utility.yul\":10555:10728   */\n    tag_182:\n        /* \"#utility.yul\":10695:10720   */\n      0x526566756e6420746f20636c69656e74206661696c6564000000000000000000\n        /* \"#utility.yul\":10691:10692   */\n      0x00\n        /* \"#utility.yul\":10683:10689   */\n      dup3\n        /* \"#utility.yul\":10679:10693   */\n      add\n        /* \"#utility.yul\":10672:10721   */\n      mstore\n        /* \"#utility.yul\":10555:10728   */\n      pop\n      jump\t// out\n        /* \"#utility.yul\":10734:11100   */\n    tag_183:\n        /* \"#utility.yul\":10876:10879   */\n      0x00\n        /* \"#utility.yul\":10897:10964   */\n      tag_309\n        /* \"#utility.yul\":10961:10963   */\n      0x17\n        /* \"#utility.yul\":10956:10959   */\n      dup4\n        /* \"#utility.yul\":10897:10964   */\n      tag_171\n      jump\t// in\n    tag_309:\n        /* \"#utility.yul\":10890:10964   */\n      swap2\n      pop\n        /* \"#utility.yul\":10973:11066   */\n      tag_310\n        /* \"#utility.yul\":11062:11065   */\n      dup3\n        /* \"#utility.yul\":10973:11066   */\n      tag_182\n      jump\t// in\n    tag_310:\n        /* \"#utility.yul\":11091:11093   */\n      0x20\n        /* \"#utility.yul\":11086:11089   */\n      dup3\n        /* \"#utility.yul\":11082:11094   */\n      add\n        /* \"#utility.yul\":11075:11094   */\n      swap1\n      pop\n        /* \"#utility.yul\":10734:11100   */\n      swap2\n      swap1\n      pop\n      jump\t// out\n        /* \"#utility.yul\":11106:11525   */\n    tag_89:\n        /* \"#utility.yul\":11272:11276   */\n      0x00\n        /* \"#utility.yul\":11310:11312   */\n      0x20\n        /* \"#utility.yul\":11299:11308   */\n      dup3\n        /* \"#utility.yul\":11295:11313   */\n      add\n        /* \"#utility.yul\":11287:11313   */\n      swap1\n      pop\n        /* \"#utility.yul\":11359:11368   */\n      dup2\n        /* \"#utility.yul\":11353:11357   */\n      dup2\n        /* \"#utility.yul\":11349:11369   */\n      sub\n        /* \"#utility.yul\":11345:11346   */\n      0x00\n        /* \"#utility.yul\":11334:11343   */\n      dup4\n        /* \"#utility.yul\":11330:11347   */\n      add\n        /* \"#utility.yul\":11323:11370   */\n      mstore\n        /* \"#utility.yul\":11387:11518   */\n      tag_312\n        /* \"#utility.yul\":11513:11517   */\n      dup2\n        /* \"#utility.yul\":11387:11518   */\n      tag_183\n      jump\t// in\n    tag_312:\n        /* \"#utility.yul\":11379:11518   */\n      swap1\n      pop\n        /* \"#utility.yul\":11106:11525   */\n      swap2\n      swap1\n      pop\n      jump\t// out\n        /* \"#utility.yul\":11531:11694   */\n    tag_184:\n        /* \"#utility.yul\":11671:11686   */\n      0x526566756e64206661696c656400000000000000000000000000000000000000\n        /* \"#utility.yul\":11667:11668   */\n      0x00\n        /* \"#utility.yul\":11659:11665   */\n      dup3\n        /* \"#utility.yul\":11655:11669   */\n      add\n        /* \"#utility.yul\":11648:11687   */\n      mstore\n        /* \"#utility.yul\":11531:11694   */\n      pop\n      jump\t// out\n        /* \"#utility.yul\":11700:12066   */\n    tag_185:\n        /* \"#utility.yul\":11842:11845   */\n      0x00\n        /* \"#utility.yul\":11863:11930   */\n      tag_315\n        /* \"#utility.yul\":11927:11929   */\n      0x0d\n        /* \"#utility.yul\":11922:11925   */\n      dup4\n        /* \"#utility.yul\":11863:11930   */\n      tag_171\n      jump\t// in\n    tag_315:\n        /* \"#utility.yul\":11856:11930   */\n      swap2\n      pop\n        /* \"#utility.yul\":11939:12032   */\n      tag_316\n        /* \"#utility.yul\":12028:12031   */\n      dup3\n        /* \"#utility.yul\":11939:12032   */\n      tag_184\n      jump\t// in\n    tag_316:\n        /* \"#utility.yul\":12057:12059   */\n      0x20\n        /* \"#utility.yul\":12052:12055   */\n      dup3\n        /* \"#utility.yul\":12048:12060   */\n      add\n        /* \"#utility.yul\":12041:12060   */\n      swap1\n      pop\n        /* \"#utility.yul\":11700:12066   */\n      swap2\n      swap1\n      pop\n      jump\t// out\n        /* \"#utility.yul\":12072:12491   */\n    tag_103:\n        /* \"#utility.yul\":12238:12242   */\n      0x00\n        /* \"#utility.yul\":12276:12278   */\n      0x20\n        /* \"#utility.yul\":12265:12274   */\n      dup3\n        /* \"#utility.yul\":12261:12279   */\n      add\n        /* \"#utility.yul\":12253:12279   */\n      swap1\n      pop\n        /* \"#utility.yul\":12325:12334   */\n      dup2\n        /* \"#utility.yul\":12319:12323   */\n      dup2\n        /* \"#utility.yul\":12315:12335   */\n      sub\n        /* \"#utility.yul\":12311:12312   */\n      0x00\n        /* \"#utility.yul\":12300:12309   */\n      dup4\n        /* \"#utility.yul\":12296:12313   */\n      add\n        /* \"#utility.yul\":12289:12336   */\n      mstore\n        /* \"#utility.yul\":12353:12484   */\n      tag_318\n        /* \"#utility.yul\":12479:12483   */\n      dup2\n        /* \"#utility.yul\":12353:12484   */\n      tag_185\n      jump\t// in\n    tag_318:\n        /* \"#utility.yul\":12345:12484   */\n      swap1\n      pop\n        /* \"#utility.yul\":12072:12491   */\n      swap2\n      swap1\n      pop\n      jump\t// out\n        /* \"#utility.yul\":12497:12732   */\n    tag_186:\n        /* \"#utility.yul\":12637:12671   */\n      0x4f6e6c792074686520636c69656e742063616e206465706f73697420746f6b65\n        /* \"#utility.yul\":12633:12634   */\n      0x00\n        /* \"#utility.yul\":12625:12631   */\n      dup3\n        /* \"#utility.yul\":12621:12635   */\n      add\n        /* \"#utility.yul\":12614:12672   */\n      mstore\n        /* \"#utility.yul\":12706:12724   */\n      0x6e7320666f7220746865206465616c2e00000000000000000000000000000000\n        /* \"#utility.yul\":12701:12703   */\n      0x20\n        /* \"#utility.yul\":12693:12699   */\n      dup3\n        /* \"#utility.yul\":12689:12704   */\n      add\n        /* \"#utility.yul\":12682:12725   */\n      mstore\n        /* \"#utility.yul\":12497:12732   */\n      pop\n      jump\t// out\n        /* \"#utility.yul\":12738:13104   */\n    tag_187:\n        /* \"#utility.yul\":12880:12883   */\n      0x00\n        /* \"#utility.yul\":12901:12968   */\n      tag_321\n        /* \"#utility.yul\":12965:12967   */\n      0x30\n        /* \"#utility.yul\":12960:12963   */\n      dup4\n        /* \"#utility.yul\":12901:12968   */\n      tag_171\n      jump\t// in\n    tag_321:\n        /* \"#utility.yul\":12894:12968   */\n      swap2\n      pop\n        /* \"#utility.yul\":12977:13070   */\n      tag_322\n        /* \"#utility.yul\":13066:13069   */\n      dup3\n        /* \"#utility.yul\":12977:13070   */\n      tag_186\n      jump\t// in\n    tag_322:\n        /* \"#utility.yul\":13095:13097   */\n      0x40\n        /* \"#utility.yul\":13090:13093   */\n      dup3\n        /* \"#utility.yul\":13086:13098   */\n      add\n        /* \"#utility.yul\":13079:13098   */\n      swap1\n      pop\n        /* \"#utility.yul\":12738:13104   */\n      swap2\n      swap1\n      pop\n      jump\t// out\n        /* \"#utility.yul\":13110:13529   */\n    tag_113:\n        /* \"#utility.yul\":13276:13280   */\n      0x00\n        /* \"#utility.yul\":13314:13316   */\n      0x20\n        /* \"#utility.yul\":13303:13312   */\n      dup3\n        /* \"#utility.yul\":13299:13317   */\n      add\n        /* \"#utility.yul\":13291:13317   */\n      swap1\n      pop\n        /* \"#utility.yul\":13363:13372   */\n      dup2\n        /* \"#utility.yul\":13357:13361   */\n      dup2\n        /* \"#utility.yul\":13353:13373   */\n      sub\n        /* \"#utility.yul\":13349:13350   */\n      0x00\n        /* \"#utility.yul\":13338:13347   */\n      dup4\n        /* \"#utility.yul\":13334:13351   */\n      add\n        /* \"#utility.yul\":13327:13374   */\n      mstore\n        /* \"#utility.yul\":13391:13522   */\n      tag_324\n        /* \"#utility.yul\":13517:13521   */\n      dup2\n        /* \"#utility.yul\":13391:13522   */\n      tag_187\n      jump\t// in\n    tag_324:\n        /* \"#utility.yul\":13383:13522   */\n      swap1\n      pop\n        /* \"#utility.yul\":13110:13529   */\n      swap2\n      swap1\n      pop\n      jump\t// out\n        /* \"#utility.yul\":13535:13977   */\n    tag_115:\n        /* \"#utility.yul\":13684:13688   */\n      0x00\n        /* \"#utility.yul\":13722:13724   */\n      0x60\n        /* \"#utility.yul\":13711:13720   */\n      dup3\n        /* \"#utility.yul\":13707:13725   */\n      add\n        /* \"#utility.yul\":13699:13725   */\n      swap1\n      pop\n        /* \"#utility.yul\":13735:13806   */\n      tag_326\n        /* \"#utility.yul\":13803:13804   */\n      0x00\n        /* \"#utility.yul\":13792:13801   */\n      dup4\n        /* \"#utility.yul\":13788:13805   */\n      add\n        /* \"#utility.yul\":13779:13785   */\n      dup7\n        /* \"#utility.yul\":13735:13806   */\n      tag_160\n      jump\t// in\n    tag_326:\n        /* \"#utility.yul\":13816:13888   */\n      tag_327\n        /* \"#utility.yul\":13884:13886   */\n      0x20\n        /* \"#utility.yul\":13873:13882   */\n      dup4\n        /* \"#utility.yul\":13869:13887   */\n      add\n        /* \"#utility.yul\":13860:13866   */\n      dup6\n        /* \"#utility.yul\":13816:13888   */\n      tag_160\n      jump\t// in\n    tag_327:\n        /* \"#utility.yul\":13898:13970   */\n      tag_328\n        /* \"#utility.yul\":13966:13968   */\n      0x40\n        /* \"#utility.yul\":13955:13964   */\n      dup4\n        /* \"#utility.yul\":13951:13969   */\n      add\n        /* \"#utility.yul\":13942:13948   */\n      dup5\n        /* \"#utility.yul\":13898:13970   */\n      tag_161\n      jump\t// in\n    tag_328:\n        /* \"#utility.yul\":13535:13977   */\n      swap5\n      swap4\n      pop\n      pop\n      pop\n      pop\n      jump\t// out\n        /* \"#utility.yul\":13983:14154   */\n    tag_188:\n        /* \"#utility.yul\":14123:14146   */\n      0x546f6b656e207472616e73666572206661696c65640000000000000000000000\n        /* \"#utility.yul\":14119:14120   */\n      0x00\n        /* \"#utility.yul\":14111:14117   */\n      dup3\n        /* \"#utility.yul\":14107:14121   */\n      add\n        /* \"#utility.yul\":14100:14147   */\n      mstore\n        /* \"#utility.yul\":13983:14154   */\n      pop\n      jump\t// out\n        /* \"#utility.yul\":14160:14526   */\n    tag_189:\n        /* \"#utility.yul\":14302:14305   */\n      0x00\n        /* \"#utility.yul\":14323:14390   */\n      tag_331\n        /* \"#utility.yul\":14387:14389   */\n      0x15\n        /* \"#utility.yul\":14382:14385   */\n      dup4\n        /* \"#utility.yul\":14323:14390   */\n      tag_171\n      jump\t// in\n    tag_331:\n        /* \"#utility.yul\":14316:14390   */\n      swap2\n      pop\n        /* \"#utility.yul\":14399:14492   */\n      tag_332\n        /* \"#utility.yul\":14488:14491   */\n      dup3\n        /* \"#utility.yul\":14399:14492   */\n      tag_188\n      jump\t// in\n    tag_332:\n        /* \"#utility.yul\":14517:14519   */\n      0x20\n        /* \"#utility.yul\":14512:14515   */\n      dup3\n        /* \"#utility.yul\":14508:14520   */\n      add\n        /* \"#utility.yul\":14501:14520   */\n      swap1\n      pop\n        /* \"#utility.yul\":14160:14526   */\n      swap2\n      swap1\n      pop\n      jump\t// out\n        /* \"#utility.yul\":14532:14951   */\n    tag_121:\n        /* \"#utility.yul\":14698:14702   */\n      0x00\n        /* \"#utility.yul\":14736:14738   */\n      0x20\n        /* \"#utility.yul\":14725:14734   */\n      dup3\n        /* \"#utility.yul\":14721:14739   */\n      add\n        /* \"#utility.yul\":14713:14739   */\n      swap1\n      pop\n        /* \"#utility.yul\":14785:14794   */\n      dup2\n        /* \"#utility.yul\":14779:14783   */\n      dup2\n        /* \"#utility.yul\":14775:14795   */\n      sub\n        /* \"#utility.yul\":14771:14772   */\n      0x00\n        /* \"#utility.yul\":14760:14769   */\n      dup4\n        /* \"#utility.yul\":14756:14773   */\n      add\n        /* \"#utility.yul\":14749:14796   */\n      mstore\n        /* \"#utility.yul\":14813:14944   */\n      tag_334\n        /* \"#utility.yul\":14939:14943   */\n      dup2\n        /* \"#utility.yul\":14813:14944   */\n      tag_189\n      jump\t// in\n    tag_334:\n        /* \"#utility.yul\":14805:14944   */\n      swap1\n      pop\n        /* \"#utility.yul\":14532:14951   */\n      swap2\n      swap1\n      pop\n      jump\t// out\n        /* \"#utility.yul\":14957:15133   */\n    tag_190:\n        /* \"#utility.yul\":15097:15125   */\n      0x4465616c20697320616c726561647920636f6d706c657465642e000000000000\n        /* \"#utility.yul\":15093:15094   */\n      0x00\n        /* \"#utility.yul\":15085:15091   */\n      dup3\n        /* \"#utility.yul\":15081:15095   */\n      add\n        /* \"#utility.yul\":15074:15126   */\n      mstore\n        /* \"#utility.yul\":14957:15133   */\n      pop\n      jump\t// out\n        /* \"#utility.yul\":15139:15505   */\n    tag_191:\n        /* \"#utility.yul\":15281:15284   */\n      0x00\n        /* \"#utility.yul\":15302:15369   */\n      tag_337\n        /* \"#utility.yul\":15366:15368   */\n      0x1a\n        /* \"#utility.yul\":15361:15364   */\n      dup4\n        /* \"#utility.yul\":15302:15369   */\n      tag_171\n      jump\t// in\n    tag_337:\n        /* \"#utility.yul\":15295:15369   */\n      swap2\n      pop\n        /* \"#utility.yul\":15378:15471   */\n      tag_338\n        /* \"#utility.yul\":15467:15470   */\n      dup3\n        /* \"#utility.yul\":15378:15471   */\n      tag_190\n      jump\t// in\n    tag_338:\n        /* \"#utility.yul\":15496:15498   */\n      0x20\n        /* \"#utility.yul\":15491:15494   */\n      dup3\n        /* \"#utility.yul\":15487:15499   */\n      add\n        /* \"#utility.yul\":15480:15499   */\n      swap1\n      pop\n        /* \"#utility.yul\":15139:15505   */\n      swap2\n      swap1\n      pop\n      jump\t// out\n        /* \"#utility.yul\":15511:15930   */\n    tag_127:\n        /* \"#utility.yul\":15677:15681   */\n      0x00\n        /* \"#utility.yul\":15715:15717   */\n      0x20\n        /* \"#utility.yul\":15704:15713   */\n      dup3\n        /* \"#utility.yul\":15700:15718   */\n      add\n        /* \"#utility.yul\":15692:15718   */\n      swap1\n      pop\n        /* \"#utility.yul\":15764:15773   */\n      dup2\n        /* \"#utility.yul\":15758:15762   */\n      dup2\n        /* \"#utility.yul\":15754:15774   */\n      sub\n        /* \"#utility.yul\":15750:15751   */\n      0x00\n        /* \"#utility.yul\":15739:15748   */\n      dup4\n        /* \"#utility.yul\":15735:15752   */\n      add\n        /* \"#utility.yul\":15728:15775   */\n      mstore\n        /* \"#utility.yul\":15792:15923   */\n      tag_340\n        /* \"#utility.yul\":15918:15922   */\n      dup2\n        /* \"#utility.yul\":15792:15923   */\n      tag_191\n      jump\t// in\n    tag_340:\n        /* \"#utility.yul\":15784:15923   */\n      swap1\n      pop\n        /* \"#utility.yul\":15511:15930   */\n      swap2\n      swap1\n      pop\n      jump\t// out\n        /* \"#utility.yul\":15936:16169   */\n    tag_142:\n        /* \"#utility.yul\":15975:15978   */\n      0x00\n        /* \"#utility.yul\":15998:16022   */\n      tag_342\n        /* \"#utility.yul\":16016:16021   */\n      dup3\n        /* \"#utility.yul\":15998:16022   */\n      tag_155\n      jump\t// in\n    tag_342:\n        /* \"#utility.yul\":15989:16022   */\n      swap2\n      pop\n        /* \"#utility.yul\":16044:16110   */\n      0xffffffffffffffffffffffffffffffffffffffffffffffffffffffffffffffff\n        /* \"#utility.yul\":16037:16042   */\n      dup3\n        /* \"#utility.yul\":16034:16111   */\n      sub\n        /* \"#utility.yul\":16031:16134   */\n      tag_343\n      jumpi\n        /* \"#utility.yul\":16114:16132   */\n      tag_344\n      tag_176\n      jump\t// in\n    tag_344:\n        /* \"#utility.yul\":16031:16134   */\n    tag_343:\n        /* \"#utility.yul\":16161:16162   */\n      0x01\n        /* \"#utility.yul\":16154:16159   */\n      dup3\n        /* \"#utility.yul\":16150:16163   */\n      add\n        /* \"#utility.yul\":16143:16163   */\n      swap1\n      pop\n        /* \"#utility.yul\":15936:16169   */\n      swap2\n      swap1\n      pop\n      jump\t// out\n\n    auxdata: 0xa264697066735822122057a67cf5e83c0fef861929ec2154b943b63aa1dd03dbd2dacb4cc1f9fb16125664736f6c63430008190033\n}\n",
				"bytecode": {
					"linkReferences": {},
					"object": "608060405234801561000f575f80fd5b506040516119313803806119318339818101604052810190610031919061022f565b335f73ffffffffffffffffffffffffffffffffffffffff168173ffffffffffffffffffffffffffffffffffffffff16036100a2575f6040517f1e4fbdf70000000000000000000000000000000000000000000000000000000081526004016100999190610269565b60405180910390fd5b6100b1816100ff60201b60201c565b508060035f6101000a81548173ffffffffffffffffffffffffffffffffffffffff021916908373ffffffffffffffffffffffffffffffffffffffff1602179055506001808190555050610282565b5f805f9054906101000a900473ffffffffffffffffffffffffffffffffffffffff169050815f806101000a81548173ffffffffffffffffffffffffffffffffffffffff021916908373ffffffffffffffffffffffffffffffffffffffff1602179055508173ffffffffffffffffffffffffffffffffffffffff168173ffffffffffffffffffffffffffffffffffffffff167f8be0079c531659141344cd1fd0a4f28419497f9722a3daafe3b4186f6b6457e060405160405180910390a35050565b5f80fd5b5f73ffffffffffffffffffffffffffffffffffffffff82169050919050565b5f6101ed826101c4565b9050919050565b5f6101fe826101e3565b9050919050565b61020e816101f4565b8114610218575f80fd5b50565b5f8151905061022981610205565b92915050565b5f60208284031215610244576102436101c0565b5b5f6102518482850161021b565b91505092915050565b610263816101e3565b82525050565b5f60208201905061027c5f83018461025a565b92915050565b6116a28061028f5f395ff3fe608060405234801561000f575f80fd5b50600436106100a7575f3560e01c80638da5cb5b1161006f5780638da5cb5b1461013f578063dd49756e1461015d578063dec3456b14610179578063f2fde38b14610195578063f4784c2d146101b1578063fc0c546a146101e1576100a7565b806303988f84146100ab5780632f01e767146100df5780634d9879e3146100fb57806361fb99a314610119578063715018a614610135575b5f80fd5b6100c560048036038101906100c09190610ea5565b6101ff565b6040516100d6959493929190610f38565b60405180910390f35b6100f960048036038101906100f49190610f89565b610288565b005b61010361059f565b6040516101109190610fc7565b60405180910390f35b610133600480360381019061012e9190610ea5565b6105a5565b005b61013d6107a5565b005b6101476107b8565b6040516101549190610fe0565b60405180910390f35b61017760048036038101906101729190610ea5565b6107df565b005b610193600480360381019061018e9190610ea5565b610985565b005b6101af60048036038101906101aa9190611023565b610b14565b005b6101cb60048036038101906101c6919061104e565b610b98565b6040516101d89190610fc7565b60405180910390f35b6101e9610cfa565b6040516101f691906110e7565b60405180910390f35b6002602052805f5260405f205f91509050805f015f9054906101000a900473ffffffffffffffffffffffffffffffffffffffff1690806001015f9054906101000a900473ffffffffffffffffffffffffffffffffffffffff1690806002015490806003015f9054906101000a900460ff16908060030160019054906101000a900460ff16905085565b610290610d1f565b5f60025f8481526020019081526020015f2090508060030160019054906101000a900460ff166102f5576040517f08c379a00000000000000000000000000000000000000000000000000000000081526004016102ec9061115a565b60405180910390fd5b806003015f9054906101000a900460ff1615610346576040517f08c379a000000000000000000000000000000000000000000000000000000000815260040161033d906111c2565b60405180910390fd5b6001816003015f6101000a81548160ff0219169083151502179055505f6064838360020154610375919061120d565b61037f919061127b565b90505f81836002015461039291906112ab565b905060035f9054906101000a900473ffffffffffffffffffffffffffffffffffffffff1673ffffffffffffffffffffffffffffffffffffffff1663a9059cbb846001015f9054906101000a900473ffffffffffffffffffffffffffffffffffffffff16846040518363ffffffff1660e01b81526004016104139291906112de565b6020604051808303815f875af115801561042f573d5f803e3d5ffd5b505050506040513d601f19601f82011682018060405250810190610453919061132f565b610492576040517f08c379a0000000000000000000000000000000000000000000000000000000008152600401610489906113a4565b60405180910390fd5b5f8111156105985760035f9054906101000a900473ffffffffffffffffffffffffffffffffffffffff1673ffffffffffffffffffffffffffffffffffffffff1663a9059cbb845f015f9054906101000a900473ffffffffffffffffffffffffffffffffffffffff16836040518363ffffffff1660e01b81526004016105189291906112de565b6020604051808303815f875af1158015610534573d5f803e3d5ffd5b505050506040513d601f19601f82011682018060405250810190610558919061132f565b610597576040517f08c379a000000000000000000000000000000000000000000000000000000000815260040161058e9061140c565b60405180910390fd5b5b5050505050565b60015481565b6105ad610d1f565b5f60025f8381526020019081526020015f2090508060030160019054906101000a900460ff16610612576040517f08c379a00000000000000000000000000000000000000000000000000000000081526004016106099061115a565b60405180910390fd5b806003015f9054906101000a900460ff1615610663576040517f08c379a000000000000000000000000000000000000000000000000000000000815260040161065a906111c2565b60405180910390fd5b6001816003015f6101000a81548160ff0219169083151502179055505f816002015490505f8260030160016101000a81548160ff02191690831515021790555060035f9054906101000a900473ffffffffffffffffffffffffffffffffffffffff1673ffffffffffffffffffffffffffffffffffffffff1663a9059cbb835f015f9054906101000a900473ffffffffffffffffffffffffffffffffffffffff16836040518363ffffffff1660e01b81526004016107219291906112de565b6020604051808303815f875af115801561073d573d5f803e3d5ffd5b505050506040513d601f19601f82011682018060405250810190610761919061132f565b6107a0576040517f08c379a000000000000000000000000000000000000000000000000000000000815260040161079790611474565b60405180910390fd5b505050565b6107ad610d1f565b6107b65f610da6565b565b5f805f9054906101000a900473ffffffffffffffffffffffffffffffffffffffff16905090565b5f60025f8381526020019081526020015f209050805f015f9054906101000a900473ffffffffffffffffffffffffffffffffffffffff1673ffffffffffffffffffffffffffffffffffffffff163373ffffffffffffffffffffffffffffffffffffffff1614610883576040517f08c379a000000000000000000000000000000000000000000000000000000000815260040161087a90611502565b60405180910390fd5b60035f9054906101000a900473ffffffffffffffffffffffffffffffffffffffff1673ffffffffffffffffffffffffffffffffffffffff166323b872dd333084600201546040518463ffffffff1660e01b81526004016108e593929190611520565b6020604051808303815f875af1158015610901573d5f803e3d5ffd5b505050506040513d601f19601f82011682018060405250810190610925919061132f565b610964576040517f08c379a000000000000000000000000000000000000000000000000000000000815260040161095b9061159f565b60405180910390fd5b60018160030160016101000a81548160ff0219169083151502179055505050565b61098d610d1f565b5f60025f8381526020019081526020015f209050806003015f9054906101000a900460ff16156109f2576040517f08c379a00000000000000000000000000000000000000000000000000000000081526004016109e990611607565b60405180910390fd5b60035f9054906101000a900473ffffffffffffffffffffffffffffffffffffffff1673ffffffffffffffffffffffffffffffffffffffff1663a9059cbb826001015f9054906101000a900473ffffffffffffffffffffffffffffffffffffffff1683600201546040518363ffffffff1660e01b8152600401610a759291906112de565b6020604051808303815f875af1158015610a91573d5f803e3d5ffd5b505050506040513d601f19601f82011682018060405250810190610ab5919061132f565b610af4576040517f08c379a0000000000000000000000000000000000000000000000000000000008152600401610aeb9061159f565b60405180910390fd5b6001816003015f6101000a81548160ff0219169083151502179055505050565b610b1c610d1f565b5f73ffffffffffffffffffffffffffffffffffffffff168173ffffffffffffffffffffffffffffffffffffffff1603610b8c575f6040517f1e4fbdf7000000000000000000000000000000000000000000000000000000008152600401610b839190610fe0565b60405180910390fd5b610b9581610da6565b50565b5f8060015f815480929190610bac90611625565b9190505590506040518060a001604052803373ffffffffffffffffffffffffffffffffffffffff1681526020018573ffffffffffffffffffffffffffffffffffffffff1681526020018481526020015f151581526020015f151581525060025f8381526020019081526020015f205f820151815f015f6101000a81548173ffffffffffffffffffffffffffffffffffffffff021916908373ffffffffffffffffffffffffffffffffffffffff1602179055506020820151816001015f6101000a81548173ffffffffffffffffffffffffffffffffffffffff021916908373ffffffffffffffffffffffffffffffffffffffff160217905550604082015181600201556060820151816003015f6101000a81548160ff02191690831515021790555060808201518160030160016101000a81548160ff0219169083151502179055509050508091505092915050565b60035f9054906101000a900473ffffffffffffffffffffffffffffffffffffffff1681565b610d27610e67565b73ffffffffffffffffffffffffffffffffffffffff16610d456107b8565b73ffffffffffffffffffffffffffffffffffffffff1614610da457610d68610e67565b6040517f118cdaa7000000000000000000000000000000000000000000000000000000008152600401610d9b9190610fe0565b60405180910390fd5b565b5f805f9054906101000a900473ffffffffffffffffffffffffffffffffffffffff169050815f806101000a81548173ffffffffffffffffffffffffffffffffffffffff021916908373ffffffffffffffffffffffffffffffffffffffff1602179055508173ffffffffffffffffffffffffffffffffffffffff168173ffffffffffffffffffffffffffffffffffffffff167f8be0079c531659141344cd1fd0a4f28419497f9722a3daafe3b4186f6b6457e060405160405180910390a35050565b5f33905090565b5f80fd5b5f819050919050565b610e8481610e72565b8114610e8e575f80fd5b50565b5f81359050610e9f81610e7b565b92915050565b5f60208284031215610eba57610eb9610e6e565b5b5f610ec784828501610e91565b91505092915050565b5f73ffffffffffffffffffffffffffffffffffffffff82169050919050565b5f610ef982610ed0565b9050919050565b610f0981610eef565b82525050565b610f1881610e72565b82525050565b5f8115159050919050565b610f3281610f1e565b82525050565b5f60a082019050610f4b5f830188610f00565b610f586020830187610f00565b610f656040830186610f0f565b610f726060830185610f29565b610f7f6080830184610f29565b9695505050505050565b5f8060408385031215610f9f57610f9e610e6e565b5b5f610fac85828601610e91565b9250506020610fbd85828601610e91565b9150509250929050565b5f602082019050610fda5f830184610f0f565b92915050565b5f602082019050610ff35f830184610f00565b92915050565b61100281610eef565b811461100c575f80fd5b50565b5f8135905061101d81610ff9565b92915050565b5f6020828403121561103857611037610e6e565b5b5f6110458482850161100f565b91505092915050565b5f806040838503121561106457611063610e6e565b5b5f6110718582860161100f565b925050602061108285828601610e91565b9150509250929050565b5f819050919050565b5f6110af6110aa6110a584610ed0565b61108c565b610ed0565b9050919050565b5f6110c082611095565b9050919050565b5f6110d1826110b6565b9050919050565b6110e1816110c7565b82525050565b5f6020820190506110fa5f8301846110d8565b92915050565b5f82825260208201905092915050565b7f4e6f2066756e6473206465706f736974656420666f722074686973206465616c5f82015250565b5f611144602083611100565b915061114f82611110565b602082019050919050565b5f6020820190508181035f83015261117181611138565b9050919050565b7f4465616c20697320616c726561647920636f6d706c65746564000000000000005f82015250565b5f6111ac601983611100565b91506111b782611178565b602082019050919050565b5f6020820190508181035f8301526111d9816111a0565b9050919050565b7f4e487b71000000000000000000000000000000000000000000000000000000005f52601160045260245ffd5b5f61121782610e72565b915061122283610e72565b925082820261123081610e72565b91508282048414831517611247576112466111e0565b5b5092915050565b7f4e487b71000000000000000000000000000000000000000000000000000000005f52601260045260245ffd5b5f61128582610e72565b915061129083610e72565b9250826112a05761129f61124e565b5b828204905092915050565b5f6112b582610e72565b91506112c083610e72565b92508282039050818111156112d8576112d76111e0565b5b92915050565b5f6040820190506112f15f830185610f00565b6112fe6020830184610f0f565b9392505050565b61130e81610f1e565b8114611318575f80fd5b50565b5f8151905061132981611305565b92915050565b5f6020828403121561134457611343610e6e565b5b5f6113518482850161131b565b91505092915050565b7f5472616e7366657220746f20696d706c656d656e746572206661696c656400005f82015250565b5f61138e601e83611100565b91506113998261135a565b602082019050919050565b5f6020820190508181035f8301526113bb81611382565b9050919050565b7f526566756e6420746f20636c69656e74206661696c65640000000000000000005f82015250565b5f6113f6601783611100565b9150611401826113c2565b602082019050919050565b5f6020820190508181035f830152611423816113ea565b9050919050565b7f526566756e64206661696c6564000000000000000000000000000000000000005f82015250565b5f61145e600d83611100565b91506114698261142a565b602082019050919050565b5f6020820190508181035f83015261148b81611452565b9050919050565b7f4f6e6c792074686520636c69656e742063616e206465706f73697420746f6b655f8201527f6e7320666f7220746865206465616c2e00000000000000000000000000000000602082015250565b5f6114ec603083611100565b91506114f782611492565b604082019050919050565b5f6020820190508181035f830152611519816114e0565b9050919050565b5f6060820190506115335f830186610f00565b6115406020830185610f00565b61154d6040830184610f0f565b949350505050565b7f546f6b656e207472616e73666572206661696c656400000000000000000000005f82015250565b5f611589601583611100565b915061159482611555565b602082019050919050565b5f6020820190508181035f8301526115b68161157d565b9050919050565b7f4465616c20697320616c726561647920636f6d706c657465642e0000000000005f82015250565b5f6115f1601a83611100565b91506115fc826115bd565b602082019050919050565b5f6020820190508181035f83015261161e816115e5565b9050919050565b5f61162f82610e72565b91507fffffffffffffffffffffffffffffffffffffffffffffffffffffffffffffffff8203611661576116606111e0565b5b60018201905091905056fea264697066735822122057a67cf5e83c0fef861929ec2154b943b63aa1dd03dbd2dacb4cc1f9fb16125664736f6c63430008190033",
					"opcodes": "PUSH1 0x80 PUSH1 0x40 MSTORE CALLVALUE DUP1 ISZERO PUSH2 0xF JUMPI PUSH0 DUP1 REVERT JUMPDEST POP PUSH1 0x40 MLOAD PUSH2 0x1931 CODESIZE SUB DUP1 PUSH2 0x1931 DUP4 CODECOPY DUP2 DUP2 ADD PUSH1 0x40 MSTORE DUP2 ADD SWAP1 PUSH2 0x31 SWAP2 SWAP1 PUSH2 0x22F JUMP JUMPDEST CALLER PUSH0 PUSH20 0xFFFFFFFFFFFFFFFFFFFFFFFFFFFFFFFFFFFFFFFF AND DUP2 PUSH20 0xFFFFFFFFFFFFFFFFFFFFFFFFFFFFFFFFFFFFFFFF AND SUB PUSH2 0xA2 JUMPI PUSH0 PUSH1 0x40 MLOAD PUSH32 0x1E4FBDF700000000000000000000000000000000000000000000000000000000 DUP2 MSTORE PUSH1 0x4 ADD PUSH2 0x99 SWAP2 SWAP1 PUSH2 0x269 JUMP JUMPDEST PUSH1 0x40 MLOAD DUP1 SWAP2 SUB SWAP1 REVERT JUMPDEST PUSH2 0xB1 DUP2 PUSH2 0xFF PUSH1 0x20 SHL PUSH1 0x20 SHR JUMP JUMPDEST POP DUP1 PUSH1 0x3 PUSH0 PUSH2 0x100 EXP DUP2 SLOAD DUP2 PUSH20 0xFFFFFFFFFFFFFFFFFFFFFFFFFFFFFFFFFFFFFFFF MUL NOT AND SWAP1 DUP4 PUSH20 0xFFFFFFFFFFFFFFFFFFFFFFFFFFFFFFFFFFFFFFFF AND MUL OR SWAP1 SSTORE POP PUSH1 0x1 DUP1 DUP2 SWAP1 SSTORE POP POP PUSH2 0x282 JUMP JUMPDEST PUSH0 DUP1 PUSH0 SWAP1 SLOAD SWAP1 PUSH2 0x100 EXP SWAP1 DIV PUSH20 0xFFFFFFFFFFFFFFFFFFFFFFFFFFFFFFFFFFFFFFFF AND SWAP1 POP DUP2 PUSH0 DUP1 PUSH2 0x100 EXP DUP2 SLOAD DUP2 PUSH20 0xFFFFFFFFFFFFFFFFFFFFFFFFFFFFFFFFFFFFFFFF MUL NOT AND SWAP1 DUP4 PUSH20 0xFFFFFFFFFFFFFFFFFFFFFFFFFFFFFFFFFFFFFFFF AND MUL OR SWAP1 SSTORE POP DUP2 PUSH20 0xFFFFFFFFFFFFFFFFFFFFFFFFFFFFFFFFFFFFFFFF AND DUP2 PUSH20 0xFFFFFFFFFFFFFFFFFFFFFFFFFFFFFFFFFFFFFFFF AND PUSH32 0x8BE0079C531659141344CD1FD0A4F28419497F9722A3DAAFE3B4186F6B6457E0 PUSH1 0x40 MLOAD PUSH1 0x40 MLOAD DUP1 SWAP2 SUB SWAP1 LOG3 POP POP JUMP JUMPDEST PUSH0 DUP1 REVERT JUMPDEST PUSH0 PUSH20 0xFFFFFFFFFFFFFFFFFFFFFFFFFFFFFFFFFFFFFFFF DUP3 AND SWAP1 POP SWAP2 SWAP1 POP JUMP JUMPDEST PUSH0 PUSH2 0x1ED DUP3 PUSH2 0x1C4 JUMP JUMPDEST SWAP1 POP SWAP2 SWAP1 POP JUMP JUMPDEST PUSH0 PUSH2 0x1FE DUP3 PUSH2 0x1E3 JUMP JUMPDEST SWAP1 POP SWAP2 SWAP1 POP JUMP JUMPDEST PUSH2 0x20E DUP2 PUSH2 0x1F4 JUMP JUMPDEST DUP2 EQ PUSH2 0x218 JUMPI PUSH0 DUP1 REVERT JUMPDEST POP JUMP JUMPDEST PUSH0 DUP2 MLOAD SWAP1 POP PUSH2 0x229 DUP2 PUSH2 0x205 JUMP JUMPDEST SWAP3 SWAP2 POP POP JUMP JUMPDEST PUSH0 PUSH1 0x20 DUP3 DUP5 SUB SLT ISZERO PUSH2 0x244 JUMPI PUSH2 0x243 PUSH2 0x1C0 JUMP JUMPDEST JUMPDEST PUSH0 PUSH2 0x251 DUP5 DUP3 DUP6 ADD PUSH2 0x21B JUMP JUMPDEST SWAP2 POP POP SWAP3 SWAP2 POP POP JUMP JUMPDEST PUSH2 0x263 DUP2 PUSH2 0x1E3 JUMP JUMPDEST DUP3 MSTORE POP POP JUMP JUMPDEST PUSH0 PUSH1 0x20 DUP3 ADD SWAP1 POP PUSH2 0x27C PUSH0 DUP4 ADD DUP5 PUSH2 0x25A JUMP JUMPDEST SWAP3 SWAP2 POP POP JUMP JUMPDEST PUSH2 0x16A2 DUP1 PUSH2 0x28F PUSH0 CODECOPY PUSH0 RETURN INVALID PUSH1 0x80 PUSH1 0x40 MSTORE CALLVALUE DUP1 ISZERO PUSH2 0xF JUMPI PUSH0 DUP1 REVERT JUMPDEST POP PUSH1 0x4 CALLDATASIZE LT PUSH2 0xA7 JUMPI PUSH0 CALLDATALOAD PUSH1 0xE0 SHR DUP1 PUSH4 0x8DA5CB5B GT PUSH2 0x6F JUMPI DUP1 PUSH4 0x8DA5CB5B EQ PUSH2 0x13F JUMPI DUP1 PUSH4 0xDD49756E EQ PUSH2 0x15D JUMPI DUP1 PUSH4 0xDEC3456B EQ PUSH2 0x179 JUMPI DUP1 PUSH4 0xF2FDE38B EQ PUSH2 0x195 JUMPI DUP1 PUSH4 0xF4784C2D EQ PUSH2 0x1B1 JUMPI DUP1 PUSH4 0xFC0C546A EQ PUSH2 0x1E1 JUMPI PUSH2 0xA7 JUMP JUMPDEST DUP1 PUSH4 0x3988F84 EQ PUSH2 0xAB JUMPI DUP1 PUSH4 0x2F01E767 EQ PUSH2 0xDF JUMPI DUP1 PUSH4 0x4D9879E3 EQ PUSH2 0xFB JUMPI DUP1 PUSH4 0x61FB99A3 EQ PUSH2 0x119 JUMPI DUP1 PUSH4 0x715018A6 EQ PUSH2 0x135 JUMPI JUMPDEST PUSH0 DUP1 REVERT JUMPDEST PUSH2 0xC5 PUSH1 0x4 DUP1 CALLDATASIZE SUB DUP2 ADD SWAP1 PUSH2 0xC0 SWAP2 SWAP1 PUSH2 0xEA5 JUMP JUMPDEST PUSH2 0x1FF JUMP JUMPDEST PUSH1 0x40 MLOAD PUSH2 0xD6 SWAP6 SWAP5 SWAP4 SWAP3 SWAP2 SWAP1 PUSH2 0xF38 JUMP JUMPDEST PUSH1 0x40 MLOAD DUP1 SWAP2 SUB SWAP1 RETURN JUMPDEST PUSH2 0xF9 PUSH1 0x4 DUP1 CALLDATASIZE SUB DUP2 ADD SWAP1 PUSH2 0xF4 SWAP2 SWAP1 PUSH2 0xF89 JUMP JUMPDEST PUSH2 0x288 JUMP JUMPDEST STOP JUMPDEST PUSH2 0x103 PUSH2 0x59F JUMP JUMPDEST PUSH1 0x40 MLOAD PUSH2 0x110 SWAP2 SWAP1 PUSH2 0xFC7 JUMP JUMPDEST PUSH1 0x40 MLOAD DUP1 SWAP2 SUB SWAP1 RETURN JUMPDEST PUSH2 0x133 PUSH1 0x4 DUP1 CALLDATASIZE SUB DUP2 ADD SWAP1 PUSH2 0x12E SWAP2 SWAP1 PUSH2 0xEA5 JUMP JUMPDEST PUSH2 0x5A5 JUMP JUMPDEST STOP JUMPDEST PUSH2 0x13D PUSH2 0x7A5 JUMP JUMPDEST STOP JUMPDEST PUSH2 0x147 PUSH2 0x7B8 JUMP JUMPDEST PUSH1 0x40 MLOAD PUSH2 0x154 SWAP2 SWAP1 PUSH2 0xFE0 JUMP JUMPDEST PUSH1 0x40 MLOAD DUP1 SWAP2 SUB SWAP1 RETURN JUMPDEST PUSH2 0x177 PUSH1 0x4 DUP1 CALLDATASIZE SUB DUP2 ADD SWAP1 PUSH2 0x172 SWAP2 SWAP1 PUSH2 0xEA5 JUMP JUMPDEST PUSH2 0x7DF JUMP JUMPDEST STOP JUMPDEST PUSH2 0x193 PUSH1 0x4 DUP1 CALLDATASIZE SUB DUP2 ADD SWAP1 PUSH2 0x18E SWAP2 SWAP1 PUSH2 0xEA5 JUMP JUMPDEST PUSH2 0x985 JUMP JUMPDEST STOP JUMPDEST PUSH2 0x1AF PUSH1 0x4 DUP1 CALLDATASIZE SUB DUP2 ADD SWAP1 PUSH2 0x1AA SWAP2 SWAP1 PUSH2 0x1023 JUMP JUMPDEST PUSH2 0xB14 JUMP JUMPDEST STOP JUMPDEST PUSH2 0x1CB PUSH1 0x4 DUP1 CALLDATASIZE SUB DUP2 ADD SWAP1 PUSH2 0x1C6 SWAP2 SWAP1 PUSH2 0x104E JUMP JUMPDEST PUSH2 0xB98 JUMP JUMPDEST PUSH1 0x40 MLOAD PUSH2 0x1D8 SWAP2 SWAP1 PUSH2 0xFC7 JUMP JUMPDEST PUSH1 0x40 MLOAD DUP1 SWAP2 SUB SWAP1 RETURN JUMPDEST PUSH2 0x1E9 PUSH2 0xCFA JUMP JUMPDEST PUSH1 0x40 MLOAD PUSH2 0x1F6 SWAP2 SWAP1 PUSH2 0x10E7 JUMP JUMPDEST PUSH1 0x40 MLOAD DUP1 SWAP2 SUB SWAP1 RETURN JUMPDEST PUSH1 0x2 PUSH1 0x20 MSTORE DUP1 PUSH0 MSTORE PUSH1 0x40 PUSH0 KECCAK256 PUSH0 SWAP2 POP SWAP1 POP DUP1 PUSH0 ADD PUSH0 SWAP1 SLOAD SWAP1 PUSH2 0x100 EXP SWAP1 DIV PUSH20 0xFFFFFFFFFFFFFFFFFFFFFFFFFFFFFFFFFFFFFFFF AND SWAP1 DUP1 PUSH1 0x1 ADD PUSH0 SWAP1 SLOAD SWAP1 PUSH2 0x100 EXP SWAP1 DIV PUSH20 0xFFFFFFFFFFFFFFFFFFFFFFFFFFFFFFFFFFFFFFFF AND SWAP1 DUP1 PUSH1 0x2 ADD SLOAD SWAP1 DUP1 PUSH1 0x3 ADD PUSH0 SWAP1 SLOAD SWAP1 PUSH2 0x100 EXP SWAP1 DIV PUSH1 0xFF AND SWAP1 DUP1 PUSH1 0x3 ADD PUSH1 0x1 SWAP1 SLOAD SWAP1 PUSH2 0x100 EXP SWAP1 DIV PUSH1 0xFF AND SWAP1 POP DUP6 JUMP JUMPDEST PUSH2 0x290 PUSH2 0xD1F JUMP JUMPDEST PUSH0 PUSH1 0x2 PUSH0 DUP5 DUP2 MSTORE PUSH1 0x20 ADD SWAP1 DUP2 MSTORE PUSH1 0x20 ADD PUSH0 KECCAK256 SWAP1 POP DUP1 PUSH1 0x3 ADD PUSH1 0x1 SWAP1 SLOAD SWAP1 PUSH2 0x100 EXP SWAP1 DIV PUSH1 0xFF AND PUSH2 0x2F5 JUMPI PUSH1 0x40 MLOAD PUSH32 0x8C379A000000000000000000000000000000000000000000000000000000000 DUP2 MSTORE PUSH1 0x4 ADD PUSH2 0x2EC SWAP1 PUSH2 0x115A JUMP JUMPDEST PUSH1 0x40 MLOAD DUP1 SWAP2 SUB SWAP1 REVERT JUMPDEST DUP1 PUSH1 0x3 ADD PUSH0 SWAP1 SLOAD SWAP1 PUSH2 0x100 EXP SWAP1 DIV PUSH1 0xFF AND ISZERO PUSH2 0x346 JUMPI PUSH1 0x40 MLOAD PUSH32 0x8C379A000000000000000000000000000000000000000000000000000000000 DUP2 MSTORE PUSH1 0x4 ADD PUSH2 0x33D SWAP1 PUSH2 0x11C2 JUMP JUMPDEST PUSH1 0x40 MLOAD DUP1 SWAP2 SUB SWAP1 REVERT JUMPDEST PUSH1 0x1 DUP2 PUSH1 0x3 ADD PUSH0 PUSH2 0x100 EXP DUP2 SLOAD DUP2 PUSH1 0xFF MUL NOT AND SWAP1 DUP4 ISZERO ISZERO MUL OR SWAP1 SSTORE POP PUSH0 PUSH1 0x64 DUP4 DUP4 PUSH1 0x2 ADD SLOAD PUSH2 0x375 SWAP2 SWAP1 PUSH2 0x120D JUMP JUMPDEST PUSH2 0x37F SWAP2 SWAP1 PUSH2 0x127B JUMP JUMPDEST SWAP1 POP PUSH0 DUP2 DUP4 PUSH1 0x2 ADD SLOAD PUSH2 0x392 SWAP2 SWAP1 PUSH2 0x12AB JUMP JUMPDEST SWAP1 POP PUSH1 0x3 PUSH0 SWAP1 SLOAD SWAP1 PUSH2 0x100 EXP SWAP1 DIV PUSH20 0xFFFFFFFFFFFFFFFFFFFFFFFFFFFFFFFFFFFFFFFF AND PUSH20 0xFFFFFFFFFFFFFFFFFFFFFFFFFFFFFFFFFFFFFFFF AND PUSH4 0xA9059CBB DUP5 PUSH1 0x1 ADD PUSH0 SWAP1 SLOAD SWAP1 PUSH2 0x100 EXP SWAP1 DIV PUSH20 0xFFFFFFFFFFFFFFFFFFFFFFFFFFFFFFFFFFFFFFFF AND DUP5 PUSH1 0x40 MLOAD DUP4 PUSH4 0xFFFFFFFF AND PUSH1 0xE0 SHL DUP2 MSTORE PUSH1 0x4 ADD PUSH2 0x413 SWAP3 SWAP2 SWAP1 PUSH2 0x12DE JUMP JUMPDEST PUSH1 0x20 PUSH1 0x40 MLOAD DUP1 DUP4 SUB DUP2 PUSH0 DUP8 GAS CALL ISZERO DUP1 ISZERO PUSH2 0x42F JUMPI RETURNDATASIZE PUSH0 DUP1 RETURNDATACOPY RETURNDATASIZE PUSH0 REVERT JUMPDEST POP POP POP POP PUSH1 0x40 MLOAD RETURNDATASIZE PUSH1 0x1F NOT PUSH1 0x1F DUP3 ADD AND DUP3 ADD DUP1 PUSH1 0x40 MSTORE POP DUP2 ADD SWAP1 PUSH2 0x453 SWAP2 SWAP1 PUSH2 0x132F JUMP JUMPDEST PUSH2 0x492 JUMPI PUSH1 0x40 MLOAD PUSH32 0x8C379A000000000000000000000000000000000000000000000000000000000 DUP2 MSTORE PUSH1 0x4 ADD PUSH2 0x489 SWAP1 PUSH2 0x13A4 JUMP JUMPDEST PUSH1 0x40 MLOAD DUP1 SWAP2 SUB SWAP1 REVERT JUMPDEST PUSH0 DUP2 GT ISZERO PUSH2 0x598 JUMPI PUSH1 0x3 PUSH0 SWAP1 SLOAD SWAP1 PUSH2 0x100 EXP SWAP1 DIV PUSH20 0xFFFFFFFFFFFFFFFFFFFFFFFFFFFFFFFFFFFFFFFF AND PUSH20 0xFFFFFFFFFFFFFFFFFFFFFFFFFFFFFFFFFFFFFFFF AND PUSH4 0xA9059CBB DUP5 PUSH0 ADD PUSH0 SWAP1 SLOAD SWAP1 PUSH2 0x100 EXP SWAP1 DIV PUSH20 0xFFFFFFFFFFFFFFFFFFFFFFFFFFFFFFFFFFFFFFFF AND DUP4 PUSH1 0x40 MLOAD DUP4 PUSH4 0xFFFFFFFF AND PUSH1 0xE0 SHL DUP2 MSTORE PUSH1 0x4 ADD PUSH2 0x518 SWAP3 SWAP2 SWAP1 PUSH2 0x12DE JUMP JUMPDEST PUSH1 0x20 PUSH1 0x40 MLOAD DUP1 DUP4 SUB DUP2 PUSH0 DUP8 GAS CALL ISZERO DUP1 ISZERO PUSH2 0x534 JUMPI RETURNDATASIZE PUSH0 DUP1 RETURNDATACOPY RETURNDATASIZE PUSH0 REVERT JUMPDEST POP POP POP POP PUSH1 0x40 MLOAD RETURNDATASIZE PUSH1 0x1F NOT PUSH1 0x1F DUP3 ADD AND DUP3 ADD DUP1 PUSH1 0x40 MSTORE POP DUP2 ADD SWAP1 PUSH2 0x558 SWAP2 SWAP1 PUSH2 0x132F JUMP JUMPDEST PUSH2 0x597 JUMPI PUSH1 0x40 MLOAD PUSH32 0x8C379A000000000000000000000000000000000000000000000000000000000 DUP2 MSTORE PUSH1 0x4 ADD PUSH2 0x58E SWAP1 PUSH2 0x140C JUMP JUMPDEST PUSH1 0x40 MLOAD DUP1 SWAP2 SUB SWAP1 REVERT JUMPDEST JUMPDEST POP POP POP POP POP JUMP JUMPDEST PUSH1 0x1 SLOAD DUP2 JUMP JUMPDEST PUSH2 0x5AD PUSH2 0xD1F JUMP JUMPDEST PUSH0 PUSH1 0x2 PUSH0 DUP4 DUP2 MSTORE PUSH1 0x20 ADD SWAP1 DUP2 MSTORE PUSH1 0x20 ADD PUSH0 KECCAK256 SWAP1 POP DUP1 PUSH1 0x3 ADD PUSH1 0x1 SWAP1 SLOAD SWAP1 PUSH2 0x100 EXP SWAP1 DIV PUSH1 0xFF AND PUSH2 0x612 JUMPI PUSH1 0x40 MLOAD PUSH32 0x8C379A000000000000000000000000000000000000000000000000000000000 DUP2 MSTORE PUSH1 0x4 ADD PUSH2 0x609 SWAP1 PUSH2 0x115A JUMP JUMPDEST PUSH1 0x40 MLOAD DUP1 SWAP2 SUB SWAP1 REVERT JUMPDEST DUP1 PUSH1 0x3 ADD PUSH0 SWAP1 SLOAD SWAP1 PUSH2 0x100 EXP SWAP1 DIV PUSH1 0xFF AND ISZERO PUSH2 0x663 JUMPI PUSH1 0x40 MLOAD PUSH32 0x8C379A000000000000000000000000000000000000000000000000000000000 DUP2 MSTORE PUSH1 0x4 ADD PUSH2 0x65A SWAP1 PUSH2 0x11C2 JUMP JUMPDEST PUSH1 0x40 MLOAD DUP1 SWAP2 SUB SWAP1 REVERT JUMPDEST PUSH1 0x1 DUP2 PUSH1 0x3 ADD PUSH0 PUSH2 0x100 EXP DUP2 SLOAD DUP2 PUSH1 0xFF MUL NOT AND SWAP1 DUP4 ISZERO ISZERO MUL OR SWAP1 SSTORE POP PUSH0 DUP2 PUSH1 0x2 ADD SLOAD SWAP1 POP PUSH0 DUP3 PUSH1 0x3 ADD PUSH1 0x1 PUSH2 0x100 EXP DUP2 SLOAD DUP2 PUSH1 0xFF MUL NOT AND SWAP1 DUP4 ISZERO ISZERO MUL OR SWAP1 SSTORE POP PUSH1 0x3 PUSH0 SWAP1 SLOAD SWAP1 PUSH2 0x100 EXP SWAP1 DIV PUSH20 0xFFFFFFFFFFFFFFFFFFFFFFFFFFFFFFFFFFFFFFFF AND PUSH20 0xFFFFFFFFFFFFFFFFFFFFFFFFFFFFFFFFFFFFFFFF AND PUSH4 0xA9059CBB DUP4 PUSH0 ADD PUSH0 SWAP1 SLOAD SWAP1 PUSH2 0x100 EXP SWAP1 DIV PUSH20 0xFFFFFFFFFFFFFFFFFFFFFFFFFFFFFFFFFFFFFFFF AND DUP4 PUSH1 0x40 MLOAD DUP4 PUSH4 0xFFFFFFFF AND PUSH1 0xE0 SHL DUP2 MSTORE PUSH1 0x4 ADD PUSH2 0x721 SWAP3 SWAP2 SWAP1 PUSH2 0x12DE JUMP JUMPDEST PUSH1 0x20 PUSH1 0x40 MLOAD DUP1 DUP4 SUB DUP2 PUSH0 DUP8 GAS CALL ISZERO DUP1 ISZERO PUSH2 0x73D JUMPI RETURNDATASIZE PUSH0 DUP1 RETURNDATACOPY RETURNDATASIZE PUSH0 REVERT JUMPDEST POP POP POP POP PUSH1 0x40 MLOAD RETURNDATASIZE PUSH1 0x1F NOT PUSH1 0x1F DUP3 ADD AND DUP3 ADD DUP1 PUSH1 0x40 MSTORE POP DUP2 ADD SWAP1 PUSH2 0x761 SWAP2 SWAP1 PUSH2 0x132F JUMP JUMPDEST PUSH2 0x7A0 JUMPI PUSH1 0x40 MLOAD PUSH32 0x8C379A000000000000000000000000000000000000000000000000000000000 DUP2 MSTORE PUSH1 0x4 ADD PUSH2 0x797 SWAP1 PUSH2 0x1474 JUMP JUMPDEST PUSH1 0x40 MLOAD DUP1 SWAP2 SUB SWAP1 REVERT JUMPDEST POP POP POP JUMP JUMPDEST PUSH2 0x7AD PUSH2 0xD1F JUMP JUMPDEST PUSH2 0x7B6 PUSH0 PUSH2 0xDA6 JUMP JUMPDEST JUMP JUMPDEST PUSH0 DUP1 PUSH0 SWAP1 SLOAD SWAP1 PUSH2 0x100 EXP SWAP1 DIV PUSH20 0xFFFFFFFFFFFFFFFFFFFFFFFFFFFFFFFFFFFFFFFF AND SWAP1 POP SWAP1 JUMP JUMPDEST PUSH0 PUSH1 0x2 PUSH0 DUP4 DUP2 MSTORE PUSH1 0x20 ADD SWAP1 DUP2 MSTORE PUSH1 0x20 ADD PUSH0 KECCAK256 SWAP1 POP DUP1 PUSH0 ADD PUSH0 SWAP1 SLOAD SWAP1 PUSH2 0x100 EXP SWAP1 DIV PUSH20 0xFFFFFFFFFFFFFFFFFFFFFFFFFFFFFFFFFFFFFFFF AND PUSH20 0xFFFFFFFFFFFFFFFFFFFFFFFFFFFFFFFFFFFFFFFF AND CALLER PUSH20 0xFFFFFFFFFFFFFFFFFFFFFFFFFFFFFFFFFFFFFFFF AND EQ PUSH2 0x883 JUMPI PUSH1 0x40 MLOAD PUSH32 0x8C379A000000000000000000000000000000000000000000000000000000000 DUP2 MSTORE PUSH1 0x4 ADD PUSH2 0x87A SWAP1 PUSH2 0x1502 JUMP JUMPDEST PUSH1 0x40 MLOAD DUP1 SWAP2 SUB SWAP1 REVERT JUMPDEST PUSH1 0x3 PUSH0 SWAP1 SLOAD SWAP1 PUSH2 0x100 EXP SWAP1 DIV PUSH20 0xFFFFFFFFFFFFFFFFFFFFFFFFFFFFFFFFFFFFFFFF AND PUSH20 0xFFFFFFFFFFFFFFFFFFFFFFFFFFFFFFFFFFFFFFFF AND PUSH4 0x23B872DD CALLER ADDRESS DUP5 PUSH1 0x2 ADD SLOAD PUSH1 0x40 MLOAD DUP5 PUSH4 0xFFFFFFFF AND PUSH1 0xE0 SHL DUP2 MSTORE PUSH1 0x4 ADD PUSH2 0x8E5 SWAP4 SWAP3 SWAP2 SWAP1 PUSH2 0x1520 JUMP JUMPDEST PUSH1 0x20 PUSH1 0x40 MLOAD DUP1 DUP4 SUB DUP2 PUSH0 DUP8 GAS CALL ISZERO DUP1 ISZERO PUSH2 0x901 JUMPI RETURNDATASIZE PUSH0 DUP1 RETURNDATACOPY RETURNDATASIZE PUSH0 REVERT JUMPDEST POP POP POP POP PUSH1 0x40 MLOAD RETURNDATASIZE PUSH1 0x1F NOT PUSH1 0x1F DUP3 ADD AND DUP3 ADD DUP1 PUSH1 0x40 MSTORE POP DUP2 ADD SWAP1 PUSH2 0x925 SWAP2 SWAP1 PUSH2 0x132F JUMP JUMPDEST PUSH2 0x964 JUMPI PUSH1 0x40 MLOAD PUSH32 0x8C379A000000000000000000000000000000000000000000000000000000000 DUP2 MSTORE PUSH1 0x4 ADD PUSH2 0x95B SWAP1 PUSH2 0x159F JUMP JUMPDEST PUSH1 0x40 MLOAD DUP1 SWAP2 SUB SWAP1 REVERT JUMPDEST PUSH1 0x1 DUP2 PUSH1 0x3 ADD PUSH1 0x1 PUSH2 0x100 EXP DUP2 SLOAD DUP2 PUSH1 0xFF MUL NOT AND SWAP1 DUP4 ISZERO ISZERO MUL OR SWAP1 SSTORE POP POP POP JUMP JUMPDEST PUSH2 0x98D PUSH2 0xD1F JUMP JUMPDEST PUSH0 PUSH1 0x2 PUSH0 DUP4 DUP2 MSTORE PUSH1 0x20 ADD SWAP1 DUP2 MSTORE PUSH1 0x20 ADD PUSH0 KECCAK256 SWAP1 POP DUP1 PUSH1 0x3 ADD PUSH0 SWAP1 SLOAD SWAP1 PUSH2 0x100 EXP SWAP1 DIV PUSH1 0xFF AND ISZERO PUSH2 0x9F2 JUMPI PUSH1 0x40 MLOAD PUSH32 0x8C379A000000000000000000000000000000000000000000000000000000000 DUP2 MSTORE PUSH1 0x4 ADD PUSH2 0x9E9 SWAP1 PUSH2 0x1607 JUMP JUMPDEST PUSH1 0x40 MLOAD DUP1 SWAP2 SUB SWAP1 REVERT JUMPDEST PUSH1 0x3 PUSH0 SWAP1 SLOAD SWAP1 PUSH2 0x100 EXP SWAP1 DIV PUSH20 0xFFFFFFFFFFFFFFFFFFFFFFFFFFFFFFFFFFFFFFFF AND PUSH20 0xFFFFFFFFFFFFFFFFFFFFFFFFFFFFFFFFFFFFFFFF AND PUSH4 0xA9059CBB DUP3 PUSH1 0x1 ADD PUSH0 SWAP1 SLOAD SWAP1 PUSH2 0x100 EXP SWAP1 DIV PUSH20 0xFFFFFFFFFFFFFFFFFFFFFFFFFFFFFFFFFFFFFFFF AND DUP4 PUSH1 0x2 ADD SLOAD PUSH1 0x40 MLOAD DUP4 PUSH4 0xFFFFFFFF AND PUSH1 0xE0 SHL DUP2 MSTORE PUSH1 0x4 ADD PUSH2 0xA75 SWAP3 SWAP2 SWAP1 PUSH2 0x12DE JUMP JUMPDEST PUSH1 0x20 PUSH1 0x40 MLOAD DUP1 DUP4 SUB DUP2 PUSH0 DUP8 GAS CALL ISZERO DUP1 ISZERO PUSH2 0xA91 JUMPI RETURNDATASIZE PUSH0 DUP1 RETURNDATACOPY RETURNDATASIZE PUSH0 REVERT JUMPDEST POP POP POP POP PUSH1 0x40 MLOAD RETURNDATASIZE PUSH1 0x1F NOT PUSH1 0x1F DUP3 ADD AND DUP3 ADD DUP1 PUSH1 0x40 MSTORE POP DUP2 ADD SWAP1 PUSH2 0xAB5 SWAP2 SWAP1 PUSH2 0x132F JUMP JUMPDEST PUSH2 0xAF4 JUMPI PUSH1 0x40 MLOAD PUSH32 0x8C379A000000000000000000000000000000000000000000000000000000000 DUP2 MSTORE PUSH1 0x4 ADD PUSH2 0xAEB SWAP1 PUSH2 0x159F JUMP JUMPDEST PUSH1 0x40 MLOAD DUP1 SWAP2 SUB SWAP1 REVERT JUMPDEST PUSH1 0x1 DUP2 PUSH1 0x3 ADD PUSH0 PUSH2 0x100 EXP DUP2 SLOAD DUP2 PUSH1 0xFF MUL NOT AND SWAP1 DUP4 ISZERO ISZERO MUL OR SWAP1 SSTORE POP POP POP JUMP JUMPDEST PUSH2 0xB1C PUSH2 0xD1F JUMP JUMPDEST PUSH0 PUSH20 0xFFFFFFFFFFFFFFFFFFFFFFFFFFFFFFFFFFFFFFFF AND DUP2 PUSH20 0xFFFFFFFFFFFFFFFFFFFFFFFFFFFFFFFFFFFFFFFF AND SUB PUSH2 0xB8C JUMPI PUSH0 PUSH1 0x40 MLOAD PUSH32 0x1E4FBDF700000000000000000000000000000000000000000000000000000000 DUP2 MSTORE PUSH1 0x4 ADD PUSH2 0xB83 SWAP2 SWAP1 PUSH2 0xFE0 JUMP JUMPDEST PUSH1 0x40 MLOAD DUP1 SWAP2 SUB SWAP1 REVERT JUMPDEST PUSH2 0xB95 DUP2 PUSH2 0xDA6 JUMP JUMPDEST POP JUMP JUMPDEST PUSH0 DUP1 PUSH1 0x1 PUSH0 DUP2 SLOAD DUP1 SWAP3 SWAP2 SWAP1 PUSH2 0xBAC SWAP1 PUSH2 0x1625 JUMP JUMPDEST SWAP2 SWAP1 POP SSTORE SWAP1 POP PUSH1 0x40 MLOAD DUP1 PUSH1 0xA0 ADD PUSH1 0x40 MSTORE DUP1 CALLER PUSH20 0xFFFFFFFFFFFFFFFFFFFFFFFFFFFFFFFFFFFFFFFF AND DUP2 MSTORE PUSH1 0x20 ADD DUP6 PUSH20 0xFFFFFFFFFFFFFFFFFFFFFFFFFFFFFFFFFFFFFFFF AND DUP2 MSTORE PUSH1 0x20 ADD DUP5 DUP2 MSTORE PUSH1 0x20 ADD PUSH0 ISZERO ISZERO DUP2 MSTORE PUSH1 0x20 ADD PUSH0 ISZERO ISZERO DUP2 MSTORE POP PUSH1 0x2 PUSH0 DUP4 DUP2 MSTORE PUSH1 0x20 ADD SWAP1 DUP2 MSTORE PUSH1 0x20 ADD PUSH0 KECCAK256 PUSH0 DUP3 ADD MLOAD DUP2 PUSH0 ADD PUSH0 PUSH2 0x100 EXP DUP2 SLOAD DUP2 PUSH20 0xFFFFFFFFFFFFFFFFFFFFFFFFFFFFFFFFFFFFFFFF MUL NOT AND SWAP1 DUP4 PUSH20 0xFFFFFFFFFFFFFFFFFFFFFFFFFFFFFFFFFFFFFFFF AND MUL OR SWAP1 SSTORE POP PUSH1 0x20 DUP3 ADD MLOAD DUP2 PUSH1 0x1 ADD PUSH0 PUSH2 0x100 EXP DUP2 SLOAD DUP2 PUSH20 0xFFFFFFFFFFFFFFFFFFFFFFFFFFFFFFFFFFFFFFFF MUL NOT AND SWAP1 DUP4 PUSH20 0xFFFFFFFFFFFFFFFFFFFFFFFFFFFFFFFFFFFFFFFF AND MUL OR SWAP1 SSTORE POP PUSH1 0x40 DUP3 ADD MLOAD DUP2 PUSH1 0x2 ADD SSTORE PUSH1 0x60 DUP3 ADD MLOAD DUP2 PUSH1 0x3 ADD PUSH0 PUSH2 0x100 EXP DUP2 SLOAD DUP2 PUSH1 0xFF MUL NOT AND SWAP1 DUP4 ISZERO ISZERO MUL OR SWAP1 SSTORE POP PUSH1 0x80 DUP3 ADD MLOAD DUP2 PUSH1 0x3 ADD PUSH1 0x1 PUSH2 0x100 EXP DUP2 SLOAD DUP2 PUSH1 0xFF MUL NOT AND SWAP1 DUP4 ISZERO ISZERO MUL OR SWAP1 SSTORE POP SWAP1 POP POP DUP1 SWAP2 POP POP SWAP3 SWAP2 POP POP JUMP JUMPDEST PUSH1 0x3 PUSH0 SWAP1 SLOAD SWAP1 PUSH2 0x100 EXP SWAP1 DIV PUSH20 0xFFFFFFFFFFFFFFFFFFFFFFFFFFFFFFFFFFFFFFFF AND DUP2 JUMP JUMPDEST PUSH2 0xD27 PUSH2 0xE67 JUMP JUMPDEST PUSH20 0xFFFFFFFFFFFFFFFFFFFFFFFFFFFFFFFFFFFFFFFF AND PUSH2 0xD45 PUSH2 0x7B8 JUMP JUMPDEST PUSH20 0xFFFFFFFFFFFFFFFFFFFFFFFFFFFFFFFFFFFFFFFF AND EQ PUSH2 0xDA4 JUMPI PUSH2 0xD68 PUSH2 0xE67 JUMP JUMPDEST PUSH1 0x40 MLOAD PUSH32 0x118CDAA700000000000000000000000000000000000000000000000000000000 DUP2 MSTORE PUSH1 0x4 ADD PUSH2 0xD9B SWAP2 SWAP1 PUSH2 0xFE0 JUMP JUMPDEST PUSH1 0x40 MLOAD DUP1 SWAP2 SUB SWAP1 REVERT JUMPDEST JUMP JUMPDEST PUSH0 DUP1 PUSH0 SWAP1 SLOAD SWAP1 PUSH2 0x100 EXP SWAP1 DIV PUSH20 0xFFFFFFFFFFFFFFFFFFFFFFFFFFFFFFFFFFFFFFFF AND SWAP1 POP DUP2 PUSH0 DUP1 PUSH2 0x100 EXP DUP2 SLOAD DUP2 PUSH20 0xFFFFFFFFFFFFFFFFFFFFFFFFFFFFFFFFFFFFFFFF MUL NOT AND SWAP1 DUP4 PUSH20 0xFFFFFFFFFFFFFFFFFFFFFFFFFFFFFFFFFFFFFFFF AND MUL OR SWAP1 SSTORE POP DUP2 PUSH20 0xFFFFFFFFFFFFFFFFFFFFFFFFFFFFFFFFFFFFFFFF AND DUP2 PUSH20 0xFFFFFFFFFFFFFFFFFFFFFFFFFFFFFFFFFFFFFFFF AND PUSH32 0x8BE0079C531659141344CD1FD0A4F28419497F9722A3DAAFE3B4186F6B6457E0 PUSH1 0x40 MLOAD PUSH1 0x40 MLOAD DUP1 SWAP2 SUB SWAP1 LOG3 POP POP JUMP JUMPDEST PUSH0 CALLER SWAP1 POP SWAP1 JUMP JUMPDEST PUSH0 DUP1 REVERT JUMPDEST PUSH0 DUP2 SWAP1 POP SWAP2 SWAP1 POP JUMP JUMPDEST PUSH2 0xE84 DUP2 PUSH2 0xE72 JUMP JUMPDEST DUP2 EQ PUSH2 0xE8E JUMPI PUSH0 DUP1 REVERT JUMPDEST POP JUMP JUMPDEST PUSH0 DUP2 CALLDATALOAD SWAP1 POP PUSH2 0xE9F DUP2 PUSH2 0xE7B JUMP JUMPDEST SWAP3 SWAP2 POP POP JUMP JUMPDEST PUSH0 PUSH1 0x20 DUP3 DUP5 SUB SLT ISZERO PUSH2 0xEBA JUMPI PUSH2 0xEB9 PUSH2 0xE6E JUMP JUMPDEST JUMPDEST PUSH0 PUSH2 0xEC7 DUP5 DUP3 DUP6 ADD PUSH2 0xE91 JUMP JUMPDEST SWAP2 POP POP SWAP3 SWAP2 POP POP JUMP JUMPDEST PUSH0 PUSH20 0xFFFFFFFFFFFFFFFFFFFFFFFFFFFFFFFFFFFFFFFF DUP3 AND SWAP1 POP SWAP2 SWAP1 POP JUMP JUMPDEST PUSH0 PUSH2 0xEF9 DUP3 PUSH2 0xED0 JUMP JUMPDEST SWAP1 POP SWAP2 SWAP1 POP JUMP JUMPDEST PUSH2 0xF09 DUP2 PUSH2 0xEEF JUMP JUMPDEST DUP3 MSTORE POP POP JUMP JUMPDEST PUSH2 0xF18 DUP2 PUSH2 0xE72 JUMP JUMPDEST DUP3 MSTORE POP POP JUMP JUMPDEST PUSH0 DUP2 ISZERO ISZERO SWAP1 POP SWAP2 SWAP1 POP JUMP JUMPDEST PUSH2 0xF32 DUP2 PUSH2 0xF1E JUMP JUMPDEST DUP3 MSTORE POP POP JUMP JUMPDEST PUSH0 PUSH1 0xA0 DUP3 ADD SWAP1 POP PUSH2 0xF4B PUSH0 DUP4 ADD DUP9 PUSH2 0xF00 JUMP JUMPDEST PUSH2 0xF58 PUSH1 0x20 DUP4 ADD DUP8 PUSH2 0xF00 JUMP JUMPDEST PUSH2 0xF65 PUSH1 0x40 DUP4 ADD DUP7 PUSH2 0xF0F JUMP JUMPDEST PUSH2 0xF72 PUSH1 0x60 DUP4 ADD DUP6 PUSH2 0xF29 JUMP JUMPDEST PUSH2 0xF7F PUSH1 0x80 DUP4 ADD DUP5 PUSH2 0xF29 JUMP JUMPDEST SWAP7 SWAP6 POP POP POP POP POP POP JUMP JUMPDEST PUSH0 DUP1 PUSH1 0x40 DUP4 DUP6 SUB SLT ISZERO PUSH2 0xF9F JUMPI PUSH2 0xF9E PUSH2 0xE6E JUMP JUMPDEST JUMPDEST PUSH0 PUSH2 0xFAC DUP6 DUP3 DUP7 ADD PUSH2 0xE91 JUMP JUMPDEST SWAP3 POP POP PUSH1 0x20 PUSH2 0xFBD DUP6 DUP3 DUP7 ADD PUSH2 0xE91 JUMP JUMPDEST SWAP2 POP POP SWAP3 POP SWAP3 SWAP1 POP JUMP JUMPDEST PUSH0 PUSH1 0x20 DUP3 ADD SWAP1 POP PUSH2 0xFDA PUSH0 DUP4 ADD DUP5 PUSH2 0xF0F JUMP JUMPDEST SWAP3 SWAP2 POP POP JUMP JUMPDEST PUSH0 PUSH1 0x20 DUP3 ADD SWAP1 POP PUSH2 0xFF3 PUSH0 DUP4 ADD DUP5 PUSH2 0xF00 JUMP JUMPDEST SWAP3 SWAP2 POP POP JUMP JUMPDEST PUSH2 0x1002 DUP2 PUSH2 0xEEF JUMP JUMPDEST DUP2 EQ PUSH2 0x100C JUMPI PUSH0 DUP1 REVERT JUMPDEST POP JUMP JUMPDEST PUSH0 DUP2 CALLDATALOAD SWAP1 POP PUSH2 0x101D DUP2 PUSH2 0xFF9 JUMP JUMPDEST SWAP3 SWAP2 POP POP JUMP JUMPDEST PUSH0 PUSH1 0x20 DUP3 DUP5 SUB SLT ISZERO PUSH2 0x1038 JUMPI PUSH2 0x1037 PUSH2 0xE6E JUMP JUMPDEST JUMPDEST PUSH0 PUSH2 0x1045 DUP5 DUP3 DUP6 ADD PUSH2 0x100F JUMP JUMPDEST SWAP2 POP POP SWAP3 SWAP2 POP POP JUMP JUMPDEST PUSH0 DUP1 PUSH1 0x40 DUP4 DUP6 SUB SLT ISZERO PUSH2 0x1064 JUMPI PUSH2 0x1063 PUSH2 0xE6E JUMP JUMPDEST JUMPDEST PUSH0 PUSH2 0x1071 DUP6 DUP3 DUP7 ADD PUSH2 0x100F JUMP JUMPDEST SWAP3 POP POP PUSH1 0x20 PUSH2 0x1082 DUP6 DUP3 DUP7 ADD PUSH2 0xE91 JUMP JUMPDEST SWAP2 POP POP SWAP3 POP SWAP3 SWAP1 POP JUMP JUMPDEST PUSH0 DUP2 SWAP1 POP SWAP2 SWAP1 POP JUMP JUMPDEST PUSH0 PUSH2 0x10AF PUSH2 0x10AA PUSH2 0x10A5 DUP5 PUSH2 0xED0 JUMP JUMPDEST PUSH2 0x108C JUMP JUMPDEST PUSH2 0xED0 JUMP JUMPDEST SWAP1 POP SWAP2 SWAP1 POP JUMP JUMPDEST PUSH0 PUSH2 0x10C0 DUP3 PUSH2 0x1095 JUMP JUMPDEST SWAP1 POP SWAP2 SWAP1 POP JUMP JUMPDEST PUSH0 PUSH2 0x10D1 DUP3 PUSH2 0x10B6 JUMP JUMPDEST SWAP1 POP SWAP2 SWAP1 POP JUMP JUMPDEST PUSH2 0x10E1 DUP2 PUSH2 0x10C7 JUMP JUMPDEST DUP3 MSTORE POP POP JUMP JUMPDEST PUSH0 PUSH1 0x20 DUP3 ADD SWAP1 POP PUSH2 0x10FA PUSH0 DUP4 ADD DUP5 PUSH2 0x10D8 JUMP JUMPDEST SWAP3 SWAP2 POP POP JUMP JUMPDEST PUSH0 DUP3 DUP3 MSTORE PUSH1 0x20 DUP3 ADD SWAP1 POP SWAP3 SWAP2 POP POP JUMP JUMPDEST PUSH32 0x4E6F2066756E6473206465706F736974656420666F722074686973206465616C PUSH0 DUP3 ADD MSTORE POP JUMP JUMPDEST PUSH0 PUSH2 0x1144 PUSH1 0x20 DUP4 PUSH2 0x1100 JUMP JUMPDEST SWAP2 POP PUSH2 0x114F DUP3 PUSH2 0x1110 JUMP JUMPDEST PUSH1 0x20 DUP3 ADD SWAP1 POP SWAP2 SWAP1 POP JUMP JUMPDEST PUSH0 PUSH1 0x20 DUP3 ADD SWAP1 POP DUP2 DUP2 SUB PUSH0 DUP4 ADD MSTORE PUSH2 0x1171 DUP2 PUSH2 0x1138 JUMP JUMPDEST SWAP1 POP SWAP2 SWAP1 POP JUMP JUMPDEST PUSH32 0x4465616C20697320616C726561647920636F6D706C6574656400000000000000 PUSH0 DUP3 ADD MSTORE POP JUMP JUMPDEST PUSH0 PUSH2 0x11AC PUSH1 0x19 DUP4 PUSH2 0x1100 JUMP JUMPDEST SWAP2 POP PUSH2 0x11B7 DUP3 PUSH2 0x1178 JUMP JUMPDEST PUSH1 0x20 DUP3 ADD SWAP1 POP SWAP2 SWAP1 POP JUMP JUMPDEST PUSH0 PUSH1 0x20 DUP3 ADD SWAP1 POP DUP2 DUP2 SUB PUSH0 DUP4 ADD MSTORE PUSH2 0x11D9 DUP2 PUSH2 0x11A0 JUMP JUMPDEST SWAP1 POP SWAP2 SWAP1 POP JUMP JUMPDEST PUSH32 0x4E487B7100000000000000000000000000000000000000000000000000000000 PUSH0 MSTORE PUSH1 0x11 PUSH1 0x4 MSTORE PUSH1 0x24 PUSH0 REVERT JUMPDEST PUSH0 PUSH2 0x1217 DUP3 PUSH2 0xE72 JUMP JUMPDEST SWAP2 POP PUSH2 0x1222 DUP4 PUSH2 0xE72 JUMP JUMPDEST SWAP3 POP DUP3 DUP3 MUL PUSH2 0x1230 DUP2 PUSH2 0xE72 JUMP JUMPDEST SWAP2 POP DUP3 DUP3 DIV DUP5 EQ DUP4 ISZERO OR PUSH2 0x1247 JUMPI PUSH2 0x1246 PUSH2 0x11E0 JUMP JUMPDEST JUMPDEST POP SWAP3 SWAP2 POP POP JUMP JUMPDEST PUSH32 0x4E487B7100000000000000000000000000000000000000000000000000000000 PUSH0 MSTORE PUSH1 0x12 PUSH1 0x4 MSTORE PUSH1 0x24 PUSH0 REVERT JUMPDEST PUSH0 PUSH2 0x1285 DUP3 PUSH2 0xE72 JUMP JUMPDEST SWAP2 POP PUSH2 0x1290 DUP4 PUSH2 0xE72 JUMP JUMPDEST SWAP3 POP DUP3 PUSH2 0x12A0 JUMPI PUSH2 0x129F PUSH2 0x124E JUMP JUMPDEST JUMPDEST DUP3 DUP3 DIV SWAP1 POP SWAP3 SWAP2 POP POP JUMP JUMPDEST PUSH0 PUSH2 0x12B5 DUP3 PUSH2 0xE72 JUMP JUMPDEST SWAP2 POP PUSH2 0x12C0 DUP4 PUSH2 0xE72 JUMP JUMPDEST SWAP3 POP DUP3 DUP3 SUB SWAP1 POP DUP2 DUP2 GT ISZERO PUSH2 0x12D8 JUMPI PUSH2 0x12D7 PUSH2 0x11E0 JUMP JUMPDEST JUMPDEST SWAP3 SWAP2 POP POP JUMP JUMPDEST PUSH0 PUSH1 0x40 DUP3 ADD SWAP1 POP PUSH2 0x12F1 PUSH0 DUP4 ADD DUP6 PUSH2 0xF00 JUMP JUMPDEST PUSH2 0x12FE PUSH1 0x20 DUP4 ADD DUP5 PUSH2 0xF0F JUMP JUMPDEST SWAP4 SWAP3 POP POP POP JUMP JUMPDEST PUSH2 0x130E DUP2 PUSH2 0xF1E JUMP JUMPDEST DUP2 EQ PUSH2 0x1318 JUMPI PUSH0 DUP1 REVERT JUMPDEST POP JUMP JUMPDEST PUSH0 DUP2 MLOAD SWAP1 POP PUSH2 0x1329 DUP2 PUSH2 0x1305 JUMP JUMPDEST SWAP3 SWAP2 POP POP JUMP JUMPDEST PUSH0 PUSH1 0x20 DUP3 DUP5 SUB SLT ISZERO PUSH2 0x1344 JUMPI PUSH2 0x1343 PUSH2 0xE6E JUMP JUMPDEST JUMPDEST PUSH0 PUSH2 0x1351 DUP5 DUP3 DUP6 ADD PUSH2 0x131B JUMP JUMPDEST SWAP2 POP POP SWAP3 SWAP2 POP POP JUMP JUMPDEST PUSH32 0x5472616E7366657220746F20696D706C656D656E746572206661696C65640000 PUSH0 DUP3 ADD MSTORE POP JUMP JUMPDEST PUSH0 PUSH2 0x138E PUSH1 0x1E DUP4 PUSH2 0x1100 JUMP JUMPDEST SWAP2 POP PUSH2 0x1399 DUP3 PUSH2 0x135A JUMP JUMPDEST PUSH1 0x20 DUP3 ADD SWAP1 POP SWAP2 SWAP1 POP JUMP JUMPDEST PUSH0 PUSH1 0x20 DUP3 ADD SWAP1 POP DUP2 DUP2 SUB PUSH0 DUP4 ADD MSTORE PUSH2 0x13BB DUP2 PUSH2 0x1382 JUMP JUMPDEST SWAP1 POP SWAP2 SWAP1 POP JUMP JUMPDEST PUSH32 0x526566756E6420746F20636C69656E74206661696C6564000000000000000000 PUSH0 DUP3 ADD MSTORE POP JUMP JUMPDEST PUSH0 PUSH2 0x13F6 PUSH1 0x17 DUP4 PUSH2 0x1100 JUMP JUMPDEST SWAP2 POP PUSH2 0x1401 DUP3 PUSH2 0x13C2 JUMP JUMPDEST PUSH1 0x20 DUP3 ADD SWAP1 POP SWAP2 SWAP1 POP JUMP JUMPDEST PUSH0 PUSH1 0x20 DUP3 ADD SWAP1 POP DUP2 DUP2 SUB PUSH0 DUP4 ADD MSTORE PUSH2 0x1423 DUP2 PUSH2 0x13EA JUMP JUMPDEST SWAP1 POP SWAP2 SWAP1 POP JUMP JUMPDEST PUSH32 0x526566756E64206661696C656400000000000000000000000000000000000000 PUSH0 DUP3 ADD MSTORE POP JUMP JUMPDEST PUSH0 PUSH2 0x145E PUSH1 0xD DUP4 PUSH2 0x1100 JUMP JUMPDEST SWAP2 POP PUSH2 0x1469 DUP3 PUSH2 0x142A JUMP JUMPDEST PUSH1 0x20 DUP3 ADD SWAP1 POP SWAP2 SWAP1 POP JUMP JUMPDEST PUSH0 PUSH1 0x20 DUP3 ADD SWAP1 POP DUP2 DUP2 SUB PUSH0 DUP4 ADD MSTORE PUSH2 0x148B DUP2 PUSH2 0x1452 JUMP JUMPDEST SWAP1 POP SWAP2 SWAP1 POP JUMP JUMPDEST PUSH32 0x4F6E6C792074686520636C69656E742063616E206465706F73697420746F6B65 PUSH0 DUP3 ADD MSTORE PUSH32 0x6E7320666F7220746865206465616C2E00000000000000000000000000000000 PUSH1 0x20 DUP3 ADD MSTORE POP JUMP JUMPDEST PUSH0 PUSH2 0x14EC PUSH1 0x30 DUP4 PUSH2 0x1100 JUMP JUMPDEST SWAP2 POP PUSH2 0x14F7 DUP3 PUSH2 0x1492 JUMP JUMPDEST PUSH1 0x40 DUP3 ADD SWAP1 POP SWAP2 SWAP1 POP JUMP JUMPDEST PUSH0 PUSH1 0x20 DUP3 ADD SWAP1 POP DUP2 DUP2 SUB PUSH0 DUP4 ADD MSTORE PUSH2 0x1519 DUP2 PUSH2 0x14E0 JUMP JUMPDEST SWAP1 POP SWAP2 SWAP1 POP JUMP JUMPDEST PUSH0 PUSH1 0x60 DUP3 ADD SWAP1 POP PUSH2 0x1533 PUSH0 DUP4 ADD DUP7 PUSH2 0xF00 JUMP JUMPDEST PUSH2 0x1540 PUSH1 0x20 DUP4 ADD DUP6 PUSH2 0xF00 JUMP JUMPDEST PUSH2 0x154D PUSH1 0x40 DUP4 ADD DUP5 PUSH2 0xF0F JUMP JUMPDEST SWAP5 SWAP4 POP POP POP POP JUMP JUMPDEST PUSH32 0x546F6B656E207472616E73666572206661696C65640000000000000000000000 PUSH0 DUP3 ADD MSTORE POP JUMP JUMPDEST PUSH0 PUSH2 0x1589 PUSH1 0x15 DUP4 PUSH2 0x1100 JUMP JUMPDEST SWAP2 POP PUSH2 0x1594 DUP3 PUSH2 0x1555 JUMP JUMPDEST PUSH1 0x20 DUP3 ADD SWAP1 POP SWAP2 SWAP1 POP JUMP JUMPDEST PUSH0 PUSH1 0x20 DUP3 ADD SWAP1 POP DUP2 DUP2 SUB PUSH0 DUP4 ADD MSTORE PUSH2 0x15B6 DUP2 PUSH2 0x157D JUMP JUMPDEST SWAP1 POP SWAP2 SWAP1 POP JUMP JUMPDEST PUSH32 0x4465616C20697320616C726561647920636F6D706C657465642E000000000000 PUSH0 DUP3 ADD MSTORE POP JUMP JUMPDEST PUSH0 PUSH2 0x15F1 PUSH1 0x1A DUP4 PUSH2 0x1100 JUMP JUMPDEST SWAP2 POP PUSH2 0x15FC DUP3 PUSH2 0x15BD JUMP JUMPDEST PUSH1 0x20 DUP3 ADD SWAP1 POP SWAP2 SWAP1 POP JUMP JUMPDEST PUSH0 PUSH1 0x20 DUP3 ADD SWAP1 POP DUP2 DUP2 SUB PUSH0 DUP4 ADD MSTORE PUSH2 0x161E DUP2 PUSH2 0x15E5 JUMP JUMPDEST SWAP1 POP SWAP2 SWAP1 POP JUMP JUMPDEST PUSH0 PUSH2 0x162F DUP3 PUSH2 0xE72 JUMP JUMPDEST SWAP2 POP PUSH32 0xFFFFFFFFFFFFFFFFFFFFFFFFFFFFFFFFFFFFFFFFFFFFFFFFFFFFFFFFFFFFFFFF DUP3 SUB PUSH2 0x1661 JUMPI PUSH2 0x1660 PUSH2 0x11E0 JUMP JUMPDEST JUMPDEST PUSH1 0x1 DUP3 ADD SWAP1 POP SWAP2 SWAP1 POP JUMP INVALID LOG2 PUSH5 0x6970667358 0x22 SLT KECCAK256 JUMPI 0xA6 PUSH29 0xF5E83C0FEF861929EC2154B943B63AA1DD03DBD2DACB4CC1F9FB161256 PUSH5 0x736F6C6343 STOP ADDMOD NOT STOP CALLER "
				},
				"gasEstimates": {
					"creation": {
						"codeDepositCost": "1158800",
						"executionCost": "infinite",
						"totalCost": "infinite"
					},
					"external": {
						"completeDeal(uint256)": "infinite",
						"createDeal(address,uint256)": "infinite",
						"deals(uint256)": "infinite",
						"denyDeal(uint256)": "infinite",
						"depositTokens(uint256)": "infinite",
						"finalizeDeal(uint256,uint256)": "infinite",
						"nextDealId()": "2470",
						"owner()": "2515",
						"renounceOwnership()": "infinite",
						"token()": "infinite",
						"transferOwnership(address)": "infinite"
					}
				},
				"methodIdentifiers": {
					"completeDeal(uint256)": "dec3456b",
					"createDeal(address,uint256)": "f4784c2d",
					"deals(uint256)": "03988f84",
					"denyDeal(uint256)": "61fb99a3",
					"depositTokens(uint256)": "dd49756e",
					"finalizeDeal(uint256,uint256)": "2f01e767",
					"nextDealId()": "4d9879e3",
					"owner()": "8da5cb5b",
					"renounceOwnership()": "715018a6",
					"token()": "fc0c546a",
					"transferOwnership(address)": "f2fde38b"
				}
			},
			"storageLayout": {
				"storage": [
					{
						"astId": 8,
						"contract": "contracts/EscrowAlpha.sol:EscrowContract",
						"label": "_owner",
						"offset": 0,
						"slot": "0",
						"type": "t_address"
					},
					{
						"astId": 274,
						"contract": "contracts/EscrowAlpha.sol:EscrowContract",
						"label": "nextDealId",
						"offset": 0,
						"slot": "1",
						"type": "t_uint256"
					},
					{
						"astId": 279,
						"contract": "contracts/EscrowAlpha.sol:EscrowContract",
						"label": "deals",
						"offset": 0,
						"slot": "2",
						"type": "t_mapping(t_uint256,t_struct(Deal)272_storage)"
					},
					{
						"astId": 282,
						"contract": "contracts/EscrowAlpha.sol:EscrowContract",
						"label": "token",
						"offset": 0,
						"slot": "3",
						"type": "t_contract(IERC20)225"
					}
				],
				"types": {
					"t_address": {
						"encoding": "inplace",
						"label": "address",
						"numberOfBytes": "20"
					},
					"t_bool": {
						"encoding": "inplace",
						"label": "bool",
						"numberOfBytes": "1"
					},
					"t_contract(IERC20)225": {
						"encoding": "inplace",
						"label": "contract IERC20",
						"numberOfBytes": "20"
					},
					"t_mapping(t_uint256,t_struct(Deal)272_storage)": {
						"encoding": "mapping",
						"key": "t_uint256",
						"label": "mapping(uint256 => struct EscrowContract.Deal)",
						"numberOfBytes": "32",
						"value": "t_struct(Deal)272_storage"
					},
					"t_struct(Deal)272_storage": {
						"encoding": "inplace",
						"label": "struct EscrowContract.Deal",
						"members": [
							{
								"astId": 263,
								"contract": "contracts/EscrowAlpha.sol:EscrowContract",
								"label": "client",
								"offset": 0,
								"slot": "0",
								"type": "t_address"
							},
							{
								"astId": 265,
								"contract": "contracts/EscrowAlpha.sol:EscrowContract",
								"label": "implementer",
								"offset": 0,
								"slot": "1",
								"type": "t_address"
							},
							{
								"astId": 267,
								"contract": "contracts/EscrowAlpha.sol:EscrowContract",
								"label": "amount",
								"offset": 0,
								"slot": "2",
								"type": "t_uint256"
							},
							{
								"astId": 269,
								"contract": "contracts/EscrowAlpha.sol:EscrowContract",
								"label": "dealCompleted",
								"offset": 0,
								"slot": "3",
								"type": "t_bool"
							},
							{
								"astId": 271,
								"contract": "contracts/EscrowAlpha.sol:EscrowContract",
								"label": "fundsDeposited",
								"offset": 1,
								"slot": "3",
								"type": "t_bool"
							}
						],
						"numberOfBytes": "128"
					},
					"t_uint256": {
						"encoding": "inplace",
						"label": "uint256",
						"numberOfBytes": "32"
					}
				}
			},
			"userdoc": {
				"kind": "user",
				"methods": {},
				"version": 1
			}
		}
	}
}